:020000040800F2
:10000000902E0020854800081D0300080D8E000872
:100010001F03000823030008270300080000000056
:100020000000000000000000000000002B0300089A
:100030002D03000800000000978D000897020008BB
:100040009F4800089F4800089F480008291D010894
:100050009F4800089F480008271801084718010812
:100060006718010887180108A71801089F480008A9
:100070009F4800089F4800089F480008990600080C
:100080009F4800089F4800089F4800089F480008B4
:100090009F4800089F4800089F480008C7180108AB
:1000A0009F4800089F4800089F4800089F48000894
:1000B0009F4800089F4800089F4800089F48000884
:1000C0009F4800089F4800089F4800089F48000874
:1000D0009F480008870600089F4800089F480008BE
:1000E000451901089F4800089F4800089F480008DC
:1000F0009F4800089F4800089F4800089F48000844
:100100009F4800089F4800089F4800089F48000833
:100110009F4800089F4800089F4800089F48000823
:100120009F4800089F4800089F4800089F48000813
:10013000DFF80CD014F0AAFD0048004723020008A5
:10014000902E0020002410F079F80AE0641C10F0D2
:1001500093F8142008F07BF810F094F8142008F0BD
:1001600076F8F3E710B5044610F04AF810BD7FB5F5
:10017000052014214FF40072114BCDE90032CDE976
:10018000021000230F4A10A1104807F082FE054616
:1001900015B90E4807F0D5FE142008210B020022E5
:1001A000CDE90010AFF2430109A007F01CFF04469F
:1001B00014B1204607F0C5FE002004B070BD000059
:1001C00018070020450100086C656400180900202C
:1001D000696E69740000000004460D4614A006F024
:1001E000F8FC21461CA006F0F4FC29461FA006F0EE
:1001F000F0FC00BFFEE710B500F055F806F019FD61
:100200001F49204806F0D0FE07F050FC08F078FAAD
:1002100008F082FAFFF7ABFF04F064FD07F062FC20
:1002200010BD10B508F0A0FDFFF7E5FF002010BDE0
:100230000A0D2057726F6E6720706172616D657470
:1002400065722076616C756520646574656374659C
:1002500064206F6E0D0A00002020202020202066E0
:10026000696C65202025730D0A00000020202020E5
:100270002020206C696E65202025640D0A00000096
:1002800000000120902E002010B500214FF00060EA
:1002900004F070FA10BD10B506F096F804F013FBE8
:1002A00006F0A9F810BD70B5FFF7EEFF164800681C
:1002B0006422B0FBF2F1481EB0F1807F00D31BE056
:1002C000481E4FF0E022506150170F22002807DA35
:1002D00013071D0E0D4B00F00F04241F1D5503E0E6
:1002E00013071C0E0A4B1C5400BF00204FF0E022E5
:1002F00090610720106100BF00F036FA05A006F0FB
:10030000E3FC0FF073FF70BD1800002018ED00E053
:1003100000E400E07561727431000000704700BFB6
:10032000FEE700BFFEE700BFFEE770477047000032
:100330007FB505460C4625B94522F649F6A006F0DC
:100340004EFD24B94622F349F8A006F048FDEE6BB5
:1003500020680090207900F00F00082803D10020C9
:10036000ADF8040008E0207900F00F00092803D15F
:100370004FF48050ADF804002079C0F3011018B993
:100380000020ADF8060007E02079C0F30110012835
:1003900002D14003ADF806002079C0F3811018B9EE
:1003A0000020ADF8080011E02079C0F38110012889
:1003B00004D14FF4C060ADF8080007E02079C0F325
:1003C0008110022802D14002ADF808000020ADF8EB
:1003D0000C000C20ADF80A006946306802F035FECA
:1003E0000121306802F075FF002004B070BD70B5C7
:1003F0008CB00546EC6BEE6C012240F22441206883
:1004000002F094FF0121084600F09CFD012102202A
:1004100000F098FDA06803F0A1FC2068001D019089
:100420003068029000200390A86CC0F38F200490E5
:1004300000200590802006900020079008900990E9
:100440004FF400500A9000200B9001A9A06803F01F
:100450005CFDE06804F00EF801220221A06803F0C0
:1004600091FE01224021206803F00AF80121A068D2
:1004700003F01AFE207C8DF8000000208DF80100AA
:1004800001208DF802008DF80300684604F023F97E
:100490000CB070BD2DE9F04105460E461746B84632
:1004A00025B96F22A5499CA006F099FCEC6B032EA0
:1004B00029D0102E13D0112E2CD194F9040000F065
:1004C0001F02012191409E4A430942F8231000BFB8
:1004D000002240F22551206802F028FF1AE094F92A
:1004E000040000F01F02012191404209920002F134
:1004F000E022C2F8001100BF012240F2255120681D
:1005000002F014FF06E0B8F5007F02D12846FFF79D
:100510006EFF00BF00BF0020BDE8F08170B504464B
:100520000E4624B9902287497BA006F058FCE56B63
:100530002868868000BF2868008800F040000028F6
:10054000F9D0012070BD70B5044624B99E227E49C1
:1005500071A006F044FCE56B4FF0FF362868008878
:1005600000F0200010B128688088C6B2304670BD07
:100570002DE9F0410646F46B0021A06803F094FDDC
:10058000A06803F090FEB16CC1F38F210D1A606971
:10059000A84202D260692F1A00E02F46656103204D
:1005A00040EA0721304609F044F8206803F0AAF831
:1005B000E06803F05FFF0121A06803F075FDBDE86E
:1005C000F0812DE9F0410546EC6B0021A06803F0B5
:1005D0006BFDA06803F067FEA96CC1F38F210E1AB2
:1005E0006069B04202D26069371A00E0374666613E
:1005F000032040EA0721284609F01BF8E06803F0D1
:1006000039FFAA6CC2F38F21A06803F012FE01210A
:10061000A06803F049FDBDE8F08170B50546EC6BBC
:1006200024B9E82249494AA006F0D9FB40F22551F5
:10063000206803F0AEFA40B10121284608F0F9FF26
:1006400040F22551206803F030FB40F2244120683D
:1006500003F09FFA10B12846FFF78AFF40F22661A7
:10066000206803F096FA20B140F22661206803F07A
:100670001CFB0821206803F0FDF9012802D128465F
:10068000FFF761FF70BD10B505F09EFE3448FFF71F
:10069000C4FF05F0B0FE10BD10B505F095FE304862
:1006A000FFF78FFF05F0A7FE10BD10B50121052053
:1006B00000F073FC0121880300F06FFC10BD08B549
:1006C00002208DF8020004208DF803000002ADF82E
:1006D00000006946234801F09BFF18208DF80300B5
:1006E0004FF40070ADF8000069461E4801F090FF1D
:1006F00008BD38B5044620798DF8000000208DF83B
:1007000001008DF8020001208DF80300684603F017
:10071000E2FF38BDE856010873657269616C2021FB
:100720003D2052545F4E554C4C00000063666720DC
:10073000213D2052545F4E554C4C0000F8560108A4
:1007400080E100E006570108115701081C57010815
:100750007561727420213D2052545F4E554C4C00FF
:1007600098090020000801401CB50F4903C9CDE9D4
:100770000001FFF79AFFFFF7A2FF0C4C4FF4E130A6
:1007800000900B480B4908640846DDE90012C0E9F7
:1007900011122046FFF7ADFF234640F2033206A1B7
:1007A000044808F020FF1CBD285701080000002065
:1007B000D456010898090020756172743100000058
:1007C0000CB50020019000906C48006840F4803027
:1007D0006A49086000BF6948006800F40030009072
:1007E0000198401C0190009818B90198B0F5A06FCD
:1007F000F1D16248006800F4003010B1012000908F
:1008000001E0002000900098012843D15C48006876
:1008100040F010005A4908600846006820F00300C4
:1008200008600846006840F00200086053484068CD
:10083000524948600846406848600846406840F4AD
:10084000806048600846406820F47C104860084694
:10085000406840F4E81048600846006840F0807046
:10086000086000BF4548006800F000700028F9D01B
:100870004248406820F0030040494860084640680C
:1008800040F00200486000BF3C48406800F00C00A7
:100890000828F9D10CBD10B5FFF792FF10BD10B5B7
:1008A0003648006840F00100344908600846406856
:1008B00034490840314948600846006832490840D8
:1008C0002E4908600846006820F480200860084629
:1008D000406820F4FE0048604FF41F008860FFF776
:1008E000DAFF4FF000602949086010BD10B5002103
:1008F00000200022214B5B6803F00C0121B1042988
:1009000006D0082928D107E0214B224C236027E09C
:100910001F4B204C236023E0184B5B6803F47010DE
:10092000164B5B6803F48032022303EB904022B93C
:10093000194B4343174C23600DE0104B5B6803F4E5
:10094000003323B1144B4343124C236003E0104B9C
:100950004343104C236003E00D4B0E4C236000BF5B
:1009600000BF064B5B68C3F303130C4CE15C094BFF
:100970001B68CB40074C236010BD000000100240F4
:10098000002002400000FFF8FFFFF6FE08ED00E047
:1009900000127A001800002000093D001C00002011
:1009A000FE48006840F00100FC49086008464068C5
:1009B000FB490840F949486008460068F949084081
:1009C000F64908600846006820F480200860084660
:1009D000406820F4FE0048604FF41F0088607047B4
:1009E00010B504462CB1B4F5803F02D0B4F5802F89
:1009F00000D104E040F21111EBA0FFF7EDFBE74856
:100A0000006820F48030E54908600846006820F45A
:100A100080200860B4F5803F03D0B4F5802F0ED15C
:100A200006E0DE48006840F48030DC49086007E0FA
:100A3000DA48006840F4A020D849086000E000BF10
:100A400000BF10BD2DE9F041044600250026002717
:100A5000212C13D0312C11D0392C0FD0412C0DD09A
:100A6000612C0BD07A2C09D07B2C07D07C2C05D0A4
:100A70007D2C03D07E2C01D07F2C00D104E040F2ED
:100A80003451C9A0FFF7A8FB6511012D02D1C3485D
:100A9000066806E0022D02D1C048066A01E0BF48A0
:100AA000466A04F01F050120A840304008B1012724
:100AB00000E000273846BDE8F08138B500200090FE
:100AC0000024002500BF3120FFF7BCFF0546009839
:100AD000401C00900098B0F5A06F01D0002DF2D01E
:100AE0003120FFF7AFFF08B1012400E000242046C9
:100AF00038BD70B5044600251F2C00DC04E04FF41F
:100B0000A971A9A0FFF768FBA448056825F0F805BE
:100B100045EAC405056070BD10B504460CB1012C52
:100B200000D104E040F265119FA0FFF755FBAD48EE
:100B3000046010BD70B505460C4600262DB1B5F514
:100B4000803F02D0B5F5403F00D104E040F27F1174
:100B500095A0FFF741FB4CB3B4F5802F26D0B4F538
:100B6000002F23D0B4F5402F20D0B4F5801F1DD026
:100B7000B4F5A01F1AD0B4F5C01F17D0B4F5E01F0C
:100B800014D0B4F5001F11D0B4F5101F0ED0B4F579
:100B9000201F0BD0B4F5301F08D0B4F5401F05D08E
:100BA000B4F5501F02D0B4F5601F00D104E04FF43B
:100BB000C0717DA0FFF710FB7848466826F47C16CC
:100BC00045EA040006437548466070BD10B504460A
:100BD0000CB1012C00D104E04FF4CA7172A0FFF7F0
:100BE000FBFA8048046610BD70B5044600251CB1B0
:100BF000012C01D0022C00D104E04FF40E716AA048
:100C0000FFF7EAFA6548456825F003052543456086
:100C100070BD6248406800F00C00704770B5044633
:100C200000257CB1802C0DD0902C0BD0A02C09D0AD
:100C3000B02C07D0C02C05D0D02C03D0E02C01D094
:100C4000F02C00D104E04FF4197157A0FFF7C4FA5B
:100C50005248456825F0F0052543456070BD70B5E4
:100C6000044600255CB1B4F5806F08D0B4F5A06FE0
:100C700005D0B4F5C06F02D0B4F5E06F00D104E048
:100C800040F27E2148A0FFF7A7FA4448456825F4C2
:100C9000E0652543456070BD70B5044600255CB134
:100CA000B4F5806F08D0B4F5A06F05D0B4F5C06F6F
:100CB00002D0B4F5E06F00D104E04FF426713AA001
:100CC000FFF78AFA3548456825F4605545EAC405BA
:100CD000456070BD70B504460D4604F0E00008B9EB
:100CE00004B104E040F2BF212FA0FFF775FA0DB167
:100CF000012D00D104E04FF430712BA0FFF76CFA06
:100D00002DB12648407A20432449487204E0234804
:100D1000407AA0432149487270BD10B504460CB119
:100D2000012C00D104E040F2DB211FA0FFF754FAB0
:100D30002C48D830046010BD70B50446002544B17D
:100D4000B4F5804F05D0B4F5004F02D0B4F5404F54
:100D500000D104E040F2023113A0FFF73DFA0F4842
:100D6000456825F440452543456070BD10B50446EF
:100D70001CB1012C01D0042C00D104E04FF45071BF
:100D800009A0FFF729FA002004492031087003491F
:100D900081F82000012C29D0042C25E0001002400D
:100DA0000000FFF8FFFFF6FE4C6962726172696530
:100DB000735C53544D3332463130785F5374645012
:100DC00065726970685F4472697665725C7372639C
:100DD0005C73746D3332663130785F7263632E6397
:100DE000000000000000424208D103E00120F44965
:100DF000087004E00520F249087000E000BF00BF61
:100E000010BD10B504460CB1012C00D105E040F234
:100E10006131AFF26C00FFF7DFF9EA48046010BD02
:100E200010B50446B4F5807F05D0B4F5007F02D03C
:100E3000B4F5407F00D105E040F27231AFF2980086
:100E4000FFF7CAF9DE482038006A2043DC49203920
:100E5000086210BD10B504460CB1012C00D105E0AC
:100E60004FF46071AFF2C000FFF7B6F9D5484438CF
:100E7000046010BD30B50021002200240023D04DB5
:100E8000203D6D6805F00C0121B1042905D0082929
:100E900026D105E0CC4D056025E0CB4D056022E074
:100EA000C74D203D6D6805F47012C54D203D6D683D
:100EB00005F48034022505EB92421CB9C34D55431D
:100EC00005600CE0BE4D203D6D6805F400351DB198
:100ED000BE4D5543056002E0BB4D5543056002E041
:100EE000B94D056000BF00BFB54D203D6D6805F0F0
:100EF000F0010909B64D6B5C0568DD404560B04DF9
:100F0000203D6D6805F4E061090AB14D6B5C4568F0
:100F1000DD408560AA4D203D6D6805F46051C90A29
:100F2000AB4D6B5C4568DD40C560A54D203D6D68EF
:100F300005F44041890BA74D6B5CC568B5FBF3F523
:100F4000056130BD70B504460D4640F2575024EAA5
:100F5000000008B904B105E040F22B41AFF2B8102F
:100F6000FFF73AF90DB1012D00D105E040F22C4117
:100F7000AFF2CC10FFF730F93DB19148203840690D
:100F800020438F492039486106E08D482038406968
:100F9000A0438B492039486170BD70B504460D46A9
:100FA0008D48204008B904B105E040F24A41AFF253
:100FB0000820FFF711F90DB1012D00D105E040F235
:100FC0004B41AFF21C20FFF707F93DB17C482038B8
:100FD000806920437A492039886106E078482038C2
:100FE0008069A04376492039886170BD70B5044698
:100FF0000D467A48204008B904B105E040F2694145
:10100000AFF25C20FFF7E8F80DB1012D00D105E04B
:1010100040F26A41AFF27020FFF7DEF83DB1684858
:101020002038C069204366492039C86106E0644819
:101030002038C069A04362492039C86170BD70B5CD
:1010400004460D466448204008B904B105E040F26A
:10105000A441AFF2AC20FFF7BFF80DB1012D00D1D4
:1010600005E040F2A541AFF2C020FFF7B5F83DB171
:1010700053482038C068204351492039C86006E0F1
:101080004F482038C068A0434D492039C86070BD22
:1010900070B504460D465148204008B904B105E03A
:1010A00040F2C341AFF20030FFF796F80DB1012DC9
:1010B00000D105E040F2C441AFF21430FFF78CF8E4
:1010C0003DB13F482038006920433D49203908613F
:1010D00006E03B4820380069A043394920390861BF
:1010E00070BD10B504460CB1012C00D105E04FF4E1
:1010F0009B61AFF24C30FFF76FF832484038046024
:1011000010BD10B504460CB1012C00D105E040F231
:10111000E541AFF26C30FFF75FF83148C46410BDB1
:1011200010B504463CB1052C05D0042C03D0062C88
:1011300001D0072C00D105E040F20551AFF2983004
:10114000FFF74AF81E482038C47110BD1C482038EB
:10115000406A40F080701A4920394862704770B583
:1011600004460025012C09D0022C07D0042C05D000
:10117000082C03D0102C01D0802C00D105E040F2C7
:101180007E51AFF2DC30FFF727F80D482038806839
:10119000204008B1012500E00025284670BD10B5AB
:1011A000044604F0600008B904B105E040F2AB5118
:1011B000AFF20C40FFF710F801482038847210BDE0
:1011C000201002408004424200127A0000093D00D3
:1011D0002C0000203C0000200200C0FF00360181EE
:1011E0000000424210B501210807FFF751FF00211E
:1011F0004FF08050FFF74CFF10BD10B504460CB106
:10120000012C00D103E07F2155A0FEF7E5FF6348E4
:10121000046210BD10B504460CB1012C00D103E0EE
:101220008C214FA0FEF7D8FF5C48046110BD70B55B
:10123000044600256CB1202C0BD0402C09D0602C2A
:1012400007D0802C05D0A02C03D0C02C01D0E02CDE
:1012500000D103E0A22142A0FEF7BEFF504805687E
:1012600025F0E0052543056070BD10B504460CB1BE
:10127000012C00D103E0B52139A0FEF7ADFF4748AE
:10128000A030046010BD70B504460D4600260CB1B8
:10129000012C00D103E0C92131A0FEF79DFF012DF3
:1012A00001D0022D00D103E0CA212DA0FEF794FF4A
:1012B0003B48066826F00306264306603948006866
:1012C00040F0040037490860012D01D130BF00E033
:1012D00020BF3448006820F004003249086070BD27
:1012E0002F48006840F004002D4908600846006857
:1012F00040F0020008602B48006840F004002949D3
:10130000086000BF00BF30BF704770B504460025BD
:10131000012C03D0022C01D0042C00D104E040F2B7
:1013200009110FA0FEF758FF1D484068204008B182
:10133000012500E00025284670BD10B50446012CAB
:1013400001D0022C00D104E04FF4917104A0FEF70B
:1013500043FF1348006840EA84001149086010BD4B
:101360004C69627261726965735C53544D333246E5
:101370003130785F5374645065726970685F44728D
:10138000697665725C7372635C73746D3332663157
:1013900030785F7077722E630000000000000E420C
:1013A0000070004010ED00E00020A7490860091D12
:1013B0000860091D0860091D0860A448A24914318D
:1013C0000860704770B504460025207910B1207977
:1013D000042800D103E06A219DA0FEF7FDFE60799C
:1013E000082805D060790C2802D06079102800D137
:1013F00003E06B2196A0FEF7EFFE20686FF3130069
:1014000010B9206800B103E06C2191A0FEF7E4FE62
:10141000A07910B1A079012800D103E06D218CA042
:10142000FEF7DAFE884DA07990B32846006821685F
:10143000884329460860081D006821688843291DE3
:1014400008602079054428682168084328607E48A0
:1014500008300068216888437B4908310860081D0E
:1014600000682168884378490C3108606079102849
:101470000FD1081F006821680843734908310860CC
:10148000081D0068216808436F490C3108600EE0B0
:1014900007E06D4D6079054428682168084328609D
:1014A00005E020790544286821688843286070BDDC
:1014B0000021016001710C2141710021817170478F
:1014C00010B50446200D000508B904B103E0AE21B3
:1014D0005FA0FEF781FE5C481030006820435A4947
:1014E0001031086010BD70B504460025012C31D0C4
:1014F000022C2FD0042C2DD0082C2BD0102C29D02E
:10150000202C27D0402C25D0802C23D0B4F5807FF0
:1015100020D0B4F5007F1DD0B4F5806F1AD0B4F59B
:10152000006F17D0B4F5805F14D0B4F5005F11D010
:10153000B4F5804F0ED0B4F5004F0BD0B4F5803F1A
:1015400008D0B4F5003F05D0B4F5802F02D0B4F533
:10155000002F00D103E0BE213DA0FEF73DFE3A483A
:1015600014300068204008B1012500E0002528461D
:1015700070BD10B50446200D000508B904B103E0A4
:10158000D42133A0FEF728FE2F481430046010BD8C
:1015900070B5044600250026012C31D0022C2FD036
:1015A000042C2DD0082C2BD0102C29D0202C27D067
:1015B000402C25D0802C23D0B4F5807F20D0B4F5EA
:1015C000007F1DD0B4F5806F1AD0B4F5006F17D02E
:1015D000B4F5805F14D0B4F5005F11D0B4F5804F3E
:1015E0000ED0B4F5004F0BD0B4F5803F08D0B4F561
:1015F000003F05D0B4F5802F02D0B4F5002F00D104
:1016000003E0E52112A0FEF7E7FD0F48006800EABD
:1016100004060D4814300068204010B10EB10125B9
:1016200000E00025284670BD10B50446200D0005D9
:1016300008B904B103E0FC2105A0FEF7CDFD024886
:101640001430046010BD000000040140FFFF0F00D3
:101650004C69627261726965735C53544D333246F2
:101660003130785F5374645065726970685F44729A
:10167000697665725C7372635C73746D3332663164
:1016800030785F657874692E6300000010B5012022
:10169000FFF727FD0020FFF724FD10BD10B504461D
:1016A0000CB1012C00D103E089219CA0FEF794FD30
:1016B000A948046010BD10B504460CB1012C00D13E
:1016C00003E0962195A0FEF787FDA348001F046064
:1016D00010BD10B504460CB1012C00D103E0A321CC
:1016E0008EA0FEF779FD9C488430046010BD70B573
:1016F000044600253CB1802C05D0B4F5807F02D093
:10170000B4F5407F00D103E0B82184A0FEF764FD6A
:10171000924805884FF67F40054025438F48058055
:1017200070BD70B5044600257F2C00DC03E0CD21A0
:101730007AA0FEF751FD894805884FF68070054074
:1017400025438648058070BD38B504460D46002007
:101750000090042C51D0082C4FD00C2C4DD0102CC4
:101760004BD0142C49D0182C47D01C2C45D0202C01
:1017700043D0242C41D0282C3FD0402C3DD0442CA9
:101780003BD0482C39D04C2C37D0502C35D0542C51
:1017900033D0582C31D05C2C2FD0602C2DD0642C21
:1017A0002BD0682C29D06C2C27D0702C25D0742CF1
:1017B00023D0782C21D07C2C1FD0802C1DD0842CC1
:1017C0001BD0882C19D08C2C17D0902C15D0942C91
:1017D00013D0982C11D09C2C0FD0A02C0DD0A42C61
:1017E0000BD0A82C09D0AC2C07D0B02C05D0B42C31
:1017F00003D0B82C01D0BC2C00D103E0E32147A0DA
:10180000FEF7EAFC55482C380090009820440090E0
:101810000098056038BD38B5044600200090042CBF
:1018200051D0082C4FD00C2C4DD0102C4BD0142C58
:1018300049D0182C47D01C2C45D0202C43D0242C28
:1018400041D0282C3FD0402C3DD0442C3BD0482CBC
:1018500039D04C2C37D0502C35D0542C33D0582C78
:1018600031D05C2C2FD0602C2DD0642C2BD0682C48
:1018700029D06C2C27D0702C25D0742C23D0782C18
:1018800021D07C2C1FD0802C1DD0842C1BD0882CE8
:1018900019D08C2C17D0902C15D0942C13D0982CB8
:1018A00011D09C2C0FD0A02C0DD0A42C0BD0A82C88
:1018B00009D0AC2C07D0B02C05D0B42C03D0B82C58
:1018C00001D0BC2C00D103E0F62114A0FEF784FC6B
:1018D00022482C38009000982044009000980088FE
:1018E00038BD1D489C300068C0B270471B480830A6
:1018F000008840F0010019490831088070471648F7
:10190000A0300068C0B2704714480830008840F02A
:101910000200124908310880704700004C69627269
:1019200061726965735C53544D3332463130785F70
:101930005374645065726970685F44726976657249
:101940005C7372635C73746D3332663130785F62DE
:101950006B702E630000000004860D422C6C00406A
:1019600070B504460D464FF6F870204008B904B132
:1019700003E05D2176A0FEF72FFC0DB1012D00D113
:1019800003E05E2172A0FEF727FC2DB17F4800889E
:1019900020437E49088004E07C480088A0437B49BE
:1019A000088070BD7948001D008840F0100077491C
:1019B000091D088070477548001D00884FF6EF71BB
:1019C00008407249091D0880704700216F481C308B
:1019D0000188001F008841EA0040704700B50246B8
:1019E000FFF7E0FF100C694918310880091D0A80D3
:1019F000FFF7E1FF00BD10B50446B4F5801F00D22B
:101A000003E0A32152A0FEF7E7FBFFF7CBFFC4F3EF
:101A100003405E4908310880091D0C80FFF7CBFFA9
:101A200010BD00B50246FFF7BDFF100C574920312D
:101A30000880091D0A80FFF7BEFF00BD0020534942
:101A4000103109880907080B5049143109880843E7
:101A5000704700BF4D48001D008800F0200000289E
:101A6000F8D070474948001D00884FF6F7710840CC
:101A70004649091D088000BF4448001D008800F049
:101A800008000028F8D0704770B504460025202CC7
:101A900007D0082C05D0042C03D0022C01D0012C37
:101AA00000D103E0F9212AA0FEF796FB3748001D7C
:101AB0000088204008B1012500E00025284670BDBF
:101AC00010B504464FF6F070204008B904B104E0A8
:101AD0004FF48A711EA0FEF77FFB2C48001D008882
:101AE000A0432A49091D088010BD70B50446002591
:101AF000042C03D0022C01D0012C00D104E040F2D0
:101B0000271113A0FEF768FB2048001D0088204025
:101B1000C5B21E480088204010B10DB1012500E07B
:101B20000025284670BD10B504464FF6F8702040D9
:101B300008B904B104E040F2411105A0FEF74CFBE6
:101B40001248001D0088A0431049091D088010BDDF
:101B50004C69627261726965735C53544D333246ED
:101B60003130785F5374645065726970685F447295
:101B7000697665725C7372635C73746D333266315F
:101B800030785F7274632E6300000000002800400C
:101B900010B50446FA48844205D0FA48844202D07F
:101BA000F948844200D103E07A21F8A0FEF714FB43
:101BB000F348844208D101218014FFF740FA002144
:101BC000A014FFF73CFA16E0EE48844208D1012148
:101BD0000014FFF75DFA00212014FFF759FA0AE01C
:101BE000E948844207D10121C013FFF751FA0021CF
:101BF000E013FFF74DFA10BD70B505460C46002600
:101C0000DF48854205D0DF48854202D0DE48854264
:101C100000D103E0A321DDA0FEF7DEFA208858B151
:101C20002088B0F5806F07D02088B0F5004F03D032
:101C30002088B0F5404F00D103E0A621D3A0FEF7E5
:101C4000CBFA6088B0F5827F01D0608800B903E0EC
:101C5000A721CEA0FEF7C0FAA088B0F5006F01D092
:101C6000A08800B903E0A821C8A0FEF7B5FAE08873
:101C700010B1E088022800D103E0A921C3A0FEF73B
:101C8000ABFA208910B12089012800D103E0AA21F4
:101C9000BEA0FEF7A1FA6089B0F5007F01D060898F
:101CA00000B903E0AB21B9A0FEF796FAA089A0B174
:101CB000A089082811D0A08910280ED0A089182842
:101CC0000BD0A089202808D0A089282805D0A08979
:101CD000302802D0A089382800D103E0AC21ABA085
:101CE000FEF77AFAE08910B1E089802800D103E09C
:101CF000AD21A6A0FEF770FA208A012800DB03E0E0
:101D0000AE21A2A0FEF768FA2E8806F4415620887C
:101D100061880843A1880843E18808432189084372
:101D200061890843A1890843E189084306432E805D
:101D3000A88B4FF2FF710840A883208A288270BDCB
:101D40002DE9F04F85B005460C464FF000090227FB
:101D50004FF000084FF0010B0026B246894885423B
:101D600002D08948854200D103E0E32187A0FEF735
:101D700033FA208858B12088B0F5807F07D02088BA
:101D8000B0F5007F03D02088B0F5407F00D103E09C
:101D9000E4217EA0FEF720FA608858B16088102800
:101DA00008D06088202805D06088302802D060885C
:101DB000B02800D103E0E52174A0FEF70DFAA08859
:101DC00040B1A088012805D0A088032802D0A088AF
:101DD000052800D103E0E6216CA0FEF7FDF9E088BC
:101DE000B0F5007F01D0E08800B903E0E72167A0EB
:101DF000FEF7F2F9A068B0F5FA5F03D37249A06864
:101E0000884202D9A068022800D103E0E8215FA03F
:101E1000FEF7E2F9A08910B1A089082800D103E0FB
:101E2000E9215AA0FEF7D8F9A88B4FF240010840EB
:101E3000A88302202884B5F81C90A068022803D14A
:101E40004FF00008022738E0A08810B94FF0010BCE
:101E500001E04FF0020B4B48854200D100E000BF8B
:101E60006846FFF707F8DDF800A0E088B0F5007FCE
:101E70000AD14FEA1A2000EB80004000A168B0FBB5
:101E8000F1F0401D86B20BE04FEA4B10BAFBF0F0C8
:101E900000EB80004000A168B0FBF1F0401D86B26D
:101EA0000A20B6FBF0F606F00108A6EB0800C0F326
:101EB0004F074FF6FF7000EA0828022F01DBFF2FC3
:101EC00002DD02274FF00008E08840EA08003843AE
:101ED0002884A088A1890843618808432188084391
:101EE00040F4006040EA0909A5F81C9005B0BDE87F
:101EF000F08F0021018041808180C180018141817A
:101F00008181C181072101827047002101804180C8
:101F10008180C1800221816000218181704770B57C
:101F200004460D461648844205D01648844202D025
:101F30001548844200D104E04FF4D77113A0FEF796
:101F40004BF90DB1012D00D104E040F2AF110FA00B
:101F5000FEF742F925B1208840F04000208004E0DF
:101F600020884FF6BF710840208070BD70B50446D0
:101F70000D460448844202D00348844226D12BE017
:101F80000030014000380040003C00404C69627263
:101F900061726965735C53544D3332463130785FFA
:101FA0005374645065726970685F447269766572D3
:101FB0005C7372635C73746D3332663130785F7357
:101FC00070692E630000000000EE02004FF4E37120
:101FD000AFF24800FEF700F90DB1012D00D105E088
:101FE00040F2C711AFF25C00FEF7F6F825B1A08B06
:101FF00040F48060A08304E0A08B4FF6FF310840DE
:10200000A08370BD2DE9F04104460D4616464FF001
:1020100000080027F648844205D0F648844202D0E2
:10202000F548844200D105E04FF4F371AFF2A4000B
:10203000FEF7D2F80EB1012E00D105E040F2E71113
:10204000AFF2B800FEF7C8F8712D03D0602D01D0B3
:10205000502D00D105E04FF4F471AFF2D000FEF73F
:10206000BBF84FEA2518012000FA08F087B21EB12C
:10207000A0883843A08002E0A088B843A080BDE8D3
:10208000F08170B504460D461646D948844205D005
:10209000D848844202D0D848844200D105E04FF4A9
:1020A0000371AFF21810FEF797F80EB1012E00D1B0
:1020B00005E040F20D21AFF22C10FEF78DF84FF63F
:1020C000FC70284008B905B105E040F20E21AFF2DE
:1020D0004410FEF781F81EB1A0882843A08002E0DA
:1020E000A088A843A08070BD70B504460D46C048C6
:1020F000844205D0BF48844202D0BF48844200D108
:1021000005E040F22621AFF27C10FEF765F8A581CC
:1021100070BD10B50446B648844205D0B548844227
:1021200002D0B548844200D105E040F23621AFF23A
:10213000A410FEF751F8A08910BD70B504460D46F5
:10214000AB48844205D0AB48844202D0AA488442BE
:1021500000D105E04FF41271AFF2D010FEF73CF859
:10216000B5F5807F03D04FF6FF60854200D105E0D2
:1021700040F24921AFF2EC10FEF72EF84FF6FF6067
:10218000854204D0208840F48070208004E02088BC
:102190004FF6FF610840208070BD70B504460D46C3
:1021A0009348844205D09348844202D092488442A6
:1021B00000D105E04FF41871AFF23020FEF70CF8B3
:1021C0000DB1012D00D105E040F26121AFF24420B4
:1021D000FEF702F825B1A08840F00400A08004E0DA
:1021E000A0884FF6FB710840A08070BD70B5044612
:1021F0000D467F48844205D07E48844202D07E4806
:10220000844200D105E040F27A21AFF28020FDF750
:10221000E3FFB5F5006F00D005B905E040F27B2182
:10222000AFF29820FDF7D8FF20884FF2FF710840E9
:10223000208020882843208070BD10B504466C485B
:10224000844205D06B48844202D06B48844200D15E
:1022500005E040F28A21AFF2CC20FDF7BDFF2088D7
:1022600040F48050208010BD70B504460D46604893
:10227000844205D05F48844202D05F48844200D146
:1022800005E040F29A21AFF2FC20FDF7A5FF0DB169
:10229000012D00D105E040F29B21AFF21030FDF797
:1022A0009BFF25B1208840F40050208004E0208866
:1022B0004DF6FF710840208070BD70B504460D4694
:1022C00000264B48844205D04A48844202D04A48FE
:1022D000844200D105E040F2B521AFF25030FDF765
:1022E0007BFF0DB1012D00D105E040F2B621AFF228
:1022F0006430FDF771FF012D01D0268B00E0A68A26
:10230000304670BD10B504463948844205D039487E
:10231000844202D03848844200D105E040F2CD2109
:10232000AFF29830FDF758FF208A10BD70B5044613
:102330000D462F48844205D02E48844202D02E48B4
:10234000844200D105E040F2DF21AFF2C030FDF75A
:1023500043FF4BF6FF70854202D0B5F5804F00D1A8
:1023600005E04FF43871AFF2DC30FDF735FFB5F51D
:10237000804F04D1208840F48040208004E02088F1
:102380004BF6FF710840208070BD70B505460C46C5
:1023900000261748854205D01648854202D01648C7
:1023A000854200D105E040F20231AFF22040FDF756
:1023B00013FF802C0DD0402C0BD0202C09D0102CDA
:1023C00007D0082C05D0042C03D0022C01D0012CFE
:1023D00000D105E040F20331AFF25040FDF7FCFEC2
:1023E0002889204008B1012600E00026304670BD53
:1023F0000030014000380040003C004070B5044609
:102400000D464348844205D04248844202D04248A7
:10241000844200D105E040F22731AFF29040FDF751
:10242000DBFE102D00D105E04FF44A71AFF2A4405D
:10243000FDF7D2FEE843208170BD2DE9F047054647
:102440000C460027B8460026B1463148854205D0E3
:102450003048854202D03048854200D105E040F244
:102460004331AFF2D840FDF7B7FE602C09D0712C94
:1024700007D0532C05D0542C03D0552C01D0562C0A
:1024800000D105E04FF45171AFF20050FDF7A4FE0A
:1024900004F00F01012088401FFA80F82611012066
:1024A000B04086B2A88800EA0609288900EA080038
:1024B00020B1B9F1000F01D0012700E00027384614
:1024C000BDE8F08770B504460D46002610488442EA
:1024D00005D01048844202D00F48844200D105E064
:1024E00040F27731AFF25C50FDF776FE542D00D10B
:1024F00005E04FF45E71AFF26C50FDF76DFE05F034
:102500000F010120884086B2F043208170BD000099
:102510000030014000380040003C004010B5044647
:10252000FC48844211D0FC4884420ED0FB488442CF
:102530000BD0FB48844208D0FA48844205D0FA48C0
:10254000844202D0F948844200D103E06F21F8A010
:10255000FDF742FEEF48844208D101210420FEF736
:102560006EFD00210420FEF76AFD46E0EA48844241
:1025700008D101210820FEF762FD00210820FEF7A6
:102580005EFD3AE0E548844208D101211020FEF7C3
:1025900056FD00211020FEF752FD2EE0E048844257
:1025A00008D101212020FEF74AFD00212020FEF75E
:1025B00046FD22E0DB48844208D101214020FEF79D
:1025C0003EFD00214020FEF73AFD16E0D648844249
:1025D00008D101218020FEF732FD00218020FEF786
:1025E0002EFD0AE0D148844207D101218015FEF773
:1025F00026FD0021A015FEF722FD10BD10B501211A
:102600000846FEF71CFD00210120FEF718FD10BD55
:102610002DE9F05F05460C464FF00009CA4600263A
:102620000027B046B346BB48854211D0BA48854220
:102630000ED0BA4885420BD0B948854208D0B94877
:10264000854205D0B848854202D0B848854200D1BD
:1026500003E0B221B6A0FDF7BFFDE078A0B1E078BD
:10266000042811D0E07828280ED0E07848280BD034
:10267000E078142808D0E078102805D0E0781C28ED
:1026800002D0E078182800D103E0B321A8A0FDF71C
:10269000A3FD002010B9208800B103E0B421A4A05C
:1026A000FDF79AFDE07800F00F09E07800F01000E7
:1026B00080B1A078012805D0A078022802D0A078A7
:1026C000032800D103E0BB2199A0FDF785FDA07888
:1026D00040EA0909207838B3D5F8008000261FE0C9
:1026E000012000FA06F7208800EA070ABA4516D149
:1026F000B7000F2000FA07FB28EA0B0809FA07F0D9
:1027000040EA0808E078282803D10120B040686139
:1027100005E0E078482802D10120B0402861761C0D
:10272000082EDDD3C5F800802088FF282BDDD5F8E2
:102730000480002623E006F10800012101FA00F7D9
:10274000208800EA070ABA4518D1B7000F2000FA1E
:1027500007FB28EA0B0809FA07F040EA0808E078C6
:10276000282803D106F1080081406961E0784828F3
:1027700004D106F10800012181402961761C082E50
:10278000D9D3C5F80480BDE8F09F4FF6FF710180F2
:10279000022181700421C170704770B505460C4656
:1027A00000265C48854211D05B4885420ED05B48CC
:1027B00085420BD05A48854208D05A48854205D0F8
:1027C0005948854202D05948854200D104E04FF46F
:1027D0008F7157A0FDF700FD012C25D0022C23D0CE
:1027E000042C21D0082C1FD0102C1DD0202C1BD045
:1027F000402C19D0802C17D0B4F5807F14D0B4F5BC
:10280000007F11D0B4F5806F0ED0B4F5006F0BD0FF
:10281000B4F5805F08D0B4F5005F05D0B4F5804F03
:1028200002D0B4F5004F00D104E040F21F1140A0E7
:10283000FDF7D2FCA868204008B1012600E0002680
:10284000304670BD10B504463248844211D032483B
:1028500084420ED0314884420BD03148844208D0A3
:102860003048844205D03048844202D02F48844208
:1028700000D104E04FF49A712DA0FDF7ADFCA068E3
:1028800080B210BD70B505460C4600262148854231
:1028900011D0214885420ED0204885420BD02048D7
:1028A000854208D01F48854205D01F48854202D086
:1028B0001E48854200D104E04FF4A2711CA0FDF730
:1028C0008BFC012C25D0022C23D0042C21D0082CE9
:1028D0001FD0102C1DD0202C1BD0402C19D0802CA8
:1028E00017D0B4F5807F14D0B4F5007F11D0B4F5C3
:1028F000806F0ED0B4F5006F0BD0B4F5805F08D0B8
:10290000B4F5005F05D0B4F5804F02D0B4F5004FA8
:102910002CD131E000080140000C014000100140C2
:102920000014014000180140001C0140002001403B
:102930004C69627261726965735C53544D333246FF
:102940003130785F5374645065726970685F4472A7
:10295000697665725C7372635C73746D3332663171
:1029600030785F6770696F2E6300000040F2451198
:10297000AFF24400FDF730FCE868204008B10126C2
:1029800000E00026304670BD10B50446FE48844283
:1029900011D0FE4884420ED0FD4884420BD0FD4841
:1029A000844208D0FC48844205D0FC48844202D0CE
:1029B000FB48844200D105E04FF4AD71AFF29000C6
:1029C000FDF70AFCE06880B210BD70B504460D4604
:1029D000ED48844211D0ED4884420ED0EC48844248
:1029E0000BD0EC48844208D0EB48844205D0EB4839
:1029F000844202D0EA48844200D105E040F26911E5
:102A0000AFF2D400FDF7E8FB002008B905B105E0FE
:102A10004FF4B571AFF2E800FDF7DEFB256170BD44
:102A200070B504460D46D848844211D0D748844238
:102A30000ED0D74884420BD0D648844208D0D6481E
:102A4000844205D0D548844202D0D548844200D182
:102A500005E040F27911AFF22810FDF7BDFB002030
:102A600008B905B105E04FF4BD71AFF23C10FDF7B8
:102A7000B3FB656170BD70B505460C461646C2488D
:102A8000854211D0C14885420ED0C14885420BD045
:102A9000C048854208D0C048854205D0BF4885421D
:102AA00002D0BF48854200D105E040F28D11AFF25F
:102AB0008010FDF791FB012C25D0022C23D0042C93
:102AC00021D0082C1FD0102C1DD0202C1BD0402C26
:102AD00019D0802C17D0B4F5807F14D0B4F5007FC6
:102AE00011D0B4F5806F0ED0B4F5006F0BD0B4F5F3
:102AF000805F08D0B4F5005F05D0B4F5804F02D0F8
:102B0000B4F5004F00D105E04FF4C771AFF2E0100B
:102B1000FDF762FB0EB1012E00D105E040F28F11EE
:102B2000AFF2F410FDF758FB0EB12C6100E06C61C0
:102B300070BD70B504460D469348844211D0934849
:102B400084420ED0924884420BD09248844208D0EE
:102B50009148844205D09148844202D090488442F2
:102B600000D105E04FF4D271AFF23C20FDF734FB09
:102B7000E56070BD70B504460D464FF4803682485E
:102B8000844211D0814884420ED0814884420BD0C7
:102B90008048844208D08048844205D07F488442DF
:102BA00002D07F48844200D105E040F2B511AFF277
:102BB0008020FDF711FB002008B905B105E04FF4B6
:102BC000DB71AFF29420FDF707FB2E43A661A561F0
:102BD000A661A669A66970BD70B505460C460026BB
:102BE0003DB1012D05D0022D03D0032D01D0042DC0
:102BF00000D105E04FF4E971AFF2CC20FDF7ECFA1B
:102C0000ECB1012C1BD0022C19D0032C17D0042CB2
:102C100015D0052C13D0062C11D0072C0FD0082C62
:102C20000DD0092C0BD00A2C09D00B2C07D00C2C62
:102C300005D00D2C03D00E2C01D00F2C00D105E0B7
:102C400040F2D311AFF21830FDF7C6FA55480668C6
:102C50004FF68070064046EA051626435148066046
:102C600070BD10B504460CB1012C00D105E04FF445
:102C7000F371AFF24430FDF7AFFA4B48C46110BDB9
:102C80002DE9F04704460E460027B8460025A94620
:102C9000012C77D0022C75D0042C73D0082C71D065
:102CA000424884426ED04148203084426AD0404835
:102CB000844267D03E488030844263D03D4884429D
:102CC00060D03D4884425DD03C4884425AD03C4864
:102CD000844257D03B48844254D0B4F5805F51D0F1
:102CE000B4F5EA1F4ED0B4F5EB1F4BD0B4F5004F4E
:102CF00048D03548844245D0401C844242D0801C94
:102D000084427FD0001D84427CD02F480F30844203
:102D100078D0B4F1201F75D04FEAF030844271D0E2
:102D20002A4884426ED02A4884426BD02948844283
:102D300068D02948844265D02848844262D0B4F5DE
:102D4000011F5FD0264884425CD0401C844259D089
:102D5000801C844256D0001D844253D020480F303E
:102D600084424FD01E481F3084424BD01C483F3015
:102D7000844247D01A487F30844243D01848FF30FD
:102D800084422FE03EE0000000080140000C0140BA
:102D9000001001400014014000180140001C0140D7
:102DA00000200140000001400000204210001400FB
:102DB000400016000001180000021800000318006F
:102DC00000081A00000C1A00010020000001300069
:102DD000000230000004300000112000002020001C
:102DE000010000800ED0664884420BD065488442C2
:102DF00008D06548844205D06448844202D06448C3
:102E0000844200D105E040F22A21AFF2DC40FDF718
:102E1000E3F90EB1012E00D105E040F22B21AFF213
:102E2000F040FDF7D9F904F00040B0F1004F02D1B5
:102E30005848C56901E057484568C4F30349A7B23B
:102E400004F44010B0F5401F08D125F070655148DA
:102E5000406820F070604F49486013E004F480102F
:102E6000B0F5801F07D1032000FA09F825EA08050C
:102E700045F0706506E0600D000107FA00F085433B
:102E800045F0706526B1600D010107FA01F00543B8
:102E900004F00040B0F1004F02D13E48C56101E0AE
:102EA0003C484560BDE8F08770B505460C460026F5
:102EB0005DB1012D09D0022D07D0032D05D0042DC1
:102EC00003D0052D01D0062D00D105E040F265218B
:102ED000AFF2A450FDF780F9ECB1012C1BD0022C0D
:102EE00019D0032C17D0042C15D0052C13D0062C88
:102EF00011D0072C0FD0082C0DD0092C0BD00A2C88
:102F000009D00B2C07D00C2C05D00D2C03D00E2C87
:102F100001D00F2C00D105E040F26621AFF2F05055
:102F2000FDF75AF9A007010F0F2000FA01F6194822
:102F30000830A11050F82100B04316490831A21002
:102F400041F822000846A11050F82100A107090FFE
:102F500005FA01F108430F490831A21041F8220097
:102F600070BD10B504460CB1012C00D105E04FF442
:102F70001E71AFF24460FDF72FF90748046010BDE1
:102F80000002008000040080000800800010008023
:102F90000020008000000140DC00204210B5044603
:102FA000FE4884420BD0FE48844208D0FD4884424B
:102FB00005D0FD48844202D0FC48844200D103E0A1
:102FC0008521FBA0FDF708F9F448844209D10121CD
:102FD0008803FEF734F800214FF48040FEF72FF805
:102FE00032E0EF48844209D101214804FEF750F84D
:102FF00000214FF40030FEF74BF825E0E948844209
:1030000009D101218804FEF743F800214FF4802004
:10301000FEF73EF818E0E448844209D10121C804D3
:10302000FEF736F800214FF40020FEF731F80BE0F0
:10303000DE48844208D101210805FEF729F8002165
:103040004FF48010FEF724F810BD2DE9F04786B04C
:1030500005460C460026B24600BFB1460027CF48C1
:1030600085420BD0CE48854208D0CE48854205D057
:10307000CD48854202D0CD48854200D103E0B82139
:10308000CBA0FDF7A9F8206820B1D8492068884274
:1030900000D203E0B921C6A0FDF79EF8A08818B1C0
:1030A000A088B0F5805F00D103E0BA21C0A0FDF791
:1030B00093F8E08858B1E088B0F5805F07D0E088E9
:1030C000B0F5005F03D0E088B0F5405F00D103E0C9
:1030D000BB21B7A0FDF780F8208938B12089B0F571
:1030E000806F03D02089B0F5C06F00D103E0BC2110
:1030F000AFA0FDF771F860894FF6F371084010B981
:10310000608900B103E0BD21A9A0FDF765F8A089A1
:1031100058B1A089B0F5807F07D0A089B0F5007FB5
:1031200003D0A089B0F5407F00D103E0BE21A0A06C
:10313000FDF752F8A08968B19848854205D09848B3
:10314000854202D09748854200D103E0C22198A071
:10315000FDF742F82F462E8A4CF6FF700640E088B5
:1031600006432E82AE894EF6F3100640A0882189D0
:103170000843618908430643AE81AE8A4FF6FF409B
:103180000640A0890643AE8201A8FDF773FE83487E
:10319000874202D1DDF810A001E0DDF80CA0A8897B
:1031A00000F4004040B10AEBCA0000EB0A102168AD
:1031B0004900B0FBF1F807E00AEBCA0000EB0A1087
:1031C00021688900B0FBF1F86420B8FBF0F006013B
:1031D0003009642101FB1089A88900F4004040B146
:1031E000322000EBC900B0FBF1F000F0070006430D
:1031F00008E0322000EB09106421B0FBF1F000F090
:103200000F0006432E8106B0BDE8F0874FF416513B
:10321000016000218180C18001810C214181002158
:103220008181704770B505460C4600265B48854293
:1032300005D05B48854202D05A48854200D104E05F
:103240004FF499715AA0FCF7C7FF208818B1208865
:10325000B0F5006F00D104E040F2331154A0FCF748
:10326000BBFF608818B16088B0F5806F00D104E0C2
:103270004FF49A714EA0FCF7AFFFA08818B1A08858
:10328000B0F5007F00D104E040F2351148A0FCF712
:10329000A3FFE08818B1E088B0F5807F00D104E09A
:1032A0004FF49B7142A0FCF797FF2E8A4FF2FF006C
:1032B0000640208861880843A1880843E1880843C4
:1032C00006432E8270BD0021018041808180C18033
:1032D000704770B504460D46304884420BD03048E4
:1032E000844208D02F48844205D02F48844202D01F
:1032F0002E48844200D104E04FF4B1712CA0FCF7B9
:103300006BFF0DB1012D00D104E040F2631128A044
:10331000FCF762FF25B1A08940F40050A08104E0D1
:10332000A0894DF6FF710840A08170BD2DE9F047DE
:1033300005460C4617464FF00008C246C146002617
:10334000164885420BD01648854208D0154885425C
:1033500005D01548854202D01448854200D104E0CA
:1033600040F2891112A0FCF737FF282C44D040F21C
:103370002770844240D040F2266084423CD040F224
:103380002550844238D040F22440844234D040F664
:103390004600844230D040F66A1029E000380140EF
:1033A0000044004000480040004C004000500040F5
:1033B0004C69627261726965735C53544D33324675
:1033C0003130785F5374645065726970685F44721D
:1033D000697665725C7372635C73746D33326631E7
:1033E00030785F75736172742E63000021AA440007
:1033F000844201D0602C00D105E04FF4C571AFF2DA
:103400005000FCF7E9FE0FB1012F00D105E040F2BA
:103410008B11AFF26400FCF7DFFE40F66A108442C5
:103420000FD1F948854205D0F848854202D0F848C6
:10343000854200D105E040F28F11AFF28C00FCF71D
:10344000CBFE2E46C4F3421804F01F0A012000FAF6
:103450000AF9B8F1010F01D10C3605E0B8F1020FFD
:1034600001D1103600E0143627B1306840EA090077
:10347000306003E0306820EA09003060BDE8F08782
:1034800070B504460D461646DF4884420BD0DF482F
:10349000844208D0DE48844205D0DE48844202D00F
:1034A000DD48844200D105E040F2C311AFF20010C4
:1034B000FCF792FE4FF63F70284008B905B105E0D1
:1034C0004FF4E271AFF21810FCF786FE0EB1012E38
:1034D00000D105E040F2C511AFF22C10FCF77CFEE4
:1034E0001EB1A08A2843A08202E0A08AA843A0823D
:1034F00070BD70B504460D46C34884420BD0C34826
:10350000844208D0C248844205D0C248844202D0D6
:10351000C148844200D105E040F2DF11AFF27010E3
:10352000FCF75AFE0F2D00DC05E04FF4F071AFF20E
:103530008010FCF751FE208A4FF6F071084020827F
:10354000208A2843208270BD70B504460D46AE48DF
:1035500084420BD0AD48844208D0AD48844205D0A7
:10356000AC48844202D0AC48844200D105E04FF41C
:10357000FB71AFF2C410FCF72FFE15B1B5F5006F6B
:1035800000D105E040F2F711AFF2DC10FCF724FEA9
:10359000A0894FF2FF710840A081A0892843A08133
:1035A00070BD70B504460D46974884420BD09748CD
:1035B000844208D09648844205D09648844202D07E
:1035C0009548844200D105E040F20921AFF2202065
:1035D000FCF702FE0DB1012D00D105E040F20A21F9
:1035E000AFF23420FCF7F8FD25B1A08940F00200CD
:1035F000A08104E0A0894FF6FD710840A08170BD54
:1036000070B504460D46804884420BD07F48844202
:1036100008D07F48844205D07E48844202D07E484C
:10362000844200D105E040F22621AFF27C20FCF775
:10363000D3FD0DB1202D00D105E040F22721AFF2DE
:103640009020FCF7C9FD208A4FF6DF7108402082E8
:10365000208A2843208270BD70B504460D466A4812
:1036600084420BD06948844208D06948844205D01E
:103670006848844202D06848844200D105E040F2A4
:103680003921AFF2D420FCF7A7FD0DB1012D00D1F7
:1036900005E040F23A21AFF2E820FCF79DFD25B1AC
:1036A000208A40F48040208204E0208A4BF6FF719B
:1036B0000840208270BD70B504460D4652488442D1
:1036C0000BD05248844208D05148844205D051481A
:1036D000844202D05048844200D105E040F2532198
:1036E000AFF23430FCF778FDB5F5007F00DA05E085
:1036F0004FF41571AFF24830FCF76EFDC5F30800CA
:10370000A08070BD10B504463F4884420BD03F48AE
:10371000844208D03E48844205D03E48844202D0CC
:103720003D48844200D105E04FF41971AFF280307A
:10373000FCF752FDA088C0F3080010BD10B5044688
:10374000314884420BD03148844208D0304884420A
:1037500005D03048844202D02F48844200D105E091
:103760004FF41D71AFF2B830FCF736FDA08940F080
:103770000100A08110BD70B504460D462248844268
:1037800005D02248844202D02148844200D105E07D
:103790004FF42171AFF2E830FCF71EFD208BC0B270
:1037A0002083208B40EA0520208370BD70B504463D
:1037B0000D46154884420BD01448844208D0144862
:1037C000844205D01348844202D01348844200D179
:1037D00005E04FF42671AFF22840FCF7FDFC208B8A
:1037E00000F47F402083208B2843208370BD70B578
:1037F00004460D460448844205D00448844202D061
:10380000034884420AD10FE00038014000440040E0
:1038100000480040004C00400050004040F2AB2106
:10382000AFF27440FCF7D8FC0DB1012D00D105E0DA
:103830004FF42B71AFF28840FCF7CEFC25B1A08A83
:1038400040F02000A08204E0A08A4FF6DF7108401B
:10385000A08270BD70B504460D46F948844205D07B
:10386000F848844202D0F848844200D105E04FF481
:103870003171AFF2C440FCF7AFFC0DB1012D00D1A6
:1038800005E040F2C521AFF2D840FCF7A5FC25B118
:10389000A08A40F01000A08204E0A08A4FF6EF71E9
:1038A0000840A08270BD70B504460D46E4488442CD
:1038B0000BD0E448844208D0E348844205D0E34872
:1038C000844202D0E248844200D105E040F2DE2189
:1038D000AFF22450FCF780FC0DB1012D00D105E0C2
:1038E00040F2DF21AFF23850FCF776FC25B1A08A18
:1038F00040F00800A08204E0A08A4FF6F77108406B
:10390000A08270BD70B504460D46CD4884420BD0F0
:10391000CC48844208D0CC48844205D0CB4884426D
:1039200002D0CB48844200D105E040F2FD21AFF245
:103930008050FCF751FC0DB1012D00D105E040F2A3
:10394000FE21AFF29450FCF747FC25B1A08940F46A
:103950000040A08103E0A089C0F30E00A08170BDEB
:1039600070B504460D46B64884420BD0B548844233
:1039700008D0B548844205D0B448844202D0B44847
:10398000844200D105E04FF44671AFF2DC50FCF701
:1039900023FC0DB1012D00D105E040F21931AFF249
:1039A000F050FCF719FC25B1A08A40F40060A08219
:1039B00004E0A08A4FF2FF710840A08270BD70B58C
:1039C00004460D469E4884420BD09E48844208D04F
:1039D0009D48844205D09D48844202D09C48844240
:1039E00000D105E040F23531AFF23C60FCF7F4FB6A
:1039F000042D00D005B905E040F23631AFF2506039
:103A0000FCF7EAFBA08A4FF6FB710840A082A08A6F
:103A10002843A08270BD70B504460D468848844294
:103A20000BD08848844208D08748844205D0874814
:103A3000844202D08648844200D105E04FF452719E
:103A4000AFF29460FCF7C8FB0DB1012D00D105E089
:103A500040F24931AFF2A860FCF7BEFB25B1A08A65
:103A600040F00200A08204E0A08A4FF6FD710840F9
:103A7000A08270BD70B505460C4600267048854290
:103A80000BD07048854208D06F48854205D06F48FA
:103A9000854202D06E48854200D105E040F26E3189
:103AA000AFF2F460FCF798FB012C13D0802C11D0FE
:103AB000402C0FD0202C0DD0102C0BD0B4F5807FD3
:103AC00008D0B4F5007F05D0082C03D0042C01D019
:103AD000022C00D105E040F26F31AFF22C70FCF700
:103AE0007BFBB4F5007F0FD15548854205D0554882
:103AF000854202D05448854200D105E040F273313E
:103B0000AFF25470FCF768FB2888204008B101260A
:103B100000E00026304670BD70B504460D464848AA
:103B200084420BD04748844208D04748844205D09D
:103B30004648844202D04648844200D105E040F223
:103B40009E31AFF29470FCF747FB4FF69F40284040
:103B500008B905B105E040F29F31AFF2AC70FCF757
:103B60003BFB05F40070B0F5007F0FD13448844270
:103B700005D03448844202D03348844200D105E065
:103B800040F2A331AFF2D870FCF726FBE843208067
:103B900070BD2DE9F04705460C4600270026B046CB
:103BA000B146274885420BD02648854208D0264892
:103BB000854205D02548854202D02548854200D15E
:103BC00005E040F2C131AFF61800FCF705FB282CE8
:103BD00020D040F2277084421CD040F226608442FC
:103BE00018D040F22550844214D040F22440844240
:103BF00010D040F6460084420CD040F66A10844251
:103C000008D0B4F5587F05D0B4F5187F02D0B4F5CC
:103C1000B07F00D105E040F2C231AFF66C00FCF796
:103C2000DBFA40F66A1084421AD10548854205D075
:103C30000448854202D0044885420BD110E00000C0
:103C4000003801400044004000480040004C004063
:103C50000050004040F2C631AFF6AC00FCF7BCFAB1
:103C6000C4F3421804F01F06012000FA06F6B8F16A
:103C7000010F02D1A889064007E0B8F1020F02D176
:103C8000288A064001E0A88A06402712012000FA8F
:103C900007F7288807401EB117B14FF0010901E06E
:103CA0004FF000094846BDE8F0872DE9F041044691
:103CB0000D4600260027244884420BD02348844226
:103CC00008D02348844205D02248844202D02248AA
:103CD000844200D105E040F20A41AFF62C10FCF717
:103CE0007BFA40F2266085420BD040F22550854297
:103CF00007D040F64600854203D040F66A10854260
:103D000000D105E040F20B41AFF65C10FCF764FA1D
:103D100040F66A1085420FD10B48844205D00B480B
:103D2000844202D00A48844200D105E040F20F41AB
:103D3000AFF68410FCF750FA2E120120B04087B283
:103D4000F8432080BDE8F081003801400044004085
:103D500000480040004C00400050004010B50446B0
:103D6000F74884422AD0F6481430844226D0F448DA
:103D70002830844222D0F2483C3084421ED0F048A1
:103D8000503084421AD0EE486430844216D0EC4859
:103D90007830844212D0EB4884420FD0E948143086
:103DA00084420BD0E7482830844207D0E5483C30B5
:103DB000844203D0E3485030844200D103E06F21B5
:103DC000E1A0FCF709FA20684FF6FE710840206078
:103DD000002020606060A060E060D948844208D183
:103DE000D7480838406840F00F00D5490839486086
:103DF0008AE0D3481430844208D1D148083840685A
:103E000040F0F000CE49083948607DE0CC482830C9
:103E1000844208D1CA480838406840F47060C849F4
:103E20000839486070E0C6483C30844208D1C44834
:103E30000838406840F47040C1490839486063E080
:103E4000BF485030844208D1BD480838406840F42B
:103E50007020BB490839486056E0B9486430844254
:103E600008D1B7480838406840F47000B4490839B0
:103E7000486049E0B2487830844208D1B0480838F8
:103E8000406840F07060AE49083948603CE0AD4899
:103E9000844206D1001F006840F00F00211F086017
:103EA00032E0A8481430844208D1A648001F0068B8
:103EB00040F0F000A349091F086025E0A148283020
:103EC000844208D19F48001F006840F470609D49FB
:103ED000091F086018E09B483C30844208D199488B
:103EE000001F006840F470409649091F08600BE00D
:103EF00094485030844207D19248001F006840F433
:103F000070209049091F086010BD70B505460C4629
:103F100000268B4885422AD089481430854226D015
:103F200087482830854222D085483C3085421ED0C3
:103F30008348503085421AD081486430854216D07B
:103F40007F487830854212D07E4885420FD07D4828
:103F5000143085420BD07B482830854207D0794801
:103F60003C30854203D077485030854200D103E091
:103F7000CF2175A0FCF730F9A068102801D0A06807
:103F800000B903E0D02170A0FCF726F9E06820B169
:103F9000E068B0F5803F00D203E0D1216AA0FCF7D1
:103FA0001BF92069402801D0206900B903E0D22123
:103FB00065A0FCF711F96069802801D0606900B93B
:103FC00003E0D32160A0FCF707F9A06938B1A0692C
:103FD000B0F5807F03D0A069B0F5007F00D103E089
:103FE000D42159A0FCF7F8F8E06938B1E069B0F5E0
:103FF000806F03D0E069B0F5006F00D103E0D521F8
:1040000051A0FCF7E9F8206A202801D0206A00B905
:1040100003E0D6214CA0FCF7DFF8606AB0F5405F02
:1040200009D0606AB0F5005F05D0606AB0F5805FC6
:1040300001D0606A00B903E0D72143A0FCF7CCF8B7
:10404000A06AB0F5804F01D0A06A00B903E0D82182
:104050003DA0FCF7C1F82E6847F6F0708643216A50
:10406000A06808432169084361690843A1690843BE
:10407000E1690843616A0843A16A084306432E6068
:10408000E06868602068A8606068E86070BD002132
:10409000016041608160C160016141618161C16114
:1040A000016241628162704770B504460D46244842
:1040B00084422AD022481430844226D02048283016
:1040C000844222D01E483C3084421ED01C485030CE
:1040D00084421AD01A486430844216D01848783086
:1040E000844212D0174884420FD0164814308442BC
:1040F0000BD014482830844207D012483C30844208
:1041000003D010485030844200D104E040F229111D
:104110000DA0FCF761F80DB1012D00D104E04FF4C2
:10412000957109A0FCF758F825B1206840F001000E
:10413000206004E020684FF6FE710840206070BDEA
:1041400008000240080402404C69627261726965AD
:10415000735C53544D3332463130785F537464503E
:1041600065726970685F4472697665725C737263C8
:104170005C73746D3332663130785F646D612E63C9
:104180000000000070B504460D461646FE48844205
:104190002AD0FD481430844226D0FB48283084427F
:1041A00022D0F9483C3084421ED0F7485030844237
:1041B0001AD0F5486430844216D0F34878308442EF
:1041C00012D0F24884420FD0F048143084420BD011
:1041D000EE482830844207D0EC483C30844203D07B
:1041E000EA485030844200D105E040F24911AFF274
:1041F000A800FBF7F1FF25F00E0008B905B105E0B6
:104200004FF4A571AFF2C000FBF7E6FF0EB1012E2F
:1042100000D105E040F24B11AFF2D400FBF7DCFF18
:104220001EB120682843206002E02068A843206077
:1042300070BD70B504460D46D34884422AD0D2489A
:104240001430844226D0D0482830844222D0CE4830
:104250003C3084421ED0CC48503084421AD0CA48E8
:104260006430844216D0C8487830844212D0C7489F
:1042700084420FD0C548143084420BD0C348283044
:10428000844207D0C1483C30844203D0BF485030FC
:10429000844200D105E04FF4B271AFF25410FBF745
:1042A0009BFF656070BD10B50446B74884422AD0B4
:1042B000B5481430844226D0B3482830844222D0F6
:1042C000B1483C3084421ED0AF48503084421AD0AE
:1042D000AD486430844216D0AB487830844212D066
:1042E000AA4884420FD0A948143084420BD0A74872
:1042F0002830844207D0A5483C30844203D0A348EC
:104300005030844200D105E04FF4BB71AFF2C810C9
:10431000FBF762FF606880B210BD70B504460025EF
:104320000026012C7ED0022C7CD0042C7AD0082CC4
:1043300078D0102C76D0202C74D0402C72D0802CC9
:104340007FD0B4F5807F7CD0B4F5007F79D0B4F510
:10435000806F76D0B4F5006F73D0B4F5805F70D005
:10436000B4F5005F6DD0B4F5804F6AD0B4F5004F5E
:1043700067D0B4F5803F64D0B4F5003F61D0B4F5A8
:10438000802F5ED0B4F5002F5BD0B4F5801F58D0DD
:10439000B4F5001F55D0B4F5800F52D0B4F5000F1E
:1043A0004FD0B4F1807F4CD0B4F1007F49D0B4F14C
:1043B000806F46D0B4F1006F43D07548844240D03E
:1043C000401C84423DD0801C84423AD0001D84426F
:1043D00037D06F480F30844233D06D481F3084424D
:1043E0002FD06B483F3084422BD069487F308442C5
:1043F00027D06748FF30844223D06648844220D0CB
:10440000654884421DD0654884421AD0B4F1102F0B
:1044100017D04FEAF030844213D06148844210D064
:10442000604800E00DE084420BD05F48844208D031
:104430005E48844205D05E48844202D05D48844292
:1044400000D105E040F2B711AFF20430FBF7C4FE33
:1044500004F0805018B14D480838066802E04A4818
:104460000838066806EA040008B1012500E00025C6
:10447000284670BD10B5044604F0704010B14E4897
:10448000204008B904B105E040F20E21AFF24830F7
:10449000FBF7A2FE04F0805018B13C48001F0460F6
:1044A00002E039480838446010BD70B50446002564
:1044B0000026012C66D0022C64D0042C62D0082C7B
:1044C00060D0102C5ED0202C5CD0402C5AD0802C98
:1044D00058D0B4F5807F55D0B4F5007F52D0B4F5F4
:1044E000806F4FD0B4F5006F4CD0B4F5805F49D0E9
:1044F000B4F5005F46D0B4F5804F43D0B4F5004F1B
:1045000040D0B4F5803F7FD0B4F5003F7CD0B4F507
:10451000802F79D0B4F5002F76D0B4F5801F73D0FA
:10452000B4F5001F70D0B4F5800F6DD0B4F5000F56
:104530006AD0B4F1807F67D0B4F1007F64D0B4F169
:10454000806F61D0B4F1006F5ED0114884425BD0BF
:10455000401C844258D0801C844255D0001D8442A7
:1045600052D00B480F3084424ED009481F3084424D
:104570004AD007483F30844246D005487F308442C5
:1045800042D01BE040E00000080002400804024066
:1045900001000010000200100004001000080010CC
:1045A0000040001000800010000001100000021008
:1045B00000000410000008100000F0EF2B48FF304E
:1045C000844221D02A4884421ED02A4884421BD0EB
:1045D0002948844218D0B4F1102F15D04FEAF0309A
:1045E000844211D0254884420ED0254884420BD005
:1045F0002448844208D02448844205D02348844279
:1046000002D02348844200D105E040F25921AFF2A4
:10461000C840FBF7E1FD04F0805010B11D4806686A
:1046200001E01D48066806EA040008B1012500E023
:104630000025284670BD10B5044604F0704010B146
:104640001648204008B904B105E040F2AF21AFF2AE
:104650000850FBF7C1FD04F0805018B10D48001D53
:10466000046001E00C48446010BD0000010000102F
:1046700000020010000400100008001000400010AC
:104680000080001000000110000002100000041063
:104690000000081000040240000002400000F0EF9B
:1046A00010B50446B4F5E06F0BD0B4F5C06F08D078
:1046B000B4F5A06F05D0B4F5806F02D0B4F5407F9B
:1046C00000D103E063215DA0FBF786FD674820432E
:1046D0006749086010BD2DE9F04104460025002718
:1046E0000F26E07810B1E078012800D103E07521B1
:1046F00052A0FBF771FD6078102800DA03E0762104
:104700004EA0FBF769FDA078102800DA03E07721BE
:104710004AA0FBF761FDE07800B35548006800F45B
:10472000E060C0F5E060050AC5F10407EE4060787E
:1047300000FA07F5A078304005432D014D48227856
:104740008554207800F01F0101208840217849110C
:10475000890001F1E021C1F8000109E0207800F0B2
:104760001F010120884044492278521141F822005B
:10477000BDE8F08170B504460D46B4F1005F02D08B
:10478000B4F1006F00D103E09F212CA0FBF724FDC2
:104790003A48854200D203E0A02128A0FBF71CFD87
:1047A000374905EA010020433149091F086070BDFF
:1047B00070B504460D46102C03D0042C01D0022CF9
:1047C00000D103E0B2211DA0FBF706FD0DB1012DC4
:1047D00000D103E0B32119A0FBF7FEFC3DB1244852
:1047E000001D006820432249091D086006E020489A
:1047F000001D0068A0431E49091D086070BD10B56A
:104800000446042C01D0601D00B903E0CA210BA0AE
:10481000FBF7E2FC042C08D14FF0E020006940F0E7
:1048200004004FF0E021086107E04FF0E02000694C
:1048300020F004004FF0E021086110BD4C69627265
:1048400061726965735C53544D3332463130785F21
:104850005374645065726970685F447269766572FA
:104860005C7372635C6D6973632E63000000FA050C
:104870000CED00E000E400E080E100E0FFFF0F004D
:1048800080FFFF1F0648804706480047FEE7FEE717
:10489000FEE7FEE7FEE7FEE7FEE7FEE7FEE7FEE7F0
:1048A0009F080008310100087047174800687047EA
:1048B00070B5044604F058FA0546134804602846CB
:1048C00004F056FA70BD10B50F480068401C0E4940
:1048D000086003F003FB0446A06C401EA064A06CBB
:1048E00018B9606CA06403F0C9FB03F0BAFE10BDF8
:1048F0000146642201FB02F000F2E7304FF47A72C5
:10490000B0FBF2F070470000400000202DE9F041BC
:10491000064603F0E3FA08B103F091F9A34D6C6881
:1049200010E0A4F10C0708223146384601F0A3FE3E
:1049300038B903F0D3FA08B103F08FF93846BDE86F
:10494000F0812468281D8442EBD103F0C7FA08B136
:1049500003F083F90020F2E770B504460D461646D1
:1049600014B94FF0FF3070BD2846FFF7CFFF10B1EC
:104970004FF0FF30F7E72A460721204602F01DFFDF
:10498000E6820020A076208300BFECE710B5044645
:1049900024B94822864987A002F021FA204602F075
:1049A00032FF002010BD0020704770B5044600257E
:1049B00024B9952283497FA002F011FA606A90B170
:1049C000A07D00F0100070B92046616A8847054656
:1049D0002DB12A4621467CA002F0FBF803E0E08AD4
:1049E00040F01000E082284670BD70B504460E46C7
:1049F000002524B9B82282496EA002F0F0F9A07D0A
:104A000000F0100088B9606A58B12046616A884792
:104A1000054635B12A4621466BA002F0DAF8284651
:104A200070BDE08A40F01000E082A07D00F0080038
:104A300030B1207E00F0080010B16FF00600EFE703
:104A4000A06A20B131462046A26A904705460DB1C2
:104A5000A81D60B946F008002083A07E401CA07607
:104A6000A07E20B9E122664966A002F0B8F9284686
:104A7000D6E770B50446002524B9F32266494DA057
:104A800002F0ADF9A07E10B94FF0FF3070BDA07EEE
:104A9000401EA076A07E08B10020F7E7E06A18B1BA
:104AA0002046E16A884705460DB1A81D08B90020D7
:104AB00020832846EAE72DE9F04104460D461646D4
:104AC0001F462CB94FF48E7254493AA002F087F970
:104AD000A07E30B94FF0FF3001F0BEFC0020BDE8F1
:104AE000F081206B38B13B46324629462046D4F847
:104AF00030C0E047F3E76FF0050001F0ADFC0020A7
:104B0000EDE72DE9F04104460D4616461F462CB947
:104B10004FF4A172424927A002F061F9A07E30B99A
:104B20004FF0FF3001F098FC0020BDE8F081606B91
:104B300038B13B46324629462046D4F834C0E047D7
:104B4000F3E76FF0050001F087FC0020EDE770B59A
:104B500004460D4616462CB94FF4B172314915A0E2
:104B600002F03DF9A06B28B1324629462046A36BDE
:104B7000984770BD0020FCE770B504460D462CB97F
:104B800040F27B1228490BA002F029F9E5610020D0
:104B900070BD70B504460D462CB94FF4C872234958
:104BA00004A002F01CF92562002070BDF000002076
:104BB0003057010864657620213D2052545F4E55E0
:104BC0004C4C000045570108546F20696E697469A8
:104BD000616C697A65206465766963653A2573203E
:104BE0006661696C65642E20546865206572726F19
:104BF0007220636F64652069732025640A000000D9
:104C0000545701086465762D3E7265665F636F7563
:104C10006E7420213D20300063570108735701084E
:104C20008257010892570108A4570108BE5701088E
:104C30003B490860704770B544E000BF04F094F849
:104C4000064601F0EFFB40B1364937A001F0C1FF45
:104C5000652234493DA002F0C2F8304604F088F8DD
:104C600000BF04F081F8054600F051F8E0B1384883
:104C70000068A0F1140404F11400D0E9002151608F
:104C8000D0E9001211604060006000BFA06F10B159
:104C90002046A16F8847204602F03DFE012807D13B
:104CA000284604F065F870BD284604F061F8FAE77C
:104CB000284604F05DF8A06A02F0E0FA204602F00F
:104CC00000FE00BF00F023F80028B6D100BFEAE7DD
:104CD00007E01348006810B1114800688047FFF7EB
:104CE000AAFFF6E71FB520201F21C200194BCDE90E
:104CF0000032CDE902100023174A18A1194803F029
:104D0000C8F8184803F01DF91FBD16487047104930
:104D10000868884201D0012070470020FCE70000AD
:104D200044000020D857010846756E6374696F6EA1
:104D30005B25735D207368616C6C206E6F742075E9
:104D400073656420696E204953520A0030000000E8
:104D5000340100206C0A0020D14C00087469646C96
:104D600065000000EC0900204268116042684A605A
:104D70004160086070472DE9F04105460C469046B9
:104D8000204603F0A7F9B8F1000F03D0B8F1010FE6
:104D900023D105E004F114012846FFF7E5FF1CE0EC
:104DA0002E680FE0A6F1140794F8350097F8351037
:104DB000884206DA04F1140107F11400FFF7D4FF6A
:104DC00002E03668AE42EDD100BFAE4204D104F13C
:104DD00014012846FFF7C8FF00BF00BF0020BDE850
:104DE000F08170B505460EE003F0BEFF0646286868
:104DF000A0F114044FF0FF302063204603F071F857
:104E0000304603F0B5FF284601F0B0FA0028EBD099
:104E1000002070BD2DE9F04104460D4616461F46A0
:104E200024B9D822FD49FEA001F0D9FF2A4601216C
:104E3000204602F0C2FC204601F0A0FAA683677269
:104E40000020BDE8F08110B5044624B9F522F849E8
:104E5000F3A001F0C4FF04F11400FFF7C2FF2046E5
:104E600002F0D1FC002010BD2DE9F04105460E46B0
:104E7000174600BF03F078FF804601F0D3FA48B12F
:104E8000EC49EDA001F0A5FE40F21112E949F3A0B2
:104E900001F0A5FF404603F06BFF00BF294601204B
:104EA00002F0CDFC044614B92046BDE8F08120464E
:104EB00001F064FAA68367722046F6E770B50446EF
:104EC00000BF03F051FF054601F0ACFA48B1E449D8
:104ED000D9A001F07EFE4FF49872E149DFA001F005
:104EE0007EFF284603F044FF00BF2CB94FF49972AF
:104EF000DB49CBA001F073FF04F11400FFF771FF51
:104F0000204602F0DEFC002070BD2DE9F34105468D
:104F10002DB940F24D12D349C1A001F060FF00BF8E
:104F2000D148006818B12846CF490968884700BFB2
:104F300003F01AFF064600BF00BFA88B002806DD5D
:104F4000A88B401EA883304603F012FF57E001985B
:104F500030B9304603F00CFF6FF00100BDE8FC8172
:104F600000BF03F001FF074602F0B8FF48B9BD4992
:104F7000BEA001F02EFE40F26D12BA49B7A001F0BA
:104F80002EFF00BF03F0F0FE804601F04BFA48B15F
:104F9000B449A9A001F01DFE40F26D12B149AFA0C5
:104FA00001F01DFF404603F0E3FE00BF384603F06A
:104FB000DFFE00BF02F092FF04460020206300BF26
:104FC00000BF6A7A214605F11400FFF7D4FE01986C
:104FD00000280BDD00BF00BF01AA002104F14C0036
:104FE00003F019FB04F14C0003F05BFA304603F0C8
:104FF000BFFE02F089FD206B08B1206BAEE700BF59
:10500000A848006818B12846A6490968884700BF23
:105010000020A3E710B5044600212046FFF775FFE6
:1050200010BD70B5044600BF9F48006818B1204607
:105030009D490968884700BF002503F095FE064694
:1050400000BF00BF04F1140001F090F928B904F189
:10505000140001F09BF9012502E0A08B401CA08305
:10506000304603F085FE012D01D102F04DFD0020F8
:1050700070BD2DE9F04104460E4615462CB94FF49B
:10508000F2728A4966A001F0AAFE012E10D12F46C5
:1050900003F06AFE804604F11400FFF7A2FEA78326
:1050A000404603F065FE02F02FFD0020BDE8F081D0
:1050B0004FF0FF30FAE770B504460D4616462CB99E
:1050C00040F20F227A497BA001F089FE2A46022194
:1050D000204602F072FB204601F050F90120A08327
:1050E00000202062FF20A0770020E077667270BD6C
:1050F00010B504462CB940F22E2273496DA001F080
:105100006EFE04F11400FFF76CFE204602F07BFBFC
:10511000002010BD2DE9F04105460E4600BF03F00A
:1051200023FE074601F07EF948B1684942A001F02C
:1051300050FD40F24922654948A001F050FE384632
:1051400003F016FE00BF2946022002F078FB044659
:1051500014B92046BDE8F081204601F00FF9012086
:10516000A08300202062FF20A0770020E0776672F5
:105170002046EFE770B5044600BF03F0F5FD054695
:1051800001F050F948B152492BA001F022FD40F244
:105190006A224F4931A001F022FE284603F0E8FDC3
:1051A00000BF2CB94FF41B72494942A001F017FE11
:1051B00004F11400FFF715FE204602F082FB0020E8
:1051C00070BD2DE9F341044600BF03F0CDFD074655
:1051D00002F084FE48B93F4924A001F0FAFC4FF4E4
:1051E00022723C491DA001F0FAFD00BF03F0BCFD96
:1051F000804601F017F948B136490FA001F0E9FCEB
:105200004FF42272334915A001F0E9FD404603F046
:10521000AFFD00BF384603F0ABFD5DE0EE5701087F
:1052200073656D20213D2052545F4E554C4C00005B
:10523000FA5701080858010846756E6374696F6E65
:105240005B25735D207368616C6C206E6F742075D4
:1052500073656420696E204953520A0030000000D3
:1052600016580108245801081801002046756E637D
:1052700074696F6E5B25735D207368616C6C206E62
:105280006F742062652075736564206265666F7255
:1052900065207363686564756C65722073746172F0
:1052A000740A00001C010020200100203058010871
:1052B0003F5801086D7574657820213D2052545F78
:1052C0004E554C4C000000004D5801085D58010837
:1052D0006D5801087D58010800BF34B940F28A2298
:1052E000FE49AFF2300001F07AFD03F03DFD0646C5
:1052F00002F0F4FD054600BFF948006818B12046E9
:10530000F7490968884700BF00BF00BF0020286335
:10531000206AA84203D1E07F401CE07749E0A08BDF
:1053200000280ADDA08B401EA083256295F8350079
:10533000A077E07F401CE0773BE0019848B96FF030
:1053400001002863304603F013FD6FF00100BDE853
:10535000FC8100BF00BF95F83500216A91F8351037
:10536000884205DA05F135020221206A02F075FF54
:10537000627A294604F11400FFF7FDFC0198002829
:105380000BDD00BF00BF01AA002105F14C0003F0B6
:1053900042F905F14C0003F084F8304603F0E8FCD4
:1053A00002F0B2FB286B08B1286BD0E703F0DCFCFD
:1053B0000646304603F0DCFC00BFCA48006818B15E
:1053C0002046C8490968884700BF0020BFE72DE98B
:1053D000F0470446002600BF03F0C6FC804602F0FA
:1053E0007DFD58B9C049AFF27C1001F0F2FB40F2EC
:1053F0000D32BD49AFF29C1001F0F1FC00BF03F08B
:10540000B3FC814601F00EF858B1B749AFF2D8109D
:1054100001F0DFFB40F20D32B349AFF2C01001F0F2
:10542000DEFC484603F0A4FC00BF404603F0A0FCAD
:1054300000BF02F053FD054603F096FC074600BF8F
:1054400000BF00BFA948006818B12046A7490968F5
:10545000884700BF206AA84209D04FF0FF30286378
:10546000384603F085FC4FF0FF30BDE8F087E07F61
:10547000401EE077E07F08BBA07F216A91F83510DD
:10548000884205D004F11E020221206A02F0E5FEE6
:1054900004F1140000F06AFF88B96069A0F11405F6
:1054A00000BF00BF256295F83500A077E07F401C63
:1054B000E07704F1140000F069FF012606E0A08BFC
:1054C000401CA08300202062FF20A077384603F014
:1054D0004FFC012E01D102F017FB0020C5E7034667
:1054E0004FF0FF30704770B504460D4616462CB994
:1054F00040F27B327E497FA001F071FC2A460321F5
:10550000204602F05AF96672204600F037FF00206C
:10551000E06170BD10B504462CB940F297327A496B
:1055200074A001F05CFC04F11400FFF75AFC204663
:1055300002F069F9002010BD2DE9F04105460E4644
:1055400000BF03F011FC074600F06CFF58B16F4933
:10555000AFF21C3001F03DFB4FF46C726B49AFF2BF
:10556000043001F03CFC384603F002FC00BF294641
:10557000032002F064F9044614B92046BDE8F08126
:105580006672204600F0FAFE0020E0612046F5E752
:1055900070B504462CB940F2CE325D4955A001F0F9
:1055A0001EFC00BF03F0E0FB054600F03BFF58B1D6
:1055B0005749AFF27C3001F00CFB4FF47472544940
:1055C000AFF2683001F00BFC284603F0D1FB00BFBE
:1055D00004F11400FFF705FC204602F072F90020E8
:1055E00070BD2DE9F04704460F462CB940F2EF326A
:1055F000484940A001F0F3FB1FB94FF0FF30BDE870
:10560000F0874FF0000800BF3848006818B1204606
:1056100036490968884700BF03F0A6FB8246E06967
:105620003843E06104F1140000F0A0FEC0BB6669DD
:1056300032E0A6F114054FF0FF3995F8400000F074
:10564000010040B1E86BE1690840E96B884211D183
:105650004FF000090EE095F8400000F0020048B15C
:10566000E86BE169084028B1E86BE1690840E8634C
:105670004FF000093668B9F1000F0DD195F84000E0
:1056800000F0040018B1E069E96B8843E061284646
:1056900002F027FC4FF0010804F114008642C8D143
:1056A000504603F065FBB8F1010F01D102F02CFA6E
:1056B0000020A4E72DE9FF4F81B005460E461746AE
:1056C000DDF8388000BF03F04FFB009002F006FCCD
:1056D00018B91149AFF26C4020E028E07D5801086C
:1056E000180100201C0100208B5801082001002017
:1056F0009C5801086576656E7420213D2052545FE8
:105700004E554C4C00000000AA580108BA58010838
:10571000CA580108DA580108E858010801F059FA96
:1057200040F24F42FC49AFF2CC4001F058FB00BFC1
:1057300003F01AFB834600F075FE58B1F649AFF24C
:10574000085001F046FA40F24F42F349AFF2F440FC
:1057500001F045FB584603F00BFB00BF009803F037
:1057600007FB00BF35B940F25242EB49AFF27C0073
:1057700001F035FB26B94FF0FF3005B0BDE8F08FE2
:105780004FF0FF3902F0AAFB04460021216300BF5D
:10579000E248006818B12846E0490968884700BF18
:1057A00003F0E2FA824607F0010030B1E8693040C8
:1057B000B04212D14FF000090FE007F0020028B10B
:1057C000E869304048B14FF0000906E04FF48E62BE
:1057D000D149AFF2785001F002FBB9F1000F0DD1C1
:1057E000B8F1000F03D0E8693040C8F8000007F0B6
:1057F000040088B3E869B043E8612DE0049818B963
:105800006FF00100206327E0E66384F840706A7A55
:10581000214605F11400FFF7AEFA0498002809DDCF
:1058200004AA002104F14C0002F0F5FE04F14C0042
:1058300002F037FE504603F09BFA02F065F9206B48
:1058400008B1206B99E703F08FFA8246B8F1000F98
:1058500002D0E06BC8F80000504603F089FA00BFA0
:10586000AF48006818B12846AD490968884700BFAD
:10587000206B82E72DE9F04104460D46174634B906
:105880004FF49862A749AFF2941001F0A8FA012DE5
:1058900010D103F069FA064604F11400FFF7A1FAEB
:1058A0000020E061304603F063FA02F02DF9002099
:1058B000BDE8F0814FF0FF30FAE72DE9F0410446F2
:1058C0000D4616461F46DDF818802CB940F2ED4211
:1058D000954996A001F083FA2A460421204601F05A
:1058E0006CFF84F80980204600F048FDE6612784BB
:1058F00000206084A084E08404F1280000F033FDDF
:105900000020BDE8F08110B504462CB94FF4A26226
:105910008A4986A001F063FA04F11400FFF761FAE6
:1059200004F12800FFF75DFA204601F06CFF00202B
:1059300010BD2DE9F04105460E46174600BF03F0A5
:1059400013FA804600F06EFD58B17D49AFF2187031
:1059500001F03FF940F22C527949AFF2007001F0AA
:105960003EFA404603F004FA00BF2946042001F045
:1059700066FF044614B92046BDE8F08167722046F0
:1059800000F0FCFC2684218C880001F073FBE061B0
:10599000E06920B9204601F094FF0020ECE70020E8
:1059A0006084A084E08404F1280000F0DCFC204640
:1059B000E2E770B5044600BF03F0D6F9054600F0F3
:1059C00031FD58B15F49AFF2907001F002F940F239
:1059D00057525C49AFF27C7001F001FA284603F09F
:1059E000C7F900BF2CB940F25A5256494FA001F0F6
:1059F000F6F904F11400FFF7F4F904F12800FFF7B9
:105A0000F0F9E06901F03AFC204601F05AFF00206D
:105A100070BD2DE9F74F04460F462CB940F287526E
:105A2000494942A001F0DBF9002602F057FA054689
:105A300000BF4648006818B12046444909688847B5
:105A400000BF03F091F98046608C218C884208D118
:105A5000029830B9404603F08BF96FF00200BDE8C0
:105A6000FE8F86E000202863029828B9404603F0A4
:105A70007FF96FF00200F2E700BF03F075F981468D
:105A800002F02CFA58B93049AFF6200001F0A1F825
:105A900040F2AA522C49AFF63C0001F0A0F900BF39
:105AA00003F062F9824600F0BDFC58B12649AFF61A
:105AB000780001F08EF840F2AA522349AFF6640054
:105AC00001F08DF9504603F053F900BF484603F04A
:105AD0004FF900BF627A294604F12800FFF74BF91D
