:020000040800F2
:10000000901C00201509000821030008596A000807
:1000100023030008270300082B030008000000004A
:100020000000000000000000000000002F03000896
:100030003103000800000000E3690008970200088F
:100040002F0900082F0900082F0900082F090008B0
:100050002F0900082F090008B3CB0008CBCB0008FC
:10006000E3CB0008FBCB000813CC00082F090008E5
:100070002F0900082F0900082F0900084F06000863
:100080002F0900082F0900082F0900082F09000870
:100090002F0900082F0900082F0900082BCC0008A1
:1000A0002F0900082F0900082F0900082F09000850
:1000B0002F0900082F0900082F0900082F09000840
:1000C0002F0900082F0900082F0900082F09000830
:1000D0002F0900083D0600082F0900082F09000815
:1000E000A1CC00082F0900082F0900082F090008DB
:1000F0002F0900082F0900082F0900082F09000800
:100100002F0900082F0900082F0900082F090008EF
:100110002F0900082F0900082F0900082F090008DF
:100120002F0900082F0900082F0900082F090008CF
:10013000DFF80CD00DF04CF900480047230200080E
:10014000901C002000240CF005FB0AE0641C0CF05D
:100150001FFB142005F011FF0CF020FB142005F00C
:100160000CFFF3E710B504460CF0D6FA10BD7FB5CE
:10017000052014214FF40072114BCDE90032CDE976
:10018000021000230F4A10A1104805F0CAFD0546D1
:1001900015B90E4805F007FE142008210B020022B5
:1001A000CDE90010AFF2430109A005F033FE04468B
:1001B00014B1204605F0F7FD002004B070BD00002A
:1001C0001C060020450100086C6564001C08002026
:1001D000696E69740000000004460D4614A004F026
:1001E000FEFE21461CA004F0FAFE29461FA004F0E2
:1001F000F6FE00BFFEE710B500F055F804F01FFF53
:100200001F49204805F07EF805F0DAFB06F0D0F82B
:1002100006F0DAF8FFF7ABFF03F084FB05F0EAFB2A
:1002200010BD10B506F0C6FBFFF7E5FF002010BDBE
:100230000A0D2057726F6E6720706172616D657470
:1002400065722076616C756520646574656374659C
:1002500064206F6E0D0A00002020202020202066E0
:10026000696C65202025730D0A00000020202020E5
:100270002020206C696E65202025640D0A00000096
:1002800000000120901C002010B500214FF00060FC
:1002900000F0BCFB10BD10B504F0A0FA03F0B1F9FA
:1002A00004F0B1FA10BD70B5FFF7EEFF1748006813
:1002B0006422B0FBF2F1B1F1807F00D31DE021F0A8
:1002C0007F40401E4FF0E022506150170F2200285F
:1002D00007DA13071D0E0E4B00F00F04241F1D55E7
:1002E00003E013071C0E0B4B1C5400BF00204FF003
:1002F000E02290610720106100BF00F0E6F906A03F
:1003000004F0E8FE0CF0FEF970BD000018000020BB
:1003100018ED00E000E400E0756172743100000047
:10032000704700BFFEE700BFFEE700BFFEE7704773
:10033000704700007FB505460C46EE6B20680090C4
:10034000207900F00F00082803D10020ADF8040048
:1003500008E0207900F00F00092803D14FF4805005
:10036000ADF804002079C0F3011018B90020ADF8F1
:10037000060007E02079C0F30110012802D14003F4
:10038000ADF806002079C0F3811018B90020ADF84F
:10039000080011E02079C0F38110012804D14FF446
:1003A000C060ADF8080007E02079C0F38110022892
:1003B00002D14002ADF808000020ADF80C000C207E
:1003C000ADF80A006946306802F0C9FA01213068C8
:1003D00002F009FC002004B070BD70B58CB0054679
:1003E000EC6BEE6C012240F22441206802F028FC04
:1003F0000121084602F015F90121022002F011F94D
:10040000A06800F075FB2068001D01903068029024
:1004100000200390A86CC0F38F200490002005906A
:100420008020069000200790089009904FF400501B
:100430000A9000200B9001A9A06800F030FCE06851
:1004400000F0C0FE01220221A06800F049FD012257
:100450004021206802F07FFC0121A06800F0EEFC42
:10046000207C8DF8000000208DF8010001208DF81F
:1004700002008DF80300684600F079FA0CB070BDF8
:100480002DE9F04105460E461746B846EC6B032EA3
:1004900029D0102E13D0112E2CD194F9040000F085
:1004A0001F0201219140994A430942F8231000BFDD
:1004B000002240F22551206802F0C2FB1AE094F9B4
:1004C000040000F01F02012191404209920002F154
:1004D000E022C2F8001100BF012240F2255120683D
:1004E00002F0AEFB06E0B8F5007F02D12846FFF728
:1004F00074FF00BF00BF0020BDE8F08102460B463C
:10050000D16B0868838000BF0868008800F0400055
:100510000028F9D0012070470146CA6B4FF0FF3028
:1005200013681B8803F0200313B113689B88D8B2AB
:1005300070472DE9F0410646F46B0021A06800F0F9
:100540007DFCA06800F059FDB16CC1F38F210D1A3C
:100550006069A84202D260692F1A00E02F466561E7
:10056000032040EA0721304606F0A8FD206802F08B
:1005700025FDE06800F026FE0121A06800F05EFC89
:10058000BDE8F0812DE9F0410546EC6B0021A06843
:1005900000F054FCA06800F030FDA96CC1F38F217D
:1005A0000E1A6069B04202D26069371A00E037461D
:1005B0006661032040EA0721284606F07FFDE068D7
:1005C00000F000FEAA6CC2F38F21A06800F0DCFCF2
:1005D0000121A06800F032FCBDE8F08170B505464D
:1005E000EC6B40F22551206802F019FF40B1012167
:1005F000284606F063FD40F22551206802F09AFF7C
:1006000040F22441206802F00AFF10B12846FFF7AB
:1006100090FF40F22661206802F001FF20B140F215
:100620002661206802F086FF0821206802F06EFE35
:10063000012802D12846FFF76FFF70BD10B504F006
:10064000CDF83348FFF7CAFF04F0DDF810BD10B550
:1006500004F0C4F82E48FFF795FF04F0D4F810BD5D
:1006600010B50121052002F005F80121880302F0F0
:1006700001F810BD08B502208DF8020004208DF8A5
:1006800003000002ADF800006946224801F07CF842
:1006900018208DF803004FF40070ADF80000694693
:1006A0001C4801F071F808BD38B5044620798DF872
:1006B000000000208DF801008DF8020001208DF867
:1006C0000300684600F053F938BD1CB5124903C950
:1006D000CDE90001FFF7C4FFFFF7CCFF0F4C4FF44B
:1006E000E13000900E480A4908640846DDE900122E
:1006F000C0E911122046FFF7D7FF234640F203322C
:1007000008A1034806F0BBFC1CBD000080E100E02E
:100710009C0800200008014048D500080000002087
:1007200034D5000875617274310000000CB50020EA
:10073000019000906C48006840F480306A4908607D
:1007400000BF6948006800F4003000900198401C28
:100750000190009818B90198B0F5A06FF1D16248E6
:10076000006800F4003010B10120009001E000208A
:1007700000900098012843D15C48006840F01000C8
:100780005A4908600846006820F0030008600846DF
:10079000006840F0020008605348406852494860D1
:1007A0000846406848600846406840F480604860F9
:1007B0000846406820F47C1048600846406840F4D1
:1007C000881048600846006840F08070086000BFEC
:1007D0004548006800F000700028F9D042484068A1
:1007E00020F00300404948600846406840F002009D
:1007F000486000BF3C48406800F00C000828F9D170
:100800000CBD10B5FFF792FF10BD10B5364800685B
:1008100040F0010034490860084640683449084007
:100820003149486008460068324908402E4908604E
:100830000846006820F4802008600846406820F4DC
:10084000FE0048604FF41F008860FFF7DAFF4FF0AA
:1008500000602949086010BD10B500210020002269
:10086000214B5B6803F00C0121B1042906D0082953
:1008700028D107E0214B224C236027E0214B204C5C
:10088000236023E0184B5B6803F47010164B5B6821
:1008900003F48032022303EB904022B91A4B434306
:1008A000174C23600DE0104B5B6803F4003323B159
:1008B000164B4343124C236003E0124B4343104C4E
:1008C000236003E00D4B0E4C236000BF00BF064BBE
:1008D0005B68C3F303130E4CE15C094B1B68CB4010
:1008E000074C236010BD00000010024000200240B1
:1008F0000000FFF8FFFFF6FE08ED00E000127A00AE
:1009000018000020001BB70000093D00808D5B002F
:100910001C0000200648804706480047FEE7FEE727
:10092000FEE7FEE7FEE7FEE7FEE7FEE7FEE7FEE79F
:100930000B0800083101000810B50446B4F5E06F5B
:100940000BD0B4F5C06F08D0B4F5A06F05D0B4F5E6
:10095000806F02D0B4F5407F00D103E063215D4891
:10096000FFF73AFC5C4820435C49086010BD2DE964
:10097000F0410446002500270F26E07810B1E0780A
:10098000012800D103E075215248FFF725FC60786B
:10099000102800DA03E076214E48FFF71DFCA0780E
:1009A000102800DA03E077214A48FFF715FCE078C9
:1009B00000B34A48006800F4E060C0F5E060050A52
:1009C000C5F10407EE40607800FA07F5A0783040E2
:1009D00005432D01424822788554207800F01F01FC
:1009E0000120884021784911890001F1E021C1F8F6
:1009F000000109E0207800F01F01012088403949FA
:100A00002278521141F82200BDE8F08170B5044609
:100A10000D46B4F1005F02D0B4F1006F00D103E0E5
:100A20009F212C48FFF7D8FB2F48854200D203E0D6
:100A3000A0212848FFF7D0FB2C4905EA01002043FC
:100A40002649091F086070BD70B504460D46102C7C
:100A500003D0042C01D0022C00D103E0B2211D48A8
:100A6000FFF7BAFB0DB1012D00D103E0B321194806
:100A7000FFF7B2FB3DB11948001D0068204317493C
:100A8000091D086006E01548001D0068A0431349D1
:100A9000091D086070BD10B50446042C01D0601D0E
:100AA00000B903E0CA210B48FFF796FB042C08D1DC
:100AB0004FF0E020006940F004004FF0E0210861B1
:100AC00007E04FF0E020006920F004004FF0E02143
:100AD000086110BD50D800080000FA050CED00E0D8
:100AE00000E400E080E100E0FFFF0F0080FFFF1F57
:100AF00010B50446F74884422AD0F64814308442A0
:100B000026D0F4482830844222D0F2483C30844237
:100B10001ED0F048503084421AD0EE4864308442EF
:100B200016D0EC487830844212D0EB4884420FD083
:100B3000E948143084420BD0E7482830844207D07B
:100B4000E5483C30844203D0E3485030844200D131
:100B500003E06F21E148FFF73FFB20684FF6FE718D
:100B600008402060002020606060A060E060D948FC
:100B7000844208D1D7480838406840F00F00D54972
:100B8000083948608AE0D3481430844208D1D148FB
:100B90000838406840F0F000CE49083948607DE0F0
:100BA000CC482830844208D1CA480838406840F40C
:100BB0007060C8490839486070E0C6483C308442DB
:100BC00008D1C4480838406840F47040C149083929
:100BD000486063E0BF485030844208D1BD480838BF
:100BE000406840F47020BB490839486056E0B94875
:100BF0006430844208D1B7480838406840F4700037
:100C0000B4490839486049E0B2487830844208D194
:100C1000B0480838406840F07060AE490839486014
:100C20003CE0AD48844206D1001F006840F00F0050
:100C3000211F086032E0A8481430844208D1A64839
:100C4000001F006840F0F000A349091F086025E07C
:100C5000A1482830844208D19F48001F006840F412
:100C600070609D49091F086018E09B483C30844231
:100C700008D19948001F006840F470409649091F48
:100C800008600BE094485030844207D19248001F1E
:100C9000006840F470209049091F086010BD70B5CD
:100CA00005460C4600268B4885422AD089481430D8
:100CB000854226D087482830854222D085483C305E
:100CC00085421ED08348503085421AD08148643016
:100CD000854216D07F487830854212D07E488542C2
:100CE0000FD07D48143085420BD07B482830854298
:100CF00007D079483C30854203D077485030854250
:100D000000D103E0CF217548FFF766FAA0681028EC
:100D100001D0A06800B903E0D0217048FFF75CFA69
:100D2000E06820B1E068B0F5803F00D203E0D12157
:100D30006A48FFF751FA2069402801D0206900B9BC
:100D400003E0D2216548FFF747FA6069802801D0A7
:100D5000606900B903E0D3216048FFF73DFAA0695C
:100D600038B1A069B0F5807F03D0A069B0F5007FED
:100D700000D103E0D4215948FFF72EFAE06938B1D9
:100D8000E069B0F5806F03D0E069B0F5006F00D185
:100D900003E0D5215148FFF71FFA206A202801D02F
:100DA000206A00B903E0D6214C48FFF715FA606AC3
:100DB000B0F5405F09D0606AB0F5005F05D0606AA9
:100DC000B0F5805F01D0606A00B903E0D7214348E5
:100DD000FFF702FAA06AB0F5804F01D0A06A00B90F
:100DE00003E0D8213D48FFF7F7F92E6847F6F07089
:100DF0008643216AA0680843216908436169084362
:100E0000A1690843E1690843616A0843A16A08438C
:100E100006432E60E06868602068A8606068E8604B
:100E200070BD0021016041608160C160016141616C
:100E30008161C161016241628162704770B504469F
:100E40000D46244884422AD022481430844226D0B9
:100E500020482830844222D01E483C3084421ED094
:100E60001C48503084421AD01A486430844216D04C
:100E700018487830844212D0174884420FD0164860
:100E8000143084420BD014482830844207D01248D2
:100E90003C30844203D010485030844200D104E0FA
:100EA00040F229110D48FFF797F90DB1012D00D13E
:100EB00004E04FF495710948FFF78EF925B12068D9
:100EC00040F00100206004E020684FF6FE71084009
:100ED000206070BD0800024008040240A0D800084D
:100EE00070B504460D461646FE4884422AD0FD4899
:100EF0001430844226D0FB482830844222D0F9485E
:100F00003C3084421ED0F748503084421AD0F54815
:100F10006430844216D0F3487830844212D0F248CC
:100F200084420FD0F048143084420BD0EE48283071
:100F3000844207D0EC483C30844203D0EA48503029
:100F4000844200D104E040F24911E848FFF744F937
:100F500025F00E0008B905B104E04FF4A571E3488F
:100F6000FFF73AF90EB1012E00D104E040F24B1127
:100F7000DE48FFF731F91EB120682843206002E007
:100F80002068A843206070BD70B504460D46D54862
:100F900084422AD0D3481430844226D0D148283005
:100FA000844222D0CF483C3084421ED0CD485030BD
:100FB00084421AD0CB486430844216D0C948783075
:100FC000844212D0C84884420FD0C74814308442AB
:100FD0000BD0C5482830844207D0C3483C308442F7
:100FE00003D0C1485030844200D104E04FF4B271C4
:100FF000BE48FFF7F1F8656070BD10B50446B9480A
:1010000084422AD0B7481430844226D0B5482830CC
:10101000844222D0B3483C3084421ED0B148503084
:1010200084421AD0AF486430844216D0AD4878303C
:10103000844212D0AC4884420FD0AB481430844272
:101040000BD0A9482830844207D0A7483C308442BE
:1010500003D0A5485030844200D104E04FF4BB7166
:10106000A248FFF7B9F8606880B210BD70B50446B9
:1010700000250026012C7DD0022C7BD0042C79D0B9
:10108000082C77D0102C75D0202C73D0402C71D028
:10109000802C7FD0B4F5807F7CD0B4F5007F79D0F0
:1010A000B4F5806F76D0B4F5006F73D0B4F5805F7F
:1010B00070D0B4F5005F6DD0B4F5804F6AD0B4F550
:1010C000004F67D0B4F5803F64D0B4F5003F61D0E5
:1010D000B4F5802F5ED0B4F5002F5BD0B4F5801F3F
:1010E00058D0B4F5001F55D0B4F5800F52D0B4F5E8
:1010F000000F4FD0B4F1807F4CD0B4F1007F49D0C5
:10110000B4F1806F46D0B4F1006F43D07848844288
:1011100040D0401C84423DD0801C84423AD0001D07
:10112000844237D072480F30844233D070481F3029
:1011300084422FD06E483F3084422BD06C487F30A1
:10114000844227D06A48FF30844223D069488442D1
:1011500020D0694884421DD0684884421AD0B4F136
:10116000102F17D04FEAF030844213D064488442E5
:1011700010D000E00EE0634884420BD06248844205
:1011800008D06248844205D06148844202D0614858
:10119000844200D104E040F2B7115448FFF71CF834
:1011A00004F0805018B150480838066802E04D48F5
:1011B0000838066806EA040008B1012500E00025A9
:1011C000284670BD10B5044604F0704010B1524876
:1011D000204008B904B104E040F20E214348FEF774
:1011E000FBFF04F0805018B13F48001F046002E08C
:1011F0003C480838446010BD70B504460025002600
:10120000012C6DD0022C6BD0042C69D0082C67D037
:10121000102C65D0202C63D0402C61D0802C5FD066
:10122000B4F5807F5CD0B4F5007F59D0B4F5806F01
:1012300056D0B4F5006F53D0B4F5805F50D0B4F5FC
:10124000005F4DD0B4F5804F4AD0B4F5004F47D081
:10125000B4F5803F44D0B4F5003F7ED0B4F5802F84
:101260007BD0B4F5002F78D0B4F5801F75D0B4F5DD
:10127000001F72D0B4F5800F6FD0B4F5000F6CD0A2
:10128000B4F1807F69D0B4F1007F66D0B4F1806F93
:1012900063D0B4F1006F60D0154884425DD0401C2B
:1012A00084425AD0801C844257D0001D844254D0BE
:1012B0000F480F30844250D00D481F3084424CD02C
:1012C0000B483F30844248D009487F30844244D0A4
:1012D0000748FF30844240D0064884423DD01DE09C
:1012E0003BE000000800024008040240A0D80008CB
:1012F000010000100002001000040010000800109F
:1013000000400010008000100000011000000210DA
:1013100000000410000008100000F0EF264884428E
:101320001BD02648844218D0B4F1102F15D04FEAB4
:10133000F030844211D0224884420ED021488442A9
:101340000BD02148844208D02048844205D0204850
:10135000844202D01F48844200D104E040F2592167
:101360001D48FEF739FF04F0805010B11B48066895
:1013700001E01B48066806EA040008B1012500E008
:101380000025284670BD10B5044604F0704010B129
:101390001448204008B904B104E040F2AF210E48DF
:1013A000FEF71AFF04F0805018B10C48001D0460CD
:1013B00001E00B48446010BD00040010000800105C
:1013C000004000100080001000000110000002101A
:1013D0000000041000000810A0D80008000402401B
:1013E000000002400000F0EF0020A7490860091D3E
:1013F0000860091D0860091D0860A448A24914314D
:101400000860704770B504460025207910B1207936
:10141000042800D103E06A219D48FEF7DDFE6079D3
:10142000082805D060790C2802D06079102800D1F6
:1014300003E06B219648FEF7CFFE20686FF31300A0
:1014400010B9206800B103E06C219148FEF7C4FE9A
:10145000A07910B1A079012800D103E06D218C485A
:10146000FEF7BAFE884DA07990B32846006821683F
:10147000884329460860081D006821688843291DA3
:1014800008602079054428682168084328607E4860
:1014900008300068216888437B4908310860081DCE
:1014A00000682168884378490C3108606079102809
:1014B0000FD1081F0068216808437349083108608C
:1014C000081D0068216808436F490C3108600EE070
:1014D00007E06D4D6079054428682168084328605D
:1014E00005E020790544286821688843286070BD9C
:1014F0000021016001710C2141710021817170474F
:1015000010B50446200D000508B904B103E0AE2172
:101510005F48FEF761FE5C481030006820435A497E
:101520001031086010BD70B504460025012C31D083
:10153000022C2FD0042C2DD0082C2BD0102C29D0ED
:10154000202C27D0402C25D0802C23D0B4F5807FB0
:1015500020D0B4F5007F1DD0B4F5806F1AD0B4F55B
:10156000006F17D0B4F5805F14D0B4F5005F11D0D0
:10157000B4F5804F0ED0B4F5004F0BD0B4F5803FDA
:1015800008D0B4F5003F05D0B4F5802F02D0B4F5F3
:10159000002F00D103E0BE213D48FEF71DFE3A4872
:1015A00014300068204008B1012500E000252846DD
:1015B00070BD10B50446200D000508B904B103E064
:1015C000D4213348FEF708FE2F481430046010BDC4
:1015D00070B5044600250026012C31D0022C2FD0F6
:1015E000042C2DD0082C2BD0102C29D0202C27D027
:1015F000402C25D0802C23D0B4F5807F20D0B4F5AA
:10160000007F1DD0B4F5806F1AD0B4F5006F17D0ED
:10161000B4F5805F14D0B4F5005F11D0B4F5804FFD
:101620000ED0B4F5004F0BD0B4F5803F08D0B4F520
:10163000003F05D0B4F5802F02D0B4F5002F00D1C3
:1016400003E0E5211248FEF7C7FD0F48006800EAF5
:1016500004060D4814300068204010B10EB1012579
:1016600000E00025284670BD10B50446200D000599
:1016700008B904B103E0FC210548FEF7ADFD0248BE
:101680001430046010BD000000040140FFFF0F0093
:10169000F8D8000810B50446FC48844211D0FC4834
:1016A00084420ED0FB4884420BD0FB48844208D0D1
:1016B000FA48844205D0FA48844202D0F94884426C
:1016C00000D103E06F21F848FEF786FDEF48844221
:1016D00008D10121042001F01BF80021042001F0B1
:1016E00017F846E0EA48844208D10121082001F0B9
:1016F0000FF80021082001F00BF83AE0E548844299
:1017000008D10121102001F003F80021102000F081
:10171000FFFF2EE0E048844208D10121202000F0A4
:10172000F7FF0021202000F0F3FF22E0DB48844295
:1017300008D10121402000F0EBFF0021402000F003
:10174000E7FF16E0D648844208D10121802000F04E
:10175000DFFF0021802000F0DBFF0AE0D148844257
:1017600007D10121801500F0D3FF0021A01500F062
:10177000CFFF10BD10B50121084600F0C9FF0021C0
:10178000012000F0C5FF10BD2DE9F05F05460C46B5
:101790004FF00009CA4600260027B046B346BB48B2
:1017A000854211D0BA4885420ED0BA4885420BD046
:1017B000B948854208D0B948854205D0B848854225
:1017C00002D0B848854200D103E0B221B648FEF706
:1017D00003FDE078A0B1E078042811D0E078282853
:1017E0000ED0E07848280BD0E078142808D0E078B4
:1017F000102805D0E0781C2802D0E078182800D105
:1018000003E0B321A848FEF7E7FC002010B92088C8
:1018100000B103E0B421A448FEF7DEFCE07800F05C
:101820000F09E07800F0100080B1A078012805D001
:10183000A078022802D0A078032800D103E0BB21C1
:101840009948FEF7C9FCA07840EA0909207838B326
:10185000D5F8008000261FE0012000FA06F7208856
:1018600000EA070ABA4516D1B7000F2000FA07FBB5
:1018700028EA0B0809FA07F040EA0808E078282867
:1018800003D10120B040686105E0E078482802D12A
:101890000120B0402861761C082EDDD3C5F80080F9
:1018A0002088FF282BDDD5F80480002623E006F1F0
:1018B0000800012101FA00F7208800EA070ABA456A
:1018C00018D1B7000F2000FA07FB28EA0B0809FA25
:1018D00007F040EA0808E078282803D106F108005C
:1018E00081406961E078482804D106F108000121AF
:1018F00081402961761C082ED9D3C5F80480BDE843
:10190000F09F4FF6FF710180022181700421C170A8
:10191000704770B505460C4600265C48854211D0DC
:101920005B4885420ED05B4885420BD05A488542C1
:1019300008D05A48854205D05948854202D05948B6
:10194000854200D104E04FF48F715748FEF744FC04
:10195000012C25D0022C23D0042C21D0082C1FD000
:10196000102C1DD0202C1BD0402C19D0802C17D02F
:10197000B4F5807F14D0B4F5007F11D0B4F5806F3A
:101980000ED0B4F5006F0BD0B4F5805F08D0B4F57D
:10199000005F05D0B4F5804F02D0B4F5004F00D100
:1019A00004E040F21F114048FEF716FCA8682040F2
:1019B00008B1012600E00026304670BD10B504468F
:1019C0003248844211D0324884420ED03148844299
:1019D0000BD03148844208D03048844205D030488A
:1019E000844202D02F48844200D104E04FF49A711F
:1019F0002D48FEF7F1FBA06880B210BD70B505461A
:101A00000C4600262148854211D0214885420ED03F
:101A1000204885420BD02048854208D01F48854287
:101A200005D01F48854202D01E48854200D104E0FF
:101A30004FF4A2711C48FEF7CFFB012C25D0022CDD
:101A400023D0042C21D0082C1FD0102C1DD0202CEA
:101A50001BD0402C19D0802C17D0B4F5807F14D027
:101A6000B4F5007F11D0B4F5806F0ED0B4F5006FDF
:101A70000BD0B4F5805F08D0B4F5005F05D0B4F5A5
:101A8000804F02D0B4F5004F10D114E0000801409F
:101A9000000C0140001001400014014000180140FA
:101AA000001C01400020014050D9000840F24511BF
:101AB000FE48FEF791FBE868204008B1012600E0EF
:101AC0000026304670BD10B50446F948844211D056
:101AD000F84884420ED0F84884420BD0F74884423C
:101AE00008D0F748844205D0F648844202D0F64830
:101AF000844200D104E04FF4AD71EC48FEF76CFB7A
:101B0000E06880B210BD70B504460D46E8488442D6
:101B100011D0E84884420ED0E74884420BD0E74811
:101B2000844208D0E648844205D0E648844202D088
:101B3000E548844200D104E040F26911DB48FEF739
:101B40004BFB002008B905B104E04FF4B571D7484C
:101B5000FEF742FB256170BD70B504460D46D448C2
:101B6000844211D0D34884420ED0D34884420BD053
:101B7000D248844208D0D248844205D0D148844219
:101B800002D0D148844200D104E040F27911C74824
:101B9000FEF722FB002008B905B104E04FF4BD7147
:101BA000C248FEF719FB656170BD70B505460C466D
:101BB0001646BF48854211D0BE4885420ED0BE4869
:101BC00085420BD0BD48854208D0BD48854205D02E
:101BD000BC48854202D0BC48854200D104E040F2B6
:101BE0008D11B248FEF7F8FA012C25D0022C23D033
:101BF000042C21D0082C1FD0102C1DD0202C1BD041
:101C0000402C19D0802C17D0B4F5807F14D0B4F5B7
:101C1000007F11D0B4F5806F0ED0B4F5006F0BD0FB
:101C2000B4F5805F08D0B4F5005F05D0B4F5804FFF
:101C300002D0B4F5004F00D104E04FF4C7719B48C7
:101C4000FEF7CAFA0EB1012E00D104E040F28F1166
:101C50009648FEF7C1FA0EB12C6100E06C6170BDD0
:101C600070B504460D469248844211D09148844292
:101C70000ED0914884420BD09048844208D09048BE
:101C8000844205D08F48844202D08F48844200D1DC
:101C900004E04FF4D2718548FEF79EFAE56070BD0E
:101CA00070B504460D464FF480368148844211D009
:101CB000804884420ED0804884420BD07F488442C2
:101CC00008D07F48844205D07E48844202D07E48B6
:101CD000844200D104E040F2B5117448FEF77CFA6A
:101CE000002008B905B104E04FF4DB716F48FEF73E
:101CF00073FA2E43A661A561A661A669A66970BDA7
:101D000070B505460C4600263DB1012D05D0022DCB
:101D100003D0032D01D0042D00D104E04FF4E9716C
:101D20006248FEF759FAECB1012C1BD0022C19D0F5
:101D3000032C17D0042C15D0052C13D0062C11D051
:101D4000072C0FD0082C0DD0092C0BD00A2C09D051
:101D50000B2C07D00C2C05D00D2C03D00E2C01D051
:101D60000F2C00D104E040F2D3115048FEF734FAB2
:101D7000564806684FF68070064046EA0516264328
:101D80005248066070BD10B504460CB1012C00D15C
:101D900004E04FF4F3714548FEF71EFA4C48C46165
:101DA00010BD2DE9F04704460E460027B846002531
:101DB000A946012C78D0022C76D0042C74D0082CA3
:101DC00072D0444884426FD04248203084426BD065
:101DD0004148844268D040488030844264D03F48C3
:101DE000844261D03E4884425ED03E4884425BD00B
:101DF0003D48844258D03D48844255D0B4F5805F78
:101E000052D0B4F5EA1F4FD0B4F5EB1F4CD0B4F567
:101E1000004F49D03648844246D0401C844243D0CB
:101E2000801C844240D0001D84427ED030480F3058
:101E300084427AD0B4F1201F77D04FEAF030844248
:101E400073D02C48844270D02B4884426DD02B48EC
:101E500084426AD02A48844267D02A48844264D0A7
:101E6000B4F5011F61D0284884425ED0401C8442F2
:101E70005BD0801C844258D0001D844255D022483B
:101E80000F30844251D020481F3084424DD01E482C
:101E90003F30844249D01C487F30844245D01A48A4
:101EA000FF30844241D031E03FE0000050D90008CB
:101EB00000080140000C01400010014000140140E6
:101EC00000180140001C01400020014000000140BA
:101ED000000020421000140040001600000118000D
:101EE000000218000003180000081A00000C1A0075
:101EF000010020000001300000023000000430002A
:101F0000001120000020200001000080634884426E
:101F10000BD06348844208D06248844205D06248AE
:101F2000844202D06148844200D104E040F22A2178
:101F30005F48FEF751F90EB1012E00D104E040F2E6
:101F40002B215B48FEF748F904F00040B0F1004F48
:101F500002D15848C56901E056484568C4F30349B1
:101F6000A7B204F44010B0F5401F08D125F0706509
:101F70005048406820F070604E49486013E004F417
:101F80008010B0F5801F07D1032000FA09F825EA78
:101F9000080545F0706506E0600D000107FA00F0E5
:101FA000854345F0706526B1600D010107FA01F027
:101FB000054304F00040B0F1004F02D13D48C56137
:101FC00001E03C484560BDE8F08770B505460C4629
:101FD00000265DB1012D09D0022D07D0032D05D0BB
:101FE000042D03D0052D01D0062D00D104E040F2D0
:101FF00065212F48FEF7F0F8ECB1012C1BD0022C24
:1020000019D0032C17D0042C15D0052C13D0062C76
:1020100011D0072C0FD0082C0DD0092C0BD00A2C76
:1020200009D00B2C07D00C2C05D00D2C03D00E2C76
:1020300001D00F2C00D104E040F266211C48FEF7CD
:10204000CBF8A007010F0F2000FA01F6194808305D
:10205000A11050F82100B04316490831A21041F8F0
:1020600022000846A11050F82100A107090F05FA27
:1020700001F108430F490831A21041F8220070BD58
:1020800010B504460CB1012C00D104E04FF41E71D0
:102090000748FEF7A1F80848046010BD0002008060
:1020A00000040080000800800010008000200080F4
:1020B00050D9000800000140DC002042FE480068C2
:1020C00040F00100FC49086008464068FB490840B0
:1020D000F949486008460068F9490840F64908602F
:1020E0000846006820F4802008600846406820F414
:1020F000FE0048604FF41F008860704710B504462A
:102100002CB1B4F5803F02D0B4F5802F00D104E0AB
:1021100040F21111EB48FEF75FF8E748006820F441
:102120008030E54908600846006820F48020086097
:10213000B4F5803F03D0B4F5802F0ED106E0DE4821
:10214000006840F48030DC49086007E0DA48006845
:1021500040F4A020D849086000E000BF00BF10BDD7
:102160002DE9F0410446002500260027212C13D03C
:10217000312C11D0392C0FD0412C0DD0612C0BD02B
:102180007A2C09D07B2C07D07C2C05D07D2C03D059
:102190007E2C01D07F2C00D104E040F23451C9489C
:1021A000FEF71AF86511012D02D1C348066806E052
:1021B000022D02D1C048066A01E0BF48466A04F019
:1021C0001F050120A840304008B1012700E000278A
:1021D0003846BDE8F08138B5002000900024002585
:1021E00000BF3120FFF7BCFF05460098401C00905F
:1021F0000098B0F5A06F01D0002DF2D03120FFF78C
:10220000AFFF08B1012400E00024204638BD70B5BE
:10221000044600251F2C00DC04E04FF4A971A948F6
:10222000FDF7DAFFA448056825F0F80545EAC4057E
:10223000056070BD10B504460CB1012C00D104E05E
:1022400040F265119F48FDF7C7FF9F48046010BD2D
:1022500070B505460C4600262DB1B5F5803F02D07D
:10226000B5F5403F00D104E040F27F119548FDF7FD
:10227000B3FF4CB3B4F5802F26D0B4F5002F23D094
:10228000B4F5402F20D0B4F5801F1DD0B4F5A01FA9
:102290001AD0B4F5C01F17D0B4F5E01F14D0B4F5B0
:1022A000001F11D0B4F5101F0ED0B4F5201F0BD0B5
:1022B000B4F5301F08D0B4F5401F05D0B4F5501F59
:1022C00002D0B4F5601F00D104E04FF4C0717D4826
:1022D000FDF782FF7848466826F47C1645EA04003C
:1022E00006437548466070BD10B504460CB1012C1C
:1022F00000D104E04FF4CA717248FDF76DFF7248D7
:10230000046610BD70B5044600251CB1012C01D037
:10231000022C00D104E04FF40E716A48FDF75CFF17
:102320006548456825F003052543456070BD624852
:10233000406800F00C00704770B5044600257CB181
:10234000802C0DD0902C0BD0A02C09D0B02C07D015
:10235000C02C05D0D02C03D0E02C01D0F02C00D123
:1023600004E04FF419715748FDF736FF52484568AD
:1023700025F0F0052543456070BD70B50446002585
:102380005CB1B4F5806F08D0B4F5A06F05D0B4F59A
:10239000C06F02D0B4F5E06F00D104E040F27E21BE
:1023A0004848FDF719FF4448456825F4E065254392
:1023B000456070BD70B5044600255CB1B4F5806F12
:1023C00008D0B4F5A06F05D0B4F5C06F02D0B4F555
:1023D000E06F00D104E04FF426713A48FDF7FCFEAF
:1023E0003548456825F4605545EAC405456070BD2B
:1023F00070B504460D4604F0E00008B904B104E0ED
:1024000040F2BF212F48FDF7E7FE0DB1012D00D1AD
:1024100004E04FF430712B48FDF7DEFE2DB1264865
:10242000407A20432449487204E02348407AA0437C
:102430002149487270BD10B504460CB1012C00D181
:1024400004E040F2DB211F48FDF7C6FE1E48D830ED
:10245000046010BD70B50446002544B1B4F5804F4A
:1024600005D0B4F5004F02D0B4F5404F00D104E0E0
:1024700040F202311348FDF7AFFE0F48456825F4DE
:1024800040452543456070BD10B504461CB1012C84
:1024900001D0042C00D104E04FF450710948FDF73D
:1024A0009BFE0020044920310870034981F8200078
:1024B000012C0DD0042C09E0001002400000FFF8B0
:1024C000FFFFF6FEA8D900080000424208D103E051
:1024D0000120EB49087004E00520E949087000E09C
:1024E00000BF00BF10BD10B504460CB1012C00D1D7
:1024F00004E040F26131E348FDF76EFEE24804601B
:1025000010BD10B50446B4F5807F05D0B4F5007F4A
:1025100002D0B4F5407F00D104E040F27231D948D6
:10252000FDF75AFED6482038006A2043D4492039A6
:10253000086210BD10B504460CB1012C00D104E0B6
:102540004FF46071CF48FDF747FECF484438046030
:1025500010BD30B50021002200240023C84D203DCD
:102560006D6805F00C0121B1042905D0082926D198
:1025700005E0C64D056025E0C54D056022E0C04D73
:10258000203D6D6805F47012BD4D203D6D6805F469
:102590008034022505EB92421CB9BE4D55430560BF
:1025A0000CE0B74D203D6D6805F400351DB1BA4D06
:1025B0005543056002E0B64D5543056002E0B34D5A
:1025C000056000BF00BFAE4D203D6D6805F0F00115
:1025D0000909B24D6B5C0568DD404560A84D203DA2
:1025E0006D6805F4E061090AAC4D6B5C4568DD403F
:1025F0008560A34D203D6D6805F46051C90AA74D63
:102600006B5C4568DD40C5609D4D203D6D6805F4FF
:102610004041890BA24D6B5CC568B5FBF3F50561C4
:1026200030BD70B504460D4640F2575024EA000014
:1026300008B904B104E040F22B419248FDF7CCFD0B
:102640000DB1012D00D104E040F22C418D48FDF781
:10265000C3FD3DB18A48203840692043884920396C
:10266000486106E0864820384069A0438449203903
:10267000486170BD70B504460D468A48204008B9CF
:1026800004B104E040F24A417E48FDF7A5FD0DB1DA
:10269000012D00D104E040F24B417A48FDF79CFD4A
:1026A0003DB17748203880692043754920398861D9
:1026B00006E0734820388069A04371492039886159
:1026C00070BD70B504460D467748204008B904B186
:1026D00004E040F269416B48FDF77EFD0DB1012D2C
:1026E00000D104E040F26A416648FDF775FD3DB156
:1026F00063482038C069204361492039C86106E039
:102700005F482038C069A0435D492039C86170BD69
:1027100070B504460D466348204008B904B104E092
:1027200040F2A4415748FDF757FD0DB1012D00D1EE
:1027300004E040F2A5415348FDF74EFD3DB150483D
:102740002038C06820434E492039C86006E04C4814
:102750002038C068A0434A492039C86070BD70B5B0
:1027600004460D465048204008B904B104E040F248
:10277000C3414448FDF730FD0DB1012D00D104E007
:1027800040F2C4413F48FDF727FD3DB13C482038A9
:10279000006920433A492039086106E0384820386A
:1027A0000069A04336492039086170BD10B5044660
:1027B0000CB1012C00D104E04FF49B613148FDF7CE
:1027C0000BFD31484038046010BD10B504460CB113
:1027D000012C00D104E040F2E5412A48FDF7FCFC61
:1027E0003248C46410BD10B504463CB1052C05D078
:1027F000042C03D0062C01D0072C00D104E040F2B9
:1028000005512048FDF7E8FC1D482038C47110BD73
:102810001B482038406A40F08070194920394862CE
:10282000704770B504460025012C09D0022C07D052
:10283000042C05D0082C03D0102C01D0802C00D102
:1028400004E040F27E510F48FDF7C6FC0C482038EA
:102850008068204008B1012500E00025284670BDB1
:1028600010B5044604F0600008B904B104E040F279
:10287000AB510448FDF7B0FC01482038847210BD0C
:1028800020100240A8D900088004424200127A00B9
:10289000001BB70000093D00808D5B002C0000206C
:1028A0003C0000200200C0FF0036018100004242CF
:1028B00010B50446FE4884420BD0FE48844208D03E
:1028C000FD48844205D0FD48844202D0FC48844241
:1028D00000D103E08521FB48FDF77EFCF4488442EB
:1028E00009D101218803FFF713FF00214FF4804035
:1028F000FFF70EFF32E0EF48844209D1012148047E
:10290000FFF72DFF00214FF40030FFF728FF25E0EF
:10291000E948844209D101218804FFF720FF002102
:102920004FF48020FFF71BFF18E0E448844209D1F0
:102930000121C804FFF713FF00214FF40020FFF727
:102940000EFF0BE0DE48844208D101210805FFF7A5
:1029500006FF00214FF48010FFF701FF10BD2DE9A5
:10296000F04786B005460C460026B24600BFB14689
:102970000027CF4885420BD0CE48854208D0CE48AC
:10298000854205D0CD48854202D0CD48854200D150
:1029900003E0B821CB48FDF71FFC206820B1CA49ED
:1029A0002068884200D203E0B921C648FDF714FC34
:1029B000A08818B1A088B0F5805F00D103E0BA21EB
:1029C000C048FDF709FCE08858B1E088B0F5805FA9
:1029D00007D0E088B0F5005F03D0E088B0F5405F35
:1029E00000D103E0BB21B748FDF7F6FB208938B1E1
:1029F0002089B0F5806F03D02089B0F5C06F00D179
:102A000003E0BC21AF48FDF7E7FB60894FF6F371A7
:102A1000084010B9608900B103E0BD21A948FDF765
:102A2000DBFBA08958B1A089B0F5807F07D0A089D1
:102A3000B0F5007F03D0A089B0F5407F00D103E05E
:102A4000BE21A048FDF7C8FBA08968B1984885421F
:102A500005D09848854202D09748854200D103E0CE
:102A6000C2219848FDF7B8FB2F462E8A4CF6FF701E
:102A70000640E08806432E82AE894EF6F3100640EB
:102A8000A08821890843618908430643AE81AE8A44
:102A90004FF6FF400640A0890643AE8201A8FFF72B
:102AA00058FD8348874202D1DDF810A001E0DDF82F
:102AB0000CA0A88900F4004040B10AEBCA0000EB6A
:102AC0000A1021684900B0FBF1F807E00AEBCA00E0
:102AD00000EB0A1021688900B0FBF1F86420B8FB14
:102AE000F0F006013009642101FB1089A88900F487
:102AF000004040B1322000EBC900B0FBF1F000F023
:102B00000700064308E0322000EB09106421B0FB07
:102B1000F1F000F00F0006432E8106B0BDE8F0870B
:102B20004FF41651016000218180C18001810C2188
:102B3000418100218181704770B505460C46002611
:102B40005B48854205D05B48854202D05A488542A1
:102B500000D104E04FF499715A48FDF73DFB2088FD
:102B600018B12088B0F5006F00D104E040F23311B5
:102B70005448FDF731FB608818B16088B0F5806F6C
:102B800000D104E04FF49A714E48FDF725FBA08870
:102B900018B1A088B0F5007F00D104E040F23511F3
:102BA0004848FDF719FBE08818B1E088B0F5807F50
:102BB00000D104E04FF49B714248FDF70DFB2E8AD3
:102BC0004FF2FF000640208861880843A18808432F
:102BD000E188084306432E8270BD002101804180B8
:102BE0008180C180704770B504460D4630488442EC
:102BF0000BD03048844208D02F48844205D02F485B
:102C0000844202D02E48844200D104E04FF4B171D6
:102C10002C48FDF7E1FA0DB1012D00D104E040F29E
:102C200063112848FDF7D8FA25B1A08940F4005077
:102C3000A08104E0A0894DF6FF710840A08170BD1D
:102C40002DE9F04705460C4617464FF00008C246EE
:102C5000C1460026164885420BD01648854208D04A
:102C60001548854205D01548854202D01448854252
:102C700000D104E040F289111248FDF7ADFA282C8A
:102C800028D040F22770844224D040F2266084424B
:102C900020D040F2255084421CD040F2244084428F
:102CA00018D040F64600844214D040F66A100DE079
:102CB000003801400044004000480040004C004003
:102CC0000050004000DA000821AA4400844201D0EC
:102CD000602C00D104E04FF4C571F748FDF77CFA91
:102CE0000FB1012F00D104E040F28B11F248FDF743
:102CF00073FA40F66A1084420ED1F048854205D03E
:102D0000EF48854202D0EF48854200D104E040F20E
:102D10008F11E948FDF760FA2E46C4F3421804F01B
:102D20001F0A012000FA0AF9B8F1010F01D10C368F
:102D300005E0B8F1020F01D1103600E0143627B1DA
:102D4000306840EA0900306003E0306820EA09009A
:102D50003060BDE8F08770B504460D461646D7488A
:102D600084420BD0D648844208D0D648844205D04D
:102D7000D548844202D0D548844200D104E040F2D4
:102D8000C311CD48FDF728FA4FF63F70284008B927
:102D900005B104E04FF4E271C748FDF71DFA0EB12A
:102DA000012E00D104E040F2C511C348FDF714FA2A
:102DB0001EB1A08A2843A08202E0A08AA843A08274
:102DC00070BD70B504460D46BC4884420BD0BC486B
:102DD000844208D0BB48844205D0BB48844202D01C
:102DE000BA48844200D104E040F2DF11B248FDF756
:102DF000F3F90F2D00DC04E04FF4F071AE48FDF75D
:102E0000EBF9208A4FF6F07108402082208A28438F
:102E1000208270BD70B504460D46A84884420BD090
:102E2000A748844208D0A748844205D0A6488442D7
:102E300002D0A648844200D104E04FF4FB719E48C2
:102E4000FDF7CAF915B1B5F5006F00D104E040F205
:102E5000F7119948FDF7C0F9A0894FF2FF710840BA
:102E6000A081A0892843A08170BD70B504460D469D
:102E7000924884420BD09248844208D091488442C0
:102E800005D09148844202D09048844200D104E0A9
:102E900040F209218848FDF79FF90DB1012D00D1BD
:102EA00004E040F20A218448FDF796F925B1A08993
:102EB00040F00200A08104E0A0894FF6FD710840B7
:102EC000A08170BD70B504460D467C4884420BD08D
:102ED0007B48844208D07B48844205D07A488442AB
:102EE00002D07A48844200D104E040F226217248A0
:102EF000FDF772F90DB1202D00D104E040F2272139
:102F00006D48FDF769F9208A4FF6DF71084020828D
:102F1000208A2843208270BD70B504460D4667485C
:102F200084420BD06648844208D06648844205D06B
:102F30006548844202D06548844200D104E040F2F2
:102F400039215D48FDF748F90DB1012D00D104E0AC
:102F500040F23A215848FDF73FF925B1208A40F464
:102F60008040208204E0208A4BF6FF7108402082D6
:102F700070BD70B504460D46504884420BD0504891
:102F8000844208D04F48844205D04F48844202D042
:102F90004E48844200D104E040F253214648FDF7F8
:102FA0001BF9B5F5007F00DA04E04FF415714248D3
:102FB000FDF712F9C5F30800A08070BD10B50446F6
:102FC0003E4884420BD03E48844208D03D4884426B
:102FD00005D03D48844202D03C48844200D104E000
:102FE0004FF419713448FDF7F7F8A088C0F30800D2
:102FF00010BD10B50446314884420BD0304884429D
:1030000008D03048844205D02F48844202D02F484F
:10301000844200D104E04FF41D712748FDF7DCF82D
:10302000A08940F00100A08110BD70B504460D4696
:103030002248844205D02248844202D0214884425A
:1030400000D104E04FF421711B48FDF7C5F8208B37
:10305000C0B22083208B40EA0520208370BD70B56C
:1030600004460D46154884420BD01548844208D0CA
:103070001448844205D01448844202D01348844244
:1030800000D104E04FF426710B48FDF7A5F8208B22
:1030900000F47F402083208B2843208370BD70B5CF
:1030A00004460D460548844205D00548844202D0B6
:1030B000044884420CD110E000DA000800380140D6
:1030C0000044004000480040004C004000500040D8
:1030D00040F2AB21FC48FDF77FF80DB1012D00D186
:1030E00004E04FF42B71F848FDF776F825B1A08A7B
:1030F00040F02000A08204E0A08A4FF6DF71084073
:10310000A08270BD70B504460D46F048844205D0DB
:10311000EF48844202D0EF48844200D104E04FF4EB
:103120003171E948FDF758F80DB1012D00D104E0E7
:1031300040F2C521E448FDF74FF825B1A08A40F0E0
:103140001000A08204E0A08A4FF6EF710840A08230
:1031500070BD70B504460D46DC4884420BD0DC4897
:10316000844208D0DB48844205D0DB48844202D048
:10317000DA48844200D104E040F2DE21D248FDF773
:103180002BF80DB1012D00D104E040F2DF21CE4833
:10319000FDF722F825B1A08A40F00800A08204E0E3
:1031A000A08A4FF6F7710840A08270BD70B5044642
:1031B0000D46C64884420BD0C548844208D0C54855
:1031C000844205D0C448844202D0C448844200D11D
:1031D00004E040F2FD21BC48FCF7FEFF0DB1012DDB
:1031E00000D104E040F2FE21B748FCF7F5FF25B11D
:1031F000A08940F40040A08103E0A089C0F30E0044
:10320000A08170BD70B504460D46B04884420BD015
:10321000AF48844208D0AF48844205D0AE488442CB
:1032200002D0AE48844200D104E04FF44671A64873
:10323000FCF7D2FF0DB1012D00D104E040F21931AD
:10324000A148FCF7C9FF25B1A08A40F40060A08224
:1032500004E0A08A4FF2FF710840A08270BD70B5F3
:1032600004460D46994884420BD09948844208D0C0
:103270009848844205D09848844202D097488442B6
:1032800000D104E040F235318F48FCF7A5FF042D52
:1032900000D005B904E040F236318B48FCF79CFFC2
:1032A000A08A4FF6FB710840A082A08A2843A08222
:1032B00070BD70B504460D46844884420BD08448E6
:1032C000844208D08348844205D08348844202D097
:1032D0008248844200D104E04FF452717A48FCF7EE
:1032E0007BFF0DB1012D00D104E040F24931764859
:1032F000FCF772FF25B1A08A40F00200A08204E032
:10330000A08A4FF6FD710840A08270BD70B50546D9
:103310000C4600266D4885420BD06D48854208D08A
:103320006C48854205D06C48854202D06B48854286
:1033300000D104E040F26E316348FCF74DFF012CF0
:1033400013D0802C11D0402C0FD0202C0DD0102C5D
:103350000BD0B4F5807F08D0B4F5007F05D0082CE1
:1033600003D0042C01D0022C00D104E040F26F31D4
:103370005548FCF731FFB4F5007F0ED15348854224
:1033800005D05348854202D05248854200D104E01E
:1033900040F273314C48FCF71FFF2888204008B1E9
:1033A000012600E00026304670BD70B504460D468B
:1033B000464884420BD04648844208D0454884425F
:1033C00005D04548844202D04448844200D104E0FC
:1033D00040F29E313C48FCF7FFFE4FF69F402840EC
:1033E00008B905B104E040F29F313748FCF7F4FE1C
:1033F00005F40070B0F5007F0ED13448844205D04A
:103400003348844202D03348844200D104E040F281
:10341000A3312D48FCF7E0FEE843208070BD2DE984
:10342000F04705460C4600270026B046B14627481F
:1034300085420BD02648854208D02648854205D0D3
:103440002548854202D02548854200D104E040F25B
:10345000C1311D48FCF7C0FE282C20D040F2277057
:1034600084421CD040F22660844218D040F225509D
:10347000844214D040F22440844210D040F64600EA
:1034800084420CD040F66A10844208D0B4F5587FCC
:1034900005D0B4F5187F02D0B4F5B07F00D104E0B8
:1034A00040F2C2310848FCF797FE40F66A108442A9
:1034B0001BD10648854205D00548854202D0054803
:1034C00085420DD111E0000000DA0008003801400B
:1034D0000044004000480040004C004000500040C4
:1034E00040F2C6313948FCF777FEC4F3421804F0C5
:1034F0001F06012000FA06F6B8F1010F02D1A889D3
:10350000064007E0B8F1020F02D1288A064001E028
:10351000A88A06402712012000FA07F728880740EA
:103520001EB117B14FF0010901E04FF00009484604
:10353000BDE8F0872DE9F04104460D46002600273E
:10354000234884420BD02348844208D02248844236
:1035500005D02248844202D02148844200D104E0B0
:1035600040F20A411948FCF737FE40F226608542D6
:103570000BD040F22550854207D040F646008542E8
:1035800003D040F66A10854200D104E040F20B41BE
:103590000E48FCF721FE40F66A1085420ED10C4819
:1035A000844205D00B48844202D00B48844200D1AB
:1035B00004E040F20F410548FCF70EFE2E120120F8
:1035C000B04087B2F8432080BDE8F08100DA0008FF
:1035D000003801400044004000480040004C0040DA
:1035E00000500040704717480068704770B50446A7
:1035F00003F0E0F9054613480460284603F0DEF9BD
:1036000070BD10B50F480068401C0E49086002F0FC
:10361000A2FB0446A06C401EA064A06C18B9606CAC
:10362000A06402F03BFC02F07AFE10BD0146642269
:1036300001FB02F000F2E7304FF47A72B0FBF2F0D7
:1036400070470000400000202DE9F041064602F0DE
:1036500082FB08B102F064FA804D6C6810E0A4F1BE
:103660000C0708223146384601F00BFA38B902F04F
:1036700072FB08B102F062FA3846BDE8F0812468B6
:10368000281D8442EBD102F066FB08B102F056FA25
:103690000020F2E770B504460D46164614B94FF007
:1036A000FF3070BD2846FFF7CFFF10B14FF0FF305D
:1036B000F7E72A460721204602F097F8E682002025
:1036C000A076208300BFECE710B50446204602F048
:1036D000B2F8002010BD0020704770B504460025E8
:1036E000606A90B1A07D00F0100070B92046616A58
:1036F000884705462DB12A46214659A001F06FFCA6
:1037000003E0E08A40F01000E082284670BD70B50A
:1037100004460E460025A07D00F0100088B9606ABE
:1037200058B12046616A8847054635B12A46214688
:103730004BA001F054FC284670BDE08A40F0100018
:10374000E082A07D00F0080030B1207E00F008008B
:1037500010B16FF00600EFE7A06A20B131462046B5
:10376000A26A904705460DB1A81D28B946F0080089
:103770002083A07E401CA0762846DDE770B5044675
:103780000025A07E08B9681E70BDA07E401EA076F0
:10379000A07E08B10020F7E7E06A18B12046E16A90
:1037A000884705460DB1A81D08B90020208328468A
:1037B000EAE72DE9F04104460D4616461F46A07E75
:1037C00030B94FF0FF3001F04DF80020BDE8F08136
:1037D000206B38B13B46324629462046D4F830C0EB
:1037E000E047F3E76FF0050001F03CF80020EDE75B
:1037F0002DE9F04104460D4616461F46A07E30B91D
:103800004FF0FF3001F02EF80020BDE8F081606B32
:1038100038B13B46324629462046D4F834C0E0470A
:10382000F3E76FF0050001F01DF80020EDE770B53B
:1038300004460D461646A06B28B13246294620465E
:10384000A36B984770BD0020FCE70246D1610020C1
:10385000704702461162002070470000EC00002013
:10386000546F20696E697469616C697A652064655A
:10387000766963653A2573206661696C65642E20FC
:10388000546865206572726F7220636F6465206989
:10389000732025640A00000031490860704770B544
:1038A00030E003F087F8054600F051F8E0B12D480C
:1038B0000068A0F1140404F11400D0E90021516063
:1038C000D0E9001211604060006000BFA06F10B12D
:1038D0002046A16F8847204602F009F8012807D149
:1038E000284603F06BF870BD284603F067F8FAE746
:1038F000284603F063F8A06A01F008FE204601F0B4
:10390000DDFF00BF00F023F80028CAD100BFEAE7BE
:1039100007E01348006810B1114800688047FFF7BE
:10392000BEFFF6E71FB520201F21C2000E4BCDE9D8
:103930000032CDE9021000230C4A0DA10E4802F01E
:10394000F0F90D4802F02FFA1FBD0B4870470549EA
:103950000868884201D0012070470020FCE7000081
:1039600044000020300100207009002011390008B7
:103970007469646C65000000F00800204268116002
:1039800042684A604160086070472DE9F041054691
:103990000C469046204602F0ADFAB8F1000F03D075
:1039A000B8F1010F23D105E004F114012846FFF717
:1039B000E5FF1CE02E680FE0A6F1140794F835002F
:1039C00097F83510884206DA04F1140107F1140063
:1039D000FFF7D4FF02E03668AE42EDD100BFAE4241
:1039E00004D104F114012846FFF7C8FF00BF00BF4F
:1039F0000020BDE8F08170B505460EE002F0DAFF68
:103A000006462868A0F114044FF0FF3020632046DA
:103A100002F0A4F9304602F0D1FF284600F0BDFEC6
:103A20000028EBD0002070BD2DE9F04104460D4682
:103A300016461F462A460121204601F0D6FE2046A2
:103A400000F0B3FEA68367720020BDE8F08110B5D8
:103A5000044604F11400FFF7CEFF204601F0EBFE10
:103A6000002010BD2DE9F04105460E4617462946B7
:103A7000012001F0F6FE044614B92046BDE8F081AD
:103A8000204600F092FEA68367722046F6E710B546
:103A9000044604F11400FFF7AEFF204601F00EFFCC
:103AA000002010BD73B5054600BFFB48006818B183
:103AB0002846F9490968884700BF02F07BFF06469F
:103AC000A88B002806DDA88B401EA883304602F094
:103AD00075FF28E0019828B9304602F06FFF6FF0BB
:103AE00001007CBD02F037F90446002020636A7AA9
:103AF000214605F11400FFF748FF0198002809DD71
:103B000001AA002104F14C0002F0EDFB04F14C008D
:103B100002F048FB304602F051FF01F07DFF206BC0
:103B200008B1206BDDE700BFDC48006818B128460B
:103B3000DA490968884700BF0020D2E710B504467B
:103B400000212046FFF7AEFF10BD70B5044600BF50
:103B5000D348006818B12046D1490968884700BF9A
:103B6000002502F027FF064604F1140000F015FEC0
:103B700028B904F1140000F020FE012502E0A08B1A
:103B8000401CA083304602F019FF012D01D101F045
:103B900043FF002070BD2DE9F04104460E46154656
:103BA000012E10D12F4602F005FF804604F11400CB
:103BB000FFF721FFA783404602F000FF01F02CFF32
:103BC0000020BDE8F0814FF0FF30FAE770B5044601
:103BD0000D4616462A460221204601F006FE2046E2
:103BE00000F0E3FD0120A08300202062FF20A077E9
:103BF0000020E077667270BD10B5044604F1140031
:103C0000FFF7F9FE204601F016FE002010BD70B54A
:103C100005460E462946022001F023FE04460CB953
:103C2000204670BD204600F0C0FD0120A08300208A
:103C30002062FF20A0770020E07766722046F0E740
:103C400010B5044604F11400FFF7D5FE204601F03C
:103C500035FE002010BD73B5044602F0ABFE0646EB
:103C600002F079F8054600BF8B48006818B120467D
:103C700089490968884700BF00202863206AA84254
:103C800003D1E07F401CE07744E0A08B00280ADDF0
:103C9000A08B401EA083256295F83500A077E07FB9
:103CA000401CE07736E0019840B96FF001002863CE
:103CB000304602F083FE6FF001007CBD95F83500C0
:103CC000216A91F83510884205DA05F135020221A2
:103CD000206A02F058F9627A294604F11400FFF7CD
:103CE00054FE0198002809DD01AA002105F14C00CD
:103CF00002F0F9FA05F14C0002F054FA304602F0F5
:103D00005DFE01F089FE286B08B1286BD5E702F053
:103D100051FE0646304602F051FE00BF5F48006883
:103D200018B120465D490968884700BF0020C4E7F4
:103D30002DE9F0410446002702F00DF8054602F097
:103D400039FE064600BF5648006818B1204654495F
:103D50000968884700BF206AA84209D04FF0FF30A9
:103D60002863304602F02AFE4FF0FF30BDE8F081B4
:103D7000E07F401EE077E07FF8B9A07F216A91F8EC
:103D80003510884205D004F11E020221206A02F09B
:103D9000FAF804F1140000F000FD78B96069A0F1B0
:103DA0001405256295F83500A077E07F401CE07788
:103DB00004F1140000F001FD012706E0A08B401C77
:103DC000A08300202062FF20A077304602F0F6FD9D
:103DD000012F01D101F020FE0020C7E703464FF07C
:103DE000FF30704770B504460D4616462A4603213B
:103DF000204601F0FAFC6672204600F0D6FC002056
:103E0000E06170BD10B5044604F11400FFF7F3FD46
:103E1000204601F010FD002010BD70B505460E468D
:103E20002946032001F01DFD04460CB9204670BD53
:103E30006672204600F0B9FC0020E0612046F6E7FB
:103E400010B5044604F11400FFF7D5FD204601F03B
:103E500035FD002010BD2DE9F04704460F461FB97F
:103E60004FF0FF30BDE8F0874FF0000800BF0C486E
:103E7000006818B120460A490968884700BF02F067
:103E800099FD8246E0693843E06104F1140000F0D6
:103E900084FCE8BB666938E01401002018010020AA
:103EA0001C010020A6F114054FF0FF3995F84000E1
:103EB00000F0010040B1E86BE1690840E96B88421D
:103EC00011D14FF000090EE095F8400000F002001B
:103ED00048B1E86BE169084028B1E86BE169084046
:103EE000E8634FF000093668B9F1000F0DD195F87D
:103EF000400000F0040018B1E069E96B8843E0611C
:103F0000284601F02BFF4FF0010804F1140000E0F7
:103F100001E08642C6D1504602F050FDB8F1010FD3
:103F200001D101F079FD00209CE72DE9FF4705460E
:103F30000E461746DDF8308026B94FF0FF3004B04A
:103F4000BDE8F0874FF0FF3901F005FF044600207F
:103F5000206300BFFE48006818B12846FC49096884
:103F6000884700BF02F026FD824607F0010030B10D
:103F7000E8693040B0420AD14FF0000907E007F08D
:103F8000020020B1E869304008B14FF00009B9F1F2
:103F9000000F0DD1B8F1000F03D0E8693040C8F828
:103FA000000007F0040088B3E869B043E8612DE041
:103FB000039818B96FF00100206327E0E66384F8E6
:103FC00040706A7A214605F11400FFF7DEFC039881
:103FD000002809DD03AA002104F14C0002F083F956
:103FE00004F14C0002F0DEF8504602F0E7FC01F06C
:103FF00013FD206B08B1206BA1E702F0DBFC8246C9
:10400000B8F1000F02D0E06BC8F80000504602F093
:10401000D5FC00BFCF48006818B12846CD490968D3
:10402000884700BF206B8AE72DE9F04104460D4622
:104030001746012D10D102F0BDFC064604F1140014
:10404000FFF7D9FC0020E061304602F0B7FC01F038
:10405000E3FC0020BDE8F0814FF0FF30FAE72DE9E6
:10406000F04104460D4616461F46DDF818802A46E4
:104070000421204601F0B9FB84F80980204600F0B5
:1040800094FBE661278400206084A084E08404F12E
:10409000280000F07FFB0020BDE8F08110B5044649
:1040A00004F11400FFF7A7FC04F12800FFF7A3FCBC
:1040B000204601F0C0FB002010BD2DE9F04105466F
:1040C0000E4617462946042001F0CBFB044614B9DE
:1040D0002046BDE8F0816772204600F066FB26842A
:1040E000218C880001F05EF9E061E06920B920468A
:1040F00001F0E4FB0020ECE700206084A084E08471
:1041000004F1280000F046FB2046E2E710B5044623
:1041100004F11400FFF76FFC04F12800FFF76BFCBB
:10412000E06901F0F3F9204601F0C8FB002010BD62
:104130002DE9F74304460E46002701F00CFE054624
:1041400000BF8548006818B1204683490968884740
:1041500000BF02F02FFC8046608C218C884208D181
:10416000029830B9404602F029FC6FF00200BDE829
:10417000FE8339E000202863029828B9404602F007
:104180001DFC6FF00200F2E7627A294604F1280074
:10419000FFF7FBFB029800280CDDFFF724FA074627
:1041A00002AA002105F14C0002F09DF805F14C0037
:1041B00001F0F8FF404602F001FC01F02DFC286BF5
:1041C00008B1286BD3E702F0F5FB8046029800287F
:1041D0000ADDFFF708FAC71B0298C01B029002987D
:1041E000002801DA00200290608C218C8842C1D026
:1041F000A18CE06940F82160A08C401CA084A08CB8
:10420000218C884201DB0020A084608C401C6084EB
:1042100004F1140000F0C1FA50B904F1140000F0E8
:10422000CCFA404602F0CAFB01F0F6FB00209EE704
:10423000404602F0C3FB002099E770B504460D46E6
:10424000002229462046FFF773FF70BD2DE9F74392
:1042500004460E46002701F07EFD054600BF3C489F
:10426000006818B120463A490968884700BF02F043
:10427000A1FB8046608C40B9029830B9404602F0FC
:104280009DFB6FF00100BDE8FE833AE0002028634B
:10429000029830B9404602F091FB6FF001002863AC
:1042A000F1E7627A294604F11400FFF76EFB0298E9
:1042B00000280CDDFFF797F9074602AA002105F157
:1042C0004C0002F010F805F14C0001F06BFF404685
:1042D00002F074FB01F0A0FB286B08B1286BD2E759
:1042E00002F068FB8046029800280ADDFFF77BF9A0
:1042F000C71B0298C01B02900298002801DA002018
:104300000290608C0028C1D0E18CE06950F8210057
:104310003060E08C401CE084E08C218C884201DB22
:104320000020E084608C401E608404F1280000F0CE
:1043300034FAD0B904F1280000F03FFA404602F008
:104340003DFB00BF0348006850B12046014905E02D
:1043500014010020180100201C0100200968884772
:1043600000BF01F059FB00208DE7404602F026FB1C
:1043700000BFF848006818B12046F6490968884728
:1043800000BF00207FE72DE9F04104460D461746A7
:10439000012D16D102F00EFB064604F11400FFF7C2
:1043A0002AFB04F12800FFF726FB00206084A0848C
:1043B000E084304602F002FB01F02EFB0020BDE855
:1043C000F0814FF0FF30FAE72DE9F05F04460F4629
:1043D00090469946DDE90AAB3A460521204601F0B0
:1043E00004FA84F809B0204600F0DFF9C4F81C8014
:1043F00009F1030020F003002084208C001DBAFB8B
:10440000F0F060840020A062E0622063002608E0F3
:10441000208C001DE16906FB0015206B28602563D8
:10442000761C608CB042F3DC0020A084BDE8F09FD5
:1044300010B5044604F11400FFF7DDFA204601F040
:10444000FAF9002010BD10B5044604F11400FFF77E
:10445000D2FAE06901F05AF8204601F02FFA002064
:1044600010BD2DE9F0470746884691469A463946E1
:10447000052001F0F6F9044614B92046BDE8F0879E
:1044800084F809A0204600F090F908F1030020F01C
:1044900003002084A4F82290218C091D628C01FB6A
:1044A00002F000F07FFFE061E06920B92046FFF7ED
:1044B000CAFF0020E2E70020A062E062206300253E
:1044C00008E0208C001DE16905FB0016206B3060C0
:1044D00026636D1C608CA842F3DC0020A08420467B
:1044E000CCE72DE9F04104460F461646208CB04239
:1044F00003D24FF0FF30BDE8F08100BF964800685E
:1045000018B1204694490968884700BF02F052FA62
:104510008046256B2DB9404602F050FA6FF002003C
:10452000E9E728682063404602F048FA0020286046
:1045300032463946281D00F0DAF902F03BFA80468F
:10454000E06A08B1E06A0560E562A06A00B9A562A8
:10455000A08C401CA08404F1140000F01EF950B996
:1045600004F1140000F029F9404602F027FA01F0A6
:1045700053FA0020BFE7404602F020FA0020BAE7D5
:104580002DE9F04104460F461646208CB04203D276
:104590004FF0FF30BDE8F08100BF6F48006818B1F0
:1045A00020466D490968884700BF02F003FA80463B
:1045B000256B2DB9404602F001FA6FF00200E9E7E1
:1045C00028682063404602F0F9F932463946281D32
:1045D00000F08DF902F0EEF98046A06A2860A5622D
:1045E000E06A00B9E562A08C401CA08404F11400CC
:1045F00000F0D3F850B904F1140000F0DEF84046A2
:1046000002F0DCF901F008FA0020C3E7404602F0AE
:10461000D5F90020BEE72DE9FF4704460F46904636
:104620004FF0000901F097FB054600BF4B480068BA
:1046300018B1204649490968884700BF02F0BAF915
:104640008246A08C48B9039838B9504602F0B6F9B2
:104650006FF0010004B0BDE8F0873CE00020286363
:10466000039830B9504602F0A9F96FF001002863B1
:10467000F0E7627A294604F11400FFF786F90398FF
:1046800000280CDDFEF7AFFF814603AA002105F1EB
:104690004C0001F028FE05F14C0001F083FD50466E
:1046A00002F08CF901F0B8F9286B08B1286BD1E75A
:1046B00002F080F98246039800280CDDFEF793FF94
:1046C000A0EB09090398A0EB0900039003980028C8
:1046D00001DA00200390A08C0028BFD0A66A3068C1
:1046E000A062E06AB04201D10020E062A08C401ECE
:1046F000A084504602F062F9208C404501D2208C03
:1047000000E040460246311D384600F0F0F802F065
:1047100051F98246206B30602663504602F04EF914
:1047200000BF0C48006818B120460A49096888474C
:1047300000BF00208EE72DE9F04104460E4690466A
:10474000012E24D102F036F9074604F11400FFF7D8
:1047500052F910E0180100201C0100201401002073
:10476000A56A2868A062E06AA84201D10020E06240
:10477000206B28602563A06A0028F1D1A084384608
:1047800002F01CF901F048F90020BDE8F0814FF07B
:10479000FF30FAE7406000607047014608688842D1
:1047A00001D1012070470020FCE710B5044604F158
:1047B0001400FFF7EFFF002010BD70B5044620681D
:1047C000A0F11405284601F0C9FA002070BD0000D0
:1047D00019490860704719490860704710B502F020
:1047E000E9F8044616480078401C1549087000BFD7
:1047F0001148006810B110480068804700BF20468B
:1048000002F0DCF810BD10B502F0D4F804460C48F4
:104810000078401E0A49087000BF0848006810B1BF
:1048200006480068804700BF204602F0C7F810BD68
:104830000348007870470000480000204C0000202A
:104840005000002010B5FFF7F3FF10B1FA480068E0
:1048500010BD01F080FA044614B9F7480068F7E784
:10486000206BF5E770B50446FFF7E2FF10B1F248A0
:10487000046070BD01F06FFA054615B9EE4804609A
:10488000F7E72C6300BFF4E710B5FFF7D1FF08B1DD
:10489000E94810BD01F05FFA044614B104F130009C
:1048A000F7E7E548F5E7F0B50C460546E6B2042A19
:1048B00015D300F0030797B9014646EA062343EAF9
:1048C000034304E008C108C108C108C1103A102A16
:1048D000F8D201E008C1121F042AFBD20D4601E004
:1048E00005F8016B171EA2F10102F9D1F0BD2DE907
:1048F000F0410F46164604463D463346102B28D35A
:1049000005F0030C04F003084CEA080CBCF1000F9E
:104910001FD121462A4610E052F804CB41F804CBBF
:1049200052F804CB41F804CB52F804CB41F804CB45
:1049300052F804CB41F804CB103B102BECD204E02E
:1049400052F804CB41F804CB1B1F042BF8D20C46C1
:10495000154603E015F801CB04F801CBB3F1000CC8
:10496000A3F10103F6D1BDE8F08170B50C46014614
:1049700023468B4210D29D188D420DD91144134409
:1049800005E05D1E2B462E784D1E29462E70151E05
:10499000A2F10102F5D108E003E013F8015B01F890
:1049A000015B151EA2F10102F7D170BDF0B50346FF
:1049B00000201C460D4608E026782F78F61B301E96
:1049C00000D004E0641C6D1C521E002AF4D800BF05
:1049D000F0BD01460A4600E0521C10780028FBD1C9
:1049E000501A7047F0B506460F463846FFF7F1FFFC
:1049F00005460DB93046F0BD3046FFF7EAFF0446E4
:104A000009E0641E2A4639463046FFF7CFFF08B951
:104A10003046F0E7761CAC42F3DA0020EBE730B525
:104A200003460C4600BF13F8011B14F8012B412963
:104A300002DB5A2900DC2031412A02DB5A2A00DC41
:104A40002032914201D10029EDD1881A30BD70B5D4
:104A50000346A2B118460C4600BF14F8016B00F8DB
:104A6000016B3EB902E0002500F8015B551E2A1ECD
:104A7000F9D102E0551E2A1EEFD100BF00BF184633
:104A800070BD30B5034600200BE011F8015B1C78C7
:104A9000641B64B2201E02D113F8015B05B902E069
:104AA000521E002AF1D100BF30BD024601E0521C67
:104AB000491C107818B110780B789842F7D010780C
:104AC0000B78C01A704702460B46114600E0491C9D
:104AD000087810B1881A9842F9D3881A704770B5CF
:104AE00004462046FFF775FF451C284600F05AFC97
:104AF00006460EB9002070BD2A4621463046FFF713
:104B0000F6FE3046F7E770472DE9F04F85B00D46C9
:104B10009C46DDE90F740E9B04F04008B8F1000FCD
:104B200002D0DFF8188101E0DFF81481CDF80080B1
:104B300004F01008B8F1000F01D024F0010404F0D3
:104B40000108B8F1000F02D04FF0300801E04FF03B
:104B50002008C246002604F00208B8F1000F11D068
:104B6000002A02DA2D2652420CE004F00408B8F1C3
:104B7000000F01D02B2605E004F00808B8F1000F63
:104B800000D02026002142B94FF0300B8846491C46
:104B90000DF1040909F808B01DE01AE0E146B9F189
:104BA0000A0F08D14FF00A0BB2FBFBFE0BFB1E28CD
:104BB000B2FBFBF202E002F00F08120900BFDDF8C1
:104BC000009019F808B08846491C0DF1040909F84D
:104BD00008B0002AE2D1B94200DD0F46DB1B04F029
:104BE0001108B8F1000F10D116B1002B00DD5B1ECB
:104BF00006E0A84203D84FF0200880F80080401C4F
:104C0000B3F10008A3F10103F3DC26B1A84201D8F7
:104C100006705B1E401C04F01008B8F1000F0AD1AA
:104C200004E0A84201D880F800A0401CB3F10008BD
:104C3000A3F10103F5DC0CE05400002061D600086C
:104C400050D60008A84203D84FF0300880F8008002
:104C5000401CB8467F1E8845F4DC08E0A84205D811
:104C60000DF1040818F8018080F80080401CB1F1B3
:104C70000008A1F10101F1DC06E0A84203D84FF0E1
:104C8000200880F80080401CB3F10008A3F1010364
:104C9000F3DC05B0BDE8F08F0146002009E00B68A9
:104CA0005A1C0A601A7800EB800302EB4302A2F15F
:104CB00030000A681278303A0A2AF0D370472DE99A
:104CC000FF4F89B0804644460A984044461E4645F8
:104CD00004D24FF0FF36A6EB08000A906FE10B9864
:104CE0000078252806D0B44202D80B9800782070AE
:104CF000641C61E1002526E00B98401C0B900B988A
:104D000000782D2802D145F010051CE00B980078A2
:104D10002B2802D145F0040515E00B9800782028D7
:104D200002D145F008050EE00B980078232802D147
:104D300045F0200507E00B980078302802D145F0B7
:104D4000010500E000E0D7E700BF4FF0FF370B9808
:104D5000007830380A2804D20BA8FFF79DFF0746D9
:104D60000EE00B9800782A280AD10B98401C0B9073
:104D70000C9880C80C90002F02DA7F4245F0100595
:104D80004FF0FF390B9800782E281CD10B98401C4F
:104D90000B900B98007830380A2804D20BA8FFF744
:104DA0007BFF81460AE00B9800782A2806D10B98F1
:104DB000401C0B900C9850F8049B0C90B9F1000F1C
:104DC00001DA4FF00009002004900B980078682861
:104DD00003D00B9800786C2805D10B9800780490CC
:104DE0000B98401C0B900A2005900B9800786F28B8
:104DF00075D00CDC632813D004DC252870D058282B
:104E00006FD18DE064286DD06928F9D18FE07028CA
:104E10006AD0732825D0752878D07828F0D182E020
:104E200005F0100040B904E0B44201D82020207001
:104E3000641C781E071EF7DC0C9810F8041B0C90FD
:104E4000C8B20790B44201D807982070641C04E0EF
:104E5000B44201D820202070641C781E071EF7DCA5
:104E6000AAE00C98006806900C98001D0C9006981B
:104E700008B9DCA006900698FFF7ABFD8346B9F1B0
:104E8000000F02DDCB4500DDCB4605F0100048B930
:104E900004E0B44201D820202070641C38467F1EF4
:104EA0005845F6DC002008900BE0B44202D8069882
:104EB00000782070641C0698401C06900898401CDE
:104EC000089008985845F0DB04E0B44201D820204F
:104ED0002070641C38467F1E5845F6DC6CE01CE0F0
:104EE00015E028E022E0FFE7781C10B9082745F01C
:104EF0000105CDE9007902950C9804C810233146CC
:104F00000C902046FFF700FE044655E012E0B44244
:104F100001D825202070641C4EE0082005901DE07B
:104F200045F0400500BF1020059017E000BF45F098
:104F3000020500BF12E0B44201D825202070641C95
:104F40000B98007830B1B44202D80B9800782070EA
:104F5000641C02E00B98401E0B902DE000BF0498EB
:104F60006C2807D10C9850F804AB0C9005F00200A7
:104F7000B8B116E0049868280BD10C9830F8041BDF
:104F80001FFA81FA0C9005F0020050B10FFA8AFA6C
:104F900007E00C9850F804AB0C9005F0020000B14B
:104FA00000BFCDE900790295524631462046059B67
:104FB000FFF7AAFD044600BF0B98401C0B900B980E
:104FC000007800287FF48BAEB44201D8207001E055
:104FD00000203070A4EB08000DB0BDE8F08F0FB4D6
:104FE00038B505A800907F218048009B049AFFF700
:104FF00066FE04467F2C00D97F247D48006818B9DE
:105000007A48FFF780FD15E079480068058B7848FD
:105010000068008B40F0400075490968088323460A
:10502000724A002172480068FEF7E2FB704800688F
:10503000058300BF0020009038BC5DF814FB08B564
:105040006CA0FFF7CCFF71A0FFF7C9FF74A0FFF7BA
:10505000C6FF78A0FFF7C3FF7BA000230122022137
:1050600000907CA0FFF7BBFF82A0FFF7B8FF08BD50
:105070000FB4F8B504460D4609A80090294620460D
:10508000009B089AFFF71BFE064600200090304662
:10509000F8BC5DF814FB37B505460C4622464FF0C8
:1050A000FF312846029BFFF70AFE3EBD0FB438B51C
:1050B000044606A800902046009A0599FFF7EBFFEA
:1050C000054600200090284638BC5DF814FB48488F
:1050D0000068704770B50546454806682846FEF7E3
:1050E000B3FA044664B14248006818B14048006809
:1050F000FEF744FB43212046FEF709FB3C480460D1
:10510000304670BD70B504463948006818B920466D
:10511000FFF7F9FC19E036480068058B3448006851
:10512000008B40F040003249096808832046FFF7B1
:1051300050FC06463346224600212D480068FEF703
:1051400057FB2B480068058300BF70BD2DE9F04177
:1051500007460C46E01C20F00304F81C20F0030076
:1051600000EB0408404600F01DF9054665B1601EDD
:10517000284008B92E1904E0601E2844611E20EA68
:10518000010646F8045C35462846BDE8F08170B556
:10519000044654F8045C284600F0B8F970BD014696
:1051A00009B900207047C8B220B1C8B2364A105CB5
:1051B000401CF7E701F47F4028B13348C1F30722D0
:1051C000805C0930EEE701F47F0028B12E48C1F37E
:1051D0000742805C1130E5E72B4800EB1160007856
:1051E0001930DFE7284E554C4C290000700A00208A
:1051F00058000020200A2D2D2D2D2D2D2D2D2D2D4B
:105200002D2D2D2D2D2D2D2D0A0000004D696E699F
:10521000313644494F5F4D61737465720A00000076
:1052200048617264576172653A566572312E303149
:105230000A000000536F6674576172653A566572D2
:10524000312E300A000000005365702032352032C4
:10525000303137006275696C642077697468205258
:10526000545425642E25642E2564206174202573F2
:105270000A0000002D2D2D2D2D2D2D2D2D2D2D2D08
:105280002D2D2D2D2D2D0A0050D50008F849086030
:105290007047F8490860704730B5F74C4368246898
:1052A0001919884215D04B889BB9F44B1B68994259
:1052B0000FD0F34B1B688B4201D1F14B18604B6848
:1052C0004360ED4B1B68C31AEB4D4C682D682C44B2
:1052D000A360E94C836824681A19824211D053886C
:1052E0007BB9E74B1B68834201D1E54B1A604368E9
:1052F0005360E14B1B68D31ADF4D44682D682C4482
:10530000A36030BD2DE9F04105460E46E81C20F0B3
:10531000030726F00308B8F1180F09D9A8F11800FF
:10532000B84205D3A8EB07001838D649086006E054
:1053300032462946D4A0FFF752FEBDE8F081CE48A0
:10534000076004684FF4F5502080CE4800680C30A8
:1053500060600020A0606080C749606809680844F8
:10536000C64908604FF4F550096808800120C34918
:1053700009684880C34800680C30C0490968486023
:10538000C04800680C30BD490968886000230122CC
:10539000CCA1CE48FEF748FBB7480068B849086082
:1053A00000BFCAE72DE9F041054615B90020BDE868
:1053B000F081E81C20F00305B2480068854201D95D
:1053C0000020F4E70C2D00D20C254FF0FF31BF4830
:1053D000FEF768FBAA480068A7490968461A8AE0F0
:1053E000A54800688419608800287CD106F10C006B
:1053F0006168081AA8427AD306F10C006168091A9C
:1054000005F11800814230D306F10C0000EB0508CD
:105410009948006800EB08074FF4F55038800020E9
:10542000788060687860BE60C4F804800120608085
:105430009448796800680C30814205D08E497868BC
:1054400009680844C0F80880A148016805F10C000B
:1054500008449F4908609F4800680968884219D23B
:105460009B4800689B49086014E0012060808249E5
:1054700060680968611A401A9549096808449449A6
:105480000860944800680968884203D29048006820
:10549000904908604FF4F5502080794800688442B4
:1054A00012D107E0764800684068734909680844EB
:1054B0007349086072480068408828B170480068E5
:1054C0006E4909688842EDD18048FEF73EFB00BF77
:1054D0006748006828B1294604F10C00644A126844
:1054E000904700BF00E002E004F10C005FE7624873
:1054F00000683044466863480068401BB0423FF68D
:105500006FAF7248FEF721FB002050E770B50546EB
:1055100005B970BD00BF5748006818B12846554905
:105520000968884700BF54480068854203D3534840
:105530000068854200D3ECE7A5F10C044FF0FF3181
:105540006248FEF7AFFA002060804FF4F5502080EB
:105550004B480068844201D249480460464960686B
:105560000968611A401A5A490968081A58490860B6
:105570002046FFF791FE5548FEF7E7FA00BFC8E75F
:105580002DE9F05F06460C46E01C20F003043D4880
:105590000068844202D90020BDE8F09F1EB9204671
:1055A000FFF700FFF8E74FF0FF314848FEF77AFABF
:1055B00031480068864203D330480068864204D3ED
:1055C0004248FEF7C2FA3046E6E7A6F10C082A4840
:1055D0000068A8EB0009D8F80400A0EB0900A0F1CE
:1055E0000C07A74204D13948FEF7AFFA3046D3E79B
:1055F00004F11800B8422DD2381B35490968081A41
:105600003349086009F10C0000EB040A1A480068ED
:1056100000EB0A054FF4F550288000206880D8F888
:1056200004006860C5F80890C8F804A015486968C7
:1056300000680C30814205D00F4968680968084449
:10564000C0F808A02846FFF727FE2048FEF77DFA9D
:105650003046A1E71D48FEF778FA2046FFF7A2FE84
:105660008346BBF1000F40D0A74235D2384634E024
:105670005C00002060000020640000206800002022
:105680006C000020700000206D656D20696E6974EB
:105690002C206572726F7220626567696E2061648A
:1056A000647265737320307825782C20616E6420D5
:1056B000656E642061646472657373203078257848
:1056C0000A0000006865617000000000F00A002018
:1056D00074000020780000202046024631465846DB
:1056E000FFF705F93046FFF711FF584654E770B54C
:1056F00004460D4604FB05F0FFF754FE06462EB1A6
:1057000004FB05F200213046FFF7CDF8304670BDAE
:1057100010B10E4B1B68036011B10D4B1B680B6081
:1057200012B10C4B1B681360704710B50748016835
:1057300009A0FFF754FC064801680CA0FFF74FFCD6
:10574000044801680EA0FFF74AFC10BD700000205D
:105750007400002078000020746F74616C206D6507
:105760006D6F72793A2025640A00000075736564D4
:10577000206D656D6F7279203A2025640A00000063
:105780006D6178696D756D20616C6C6F63617465B6
:1057900064206D656D6F72793A2025640A000000FF
:1057A0000268516002680A60016048607047D0E991
:1057B00000215160D0E90012116040600060704724
:1057C000644908607047644908607047634908602D
:1057D00070476349086070476249086070477047C6
:1057E0000146614800EB011070472DE9F041044685
:1057F0000D4616465C4800EB051745F08000207208
:10580000082231462046FFF722F900BF51480068C0
:1058100018B120464F490968884700BF01F0CAF80F
:10582000804604F10C01381DFFF7BAFF404601F035
:10583000C5F8BDE8F08170B5044600BF4648006871
:1058400018B1204644490968884700BF01F0B2F802
:10585000054604F10C00FFF7AAFF284601F0AEF858
:1058600070BD2DE9F04105460F463F4800EB051697
:10587000F068FFF797FD044614B90020BDE8F081F9
:10588000257200206072082239462046FFF7DFF8B3
:1058900000BF3048006818B120462E490968884783
:1058A00000BF01F087F8804604F10C01301DFFF7BE
:1058B00077FF404601F082F82046DFE770B50446E6
:1058C00000BF2548006818B1204623490968884769
:1058D00000BF01F06FF8054604F10C00FFF767FF09
:1058E000284601F06BF82046FFF710FE70BD014618
:1058F000087A00F0800008B1012070470020FCE722
:105900002DE9F04104460D464FF00008002600271F
:105910000CB1092D02DD0020BDE8F08100F000F996
:1059200017B9114800EB05177E680CE0A6F10C08CA
:10593000082221464046FFF7A4F818B900F0FEF807
:105940004046E9E73668381D8642EFD100F0F6F8A8
:105950000020E1E70C0100201001002014010020CC
:10596000180100201C0100207C00002084490860F0
:10597000704770B50446A06A0078232809D1A16A4F
:10598000E069884205D9D4E90A010844E1698842FE
:105990000CD221467BA0FFF722FB02F0B7FB01F0FF
:1059A00009F8054600BF002DFDD108E0A06A2030AF
:1059B000E169814203D8214679A0FFF710FB70BD51
:1059C00010B5002084490880002405E0834901EBDC
:1059D000C40000F0D2F8641C202CF7DB1F208049A3
:1059E000087000207F4908607F4908607F4800F008
:1059F000C4F810BD70B57C480068FFF7D0FB451EA9
:105A0000764850F83500A0F114047648046004F19B
:105A10001C0001F004F870BD2DE9F04100F0CAFF50
:105A200007466D48008880BB6F480068FFF7B7FBEA
:105A3000461E6A4850F83600A0F114046948006810
:105A4000844221D066490E7066480568046000BF34
:105A50004B48006820B121462846494A12689047C1
:105A600000BF2046FFF785FF6148007830B904F198
:105A70001C0105F11C0000F0A4FF05E004F11C016D
:105A800005F11C0000F09DFF00BF384600F096FFB6
:105A9000BDE8F08170B5044600F08CFF054601209A
:105AA00084F8340094F835204C4B03EBC20004F129
:105AB00014014268116042684A604160086000BF9A
:105AC0004949A06B0968084347490860284600F027
:105AD00075FF70BD70B5044600F06CFF054604F11B
