:020000040800F2
:10000000A82E0020AD090008210300081D8B000860
:1000100023030008270300082B030008000000004A
:100020000000000000000000000000002F03000896
:100030003103000800000000A78A000897020008AA
:10004000C7090008C7090008C70900089B0901087B
:10005000C7090008C7090008070401081F040108B0
:10006000370401084F04010867040108C7090008A4
:10007000C7090008C7090008C70900089D0600084D
:10008000C7090008C7090008C7090008C709000810
:10009000C7090008C7090008C70900087F0401084C
:1000A000C7090008C7090008C7090008C7090008F0
:1000B000C7090008C7090008C7090008C7090008E0
:1000C000C7090008C7090008C7090008C7090008D0
:1000D000C70900088B060008C7090008C7090008FF
:1000E000F5040108C7090008C7090008C709000886
:1000F000C7090008C7090008C7090008C7090008A0
:10010000C7090008C7090008C7090008C70900088F
:10011000C7090008C7090008C7090008C70900087F
:10012000C7090008C7090008C7090008C70900086F
:10013000DFF80CD014F038FD004800472302000817
:10014000A82E002000240FF001FF0AE0641C0FF02D
:100150001BFF142007F003FF0FF01CFF142007F013
:10016000FEFEF3E710B504460FF0D2FE10BD7FB5DA
:10017000052014214FF40072114BCDE90032CDE976
:10018000021000230F4A10A1104807F00AFD05468F
:1001900015B90E4807F05DFD142008210B0200225E
:1001A000CDE90010AFF2430109A007F0A4FD044619
:1001B00014B1204607F04DFD002004B070BD0000D2
:1001C0002C070020450100086C6564002C09002004
:1001D000696E69740000000004460D4614A006F024
:1001E00080FB21461CA006F07CFB29461FA006F0E0
:1001F00078FB00BFFEE710B500F055F806F0A1FB54
:100200001F49204806F058FD07F0D8FA08F000F919
:1002100008F00AF9FFF7ABFF04F0ECFB07F0EAFA8D
:1002200010BD10B508F028FCFFF7E5FF002010BD59
:100230000A0D2057726F6E6720706172616D657470
:1002400065722076616C756520646574656374659C
:1002500064206F6E0D0A00002020202020202066E0
:10026000696C65202025730D0A00000020202020E5
:100270002020206C696E65202025640D0A00000096
:1002800000000120A82E002010B500214FF00060D2
:1002900000F008FC10BD10B505F01EFF04F09BF93E
:1002A00005F031FF10BD70B5FFF7EEFF174800688D
:1002B0006422B0FBF2F1B1F1807F00D31DE021F0A8
:1002C0007F40401E4FF0E022506150170F2200285F
:1002D00007DA13071D0E0E4B00F00F04241F1D55E7
:1002E00003E013071C0E0B4B1C5400BF00204FF003
:1002F000E02290610720106100BF00F037FA06A0ED
:1003000006F06AFB0FF0FAFD70BD00001800002037
:1003100018ED00E000E400E0756172743100000047
:10032000704700BFFEE700BFFEE700BFFEE7704773
:10033000704700007FB505460C4625B94522F649B1
:10034000F6A006F0D4FB24B94622F349F8A006F043
:10035000CEFBEE6B20680090207900F00F0008289B
:1003600003D10020ADF8040008E0207900F00F0070
:10037000092803D14FF48050ADF804002079C0F370
:10038000011018B90020ADF8060007E02079C0F38D
:100390000110012802D14003ADF806002079C0F316
:1003A000811018B90020ADF8080011E02079C0F3E1
:1003B0008110012804D14FF4C060ADF8080007E0B7
:1003C0002079C0F38110022802D14002ADF8080064
:1003D0000020ADF80C000C20ADF80A00694630682A
:1003E00003F0A7FA0121306803F0E7FB002004B016
:1003F00070BD70B58CB00546EC6BEE6C012240F21E
:100400002441206803F006FC0121084602F069FB44
:100410000121022002F065FBA06800F003FD2068C6
:10042000001D01903068029000200390A86CC0F37A
:100430008F200490002005908020069000200790D7
:10044000089009904FF400500A9000200B9001A9E9
:10045000A06800F0BEFDE06801F04EF80122022124
:10046000A06800F0D7FE01224021206803F05DFC67
:100470000121A06800F07CFE207C8DF800000020A7
:100480008DF8010001208DF802008DF80300684608
:1004900000F0B9FA0CB070BD2DE9F04105460E46EA
:1004A0001746B84625B96F22A5499CA006F01FFB48
:1004B000EC6B032E29D0102E13D0112E2CD194F9D1
:1004C000040000F01F02012191409E4A430942F8B6
:1004D000231000BF002240F22551206803F09AFB50
:1004E0001AE094F9040000F01F0201219140420932
:1004F000920002F1E022C2F8001100BF012240F296
:100500002551206803F086FB06E0B8F5007F02D194
:100510002846FFF76EFF00BF00BF0020BDE8F08156
:1005200070B504460E4624B9902287497BA006F098
:10053000DEFAE56B2868868000BF2868008800F036
:1005400040000028F9D0012070BD70B5044624B9E0
:100550009E227E4971A006F0CAFAE56B4FF0FF3685
:100560002868008800F0200010B128688088C6B292
:10057000304670BD2DE9F0410646F46B0021A068BD
:1005800000F0F6FDA06800F0D2FEB16CC1F38F213F
:100590000D1A6069A84202D260692F1A00E02F4646
:1005A0006561032040EA0721304608F0CAFE206852
:1005B00003F0EEFCE06800F09FFF0121A06800F06E
:1005C000D7FDBDE8F0812DE9F0410546EC6B002137
:1005D000A06800F0CDFDA06800F0A9FEA96CC1F3F1
:1005E0008F210E1A6069B04202D26069371A00E0AA
:1005F00037466661032040EA0721284608F0A1FE3D
:10060000E06800F079FFAA6CC2F38F21A06800F0C7
:1006100055FE0121A06800F0ABFDBDE8F08170B58A
:100620000546EC6B24B9E82249494AA006F05FFA76
:1006300040F22551206803F0DCFE40B1012128463C
:1006400008F07FFE40F22551206803F05DFF40F284
:100650002441206803F0CDFE10B12846FFF78AFF41
:1006600040F22661206803F0C4FE20B140F226610A
:10067000206803F049FF0821206803F031FE0128BB
:1006800002D12846FFF761FF70BD10B505F024FDCB
:100690003448FFF7C4FF05F036FD10BD10B505F076
:1006A0001BFD3048FFF78FFF05F02DFD10BD10B585
:1006B0000121052002F03EFA0121880302F03AFAF6
:1006C00010BD08B502208DF8020004208DF803004B
:1006D0000002ADF800006946234801F0EFF9182048
:1006E0008DF803004FF40070ADF8000069461E4815
:1006F00001F0E4F908BD38B5044620798DF8000012
:1007000000208DF801008DF8020001208DF8030013
:10071000684600F078F938BD0456010873657269BF
:10072000616C20213D2052545F4E554C4C0000001E
:1007300063666720213D2052545F4E554C4C0000AB
:100740001456010880E100E0225601082D560108E8
:10075000385601087561727420213D2052545F4E55
:10076000554C4C00AC090020000801401CB50F4955
:1007700003C9CDE90001FFF79AFFFFF7A2FF0C4C78
:100780004FF4E13000900B480B4908640846DDE95E
:100790000012C0E911122046FFF7ADFF234640F2D8
:1007A000033206A1044808F0A6FD1CBD445601080A
:1007B00000000020F0550108AC090020756172743A
:1007C000310000000CB50020019000906C480068DA
:1007D00040F480306A49086000BF6948006800F44E
:1007E000003000900198401C0190009818B90198C1
:1007F000B0F5A06FF1D16248006800F4003010B18C
:100800000120009001E0002000900098012843D1D1
:100810005C48006840F010005A49086008460068CB
:1008200020F0030008600846006840F002000860FD
:100830005348406852494860084640684860084646
:10084000406840F4806048600846406820F47C10AE
:1008500048600846406840F48810486008460068D0
:1008600040F08070086000BF4548006800F00070EC
:100870000028F9D04248406820F003004049486011
:100880000846406840F00200486000BF3C484068AD
:1008900000F00C000828F9D10CBD10B5FFF792FF4D
:1008A00010BD10B53648006840F0010034490860BA
:1008B00008464068344908403149486008460068A5
:1008C000324908402E4908600846006820F480201C
:1008D00008600846406820F4FE0048604FF41F009E
:1008E0008860FFF7DAFF4FF000602949086010BD0B
:1008F00010B5002100200022214B5B6803F00C01A1
:1009000021B1042906D0082928D107E0214B224C27
:10091000236027E0214B204C236023E0184B5B68C9
:1009200003F47010164B5B6803F48032022303EB70
:10093000904022B91A4B4343174C23600DE0104BF3
:100940005B6803F4003323B1164B4343124C23601E
:1009500003E0124B4343104C236003E00D4B0E4C5D
:10096000236000BF00BF064B5B68C3F303130E4C4C
:10097000E15C094B1B68CB40074C236010BD0000B5
:1009800000100240002002400000FFF8FFFFF6FECA
:1009900008ED00E000127A0018000020001BB700EC
:1009A00000093D00808D5B001C0000200648804748
:1009B00006480047FEE7FEE7FEE7FEE7FEE7FEE744
:1009C000FEE7FEE7FEE7FEE7A308000831010008A6
:1009D00010B50446B4F5E06F0BD0B4F5C06F08D085
:1009E000B4F5A06F05D0B4F5806F02D0B4F5407FA8
:1009F00000D103E063215D48FFF7EEFB5C48204334
:100A00005C49086010BD2DE9F0410446002500272F
:100A10000F26E07810B1E078012800D103E07521BD
:100A20005248FFF7D9FB6078102800DA03E07621FE
:100A30004E48FFF7D1FBA078102800DA03E07721B9
:100A40004A48FFF7C9FBE07800B34A48006800F461
:100A5000E060C0F5E060050AC5F10407EE4060788B
:100A600000FA07F5A078304005432D01424822786E
:100A70008554207800F01F01012088402178491119
:100A8000890001F1E021C1F8000109E0207800F0BF
:100A90001F010120884039492278521141F8220073
:100AA000BDE8F08170B504460D46B4F1005F02D098
:100AB000B4F1006F00D103E09F212C48FFF78CFBBD
:100AC0002F48854200D203E0A0212848FFF784FB8D
:100AD0002C4905EA010020432649091F086070BD22
:100AE00070B504460D46102C03D0042C01D0022C06
:100AF00000D103E0B2211D48FFF76EFB0DB1012DBF
:100B000000D103E0B3211948FFF766FB3DB1194856
:100B1000001D006820431749091D086006E01548BC
:100B2000001D0068A0431349091D086070BD10B581
:100B30000446042C01D0601D00B903E0CA210B4813
:100B4000FFF74AFB042C08D14FF0E020006940F089
:100B500004004FF0E021086107E04FF0E020006959
:100B600020F004004FF0E021086110BD2C64010862
:100B70000000FA050CED00E000E400E080E100E098
:100B8000FFFF0F0080FFFF1F10B5012002F06EF87D
:100B9000002002F06BF810BD10B504460CB1012C1A
:100BA00000D103E089219C48FFF716FB9B480460B5
:100BB00010BD10B504460CB1012C00D103E0962104
:100BC0009548FFF709FB9548001F046010BD10B55C
:100BD00004460CB1012C00D103E0A3218E48FFF79D
:100BE000FBFA8E488430046010BD70B504460025C1
:100BF0003CB1802C05D0B4F5807F02D0B4F5407FA5
:100C000000D103E0B8218448FFF7E6FA844805885C
:100C10004FF67F40054025438148058070BD70B583
:100C2000044600257F2C00DC03E0CD217A48FFF745
:100C3000D3FA7B4805884FF68070054025437848F5
:100C4000058070BD38B504460D4600200090042C88
:100C500051D0082C4FD00C2C4DD0102C4BD0142C34
:100C600049D0182C47D01C2C45D0202C43D0242C04
:100C700041D0282C3FD0402C3DD0442C3BD0482C98
:100C800039D04C2C37D0502C35D0542C33D0582C54
:100C900031D05C2C2FD0602C2DD0642C2BD0682C24
:100CA00029D06C2C27D0702C25D0742C23D0782CF4
:100CB00021D07C2C1FD0802C1DD0842C1BD0882CC4
:100CC00019D08C2C17D0902C15D0942C13D0982C94
:100CD00011D09C2C0FD0A02C0DD0A42C0BD0A82C64
:100CE00009D0AC2C07D0B02C05D0B42C03D0B82C34
:100CF00001D0BC2C00D103E0E3214748FFF76CFA98
:100D000047482C38009000982044009000980560D7
:100D100038BD38B5044600200090042C51D0082C72
:100D20004FD00C2C4DD0102C4BD0142C49D0182C5B
:100D300047D01C2C45D0202C43D0242C41D0282C2B
:100D40003FD0402C3DD0442C3BD0482C39D04C2CAB
:100D500037D0502C35D0542C33D0582C31D05C2C7B
:100D60002FD0602C2DD0642C2BD0682C29D06C2C4B
:100D700027D0702C25D0742C23D0782C21D07C2C1B
:100D80001FD0802C1DD0842C1BD0882C19D08C2CEB
:100D900017D0902C15D0942C13D0982C11D09C2CBB
:100DA0000FD0A02C0DD0A42C0BD0A82C09D0AC2C8B
:100DB00007D0B02C05D0B42C03D0B82C01D0BC2C5B
:100DC00000D103E0F6211448FFF706FA14482C3846
:100DD00000900098204400900098008838BD0F488B
:100DE0009C300068C0B270470D480830008840F061
:100DF00001000B490831088070470848A03000689E
:100E0000C0B2704706480830008840F0020004492C
:100E100008310880704700007C64010804860D4298
:100E20002C6C004010B50446F74884422AD0F6489E
:100E30001430844226D0F4482830844222D0F2482C
:100E40003C3084421ED0F048503084421AD0EE48E4
:100E50006430844216D0EC487830844212D0EB489B
:100E600084420FD0E948143084420BD0E748283040
:100E7000844207D0E5483C30844203D0E3485030F8
:100E8000844200D103E06F21E148FFF7A5F9206813
:100E90004FF6FE7108402060002020606060A06076
:100EA000E060D948844208D1D7480838406840F00B
:100EB0000F00D549083948608AE0D348143084428D
:100EC00008D1D1480838406840F0F000CE490839D0
:100ED00048607DE0CC482830844208D1CA480838B0
:100EE000406840F47060C8490839486070E0C648FE
:100EF0003C30844208D1C4480838406840F470400F
:100F0000C1490839486063E0BF485030844208D185
:100F1000BD480838406840F47020BB490839486033
:100F200056E0B9486430844208D1B7480838406870
:100F300040F47000B4490839486049E0B24878305C
:100F4000844208D1B0480838406840F07060AE492B
:100F5000083948603CE0AD48844206D1001F006873
:100F600040F00F00211F086032E0A848143084428E
:100F700008D1A648001F006840F0F000A349091FEF
:100F8000086025E0A1482830844208D19F48001F0E
:100F9000006840F470609D49091F086018E09B4894
:100FA0003C30844208D19948001F006840F47040EA
:100FB0009649091F08600BE094485030844207D1DD
:100FC0009248001F006840F470209049091F086093
:100FD00010BD70B505460C4600268B4885422AD0C8
:100FE00089481430854226D087482830854222D04F
:100FF00085483C3085421ED08348503085421AD007
:1010000081486430854216D07F487830854212D0BE
:101010007E4885420FD07D48143085420BD07B48F6
:101020002830854207D079483C30854203D0774844
:101030005030854200D103E0CF217548FFF7CCF84E
:10104000A068102801D0A06800B903E0D021704842
:10105000FFF7C2F8E06820B1E068B0F5803F00D249
:1010600003E0D1216A48FFF7B7F82069402801D092
:10107000206900B903E0D2216548FFF7ADF8606947
:10108000802801D0606900B903E0D3216048FFF7F0
:10109000A3F8A06938B1A069B0F5807F03D0A0693A
:1010A000B0F5007F00D103E0D4215948FFF794F850
:1010B000E06938B1E069B0F5806F03D0E069B0F560
:1010C000006F00D103E0D5215148FFF785F8206A71
:1010D000202801D0206A00B903E0D6214C48FFF750
:1010E0007BF8606AB0F5405F09D0606AB0F5005FD8
:1010F00005D0606AB0F5805F01D0606A00B903E096
:10110000D7214348FFF768F8A06AB0F5804F01D0B7
:10111000A06A00B903E0D8213D48FFF75DF82E68CA
:1011200047F6F0708643216AA068084321690843A6
:1011300061690843A1690843E1690843616A08439A
:10114000A16A084306432E60E06868602068A860D2
:101150006068E86070BD0021016041608160C1602D
:10116000016141618161C1610162416281627047D7
:1011700070B504460D46244884422AD022481430D3
:10118000844226D020482830844222D01E483C3059
:1011900084421ED01C48503084421AD01A48643011
:1011A000844216D018487830844212D017488442BE
:1011B0000FD01648143084420BD014482830844293
:1011C00007D012483C30844203D01048503084424B
:1011D00000D104E040F229110D48FEF7FDFF0DB1EA
:1011E000012D00D104E04FF495710948FEF7F4FF9A
:1011F00025B1206840F00100206004E020684FF62F
:10120000FE710840206070BD0800024008040240E2
:10121000D464010870B504460D461646FE48844263
:101220002AD0FD481430844226D0FB48283084421E
:1012300022D0F9483C3084421ED0F74850308442D6
:101240001AD0F5486430844216D0F348783084428E
:1012500012D0F24884420FD0F048143084420BD0B0
:10126000EE482830844207D0EC483C30844203D01A
:10127000EA485030844200D104E040F24911E84885
:10128000FEF7AAFF25F00E0008B905B104E04FF4FF
:10129000A571E348FEF7A0FF0EB1012E00D104E0D6
:1012A00040F24B11DE48FEF797FF1EB1206828433D
:1012B000206002E02068A843206070BD70B504463D
:1012C0000D46D54884422AD0D3481430844226D0D3
:1012D000D1482830844222D0CF483C3084421ED0AE
:1012E000CD48503084421AD0CB486430844216D066
:1012F000C9487830844212D0C84884420FD0C748C9
:10130000143084420BD0C5482830844207D0C348EB
:101310003C30844203D0C1485030844200D104E0C4
:101320004FF4B271BE48FEF757FF656070BD10B54F
:101330000446B94884422AD0B7481430844226D0A3
:10134000B5482830844222D0B3483C3084421ED075
:10135000B148503084421AD0AF486430844216D02D
:10136000AD487830844212D0AC4884420FD0AB48AC
:10137000143084420BD0A9482830844207D0A748B3
:101380003C30844203D0A5485030844200D104E070
:101390004FF4BB71A248FEF71FFF606880B210BD1A
:1013A00070B5044600250026012C7DD0022C7BD090
:1013B000042C79D0082C77D0102C75D0202C73D029
:1013C000402C71D0802C7FD0B4F5807F7CD0B4F5D8
:1013D000007F79D0B4F5806F76D0B4F5006F73D00C
:1013E000B4F5805F70D0B4F5005F6DD0B4F5804F78
:1013F0006AD0B4F5004F67D0B4F5803F64D0B4F53F
:10140000003F61D0B4F5802F5ED0B4F5002F5BD0E3
:10141000B4F5801F58D0B4F5001F55D0B4F5800F37
:1014200052D0B4F5000F4FD0B4F1807F4CD0B4F15E
:10143000007F49D0B4F1806F46D0B4F1006F43D043
:101440007848844240D0401C84423DD0801C844275
:101450003AD0001D844237D072480F30844233D0D6
:1014600070481F3084422FD06E483F3084422BD0CA
:101470006C487F30844227D06A48FF30844223D0B2
:101480006948844220D0694884421DD0684884421B
:101490001AD0B4F1102F17D04FEAF030844213D095
:1014A0006448844210D000E00EE0634884420BD0D0
:1014B0006248844208D06248844205D06148844230
:1014C00002D06148844200D104E040F2B711544890
:1014D000FEF782FE04F0805018B1504808380668C4
:1014E00002E04D480838066806EA040008B1012504
:1014F00000E00025284670BD10B5044604F0704099
:1015000010B15248204008B904B104E040F20E2165
:101510004348FEF761FE04F0805018B13F48001FB9
:10152000046002E03C480838446010BD70B50446D1
:1015300000250026012C6DD0022C6BD0042C69D024
:10154000082C67D0102C65D0202C63D0402C61D0A3
:10155000802C5FD0B4F5807F5CD0B4F5007F59D08B
:10156000B4F5806F56D0B4F5006F53D0B4F5805FFA
:1015700050D0B4F5005F4DD0B4F5804F4AD0B4F5EB
:10158000004F47D0B4F5803F44D0B4F5003F7ED043
:10159000B4F5802F7BD0B4F5002F78D0B4F5801F40
:1015A00075D0B4F5001F72D0B4F5800F6FD0B4F5CC
:1015B000000F6CD0B4F1807F69D0B4F1007F66D0A9
:1015C000B4F1806F63D0B4F1006F60D015488442ED
:1015D0005DD0401C84425AD0801C844257D0001DEC
:1015E000844254D00F480F30844250D00D481F30F1
:1015F00084424CD00B483F30844248D009487F3069
:10160000844244D00748FF30844240D00648844298
:101610003DD01DE03BE0000008000240080402400D
:10162000D464010801000010000200100004001042
:1016300000080010004000100080001000000110A1
:101640000000021000000410000008100000F0EF7D
:10165000264884421BD02648844218D0B4F1102F6B
:1016600015D04FEAF030844211D0224884420ED087
:10167000214884420BD02148844208D0204884422B
:1016800005D02048844202D01F48844200D104E0A3
:1016900040F259211D48FEF79FFD04F0805010B123
:1016A0001B48066801E01B48066806EA040008B10A
:1016B000012500E00025284670BD10B5044604F061
:1016C000704010B11448204008B904B104E040F261
:1016D000AF210E48FEF780FD04F0805018B10C4891
:1016E000001D046001E00B48446010BD00040010C0
:1016F00000080010004000100080001000000110E1
:10170000000002100000041000000810D46401085A
:1017100000040240000002400000F0EF0020A74952
:101720000860091D0860091D0860091D0860A448BB
:10173000A24914310860704770B50446002520792D
:1017400010B12079042800D103E06A219D48FEF7FA
:1017500043FD6079082805D060790C2802D06079B3
:10176000102800D103E06B219648FEF735FD206874
:101770006FF3130010B9206800B103E06C219148A9
:10178000FEF72AFDA07910B1A079012800D103E06D
:101790006D218C48FEF720FD884DA07990B3284636
:1017A00000682168884329460860081D0068216890
:1017B0008843291D0860207905442868216808436A
:1017C00028607E4808300068216888437B490831DA
:1017D0000860081D00682168884378490C3108605A
:1017E000607910280FD1081F0068216808437349E9
:1017F00008310860081D0068216808436F490C31F2
:1018000008600EE007E06D4D6079054428682168A6
:101810000843286005E0207905442868216888434A
:10182000286070BD0021016001710C21417100210F
:101830008171704710B50446200D000508B904B148
:1018400003E0AE215F48FEF7C7FC5C48103000683B
:1018500020435A491031086010BD70B50446002578
:10186000012C31D0022C2FD0042C2DD0082C2BD0C1
:10187000102C29D0202C27D0402C25D0802C23D0F0
:10188000B4F5807F20D0B4F5007F1DD0B4F5806F13
:101890001AD0B4F5006F17D0B4F5805F14D0B4F54A
:1018A000005F11D0B4F5804F0ED0B4F5004F0BD0CF
:1018B000B4F5803F08D0B4F5003F05D0B4F5802FD3
:1018C00002D0B4F5002F00D103E0BE213D48FEF761
:1018D00083FC3A4814300068204008B1012500E03C
:1018E0000025284670BD10B50446200D000508B936
:1018F00004B103E0D4213348FEF76EFC2F481430C6
:10190000046010BD70B5044600250026012C31D0BE
:10191000022C2FD0042C2DD0082C2BD0102C29D009
:10192000202C27D0402C25D0802C23D0B4F5807FCC
:1019300020D0B4F5007F1DD0B4F5806F1AD0B4F577
:10194000006F17D0B4F5805F14D0B4F5005F11D0EC
:10195000B4F5804F0ED0B4F5004F0BD0B4F5803FF6
:1019600008D0B4F5003F05D0B4F5802F02D0B4F50F
:10197000002F00D103E0E5211248FEF72DFC0F48AF
:10198000006800EA04060D4814300068204010B1D9
:101990000EB1012500E00025284670BD10B50446B3
:1019A000200D000508B904B103E0FC210548FEF74D
:1019B00013FC02481430046010BD00000004014014
:1019C000FFFF0F002C65010810B50446FC48844257
:1019D00011D0FC4884420ED0FB4884420BD0FB4817
:1019E000844208D0FA48844205D0FA48844202D0A2
:1019F000F948844200D103E06F21F848FEF7ECFB80
:101A0000EF48844208D10121042001F0E1F80021CF
:101A1000042001F0DDF846E0EA48844208D10121C3
:101A2000082001F0D5F80021082001F0D1F83AE0B3
:101A3000E548844208D10121102001F0C9F80021B5
:101A4000102001F0C5F82EE0E048844208D10121C1
:101A5000202001F0BDF80021202001F0B9F822E09B
:101A6000DB48844208D10121402001F0B1F8002177
:101A7000402001F0ADF816E0D648844208D101219B
:101A8000802001F0A5F80021802001F0A1F80AE0F3
:101A9000D148844207D10121801501F099F8002135
:101AA000A01501F095F810BD10B50121084601F010
:101AB0008FF80021012001F08BF810BD2DE9F05FB7
:101AC00005460C464FF00009CA4600260027B046DE
:101AD000B346BB48854211D0BA4885420ED0BA48B9
:101AE00085420BD0B948854208D0B948854205D017
:101AF000B848854202D0B848854200D103E0B221FF
:101B0000B648FEF769FBE078A0B1E078042811D070
:101B1000E07828280ED0E07848280BD0E078142808
:101B200008D0E078102805D0E0781C2802D0E078B2
:101B3000182800D103E0B321A848FEF74DFB002090
:101B400010B9208800B103E0B421A448FEF744FB9B
:101B5000E07800F00F09E07800F0100080B1A07884
:101B6000012805D0A078022802D0A078032800D14F
:101B700003E0BB219948FEF72FFBA07840EA090952
:101B8000207838B3D5F8008000261FE0012000FA45
:101B900006F7208800EA070ABA4516D1B7000F20D9
:101BA00000FA07FB28EA0B0809FA07F040EA0808E0
:101BB000E078282803D10120B040686105E0E07892
:101BC000482802D10120B0402861761C082EDDD3C0
:101BD000C5F800802088FF282BDDD5F8048000267A
:101BE00023E006F10800012101FA00F7208800EA4D
:101BF000070ABA4518D1B7000F2000FA07FB28EAF8
:101C00000B0809FA07F040EA0808E078282803D111
:101C100006F1080081406961E078482804D106F1A6
:101C20000800012181402961761C082ED9D3C5F80E
:101C30000480BDE8F09F4FF6FF71018002218170A2
:101C40000421C170704770B505460C4600265C48FB
:101C5000854211D05B4885420ED05B4885420BD04F
:101C60005A48854208D05A48854205D0594885428D
:101C700002D05948854200D104E04FF48F71574893
:101C8000FEF7AAFA012C25D0022C23D0042C21D057
:101C9000082C1FD0102C1DD0202C1BD0402C19D06C
:101CA000802C17D0B4F5807F14D0B4F5007F11D00C
:101CB000B4F5806F0ED0B4F5006F0BD0B4F5805F33
:101CC00008D0B4F5005F05D0B4F5804F02D0B4F56C
:101CD000004F00D104E040F21F114048FEF77CFAAB
:101CE000A868204008B1012600E00026304670BDFB
:101CF00010B504463248844211D0324884420ED096
:101D0000314884420BD03148844208D03048844264
:101D100005D03048844202D02F48844200D104E0EC
:101D20004FF49A712D48FEF757FAA06880B210BDA3
:101D300070B505460C4600262148854211D0214841
:101D400085420ED0204885420BD02048854208D0DD
:101D50001F48854205D01F48854202D01E48854253
:101D600000D104E04FF4A2711C48FEF735FA012CB3
:101D700025D0022C23D0042C21D0082C1FD0102CCD
:101D80001DD0202C1BD0402C19D0802C17D0B4F59E
:101D9000807F14D0B4F5007F11D0B4F5806F0ED0E1
:101DA000B4F5006F0BD0B4F5805F08D0B4F5005FD8
:101DB00005D0B4F5804F02D0B4F5004F10D114E037
:101DC00000080140000C01400010014000140140D7
:101DD00000180140001C01400020014084650108FA
:101DE00040F24511FE48FEF7F7F9E868204008B1D7
:101DF000012600E00026304670BD10B50446F948C3
:101E0000844211D0F84884420ED0F84884420BD066
:101E1000F748844208D0F748844205D0F648844207
:101E200002D0F648844200D104E04FF4AD71EC4892
:101E3000FEF7D2F9E06880B210BD70B504460D46D9
:101E4000E848844211D0E84884420ED0E7488442F2
:101E50000BD0E748844208D0E648844205D0E648E3
:101E6000844202D0E548844200D104E040F2691186
:101E7000DB48FEF7B1F9002008B905B104E04FF4E2
:101E8000B571D748FEF7A8F9256170BD70B5044655
:101E90000D46D448844211D0D34884420ED0D34852
:101EA00084420BD0D248844208D0D248844205D024
:101EB000D148844202D0D148844200D104E040F2AB
:101EC0007911C748FEF788F9002008B905B104E088
:101ED0004FF4BD71C248FEF77FF9656170BD70B502
:101EE00005460C461646BF48854211D0BE4885427D
:101EF0000ED0BE4885420BD0BD48854208D0BD48B3
:101F0000854205D0BC48854202D0BC48854200D1FC
:101F100004E040F28D11B248FEF75EF9012C25D0A5
:101F2000022C23D0042C21D0082C1FD0102C1DD023
:101F3000202C1BD0402C19D0802C17D0B4F5807FDA
:101F400014D0B4F5007F11D0B4F5806F0ED0B4F585
:101F5000006F0BD0B4F5805F08D0B4F5005F05D0FA
:101F6000B4F5804F02D0B4F5004F00D104E04FF437
:101F7000C7719B48FEF730F90EB1012E00D104E085
:101F800040F28F119648FEF727F90EB12C6100E060
:101F90006C6170BD70B504460D469248844211D004
:101FA000914884420ED0914884420BD0904884429C
:101FB00008D09048844205D08F48844202D08F4890
:101FC000844200D104E04FF4D2718548FEF704F951
:101FD000E56070BD70B504460D464FF4803681480B
:101FE000844211D0804884420ED0804884420BD075
:101FF0007F48844208D07F48844205D07E4884428E
:1020000002D07E48844200D104E040F2B511744809
:10201000FEF7E2F8002008B905B104E04FF4DB71E7
:102020006F48FEF7D9F82E43A661A561A661A6699F
:10203000A66970BD70B505460C4600263DB1012D60
:1020400005D0022D03D0032D01D0042D00D104E0D2
:102050004FF4E9716248FEF7BFF8ECB1012C1BD0D8
:10206000022C19D0032C17D0042C15D0052C13D01A
:10207000062C11D0072C0FD0082C0DD0092C0BD01A
:102080000A2C09D00B2C07D00C2C05D00D2C03D01A
:102090000E2C01D00F2C00D104E040F2D311504897
:1020A000FEF79AF8564806684FF68070064046EAF2
:1020B000051626435248066070BD10B504460CB1A3
:1020C000012C00D104E04FF4F3714548FEF784F889
:1020D0004C48C46110BD2DE9F04704460E46002768
:1020E000B8460025A946012C78D0022C76D0042CC5
:1020F00074D0082C72D0444884426FD042482030BB
:1021000084426BD04148844268D040488030844249
:1021100064D03F48844261D03E4884425ED03E480D
:1021200084425BD03D48844258D03D48844255D0DB
:10213000B4F5805F52D0B4F5EA1F4FD0B4F5EB1F71
:102140004CD0B4F5004F49D03648844246D0401CAC
:10215000844243D0801C844240D0001D84427ED003
:1021600030480F3084427AD0B4F1201F77D04FEA44
:10217000F030844273D02C48844270D02B48844283
:102180006DD02B4884426AD02A48844267D02A48BE
:10219000844264D0B4F5011F61D0284884425ED0E7
:1021A000401C84425BD0801C844258D0001D844275
:1021B00055D022480F30844251D020481F308442ED
:1021C0004DD01E483F30844249D01C487F30844265
:1021D00045D01A48FF30844241D031E03FE0000052
:1021E0008465010800080140000C01400010014016
:1021F0000014014000180140001C01400020014073
:1022000000000140000020421000140040001600B1
:1022100000011800000218000003180000081A004E
:10222000000C1A0001002000000130000002300004
:102230000004300000112000002020000100008078
:10224000634884420BD06348844208D06248844289
:1022500005D06248844202D06148844200D104E043
:1022600040F22A215F48FDF7B7FF0EB1012E00D1E1
:1022700004E040F22B215B48FDF7AEFF04F0004084
:10228000B0F1004F02D15848C56901E05648456891
:10229000C4F30349A7B204F44010B0F5401F08D1BD
:1022A00025F070655048406820F070604E494860E5
:1022B00013E004F48010B0F5801F07D1032000FA6A
:1022C00009F825EA080545F0706506E0600D000193
:1022D00007FA00F0854345F0706526B1600D0101F5
:1022E00007FA01F0054304F00040B0F1004F02D1BD
:1022F0003D48C56101E03C484560BDE8F08770B5E8
:1023000005460C4600265DB1012D09D0022D07D0EF
:10231000032D05D0042D03D0052D01D0062D00D1AD
:1023200004E040F265212F48FDF756FFECB1012C87
:102330001BD0022C19D0032C17D0042C15D0052C3F
:1023400013D0062C11D0072C0FD0082C0DD0092C3F
:102350000BD00A2C09D00B2C07D00C2C05D00D2C3F
:1023600003D00E2C01D00F2C00D104E040F26621E6
:102370001C48FDF731FFA007010F0F2000FA01F6FE
:1023800019480830A11050F82100B043164908310F
:10239000A21041F822000846A11050F82100A10720
:1023A000090F05FA01F108430F490831A21041F85D
:1023B000220070BD10B504460CB1012C00D104E020
:1023C0004FF41E710748FDF707FF0848046010BD71
:1023D00000020080000400800008008000100080DF
:1023E000002000808465010800000140DC002042DC
:1023F00010B50121080700F012FC00214FF08050B9
:1024000000F00DFC10BD10B504460CB1012C00D13C
:1024100003E07F215548FDF7DFFE5548046210BDFB
:1024200010B504460CB1012C00D103E08C214F48BB
:10243000FDF7D2FE4E48046110BD70B5044600257C
:102440006CB1202C0BD0402C09D0602C07D0802CF4
:1024500005D0A02C03D0C02C01D0E02C00D103E08B
:10246000A2214248FDF7B8FE4248056825F0E00584
:102470002543056070BD10B504460CB1012C00D198
:1024800003E0B5213948FDF7A7FE3948A0300460C4
:1024900010BD70B504460D4600260CB1012C00D1CC
:1024A00003E0C9213148FDF797FE012D01D0022D2F
:1024B00000D103E0CA212D48FDF78EFE2D480668A5
:1024C00026F00306264306602B48006840F004000F
:1024D00029490860012D01D130BF00E020BF264806
:1024E000006820F004002449086070BD214800689D
:1024F00040F004001F4908600846006840F00200F0
:1025000008601D48006840F004001B49086000BFD7
:1025100000BF30BF704770B504460025012C03D0C2
:10252000022C01D0042C00D104E040F209110F4824
:10253000FDF752FE0F484068204008B1012500E039
:102540000025284670BD10B50446012C01D0022C90
:1025500000D104E04FF491710448FDF73DFE0548B9
:10256000006840EA84000349086010BDDC6501088A
:1025700000000E420070004010ED00E0FE480068D0
:1025800040F00100FC49086008464068FB490840EB
:10259000F949486008460068F9490840F64908606A
:1025A0000846006820F4802008600846406820F44F
:1025B000FE0048604FF41F008860704710B5044665
:1025C0002CB1B4F5803F02D0B4F5802F00D104E0E7
:1025D00040F21111EB48FDF7FFFDE748006820F4D9
:1025E0008030E54908600846006820F480200860D3
:1025F000B4F5803F03D0B4F5802F0ED106E0DE485D
:10260000006840F48030DC49086007E0DA48006880
:1026100040F4A020D849086000E000BF00BF10BD12
:102620002DE9F0410446002500260027212C13D077
:10263000312C11D0392C0FD0412C0DD0612C0BD066
:102640007A2C09D07B2C07D07C2C05D07D2C03D094
:102650007E2C01D07F2C00D104E040F23451C948D7
:10266000FDF7BAFD6511012D02D1C348066806E0E9
:10267000022D02D1C048066A01E0BF48466A04F054
:102680001F050120A840304008B1012700E00027C5
:102690003846BDE8F08138B50020009000240025C0
:1026A00000BF3120FFF7BCFF05460098401C00909A
:1026B0000098B0F5A06F01D0002DF2D03120FFF7C7
:1026C000AFFF08B1012400E00024204638BD70B5FA
:1026D000044600251F2C00DC04E04FF4A971A94832
:1026E000FDF77AFDA448056825F0F80545EAC4051C
:1026F000056070BD10B504460CB1012C00D104E09A
:1027000040F265119F48FDF767FD9F48046010BDCA
:1027100070B505460C4600262DB1B5F5803F02D0B8
:10272000B5F5403F00D104E040F27F119548FDF738
:1027300053FD4CB3B4F5802F26D0B4F5002F23D031
:10274000B4F5402F20D0B4F5801F1DD0B4F5A01FE4
:102750001AD0B4F5C01F17D0B4F5E01F14D0B4F5EB
:10276000001F11D0B4F5101F0ED0B4F5201F0BD0F0
:10277000B4F5301F08D0B4F5401F05D0B4F5501F94
:1027800002D0B4F5601F00D104E04FF4C0717D4861
:10279000FDF722FD7848466826F47C1645EA0400D9
:1027A00006437548466070BD10B504460CB1012C57
:1027B00000D104E04FF4CA717248FDF70DFD724874
:1027C000046610BD70B5044600251CB1012C01D073
:1027D000022C00D104E04FF40E716A48FDF7FCFCB6
:1027E0006548456825F003052543456070BD62488E
:1027F000406800F00C00704770B5044600257CB1BD
:10280000802C0DD0902C0BD0A02C09D0B02C07D050
:10281000C02C05D0D02C03D0E02C01D0F02C00D15E
:1028200004E04FF419715748FDF7D6FC524845684B
:1028300025F0F0052543456070BD70B504460025C0
:102840005CB1B4F5806F08D0B4F5A06F05D0B4F5D5
:10285000C06F02D0B4F5E06F00D104E040F27E21F9
:102860004848FDF7B9FC4448456825F4E065254330
:10287000456070BD70B5044600255CB1B4F5806F4D
:1028800008D0B4F5A06F05D0B4F5C06F02D0B4F590
:10289000E06F00D104E04FF426713A48FDF79CFC4C
:1028A0003548456825F4605545EAC405456070BD66
:1028B00070B504460D4604F0E00008B904B104E028
:1028C00040F2BF212F48FDF787FC0DB1012D00D14B
:1028D00004E04FF430712B48FDF77EFC2DB1264803
:1028E000407A20432449487204E02348407AA043B8
:1028F0002149487270BD10B504460CB1012C00D1BD
:1029000004E040F2DB211F48FDF766FC1E48D8308A
:10291000046010BD70B50446002544B1B4F5804F85
:1029200005D0B4F5004F02D0B4F5404F00D104E01B
:1029300040F202311348FDF74FFC0F48456825F47B
:1029400040452543456070BD10B504461CB1012CBF
:1029500001D0042C00D104E04FF450710948FDF778
:102960003BFC0020044920310870034981F8200015
:10297000012C0DD0042C09E0001002400000FFF8EB
:10298000FFFFF6FE346601080000424208D103E072
:102990000120EB49087004E00520E949087000E0D7
:1029A00000BF00BF10BD10B504460CB1012C00D112
:1029B00004E040F26131E348FDF70EFCE2480460B8
:1029C00010BD10B50446B4F5807F05D0B4F5007F86
:1029D00002D0B4F5407F00D104E040F27231D94812
:1029E000FDF7FAFBD6482038006A2043D449203945
:1029F000086210BD10B504460CB1012C00D104E0F2
:102A00004FF46071CF48FDF7E7FBCF4844380460CE
:102A100010BD30B50021002200240023C84D203D08
:102A20006D6805F00C0121B1042905D0082926D1D3
:102A300005E0C64D056025E0C54D056022E0C04DAE
:102A4000203D6D6805F47012BD4D203D6D6805F4A4
:102A50008034022505EB92421CB9BE4D55430560FA
:102A60000CE0B74D203D6D6805F400351DB1BA4D41
:102A70005543056002E0B64D5543056002E0B34D95
:102A8000056000BF00BFAE4D203D6D6805F0F00150
:102A90000909B24D6B5C0568DD404560A84D203DDD
:102AA0006D6805F4E061090AAC4D6B5C4568DD407A
:102AB0008560A34D203D6D6805F46051C90AA74D9E
:102AC0006B5C4568DD40C5609D4D203D6D6805F43B
:102AD0004041890BA24D6B5CC568B5FBF3F5056100
:102AE00030BD70B504460D4640F2575024EA000050
:102AF00008B904B104E040F22B419248FDF76CFBA9
:102B00000DB1012D00D104E040F22C418D48FDF7BC
:102B100063FB3DB18A482038406920438849203909
:102B2000486106E0864820384069A043844920393E
:102B3000486170BD70B504460D468A48204008B90A
:102B400004B104E040F24A417E48FDF745FB0DB177
:102B5000012D00D104E040F24B417A48FDF73CFBE7
:102B60003DB1774820388069204375492039886114
:102B700006E0734820388069A04371492039886194
:102B800070BD70B504460D467748204008B904B1C1
:102B900004E040F269416B48FDF71EFB0DB1012DC9
:102BA00000D104E040F26A416648FDF715FB3DB1F3
:102BB00063482038C069204361492039C86106E074
:102BC0005F482038C069A0435D492039C86170BDA5
:102BD00070B504460D466348204008B904B104E0CE
:102BE00040F2A4415748FDF7F7FA0DB1012D00D18D
:102BF00004E040F2A5415348FDF7EEFA3DB15048DC
:102C00002038C06820434E492039C86006E04C484F
:102C10002038C068A0434A492039C86070BD70B5EB
:102C200004460D465048204008B904B104E040F283
:102C3000C3414448FDF7D0FA0DB1012D00D104E0A5
:102C400040F2C4413F48FDF7C7FA3DB13C48203847
:102C5000006920433A492039086106E038482038A5
:102C60000069A04336492039086170BD10B504469B
:102C70000CB1012C00D104E04FF49B613148FDF709
:102C8000ABFA31484038046010BD10B504460CB1B1
:102C9000012C00D104E040F2E5412A48FDF79CFAFE
:102CA0003248C46410BD10B504463CB1052C05D0B3
:102CB000042C03D0062C01D0072C00D104E040F2F4
:102CC00005512048FDF788FA1D482038C47110BD11
:102CD0001B482038406A40F080701949203948620A
:102CE000704770B504460025012C09D0022C07D08E
:102CF000042C05D0082C03D0102C01D0802C00D13E
:102D000004E040F27E510F48FDF766FA0C48203887
:102D10008068204008B1012500E00025284670BDEC
:102D200010B5044604F0600008B904B104E040F2B4
:102D3000AB510448FDF750FA01482038847210BDA9
:102D400020100240346601088004424200127A00DA
:102D5000001BB70000093D00808D5B002C000020A7
:102D60003C0000200200C0FF00360181000042420A
:102D700070B504460D464FF6F870204008B904B10E
:102D800003E05D217648FDF727FA0DB1012D00D152
:102D900003E05E217248FDF71FFA2DB171480088EB
:102DA00020437049088004E06E480088A0436D49C4
:102DB000088070BD6B48001D008840F01000694914
:102DC000091D088070476748001D00884FF6EF71A5
:102DD00008406449091D08807047002161481C3083
:102DE0000188001F008841EA0040704700B5024694
:102DF000FFF7E0FF100C5B4918310880091D0A80BD
:102E0000FFF7E1FF00BD10B50446B4F5801F00D206
:102E100003E0A3215248FDF7DFF9FFF7CBFFC4F32E
:102E20000340504908310880091D0C80FFF7CBFF93
:102E300010BD00B50246FFF7BDFF100C4949203117
:102E40000880091D0A80FFF7BEFF00BD002045492C
:102E5000103109880907080B4249143109880843D1
:102E6000704700BF3F48001D008800F02000002888
:102E7000F8D070473B48001D00884FF6F7710840B6
:102E80003849091D088000BF3648001D008800F041
:102E900008000028F8D0704770B504460025202CA3
:102EA00007D0082C05D0042C03D0022C01D0012C13
:102EB00000D103E0F9212A48FDF78EF92948001DC9
:102EC0000088204008B1012500E00025284670BD9B
:102ED00010B504464FF6F070204008B904B104E084
:102EE0004FF48A711E48FDF777F91E48001D0088CF
:102EF000A0431C49091D088010BD70B5044600257B
:102F0000042C03D0022C01D0012C00D104E040F2AB
:102F100027111348FDF760F91248001D0088204072
:102F2000C5B210480088204010B10DB1012500E065
:102F30000025284670BD10B504464FF6F8702040B5
:102F400008B904B104E040F241110548FDF744F925
:102F50000448001D0088A0430249091D088010BDD7
:102F60008C6601080028004010B50446FA488442E7
:102F700005D0FA48844202D0F948844200D103E0E7
:102F80007A21F848FDF728F9F348844208D1012155
:102F90008014FFF71DFE0021A014FFF719FE16E0B4
:102FA000EE48844208D101210014FFF738FE0021C9
:102FB0002014FFF734FE0AE0E948844207D10121DA
:102FC000C013FFF72CFE0021E013FFF728FE10BD11
:102FD00070B505460C460026DF48854205D0DF481F
:102FE000854202D0DE48854200D103E0A321DD48BE
:102FF000FDF7F2F8208858B12088B0F5806F07D02F
:103000002088B0F5004F03D02088B0F5404F00D1A4
:1030100003E0A621D348FDF7DFF86088B0F5827F92
:1030200001D0608800B903E0A721CE48FDF7D4F8AD
:10303000A088B0F5006F01D0A08800B903E0A821F6
:10304000C848FDF7C9F8E08810B1E088022800D12F
:1030500003E0A921C348FDF7BFF8208910B12089FA
:10306000012800D103E0AA21BE48FDF7B5F8608928
:10307000B0F5007F01D0608900B903E0AB21B94809
:10308000FDF7AAF8A089A0B1A089082811D0A089CD
:1030900010280ED0A08918280BD0A089202808D08D
:1030A000A089282805D0A089302802D0A0893828F6
:1030B00000D103E0AC21AB48FDF78EF8E08910B1F8
:1030C000E089802800D103E0AD21A648FDF784F80F
:1030D000208A012800DB03E0AE21A248FDF77CF83E
:1030E0002E8806F44156208861880843A188084349
:1030F000E18808432189084361890843A18908437D
:10310000E189084306432E80A88B4FF2FF710840E7
:10311000A883208A288270BD2DE9F04F85B005462E
:103120000C464FF0000902274FF000084FF0010B4A
:103130000026B2468948854202D08948854200D19E
:1031400003E0E3218748FDF747F8208858B120883D
:10315000B0F5807F07D02088B0F5007F03D02088AD
:10316000B0F5407F00D103E0E4217E48FDF734F85C
:10317000608858B16088102808D06088202805D061
:103180006088302802D06088B02800D103E0E521B3
:103190007448FDF721F8A08840B1A088012805D027
:1031A000A088032802D0A088052800D103E0E621EA
:1031B0006C48FDF711F8E088B0F5007F01D0E08899
:1031C00000B903E0E7216748FDF706F8A068B0F50D
:1031D000FA5F03D36449A068884202D9A068022834
:1031E00000D103E0E8215F48FCF7F6FFA08910B1A9
:1031F000A089082800D103E0E9215A48FCF7ECFF38
:10320000A88B4FF240010840A88302202884B5F81B
:103210001C90A068022803D14FF00008022738E074
:10322000A08810B94FF0010B01E04FF0020B4B48A2
:10323000854200D100E000BF6846FFF7EAFBDDF8F9
:1032400000A0E088B0F5007F0AD14FEA1A2000EB19
:1032500080004000A168B0FBF1F0401D86B20BE099
:103260004FEA4B10BAFBF0F000EB80004000A16881
:10327000B0FBF1F0401D86B20A20B6FBF0F606F076
:103280000108A6EB0800C0F34F074FF6FF7000EAF5
:103290000828022F01DBFF2F02DD02274FF0000874
:1032A000E08840EA080038432884A088A1890843C0
:1032B000618808432188084340F4006040EA090916
:1032C000A5F81C9005B0BDE8F08F00210180418079
:1032D0008180C180018141818181C1810721018279
:1032E00070470021018041808180C180022181607E
:1032F00000218181704770B504460D46164884420E
:1033000005D01648844202D01548844200D104E01A
:103310004FF4D7711348FCF75FFF0DB1012D00D1B9
:1033200004E040F2AF110F48FCF756FF25B12088AA
:1033300040F04000208004E020884FF6BF71084034
:10334000208070BD70B504460D460448844202D00A
:10335000034884420AD10EE00030014000380040AA
:10336000003C0040E466010800EE02004FF4E37107
:10337000F948FCF731FF0DB1012D00D104E040F216
:10338000C711F548FCF728FF25B1A08B40F48060F9
:10339000A08304E0A08B4FF6FF310840A08370BDEE
:1033A0002DE9F04104460D4616464FF0000800276F
:1033B000EA48844205D0EA48844202D0E94884427F
:1033C00000D104E04FF4F371E348FCF705FF0EB1C0
:1033D000012E00D104E040F2E711DF48FCF7FCFECB
:1033E000712D03D0602D01D0502D00D104E04FF499
:1033F000F471D948FCF7F0FE4FEA2518012000FAD5
:1034000008F087B21EB1A0883843A08002E0A088EF
:10341000B843A080BDE8F08170B504460D4616465D
:10342000CE48844205D0CE48844202D0CD48844262
:1034300000D104E04FF40371C748FCF7CDFE0EB194
:10344000012E00D104E040F20D21C348FCF7C4FE78
:103450004FF6FC70284008B905B104E040F20E2197
:10346000BD48FCF7B9FE1EB1A0882843A08002E049
:10347000A088A843A08070BD70B504460D46B7482B
:10348000844205D0B648844202D0B648844200D176
:1034900004E040F22621B048FCF79EFEA58170BDF5
:1034A00010B50446AD48844205D0AD48844202D0F0
:1034B000AC48844200D104E040F23621A648FCF733
:1034C0008BFEA08910BD70B504460D46A34884420A
:1034D00005D0A348844202D0A248844200D104E02F
:1034E0004FF412719C48FCF777FEB5F5807F03D04E
:1034F0004FF6FF60854200D104E040F24921964832
:10350000FCF76AFE4FF6FF60854204D0208840F445
:103510008070208004E020884FF6FF610840208002
:1035200070BD70B504460D468C48844205D08C4869
:10353000844202D08B48844200D104E04FF41871D9
:103540008548FCF749FE0DB1012D00D104E040F2A1
:1035500061218148FCF740FE25B1A08840F00400BD
:10356000A08004E0A0884FF6FB710840A08070BDE9
:1035700070B504460D467948844205D078488442A7
:1035800002D07848844200D104E040F27A217248A7
:10359000FCF722FEB5F5006F00D005B904E040F25B
:1035A0007B216D48FCF718FE20884FF2FF71084020
:1035B000208020882843208070BD10B504466748CD
:1035C000844205D06648844202D06648844200D1D5
:1035D00004E040F28A216048FCF7FEFD208840F4B8
:1035E0008050208010BD70B504460D465B48844273
:1035F00005D05B48844202D05A48844200D104E09E
:1036000040F29A215448FCF7E7FD0DB1012D00D19D
:1036100004E040F29B215048FCF7DEFD25B12088F4
:1036200040F40050208004E020884DF6FF710840EF
:10363000208070BD70B504460D4600264748844280
:1036400005D04748844202D04648844200D104E075
:1036500040F2B5214048FCF7BFFD0DB1012D00D16E
:1036600004E040F2B6213C48FCF7B6FD012D01D044
:10367000268B00E0A68A304670BD10B50446374858
:10368000844205D03648844202D03648844200D174
:1036900004E040F2CD213048FCF79EFD208A10BDA9
:1036A00070B504460D462D48844205D02C4884420E
:1036B00002D02C48844200D104E040F2DF212648A9
:1036C000FCF78AFD4BF6FF70854202D0B5F5804FBE
:1036D00000D104E04FF438711F48FCF77DFDB5F5CB
:1036E000804F04D1208840F48040208004E020886E
:1036F0004BF6FF710840208070BD70B505460C4642
:1037000000261648854205D01548854202D0154846
:10371000854200D104E040F202310F48FCF75CFD25
:10372000802C0DD0402C0BD0202C09D0102C07D091
:10373000082C05D0042C03D0022C01D0012C00D180
:1037400004E040F203310448FCF746FD288920409C
:1037500050B1012609E00000E46601080030014094
:1037600000380040003C00400026304670BD70B577
:1037700004460D463F48844205D03F48844202D06B
:103780003E48844200D104E040F227313C48FCF737
:1037900023FD102D00D104E04FF44A713848FCF7A6
:1037A0001BFDE843208170BD2DE9F04705460C461E
:1037B0000027B8460026B1462E48854205D02E483F
:1037C000854202D02D48854200D104E040F24331C9
:1037D0002B48FCF701FD602C09D0712C07D0532C2D
:1037E00005D0542C03D0552C01D0562C00D104E028
:1037F0004FF451712248FCF7EFFC04F00F01012057
:1038000088401FFA80F826110120B04086B2A888AF
:1038100000EA0609288900EA080020B1B9F1000F82
:1038200001D0012700E000273846BDE8F08770B5D9
:1038300004460D4600260F48844205D00E488442B7
:1038400002D00E48844200D104E040F277310C48A7
:10385000FCF7C2FC542D00D104E04FF45E7108481F
:10386000FCF7BAFC05F00F010120884086B2F04356
:10387000208170BD0030014000380040003C004015
:10388000E466010810B50446FE4884420BD0FE48A9
:10389000844208D0FD48844205D0FD48844202D0CD
:1038A000FC48844200D103E08521FB48FCF794FCEE
:1038B000F448844209D101218803FFF789F90021E6
:1038C0004FF48040FFF784F932E0EF48844209D199
:1038D00001214804FFF7A3F900214FF40030FFF75E
:1038E0009EF925E0E948844209D101218804FFF7C7
:1038F00096F900214FF48020FFF791F918E0E44891
:10390000844209D10121C804FFF789F900214FF44D
:103910000020FFF784F90BE0DE48844208D1012142
:103920000805FFF77CF900214FF48010FFF777F9C5
:1039300010BD2DE9F04786B005460C460026B2467C
:1039400000BFB1460027CF4885420BD0CE48854204
:1039500008D0CE48854205D0CD48854202D0CD481A
:10396000854200D103E0B821CB48FCF735FC206844
:1039700020B1CA492068884200D203E0B921C64874
:10398000FCF72AFCA08818B1A088B0F5805F00D1B0
:1039900003E0BA21C048FCF71FFCE08858B1E0887A
:1039A000B0F5805F07D0E088B0F5005F03D0E08815
:1039B000B0F5405F00D103E0BB21B748FCF70CFC39
:1039C000208938B12089B0F5806F03D02089B0F507
:1039D000C06F00D103E0BC21AF48FCF7FDFB60895C
:1039E0004FF6F371084010B9608900B103E0BD21C2
:1039F000A948FCF7F1FBA08958B1A089B0F5807FF8
:103A000007D0A089B0F5007F03D0A089B0F5407F32
:103A100000D103E0BE21A048FCF7DEFBA08968B11D
:103A20009848854205D09848854202D097488542FB
:103A300000D103E0C2219848FCF7CEFB2F462E8A26
:103A40004CF6FF700640E08806432E82AE894EF6A3
:103A5000F3100640A0882189084361890843064382
:103A6000AE81AE8A4FF6FF400640A0890643AE8283
:103A700001A8FEF7CEFF8348874202D1DDF810A0EF
:103A800001E0DDF80CA0A88900F4004040B10AEB89
:103A9000CA0000EB0A1021684900B0FBF1F807E00A
:103AA0000AEBCA0000EB0A1021688900B0FBF1F8AC
:103AB0006420B8FBF0F006013009642101FB108995
:103AC000A88900F4004040B1322000EBC900B0FBEF
:103AD000F1F000F00700064308E0322000EB091087
:103AE0006421B0FBF1F000F00F0006432E8106B018
:103AF000BDE8F0874FF41651016000218180C1803C
:103B000001810C21418100218181704770B50546FA
:103B10000C4600265B48854205D05B48854202D0B2
:103B20005A48854200D104E04FF499715A48FCF795
:103B300053FB208818B12088B0F5006F00D104E055
:103B400040F233115448FCF747FB608818B1608895
:103B5000B0F5806F00D104E04FF49A714E48FCF745
:103B60003BFBA08818B1A088B0F5007F00D104E02D
:103B700040F235114848FCF72FFBE08818B1E08887
:103B8000B0F5807F00D104E04FF49B714248FCF710
:103B900023FB2E8A4FF2FF000640208861880843ED
:103BA000A1880843E188084306432E8270BD0021A6
:103BB000018041808180C180704770B504460D4608
:103BC000304884420BD03048844208D02F48844289
:103BD00005D02F48844202D02E48844200D104E010
:103BE0004FF4B1712C48FCF7F7FA0DB1012D00D15B
:103BF00004E040F263112848FCF7EEFA25B1A089F1
:103C000040F40050A08104E0A0894DF6FF71084007
:103C1000A08170BD2DE9F04705460C4617464FF0D0
:103C20000008C246C1460026164885420BD01648F9
:103C3000854208D01548854205D01548854202D0F6
:103C40001448854200D104E040F289111248FCF783
:103C5000C3FA282C28D040F22770844224D040F2A6
:103C60002660844220D040F2255084421CD040F28D
:103C70002440844218D040F64600844214D040F6D6
:103C80006A100DE000380140004400400048004048
:103C9000004C0040005000403C67010821AA44004D
:103CA000844201D0602C00D104E04FF4C571F74884
:103CB000FCF792FA0FB1012F00D104E040F28B1112
:103CC000F248FCF789FA40F66A1084420ED1F048B7
:103CD000854205D0EF48854202D0EF48854200D1A9
:103CE00004E040F28F11E948FCF776FA2E46C4F35F
:103CF000421804F01F0A012000FA0AF9B8F1010F76
:103D000001D10C3605E0B8F1020F01D1103600E008
:103D1000143627B1306840EA0900306003E03068AB
:103D200020EA09003060BDE8F08770B504460D4612
:103D30001646D74884420BD0D648844208D0D6488D
:103D4000844205D0D548844202D0D548844200D16F
:103D500004E040F2C311CD48FCF73EFA4FF63F7045
:103D6000284008B905B104E04FF4E271C748FCF7F8
:103D700033FA0EB1012E00D104E040F2C511C34860
:103D8000FCF72AFA1EB1A08A2843A08202E0A08A8A
:103D9000A843A08270BD70B504460D46BC4884425D
:103DA0000BD0BC48844208D0BB48844205D0BB48F5
:103DB000844202D0BA48844200D104E040F2DF11CC
:103DC000B248FCF709FA0F2D00DC04E04FF4F07163
:103DD000AE48FCF701FA208A4FF6F07108402082C5
:103DE000208A2843208270BD70B504460D46A8483D
:103DF00084420BD0A748844208D0A748844205D00B
:103E0000A648844202D0A648844200D104E04FF480
:103E1000FB719E48FCF7E0F915B1B5F5006F00D1D4
:103E200004E040F2F7119948FCF7D6F9A0894FF267
:103E3000FF710840A081A0892843A08170BD70B5A2
:103E400004460D46924884420BD09248844208D0E2
:103E50009148844205D09148844202D090488442DF
:103E600000D104E040F209218848FCF7B5F90DB112
:103E7000012D00D104E040F20A218448FCF7ACF99E
:103E800025B1A08940F00200A08104E0A0894FF68E
:103E9000FD710840A08170BD70B504460D467C4898
:103EA00084420BD07B48844208D07B48844205D0B2
:103EB0007A48844202D07A48844200D104E040F239
:103EC00026217248FCF788F90DB1202D00D104E0BD
:103ED00040F227216D48FCF77FF9208A4FF6DF7109
:103EE00008402082208A2843208270BD70B5044695
:103EF0000D46674884420BD06648844208D0664825
:103F0000844205D06548844202D06548844200D18D
:103F100004E040F239215D48FCF75EF90DB1012D56
:103F200000D104E040F23A215848FCF755F925B198
:103F3000208A40F48040208204E0208A4BF6FF7102
:103F40000840208270BD70B504460D46504884423A
:103F50000BD05048844208D04F48844205D04F4887
:103F6000844202D04E48844200D104E040F2532102
:103F70004648FCF731F9B5F5007F00DA04E04FF46C
:103F800015714248FCF728F9C5F30800A08070BD00
:103F900010B504463E4884420BD03E48844208D0C7
:103FA0003D48844205D03D48844202D03C4884428A
:103FB00000D104E04FF419713448FCF70DF9A088E2
:103FC000C0F3080010BD10B50446314884420BD040
:103FD0003048844208D03048844205D02F4884427B
:103FE00002D02F48844200D104E04FF41D712748CD
:103FF000FCF7F2F8A08940F00100A08110BD70B577
:1040000004460D462248844205D02248844202D00C
:104010002148844200D104E04FF421711B48FCF791
:10402000DBF8208BC0B22083208B40EA0520208360
:1040300070BD70B504460D46154884420BD0154836
:10404000844208D01448844205D01448844202D0E7
:104050001348844200D104E04FF426710B48FCF76A
:10406000BBF8208B00F47F402083208B28432083E3
:1040700070BD70B504460D460548844205D005481C
:10408000844202D0044884420CD110E03C6701080D
:10409000003801400044004000480040004C00400F
:1040A0000050004040F2AB21FC48FCF795F80DB100
:1040B000012D00D104E04FF42B71F848FCF78CF887
:1040C00025B1A08A40F02000A08204E0A08A4FF62B
:1040D000DF710840A08270BD70B504460D46F048FF
:1040E000844205D0EF48844202D0EF48844200D198
:1040F00004E04FF43171E948FCF76EF80DB1012D81
:1041000000D104E040F2C521E448FCF765F825B190
:10411000A08A40F01000A08204E0A08A4FF6EF7160
:104120000840A08270BD70B504460D46DC4884424C
:104130000BD0DC48844208D0DB48844205D0DB4801
:10414000844202D0DA48844200D104E040F2DE2109
:10415000D248FCF741F80DB1012D00D104E040F246
:10416000DF21CE48FCF738F825B1A08A40F00800DE
:10417000A08204E0A08A4FF6F7710840A08270BDCB
:1041800070B504460D46C64884420BD0C5488442EB
:1041900008D0C548844205D0C448844202D0C448EF
:1041A000844200D104E040F2FD21BC48FCF714F841
:1041B0000DB1012D00D104E040F2FE21B748FCF71B
:1041C0000BF825B1A08940F40040A08103E0A0894C
:1041D000C0F30E00A08170BD70B504460D46B04816
:1041E00084420BD0AF48844208D0AF48844205D007
:1041F000AE48844202D0AE48844200D104E04FF47D
:104200004671A648FBF7E8FF0DB1012D00D104E08F
:1042100040F21931A148FBF7DFFF25B1A08A40F435
:104220000060A08204E0A08A4FF2FF710840A082E3
:1042300070BD70B504460D46994884420BD099482C
:10424000844208D09848844205D09848844202D0DD
:104250009748844200D104E040F235318F48FBF7A3
:10426000BBFF042D00D005B904E040F236318B4885
:10427000FBF7B2FFA08A4FF6FB710840A082A08A2C
:104280002843A08270BD70B504460D468448844220
:104290000BD08448844208D08348844205D08348A8
:1042A000844202D08248844200D104E04FF452712B
:1042B0007A48FBF791FF0DB1012D00D104E040F2E7
:1042C00049317648FBF788FF25B1A08A40F002000B
:1042D000A08204E0A08A4FF6FD710840A08270BD64
:1042E00070B505460C4600266D4885420BD06D48DA
:1042F000854208D06C48854205D06C48854202D082
:104300006B48854200D104E040F26E316348FBF710
:1043100063FF012C13D0802C11D0402C0FD0202C07
:104320000DD0102C0BD0B4F5807F08D0B4F5007FF1
:1043300005D0082C03D0042C01D0022C00D104E0BD
:1043400040F26F315548FBF747FFB4F5007F0ED1BF
:104350005348854205D05348854202D05248854291
:1043600000D104E040F273314C48FBF735FF288858
:10437000204008B1012600E00026304670BD70B52F
:1043800004460D46464884420BD04648844208D035
:104390004548844205D04548844202D0444884427E
:1043A00000D104E040F29E313C48FBF715FF4FF688
:1043B0009F40284008B905B104E040F29F313748DA
:1043C000FBF70AFF05F40070B0F5007F0ED134480A
:1043D000844205D03348844202D03348844200D11D
:1043E00004E040F2A3312D48FBF7F6FEE8432080BD
:1043F00070BD2DE9F04705460C4600270026B04663
:10440000B146274885420BD02648854208D0264829
:10441000854205D02548854202D02548854200D1F5
:1044200004E040F2C1311D48FBF7D6FE282C20D015
:1044300040F2277084421CD040F22660844218D09B
:1044400040F22550844214D040F22440844210D0DF
:1044500040F6460084420CD040F66A10844208D0F0
:10446000B4F5587F05D0B4F5187F02D0B4F5B07F0D
:1044700000D104E040F2C2310848FBF7ADFE40F63F
:104480006A1084421BD10648854205D00548854202
:1044900002D0054885420DD111E000003C670108BB
:1044A000003801400044004000480040004C0040FB
:1044B0000050004040F2C6313948FBF78DFEC4F38E
:1044C000421804F01F06012000FA06F6B8F1010FA9
:1044D00002D1A889064007E0B8F1020F02D1288A6C
:1044E000064001E0A88A06402712012000FA07F7DB
:1044F000288807401EB117B14FF0010901E04FF0C5
:1045000000094846BDE8F0872DE9F04104460D4614
:1045100000260027234884420BD02348844208D039
:104520002248844205D02248844202D02148844255
:1045300000D104E040F20A411948FBF74DFE40F279
:10454000266085420BD040F22550854207D040F6C8
:104550004600854203D040F66A10854200D104E04F
:1045600040F20B410E48FBF737FE40F66A108542D9
:104570000ED10C48844205D00B48844202D00B482F
:10458000844200D104E040F20F410548FBF724FECD
:104590002E120120B04087B2F8432080BDE8F081A0
:1045A0003C670108003801400044004000480040DA
:1045B000004C0040005000407047174800687047AA
:1045C00070B5044604F058FA0546134804602846BE
:1045D00004F056FA70BD10B50F480068401C0E4933
:1045E000086003F003FB0446A06C401EA064A06CAE
:1045F00018B9606CA06403F0C9FB03F0BAFE10BDEB
:104600000146642201FB02F000F2E7304FF47A72B7
:10461000B0FBF2F070470000400000202DE9F041AF
:10462000064603F0E3FA08B103F091F9A34D6C6874
:1046300010E0A4F10C0708223146384601F0A3FE31
:1046400038B903F0D3FA08B103F08FF93846BDE862
:10465000F0812468281D8442EBD103F0C7FA08B129
:1046600003F083F90020F2E770B504460D461646C4
:1046700014B94FF0FF3070BD2846FFF7CFFF10B1DF
:104680004FF0FF30F7E72A460721204602F01DFFD2
:10469000E6820020A076208300BFECE710B5044638
:1046A00024B94822864987A002F021FA204602F068
:1046B00032FF002010BD0020704770B50446002571
:1046C00024B9952283497FA002F011FA606A90B163
:1046D000A07D00F0100070B92046616A8847054649
:1046E0002DB12A4621467CA002F0FBF803E0E08AC7
:1046F00040F01000E082284670BD70B504460E46BA
:10470000002524B9B82282496EA002F0F0F9A07DFC
:1047100000F0100088B9606A58B12046616A884785
:10472000054635B12A4621466BA002F0DAF8284644
:1047300070BDE08A40F01000E082A07D00F008002B
:1047400030B1207E00F0080010B16FF00600EFE7F6
:10475000A06A20B131462046A26A904705460DB1B5
:10476000A81D60B946F008002083A07E401CA076FA
:10477000A07E20B9E122664966A002F0B8F9284679
:10478000D6E770B50446002524B9F32266494DA04A
:1047900002F0ADF9A07E10B94FF0FF3070BDA07EE1
:1047A000401EA076A07E08B10020F7E7E06A18B1AD
:1047B0002046E16A884705460DB1A81D08B90020CA
:1047C00020832846EAE72DE9F04104460D461646C7
:1047D0001F462CB94FF48E7254493AA002F087F963
:1047E000A07E30B94FF0FF3001F0BEFC0020BDE8E4
:1047F000F081206B38B13B46324629462046D4F83A
:1048000030C0E047F3E76FF0050001F0ADFC002099
:10481000EDE72DE9F04104460D4616461F462CB93A
:104820004FF4A172424927A002F061F9A07E30B98D
:104830004FF0FF3001F098FC0020BDE8F081606B84
:1048400038B13B46324629462046D4F834C0E047CA
:10485000F3E76FF0050001F087FC0020EDE770B58D
:1048600004460D4616462CB94FF4B172314915A0D5
:1048700002F03DF9A06B28B1324629462046A36BD1
:10488000984770BD0020FCE770B504460D462CB972
:1048900040F27B1228490BA002F029F9E5610020C3
:1048A00070BD70B504460D462CB94FF4C87223494B
:1048B00004A002F01CF92562002070BDF000002069
:1048C0004C56010864657620213D2052545F4E55B8
:1048D0004C4C000061560108546F20696E69746980
:1048E000616C697A65206465766963653A25732031
:1048F0006661696C65642E20546865206572726F0C
:104900007220636F64652069732025640A000000CB
:10491000705601086465762D3E7265665F636F753B
:104920006E7420213D2030007F5601088F5601080B
:104930009E560108AE560108C0560108DA56010815
:104940003B490860704770B544E000BF04F094F83C
:10495000064601F0EFFB40B1364937A001F0C1FF38
:10496000652234493DA002F0C2F8304604F088F8D0
:1049700000BF04F081F8054600F051F8E0B1384876
:104980000068A0F1140404F11400D0E90021516082
:10499000D0E9001211604060006000BFA06F10B14C
:1049A0002046A16F8847204602F03DFE012807D12E
:1049B000284604F065F870BD284604F061F8FAE76F
:1049C000284604F05DF8A06A02F0E0FA204602F002
:1049D00000FE00BF00F023F80028B6D100BFEAE7D0
:1049E00007E01348006810B1114800688047FFF7DE
:1049F000AAFFF6E71FB520201F21C200194BCDE901
:104A00000032CDE902100023174A18A1194803F01B
:104A1000C8F8184803F01DF91FBD16487047104923
:104A20000868884201D0012070470020FCE70000A0
:104A300044000020F456010846756E6374696F6E79
:104A40005B25735D207368616C6C206E6F742075DC
:104A500073656420696E204953520A0030000000DB
:104A600034010020800A0020E14900087469646C68
:104A700065000000000A00204268116042684A6038
:104A80004160086070472DE9F04105460C469046AC
:104A9000204603F0A7F9B8F1000F03D0B8F1010FD9
:104AA00023D105E004F114012846FFF7E5FF1CE0DF
:104AB0002E680FE0A6F1140794F8350097F835102A
:104AC000884206DA04F1140107F11400FFF7D4FF5D
:104AD00002E03668AE42EDD100BFAE4204D104F12F
:104AE00014012846FFF7C8FF00BF00BF0020BDE843
:104AF000F08170B505460EE003F0BEFF064628685B
:104B0000A0F114044FF0FF302063204603F071F849
:104B1000304603F0B5FF284601F0B0FA0028EBD08C
:104B2000002070BD2DE9F04104460D4616461F4693
:104B300024B9D822FD49FEA001F0D9FF2A4601215F
:104B4000204602F0C2FC204601F0A0FAA68367725C
:104B50000020BDE8F08110B5044624B9F522F849DB
:104B6000F3A001F0C4FF04F11400FFF7C2FF2046D8
:104B700002F0D1FC002010BD2DE9F04105460E46A3
:104B8000174600BF03F078FF804601F0D3FA48B122
:104B9000EC49EDA001F0A5FE40F21112E949F3A0A5
:104BA00001F0A5FF404603F06BFF00BF294601203E
:104BB00002F0CDFC044614B92046BDE8F081204641
:104BC00001F064FAA68367722046F6E770B50446E2
:104BD00000BF03F051FF054601F0ACFA48B1E449CB
:104BE000D9A001F07EFE4FF49872E149DFA001F0F8
:104BF0007EFF284603F044FF00BF2CB94FF49972A2
:104C0000DB49CBA001F073FF04F11400FFF771FF43
:104C1000204602F0DEFC002070BD2DE9F341054680
:104C20002DB940F24D12D349C1A001F060FF00BF81
:104C3000D148006818B12846CF490968884700BFA5
:104C400003F01AFF064600BF00BFA88B002806DD50
:104C5000A88B401EA883304603F012FF57E001984E
:104C600030B9304603F00CFF6FF00100BDE8FC8165
:104C700000BF03F001FF074602F0B8FF48B9BD4985
:104C8000BEA001F02EFE40F26D12BA49B7A001F0AD
:104C90002EFF00BF03F0F0FE804601F04BFA48B152
:104CA000B449A9A001F01DFE40F26D12B149AFA0B8
:104CB00001F01DFF404603F0E3FE00BF384603F05D
:104CC000DFFE00BF02F092FF04460020206300BF19
:104CD00000BF6A7A214605F11400FFF7D4FE01985F
:104CE00000280BDD00BF00BF01AA002104F14C0029
:104CF00003F019FB04F14C0003F05BFA304603F0BB
:104D0000BFFE02F089FD206B08B1206BAEE700BF4B
:104D1000A848006818B12846A6490968884700BF16
:104D20000020A3E710B5044600212046FFF775FFD9
:104D300010BD70B5044600BF9F48006818B12046FA
:104D40009D490968884700BF002503F095FE064687
:104D500000BF00BF04F1140001F090F928B904F17C
:104D6000140001F09BF9012502E0A08B401CA083F8
:104D7000304603F085FE012D01D102F04DFD0020EB
:104D800070BD2DE9F04104460E4615462CB94FF48E
:104D9000F2728A4966A001F0AAFE012E10D12F46B8
:104DA00003F06AFE804604F11400FFF7A2FEA78319
:104DB000404603F065FE02F02FFD0020BDE8F081C3
:104DC0004FF0FF30FAE770B504460D4616462CB991
:104DD00040F20F227A497BA001F089FE2A46022187
:104DE000204602F072FB204601F050F90120A0831A
:104DF00000202062FF20A0770020E077667270BD5F
:104E000010B504462CB940F22E2273496DA001F072
:104E10006EFE04F11400FFF76CFE204602F07BFBEF
:104E2000002010BD2DE9F04105460E4600BF03F0FD
:104E300023FE074601F07EF948B1684942A001F01F
:104E400050FD40F24922654948A001F050FE384625
:104E500003F016FE00BF2946022002F078FB04464C
:104E600014B92046BDE8F081204601F00FF9012079
:104E7000A08300202062FF20A0770020E0776672E8
:104E80002046EFE770B5044600BF03F0F5FD054688
:104E900001F050F948B152492BA001F022FD40F237
:104EA0006A224F4931A001F022FE284603F0E8FDB6
:104EB00000BF2CB94FF41B72494942A001F017FE04
:104EC00004F11400FFF715FE204602F082FB0020DB
:104ED00070BD2DE9F341044600BF03F0CDFD074648
:104EE00002F084FE48B93F4924A001F0FAFC4FF4D7
:104EF00022723C491DA001F0FAFD00BF03F0BCFD89
:104F0000804601F017F948B136490FA001F0E9FCDD
:104F10004FF42272334915A001F0E9FD404603F039
:104F2000AFFD00BF384603F0ABFD5DE00A57010856
:104F300073656D20213D2052545F4E554C4C00004E
:104F4000165701082457010846756E6374696F6E21
:104F50005B25735D207368616C6C206E6F742075C7
:104F600073656420696E204953520A0030000000C6
:104F700032570108405701081801002046756E633A
:104F800074696F6E5B25735D207368616C6C206E55
:104F90006F742062652075736564206265666F7248
:104FA00065207363686564756C65722073746172E3
:104FB000740A00001C010020200100204C57010849
:104FC0005B5701086D7574657820213D2052545F50
:104FD0004E554C4C000000006957010879570108F4
:104FE000895701089957010800BF34B940F28A2255
:104FF000FE49AFF2300001F07AFD03F03DFD0646B8
:1050000002F0F4FD054600BFF948006818B12046DB
:10501000F7490968884700BF00BF00BF0020286328
:10502000206AA84203D1E07F401CE07749E0A08BD2
:1050300000280ADDA08B401EA083256295F835006C
:10504000A077E07F401CE0773BE0019848B96FF023
:1050500001002863304603F013FD6FF00100BDE846
:10506000FC8100BF00BF95F83500216A91F835102A
:10507000884205DA05F135020221206A02F075FF47
:10508000627A294604F11400FFF7FDFC019800281C
:105090000BDD00BF00BF01AA002105F14C0003F0A9
:1050A00042F905F14C0003F084F8304603F0E8FCC7
:1050B00002F0B2FB286B08B1286BD0E703F0DCFCF0
:1050C0000646304603F0DCFC00BFCA48006818B151
:1050D0002046C8490968884700BF0020BFE72DE97E
:1050E000F0470446002600BF03F0C6FC804602F0ED
:1050F0007DFD58B9C049AFF27C1001F0F2FB40F2DF
:105100000D32BD49AFF29C1001F0F1FC00BF03F07D
:10511000B3FC814601F00EF858B1B749AFF2D81090
:1051200001F0DFFB40F20D32B349AFF2C01001F0E5
:10513000DEFC484603F0A4FC00BF404603F0A0FCA0
:1051400000BF02F053FD054603F096FC074600BF82
:1051500000BF00BFA948006818B12046A7490968E8
:10516000884700BF206AA84209D04FF0FF3028636B
:10517000384603F085FC4FF0FF30BDE8F087E07F54
:10518000401EE077E07F08BBA07F216A91F83510D0
:10519000884205D004F11E020221206A02F0E5FED9
:1051A00004F1140000F06AFF88B96069A0F11405E9
:1051B00000BF00BF256295F83500A077E07F401C56
:1051C000E07704F1140000F069FF012606E0A08BEF
:1051D000401CA08300202062FF20A077384603F007
:1051E0004FFC012E01D102F017FB0020C5E703465A
:1051F0004FF0FF30704770B504460D4616462CB987
:1052000040F27B327E497FA001F071FC2A460321E7
:10521000204602F05AF96672204600F037FF00205F
:10522000E06170BD10B504462CB940F297327A495E
:1052300074A001F05CFC04F11400FFF75AFC204656
:1052400002F069F9002010BD2DE9F04105460E4637
:1052500000BF03F011FC074600F06CFF58B16F4926
:10526000AFF21C3001F03DFB4FF46C726B49AFF2B2
:10527000043001F03CFC384603F002FC00BF294634
:10528000032002F064F9044614B92046BDE8F08119
:105290006672204600F0FAFE0020E0612046F5E745
:1052A00070B504462CB940F2CE325D4955A001F0EC
:1052B0001EFC00BF03F0E0FB054600F03BFF58B1C9
:1052C0005749AFF27C3001F00CFB4FF47472544933
:1052D000AFF2683001F00BFC284603F0D1FB00BFB1
:1052E00004F11400FFF705FC204602F072F90020DB
:1052F00070BD2DE9F04704460F462CB940F2EF325D
:10530000484940A001F0F3FB1FB94FF0FF30BDE862
:10531000F0874FF0000800BF3848006818B12046F9
:1053200036490968884700BF03F0A6FB8246E0695A
:105330003843E06104F1140000F0A0FEC0BB6669D0
:1053400032E0A6F114054FF0FF3995F8400000F067
:10535000010040B1E86BE1690840E96B884211D176
:105360004FF000090EE095F8400000F0020048B14F
:10537000E86BE169084028B1E86BE1690840E8633F
:105380004FF000093668B9F1000F0DD195F84000D3
:1053900000F0040018B1E069E96B8843E061284639
:1053A00002F027FC4FF0010804F114008642C8D136
:1053B000504603F065FBB8F1010F01D102F02CFA61
:1053C0000020A4E72DE9FF4F81B005460E461746A1
:1053D000DDF8388000BF03F04FFB009002F006FCC0
:1053E00018B91149AFF26C4020E028E09957010844
:1053F000180100201C010020A757010820010020EF
:10540000B85701086576656E7420213D2052545FBF
:105410004E554C4C00000000C6570108D6570108F5
:10542000E6570108F65701080458010801F059FA37
:1054300040F24F42FC49AFF2CC4001F058FB00BFB4
:1054400003F01AFB834600F075FE58B1F649AFF23F
:10545000085001F046FA40F24F42F349AFF2F440EF
:1054600001F045FB584603F00BFB00BF009803F02A
:1054700007FB00BF35B940F25242EB49AFF27C0066
:1054800001F035FB26B94FF0FF3005B0BDE8F08FD5
:105490004FF0FF3902F0AAFB04460021216300BF50
:1054A000E248006818B12846E0490968884700BF0B
:1054B00003F0E2FA824607F0010030B1E8693040BB
:1054C000B04212D14FF000090FE007F0020028B1FE
:1054D000E869304048B14FF0000906E04FF48E62B1
:1054E000D149AFF2785001F002FBB9F1000F0DD1B4
:1054F000B8F1000F03D0E8693040C8F8000007F0A9
:10550000040088B3E869B043E8612DE0049818B955
:105510006FF00100206327E0E66384F840706A7A48
:10552000214605F11400FFF7AEFA0498002809DDC2
:1055300004AA002104F14C0002F0F5FE04F14C0035
:1055400002F037FE504603F09BFA02F065F9206B3B
:1055500008B1206B99E703F08FFA8246B8F1000F8B
:1055600002D0E06BC8F80000504603F089FA00BF93
:10557000AF48006818B12846AD490968884700BFA0
:10558000206B82E72DE9F04104460D46174634B9F9
:105590004FF49862A749AFF2941001F0A8FA012DD8
:1055A00010D103F069FA064604F11400FFF7A1FADE
:1055B0000020E061304603F063FA02F02DF900208C
:1055C000BDE8F0814FF0FF30FAE72DE9F0410446E5
:1055D0000D4616461F46DDF818802CB940F2ED4204
:1055E000954996A001F083FA2A460421204601F04D
:1055F0006CFF84F80980204600F048FDE6612784AE
:1056000000206084A084E08404F1280000F033FDD1
:105610000020BDE8F08110B504462CB94FF4A26219
:105620008A4986A001F063FA04F11400FFF761FAD9
:1056300004F12800FFF75DFA204601F06CFF00201E
:1056400010BD2DE9F04105460E46174600BF03F098
:1056500013FA804600F06EFD58B17D49AFF2187024
:1056600001F03FF940F22C527949AFF2007001F09D
:105670003EFA404603F004FA00BF2946042001F038
:1056800066FF044614B92046BDE8F08167722046E3
:1056900000F0FCFC2684218C880001F073FBE061A3
:1056A000E06920B9204601F094FF0020ECE70020DB
:1056B0006084A084E08404F1280000F0DCFC204633
:1056C000E2E770B5044600BF03F0D6F9054600F0E6
:1056D00031FD58B15F49AFF2907001F002F940F22C
:1056E00057525C49AFF27C7001F001FA284603F092
:1056F000C7F900BF2CB940F25A5256494FA001F0E9
:10570000F6F904F11400FFF7F4F904F12800FFF7AB
:10571000F0F9E06901F03AFC204601F05AFF002060
:1057200070BD2DE9F74F04460F462CB940F2875261
:10573000494942A001F0DBF9002602F057FA05467C
:1057400000BF4648006818B12046444909688847A8
:1057500000BF03F091F98046608C218C884208D10B
:10576000029830B9404603F08BF96FF00200BDE8B3
:10577000FE8F86E000202863029828B9404603F097
:105780007FF96FF00200F2E700BF03F075F9814680
:1057900002F02CFA58B93049AFF6200001F0A1F818
:1057A00040F2AA522C49AFF63C0001F0A0F900BF2C
:1057B00003F062F9824600F0BDFC58B12649AFF60D
:1057C000780001F08EF840F2AA522349AFF6640047
:1057D00001F08DF9504603F053F900BF484603F03D
:1057E0004FF900BF627A294604F12800FFF74BF910
:1057F000029800280EDDFEF7E0FE064600BF00BF5F
:1058000002AA002105F14C0002F08DFD05F14C00CB
:1058100002F0CFFC404603F033F901F0FDFF286BA6
:10582000F0B1286BA3E7000004580108180100201C
:105830001C01002012580108235801086D62202124
:105840003D2052545F4E554C4C0000002E5801082C
:105850003B5801084858010855580108200100200C
:1058600003F00AF98046029800280ADDFEF7A5FE3B
:10587000861B0298801B02900298002801DA002003
:105880000290608C218C88423FF474AFA18CE06957
:1058900040F82170A08C401CA084A08C218C8842F0
:1058A00001DB0020A084608C401C608404F11400A3
:1058B00000F0E4FB50B904F1140000F0EFFB4046A7
:1058C00003F0DEF801F0A8FF002050E7404603F0A7
:1058D000D7F800204BE770B504460D460022294654
:1058E0002046FFF71EFF70BD2DE9F74F04460F4617
:1058F00034B94FF4C362FA49AFF2C00001F0F7F8CF
:10590000002602F073F9054600BFF648006818B19A
:105910002046F4490968884700BF03F0ADF8804687
:10592000608C40B9029830B9404603F0A9F86FF096
:105930000100BDE8FE8F6AE000202863029830B9BC
:10594000404603F09DF86FF001002863F1E700BFC7
:1059500003F092F8814602F049F958B9E049AFF6F0
:10596000E41000F0BEFF40F23D62DD49AFF60420D6
:1059700001F0BDF800BF03F07FF8824600F0DAFBCB
:1059800058B1D749AFF6402000F0ABFF40F23D627E
:10599000D349AFF6282001F0AAF8504603F070F87A
:1059A00000BF484603F06CF800BF627A294604F154
:1059B0001400FFF768F8029800280EDDFEF7FDFDE1
:1059C000064600BF00BF02AA002105F14C0002F00C
:1059D000AAFC05F14C0002F0ECFB404603F050F845
:1059E00001F01AFF286B08B1286BA2E703F044F816
:1059F0008046029800280ADDFEF7DFFD861B02982C
:105A0000801B02900298002801DA00200290608C2E
:105A1000002891D0E18CE06950F821003860E08CDA
:105A2000401CE084E08C218C884201DB0020E08473
:105A3000608C401E608404F1280000F01FFB98B9C0
:105A400004F1280000F02AFB404603F019F800BFDB
:105A5000A548006818B12046A3490968884700BFD7
:105A600001F0DAFE002064E7404603F009F800BFC9
:105A70009D48006818B120469B490968884700BFC7
:105A8000002056E72DE9F04104460D46174634B98B
:105A900040F29B629549AFF25C2001F028F8012D9D
:105AA00016D102F0E9FF064604F11400FFF721F8D1
:105AB00004F12800FFF71DF800206084A084E08432
:105AC000304602F0DDFF01F0A7FE0020BDE8F081C6
:105AD0004FF0FF30FAE72DE9F05F04460F4690469D
