:020000040800F2
:10000000C01800205D3500081D030008E57A0008CF
:100010001F03000823030008270300080000000056
:100020000000000000000000000000002B0300089A
:100030002D030008000000006F7A000897020008F6
:1000400077350008773500087735000877350008E0
:1000500077350008773500087735000877350008D0
:1000600077350008773500087735000877350008C0
:1000700077350008773500087735000899060008BD
:1000800077350008773500087735000877350008A0
:100090007735000877350008773500087735000890
:1000A0007735000877350008773500087735000880
:1000B0007735000877350008773500087735000870
:1000C0007735000877350008773500087735000860
:1000D000773500088706000877350008773500086F
:1000E0007735000877350008773500087735000840
:1000F0007735000877350008773500087735000830
:10010000773500087735000877350008773500081F
:10011000773500087735000877350008773500080F
:1001200077350008773500087735000877350008FF
:10013000DFF80CD00FF084FF0048004723020008CE
:10014000C018002000240FF00DF80AE0641C0FF026
:100150001CF8142006F0E7FE0FF01DF8142006F03E
:10016000E2FEF3E710B504460EF0DEFF10BD7FB5EA
:10017000052014214FF40072114BCDE90032CDE976
:10018000021000230F4A10A1104806F0EEFC0546AD
:1001900015B90E4806F041FD142008210B0200227B
:1001A000CDE90010AFF2430109A006F088FD044636
:1001B00014B1204606F031FD002004B070BD0000EF
:1001C00004020020450100086C656400040400205E
:1001D000696E69740000000004460D4614A005F025
:1001E00064FB21461CA005F060FB29461FA005F01A
:1001F0005CFB00BFFEE710B500F055F805F085FB8D
:100200001F49204805F03CFD06F0BCFA07F0E4F871
:1002100007F0EEF8FFF7ABFF03F0D0FB06F0CEFAE5
:1002200010BD10B507F00CFCFFF7E5FF002010BD76
:100230000A0D2057726F6E6720706172616D657470
:1002400065722076616C756520646574656374659C
:1002500064206F6E0D0A00002020202020202066E0
:10026000696C65202025730D0A00000020202020E5
:100270002020206C696E65202025640D0A00000096
:1002800000000120C018002010B500214FF00060D0
:1002900003F0DCF810BD10B504F002FF03F07FF9A5
:1002A00004F015FF10BD70B5FFF7EEFF16480068AB
:1002B0006422B0FBF2F1481EB0F1807F00D31BE056
:1002C000481E4FF0E022506150170F22002807DA35
:1002D00013071D0E0D4B00F00F04241F1D5503E0E6
:1002E00013071C0E0A4B1C5400BF00204FF0E022E5
:1002F00090610720106100BF00F036FA05A005F0FC
:100300004FFB0EF007FF70BD1800002018ED00E055
:1003100000E400E07561727431000000704700BFB6
:10032000FEE700BFFEE700BFFEE770477047000032
:100330007FB505460C4625B94522F649F6A005F0DD
:10034000BAFB24B94622F349F8A005F0B4FBEE6BE2
:1003500020680090207900F00F00082803D10020C9
:10036000ADF8040008E0207900F00F00092803D15F
:100370004FF48050ADF804002079C0F3011018B993
:100380000020ADF8060007E02079C0F30110012835
:1003900002D14003ADF806002079C0F3811018B9EE
:1003A0000020ADF8080011E02079C0F38110012889
:1003B00004D14FF4C060ADF8080007E02079C0F325
:1003C0008110022802D14002ADF808000020ADF8EB
:1003D0000C000C20ADF80A006946306801F0A1FC61
:1003E0000121306801F0E1FD002004B070BD70B55E
:1003F0008CB00546EC6BEE6C012240F22441206883
:1004000001F000FE0121084600F0A0FD01210220BC
:1004100000F09CFDA06802F00DFB2068001D01901B
:100420003068029000200390A86CC0F38F200490E5
:1004300000200590802006900020079008900990E9
:100440004FF400500A9000200B9001A9A06802F020
:10045000C8FBE06802F07AFE01220221A06802F0E7
:10046000FDFC01224021206801F076FE0121A068F8
:1004700002F086FC207C8DF8000000208DF8010041
:1004800001208DF802008DF80300684602F08FFF0E
:100490000CB070BD2DE9F04105460E461746B84632
:1004A00025B96F22A5499CA005F005FBEC6B032E36
:1004B00029D0102E13D0112E2CD194F9040000F065
:1004C0001F02012191409E4A430942F8231000BFB8
:1004D000002240F22551206801F094FD1AE094F9C1
:1004E000040000F01F02012191404209920002F134
:1004F000E022C2F8001100BF012240F2255120681D
:1005000001F080FD06E0B8F5007F02D12846FFF734
:100510006EFF00BF00BF0020BDE8F08170B504464B
:100520000E4624B9902287497BA005F0C4FAE56BFA
:100530002868868000BF2868008800F040000028F6
:10054000F9D0012070BD70B5044624B99E227E49C1
:1005500071A005F0B0FAE56B4FF0FF36286800880F
:1005600000F0200010B128688088C6B2304670BD07
:100570002DE9F0410646F46B0021A06802F000FC72
:10058000A06802F0FCFCB16CC1F38F210D1A606908
:10059000A84202D260692F1A00E02F46656103204D
:1005A00040EA0721304607F0B0FE206801F016FF50
:1005B000E06802F0CBFD0121A06802F0E1FBBDE89C
:1005C000F0812DE9F0410546EC6B0021A06802F0B6
:1005D000D7FBA06802F0D3FCA96CC1F38F210E1ADF
:1005E0006069B04202D26069371A00E0374666613E
:1005F000032040EA0721284607F087FEE06802F062
:10060000A5FDAA6CC2F38F21A06802F07EFC012137
:10061000A06802F0B5FBBDE8F08170B50546EC6B53
:1006200024B9E82249494AA005F045FA40F225518B
:10063000206802F01AF940B10121284607F065FE52
:1006400040F22551206802F09CF940F224412068D4
:1006500002F00BF910B12846FFF78AFF40F226613D
:10066000206802F002F920B140F22661206802F011
:1006700088F90821206802F069F8012802D128468B
:10068000FFF761FF70BD10B504F00AFD3448FFF7B5
:10069000C4FF04F01CFD10BD10B504F001FD30488E
:1006A000FFF78FFF04F013FD10BD10B501210520E9
:1006B00000F077FC0121880300F073FC10BD08B541
:1006C00002208DF8020004208DF803000002ADF82E
:1006D00000006946234800F007FE18208DF803004B
:1006E0004FF40070ADF8000069461E4800F0FCFDB4
:1006F00008BD38B5044620798DF8000000208DF83B
:1007000001008DF8020001208DF80300684602F018
:100710004EFE38BDBC0B010873657269616C202107
:100720003D2052545F4E554C4C00000063666720DC
:10073000213D2052545F4E554C4C0000CC0B01081B
:1007400080E100E0DA0B0108E50B0108F00B01087D
:100750007561727420213D2052545F4E554C4C00FF
:1007600084040020000801401CB50F4903C9CDE9ED
:100770000001FFF79AFFFFF7A2FF0C4C4FF4E130A6
:1007800000900B480B4908640846DDE90012C0E9F7
:1007900011122046FFF7ADFF234640F2033206A1B7
:1007A000044807F08CFD1CBDFC0B01080000002074
:1007B000A80B0108840400207561727431000000E8
:1007C0000CB50020019000906C48006840F4803027
:1007D0006A49086000BF6948006800F40030009072
:1007E0000198401C0190009818B90198B0F5A06FCD
:1007F000F1D16248006800F4003010B1012000908F
:1008000001E0002000900098012843D15C48006876
:1008100040F010005A4908600846006820F00300C4
:1008200008600846006840F00200086053484068CD
:10083000524948600846406848600846406840F4AD
:10084000806048600846406820F47C104860084694
:10085000406840F4881048600846006840F08070A6
:10086000086000BF4548006800F000700028F9D01B
:100870004248406820F0030040494860084640680C
:1008800040F00200486000BF3C48406800F00C00A7
:100890000828F9D10CBD10B5FFF792FF10BD10B5B7
:1008A0003648006840F00100344908600846406856
:1008B00034490840314948600846006832490840D8
:1008C0002E4908600846006820F480200860084629
:1008D000406820F4FE0048604FF41F008860FFF776
:1008E000DAFF4FF000602949086010BD10B5002103
:1008F00000200022214B5B6803F00C0121B1042988
:1009000006D0082928D107E0214B224C236027E09C
:10091000214B204C236023E0184B5B6803F47010DC
:10092000164B5B6803F48032022303EB904022B93C
:100930001A4B4343174C23600DE0104B5B6803F4E4
:10094000003323B1164B4343124C236003E0124B98
:100950004343104C236003E00D4B0E4C236000BF5B
:1009600000BF064B5B68C3F303130E4CE15C094BFD
:100970001B68CB40074C236010BD000000100240F4
:10098000002002400000FFF8FFFFF6FE08ED00E047
:1009900000127A0018000020001BB70000093D007B
:1009A000808D5B001C000020FE48006840F00100C4
:1009B000FC49086008464068FB490840F94948601E
:1009C00008460068F9490840F6490860084600688A
:1009D00020F4802008600846406820F4FE0048604B
:1009E0004FF41F008860704710B504462CB1B4F571
:1009F000803F02D0B4F5802F00D104E040F2111105
:100A0000EBA0FFF7E9FBE748006820F48030E549F8
:100A100008600846006820F480200860B4F5803F34
:100A200003D0B4F5802F0ED106E0DE48006840F414
:100A30008030DC49086007E0DA48006840F4A02014
:100A4000D849086000E000BF00BF10BD2DE9F041AB
:100A50000446002500260027212C13D0312C11D06C
:100A6000392C0FD0412C0DD0612C0BD07A2C09D011
:100A70007B2C07D07C2C05D07D2C03D07E2C01D084
:100A80007F2C00D104E040F23451C9A0FFF7A4FB51
:100A90006511012D02D1C348066806E0022D02D17E
:100AA000C048066A01E0BF48466A04F01F050120FD
:100AB000A840304008B1012700E000273846BDE8D3
:100AC000F08138B5002000900024002500BF3120BF
:100AD000FFF7BCFF05460098401C00900098B0F559
:100AE000A06F01D0002DF2D03120FFF7AFFF08B189
:100AF000012400E00024204638BD70B504460025DE
:100B00001F2C00DC04E04FF4A971A9A0FFF764FBDF
:100B1000A448056825F0F80545EAC405056070BDE0
:100B200010B504460CB1012C00D104E040F265116F
:100B30009FA0FFF751FBAD48046010BD70B505469E
:100B40000C4600262DB1B5F5803F02D0B5F5403FEB
:100B500000D104E040F27F1195A0FFF73DFB4CB3BC
:100B6000B4F5802F26D0B4F5002F23D0B4F5402F54
:100B700020D0B4F5801F1DD0B4F5A01F1AD0B4F555
:100B8000C01F17D0B4F5E01F14D0B4F5001F11D06A
:100B9000B4F5101F0ED0B4F5201F0BD0B4F5301FE4
:100BA00008D0B4F5401F05D0B4F5501F02D0B4F5FD
:100BB000601F00D104E04FF4C0717DA0FFF70CFB73
:100BC0007848466826F47C1645EA040006437548D2
:100BD000466070BD10B504460CB1012C00D104E094
:100BE0004FF4CA7172A0FFF7F7FA8048046610BD8F
:100BF00070B5044600251CB1012C01D0022C00D197
:100C000004E04FF40E716AA0FFF7E6FA6548456804
:100C100025F003052543456070BD6248406800F03B
:100C20000C00704770B5044600257CB1802C0DD0B7
:100C3000902C0BD0A02C09D0B02C07D0C02C05D004
:100C4000D02C03D0E02C01D0F02C00D104E04FF4E4
:100C5000197157A0FFF7C0FA5248456825F0F00512
:100C60002543456070BD70B5044600255CB1B4F500
:100C7000806F08D0B4F5A06F05D0B4F5C06F02D076
:100C8000B4F5E06F00D104E040F27E2148A0FFF708
:100C9000A3FA4448456825F4E0652543456070BDE6
:100CA00070B5044600255CB1B4F5806F08D0B4F58A
:100CB000A06F05D0B4F5C06F02D0B4F5E06F00D1DD
:100CC00004E04FF426713AA0FFF786FA35484568EC
:100CD00025F4605545EAC405456070BD70B504460D
:100CE0000D4604F0E00008B904B104E040F2BF2171
:100CF0002FA0FFF771FA0DB1012D00D104E04FF4E0
:100D000030712BA0FFF768FA2DB12648407A2043B6
:100D10002449487204E02348407AA043214948729C
:100D200070BD10B504460CB1012C00D104E040F2B6
:100D3000DB211FA0FFF750FA2C48D830046010BD0B
:100D400070B50446002544B1B4F5804F05D0B4F524
:100D5000004F02D0B4F5404F00D104E040F2023120
:100D600013A0FFF739FA0F48456825F4404525439D
:100D7000456070BD10B504461CB1012C01D0042C97
:100D800000D104E04FF4507109A0FFF725FA0020CC
:100D9000044920310870034981F82000012C29D032
:100DA000042C25E0001002400000FFF8FFFFF6FED3
:100DB0004C69627261726965735C53544D3332469B
:100DC0003130785F5374645065726970685F447243
:100DD000697665725C7372635C73746D333266310D
:100DE00030785F7263632E630000000000004242AF
:100DF00008D103E00120F449087004E00520F2491D
:100E0000087000E000BF00BF10BD10B504460CB173
:100E1000012C00D105E040F26131AFF26C00FFF728
:100E2000DBF9EA48046010BD10B50446B4F5807FD4
:100E300005D0B4F5007F02D0B4F5407F00D105E0C5
:100E400040F27231AFF29800FFF7C6F9DE48203861
:100E5000006A2043DC492039086210BD10B5044601
:100E60000CB1012C00D105E04FF46071AFF2C0006D
:100E7000FFF7B2F9D5484438046010BD30B5002101
:100E8000002200240023D04D203D6D6805F00C01A8
:100E900021B1042905D0082926D105E0CC4D0560F3
:100EA00025E0CC4D056022E0C74D203D6D6805F47E
:100EB0007012C54D203D6D6805F48034022505EBA8
:100EC00092421CB9C44D554305600CE0BE4D203D17
:100ED0006D6805F400351DB1C04D5543056002E055
:100EE000BC4D5543056002E0B94D056000BF00BF31
:100EF000B54D203D6D6805F0F0010909B84D6B5CFA
:100F00000568DD404560B04D203D6D6805F4E06149
:100F1000090AB34D6B5C4568DD408560AA4D203DF4
:100F20006D6805F46051C90AAD4D6B5C4568DD40E4
:100F3000C560A54D203D6D6805F44041890BA94D64
:100F40006B5CC568B5FBF3F5056130BD70B5044653
:100F50000D4640F2575024EA000008B904B105E0FC
:100F600040F22B41AFF2B810FFF736F90DB1012D69
:100F700000D105E040F22C41AFF2CC10FFF72CF984
:100F80003DB191482038406920438F49203948615C
:100F900006E08D4820384069A0438B4920394861DC
:100FA00070BD70B504460D468F48204008B904B1A5
:100FB00005E040F24A41AFF20820FFF70DF90DB10C
:100FC000012D00D105E040F24B41AFF21C20FFF7AC
:100FD00003F93DB17C482038806920437A492039A3
:100FE000886106E0784820388069A0437649203936
:100FF000886170BD70B504460D467C48204008B934
:1010000004B105E040F26941AFF25C20FFF7E4F87B
:101010000DB1012D00D105E040F26A41AFF2702020
:10102000FFF7DAF83DB168482038C06920436649C7
:101030002039C86106E064482038C069A04362498D
:101040002039C86170BD70B504460D466648204021
:1010500008B904B105E040F2A441AFF2AC20FFF7BB
:10106000BBF80DB1012D00D105E040F2A541AFF272
:10107000C020FFF7B1F83DB153482038C068204385
:1010800051492039C86006E04F482038C068A04365
:101090004D492039C86070BD70B504460D465348AF
:1010A000204008B904B105E040F2C341AFF200307E
:1010B000FFF792F80DB1012D00D105E040F2C441D7
:1010C000AFF21430FFF788F83DB13F48203800698F
:1010D00020433D492039086106E03B48203800693B
:1010E000A04339492039086170BD10B504460CB1E0
:1010F000012C00D105E04FF49B61AFF24C30FFF7BB
:101100006BF832484038046010BD10B504460CB18D
:10111000012C00D105E040F2E541AFF26C30FFF761
:101120005BF83348C46410BD10B504463CB1052CCF
:1011300005D0042C03D0062C01D0072C00D105E0EB
:1011400040F20551AFF29830FFF746F81E482038BC
:10115000C47110BD1C482038406A40F080701A49A4
:1011600020394862704770B504460025012C09D02B
:10117000022C07D0042C05D0082C03D0102C01D051
:10118000802C00D105E040F27E51AFF2DC30FFF759
:1011900023F80D4820388068204008B1012500E080
:1011A0000025284670BD10B5044604F0600008B95B
:1011B00004B105E040F2AB51AFF20C40FFF70CF880
:1011C00001482038847210BD201002408004424241
:1011D00000127A00001BB70000093D00808D5B0003
:1011E0002C0000203C0000200200C0FF00360181DE
:1011F0000000424210B50446FC48844211D0FC482D
:1012000084420ED0FB4884420BD0FB48844208D075
:10121000FA48844205D0FA48844202D0F948844210
:1012200000D103E06F21F8A0FEF7D6FFEF4884421B
:1012300008D101210420FFF706FF00210420FFF759
:1012400002FF46E0EA48844208D101210820FFF766
:10125000FAFE00210820FFF7F6FE3AE0E548844256
:1012600008D101211020FFF7EEFE00211020FFF72A
:10127000EAFE2EE0E048844208D101212020FFF759
:10128000E2FE00212020FFF7DEFE22E0DB48844260
:1012900008D101214020FFF7D6FE00214020FFF7B2
:1012A000D2FE16E0D648844208D101218020FFF703
:1012B000CAFE00218020FFF7C6FE0AE0D148844222
:1012C00007D101218015FFF7BEFE0021A015FFF711
:1012D000BAFE10BD10B501210846FFF7B4FE00218B
:1012E0000120FFF7B0FE10BD2DE9F05F05460C466A
:1012F0004FF00009CA4600260027B046B346BB4857
:10130000854211D0BA4885420ED0BA4885420BD0EA
:10131000B948854208D0B948854205D0B8488542C9
:1013200002D0B848854200D103E0B221B6A0FEF752
:1013300053FFE078A0B1E078042811D0E0782828A5
:101340000ED0E07848280BD0E078142808D0E07858
:10135000102805D0E0781C2802D0E078182800D1A9
:1013600003E0B321A8A0FEF737FF002010B92088C2
:1013700000B103E0B421A4A0FEF72EFFE07800F056
:101380000F09E07800F0100080B1A078012805D0A6
:10139000A078022802D0A078032800D103E0BB2166
:1013A00099A0FEF719FFA07840EA0909207838B320
:1013B000D5F8008000261FE0012000FA06F72088FB
:1013C00000EA070ABA4516D1B7000F2000FA07FB5A
:1013D00028EA0B0809FA07F040EA0808E07828280C
:1013E00003D10120B040686105E0E078482802D1CF
:1013F0000120B0402861761C082EDDD3C5F800809E
:101400002088FF282BDDD5F80480002623E006F194
:101410000800012101FA00F7208800EA070ABA450E
:1014200018D1B7000F2000FA07FB28EA0B0809FAC9
:1014300007F040EA0808E078282803D106F1080000
:1014400081406961E078482804D106F10800012153
:1014500081402961761C082ED9D3C5F80480BDE8E7
:10146000F09F4FF6FF710180022181700421C1704D
:10147000704770B505460C4600265C48854211D081
:101480005B4885420ED05B4885420BD05A48854266
:1014900008D05A48854205D05948854202D059485B
:1014A000854200D104E04FF48F7157A0FEF794FEFF
:1014B000012C25D0022C23D0042C21D0082C1FD0A5
:1014C000102C1DD0202C1BD0402C19D0802C17D0D4
:1014D000B4F5807F14D0B4F5007F11D0B4F5806FDF
:1014E0000ED0B4F5006F0BD0B4F5805F08D0B4F522
:1014F000005F05D0B4F5804F02D0B4F5004F00D1A5
:1015000004E040F21F1140A0FEF766FEA8682040EC
:1015100008B1012600E00026304670BD10B5044633
:101520003248844211D0324884420ED0314884423D
:101530000BD03148844208D03048844205D030482E
:10154000844202D02F48844200D104E04FF49A71C3
:101550002DA0FEF741FEA06880B210BD70B5054613
:101560000C4600262148854211D0214885420ED0E4
:10157000204885420BD02048854208D01F4885422C
:1015800005D01F48854202D01E48854200D104E0A4
:101590004FF4A2711CA0FEF71FFE012C25D0022CD7
:1015A00023D0042C21D0082C1FD0102C1DD0202C8F
:1015B0001BD0402C19D0802C17D0B4F5807F14D0CC
:1015C000B4F5007F11D0B4F5806F0ED0B4F5006F84
:1015D0000BD0B4F5805F08D0B4F5005F05D0B4F54A
:1015E000804F02D0B4F5004F2CD131E0000801400B
:1015F000000C01400010014000140140001801409F
:10160000001C0140002001404C69627261726965F2
:10161000735C53544D3332463130785F53746450A9
:1016200065726970685F4472697665725C73726333
:101630005C73746D3332663130785F6770696F2E1A
:101640006300000040F24511AFF24400FEF7C4FD14
:10165000E868204008B1012600E00026304670BD51
:1016600010B50446FE48844211D0FE4884420ED094
:10167000FD4884420BD0FD48844208D0FC48844297
:1016800005D0FC48844202D0FB48844200D105E0EA
:101690004FF4AD71AFF29000FEF79EFDE06880B2AE
:1016A00010BD70B504460D46ED48844211D0ED489A
:1016B00084420ED0EC4884420BD0EC48844208D0DF
:1016C000EB48844205D0EB48844202D0EA48844289
:1016D00000D105E040F26911AFF2D400FEF77CFDC5
:1016E000002008B905B105E04FF4B571AFF2E8008C
:1016F000FEF772FD256170BD70B504460D46D848F1
:10170000844211D0D74884420ED0D74884420BD0AF
:10171000D648844208D0D648844205D0D548844271
:1017200002D0D548844200D105E040F27911AFF2F1
:101730002810FEF751FD002008B905B105E04FF46F
:10174000BD71AFF23C10FEF747FD656170BD70B52D
:1017500005460C461646C248854211D0C14885420E
:101760000ED0C14885420BD0C048854208D0C04841
:10177000854205D0BF48854202D0BF48854200D18E
:1017800005E040F28D11AFF28010FEF725FD012C2F
:1017900025D0022C23D0042C21D0082C1FD0102CB3
:1017A0001DD0202C1BD0402C19D0802C17D0B4F584
:1017B000807F14D0B4F5007F11D0B4F5806F0ED0C7
:1017C000B4F5006F0BD0B4F5805F08D0B4F5005FBE
:1017D00005D0B4F5804F02D0B4F5004F00D105E03C
:1017E0004FF4C771AFF2E010FEF7F6FC0EB1012E18
:1017F00000D105E040F28F11AFF2F410FEF7ECFCDF
:101800000EB12C6100E06C6170BD70B504460D46F0
:101810009348844211D0934884420ED09248844227
:101820000BD09248844208D09148844205D0914818
:10183000844202D09048844200D105E04FF4D27136
:10184000AFF23C20FEF7C8FCE56070BD70B5044601
:101850000D464FF480368248844211D0814884423C
:101860000ED0814884420BD08048844208D0804802
:10187000844205D07F48844202D07F48844200D110
:1018800005E040F2B511AFF28020FEF7A5FC002084
:1018900008B905B105E04FF4DB71AFF29420FEF713
:1018A0009BFC2E43A661A561A661A669A66970BDD1
:1018B00070B505460C4600263DB1012D05D0022D20
:1018C00003D0032D01D0042D00D105E04FF4E971C0
:1018D000AFF2CC20FEF780FCECB1012C1BD0022C27
:1018E00019D0032C17D0042C15D0052C13D0062C9E
:1018F00011D0072C0FD0082C0DD0092C0BD00A2C9E
:1019000009D00B2C07D00C2C05D00D2C03D00E2C9D
:1019100001D00F2C00D105E040F2D311AFF2183006
:10192000FEF75AFC554806684FF68070064046EAB6
:10193000051626435148066070BD10B504460CB12B
:10194000012C00D105E04FF4F371AFF24430FEF703
:1019500043FC4B48C46110BD2DE9F04704460E46D8
:101960000027B8460025A946012C77D0022C75D057
:10197000042C73D0082C71D0424884426ED0414868
:10198000203084426AD04048844267D03E4880304C
:10199000844263D03D48844260D03D4884425DD05B
:1019A0003C4884425AD03C48844257D03B48844209
:1019B00054D0B4F5805F51D0B4F5EA1F4ED0B4F5E1
:1019C000EB1F4BD0B4F5004F48D03548844245D08A
:1019D000401C844242D0801C84427FD0001D84423F
:1019E0007CD02F480F30844278D0B4F1201F75D0BE
:1019F0004FEAF030844271D02A4884426ED02A489F
:101A000084426BD02948844268D02948844265D0FA
:101A10002848844262D0B4F5011F5FD02648844232
:101A20005CD0401C844259D0801C844256D0001D9A
:101A3000844253D020480F3084424FD01E481F307C
:101A400084424BD01C483F30844247D01A487F30F4
:101A5000844243D01848FF3084422FE03EE000002B
:101A600000080140000C014000100140001401403A
:101A700000180140001C014000200140000001400E
:101A80000000204210001400400016000001180061
:101A9000000218000003180000081A00000C1A00C9
:101AA000010020000001300000023000000430007E
:101AB0000011200000202000010000800ED06648A8
:101AC00084420BD06548844208D06548844205D0E2
:101AD0006448844202D06448844200D105E040F268
:101AE0002A21AFF2DC40FEF777FB0EB1012E00D1C8
:101AF00005E040F22B21AFF2F040FEF76DFB04F061
:101B00000040B0F1004F02D15848C56901E0574884
:101B10004568C4F30349A7B204F44010B0F5401F70
:101B200008D125F070655148406820F070604F4939
:101B3000486013E004F48010B0F5801F07D1032043
:101B400000FA09F825EA080545F0706506E0600D21
:101B5000000107FA00F0854345F0706526B1600D7D
:101B6000010107FA01F0054304F00040B0F1004F15
:101B700002D13E48C56101E03C484560BDE8F087C0
:101B800070B505460C4600265DB1012D09D0022D29
:101B900007D0032D05D0042D03D0052D01D0062D2F
:101BA00000D105E040F26521AFF2A450FEF714FB2E
:101BB000ECB1012C1BD0022C19D0032C17D0042C13
:101BC00015D0052C13D0062C11D0072C0FD0082CC3
:101BD0000DD0092C0BD00A2C09D00B2C07D00C2CC3
:101BE00005D00D2C03D00E2C01D00F2C00D105E018
:101BF00040F26621AFF2F050FEF7EEFAA007010FB7
:101C00000F2000FA01F619480830A11050F8210001
:101C1000B04316490831A21041F822000846A1102D
:101C200050F82100A107090F05FA01F108430F49F7
:101C30000831A21041F8220070BD10B504460CB165
:101C4000012C00D105E04FF41E71AFF24460FEF7A5
:101C5000C3FA0748046010BD000200800004008041
:101C6000000800800010008000200080000001407B
:101C7000DC00204210B50446FE4884420BD0FE48EA
:101C8000844208D0FD48844205D0FD48844202D0F9
:101C9000FC48844200D103E08521FBA0FEF79CFABA
:101CA000F448844209D101218803FFF7CCF90021CF
:101CB0004FF48040FFF7C7F932E0EF48844209D182
:101CC00001214804FFF7E8F900214FF40030FFF745
:101CD000E3F925E0E948844209D101218804FFF7AE
:101CE000DBF900214FF48020FFF7D6F918E0E44833
:101CF000844209D10121C804FFF7CEF900214FF435
:101D00000020FFF7C9F90BE0DE48844208D1012129
:101D10000805FFF7C1F900214FF48010FFF7BCF967
:101D200010BD2DE9F04786B005460C460026B246A8
:101D300000BFB1460027CF4885420BD0CE48854230
:101D400008D0CE48854205D0CD48854202D0CD4846
:101D5000854200D103E0B821CBA0FEF73DFA206810
:101D600020B1D8492068884200D203E0B921C6A03A
:101D7000FEF732FAA08818B1A088B0F5805F00D1D4
:101D800003E0BA21C0A0FEF727FAE08858B1E08846
:101D9000B0F5805F07D0E088B0F5005F03D0E08841
:101DA000B0F5405F00D103E0BB21B7A0FEF714FA05
:101DB000208938B12089B0F5806F03D02089B0F533
:101DC000C06F00D103E0BC21AFA0FEF705FA608927
:101DD0004FF6F371084010B9608900B103E0BD21EE
:101DE000A9A0FEF7F9F9A08958B1A089B0F5807FC4
:101DF00007D0A089B0F5007F03D0A089B0F5407F5F
:101E000000D103E0BE21A0A0FEF7E6F9A08968B1E9
:101E10009848854205D09848854202D09748854227
:101E200000D103E0C22198A0FEF7D6F92F462E8AF2
:101E30004CF6FF700640E08806432E82AE894EF6CF
:101E4000F3100640A08821890843618908430643AE
:101E5000AE81AE8A4FF6FF400640A0890643AE82AF
:101E600001A8FFF70BF88348874202D1DDF810A0E4
:101E700001E0DDF80CA0A88900F4004040B10AEBB5
:101E8000CA0000EB0A1021684900B0FBF1F807E036
:101E90000AEBCA0000EB0A1021688900B0FBF1F8D8
:101EA0006420B8FBF0F006013009642101FB1089C1
:101EB000A88900F4004040B1322000EBC900B0FB1B
:101EC000F1F000F00700064308E0322000EB0910B3
:101ED0006421B0FBF1F000F00F0006432E8106B044
:101EE000BDE8F0874FF41651016000218180C18068
:101EF00001810C21418100218181704770B5054627
:101F00000C4600265B48854205D05B48854202D0DE
:101F10005A48854200D104E04FF499715AA0FEF767
:101F20005BF9208818B12088B0F5006F00D104E07B
:101F300040F2331154A0FEF74FF9608818B1608861
:101F4000B0F5806F00D104E04FF49A714EA0FEF717
:101F500043F9A08818B1A088B0F5007F00D104E053
:101F600040F2351148A0FEF737F9E08818B1E08853
:101F7000B0F5807F00D104E04FF49B7142A0FEF7E2
:101F80002BF92E8A4FF2FF00064020886188084313
:101F9000A1880843E188084306432E8270BD0021D2
:101FA000018041808180C180704770B504460D4634
:101FB000304884420BD03048844208D02F488442B5
:101FC00005D02F48844202D02E48844200D104E03C
:101FD0004FF4B1712CA0FEF7FFF80DB1012D00D127
:101FE00004E040F2631128A0FEF7F6F825B1A089BD
:101FF00040F40050A08104E0A0894DF6FF71084034
:10200000A08170BD2DE9F04705460C4617464FF0FC
:102010000008C246C1460026164885420BD0164825
:10202000854208D01548854205D01548854202D022
:102030001448854200D104E040F2891112A0FEF755
:10204000CBF8282C44D040F22770844240D040F294
:10205000266084423CD040F22550844238D040F281
:102060002440844234D040F64600844230D040F6CA
:102070006A1029E000380140004400400048004058
:10208000004C0040005000404C696272617269650A
:10209000735C53544D3332463130785F537464501F
:1020A00065726970685F4472697665725C737263A9
:1020B0005C73746D3332663130785F75736172743E
:1020C0002E63000021AA4400844201D0602C00D17C
:1020D00005E04FF4C571AFF25000FEF77DF80FB187
:1020E000012F00D105E040F28B11AFF26400FEF742
:1020F00073F840F66A1084420FD1F948854205D042
:10210000F848854202D0F848854200D105E040F207
:102110008F11AFF28C00FEF75FF82E46C4F3421821
:1021200004F01F0A012000FA0AF9B8F1010F01D1E9
:102130000C3605E0B8F1020F01D1103600E014367C
:1021400027B1306840EA0900306003E0306820EAD7
:1021500009003060BDE8F08770B504460D461646AC
:10216000DF4884420BD0DF48844208D0DE488442F6
:1021700005D0DE48844202D0DD48844200D105E02B
:1021800040F2C311AFF20010FEF726F84FF63F7091
:10219000284008B905B105E04FF4E271AFF218101C
:1021A000FEF71AF80EB1012E00D105E040F2C5117C
:1021B000AFF22C10FEF710F81EB1A08A2843A082BF
:1021C00002E0A08AA843A08270BD70B504460D4607
:1021D000C34884420BD0C348844208D0C2488442DA
:1021E00005D0C248844202D0C148844200D105E0F3
:1021F00040F2DF11AFF27010FDF7EEFF0F2D00DCA3
:1022000005E04FF4F071AFF28010FDF7E5FF208A92
:102210004FF6F07108402082208A2843208270BD4A
:1022200070B504460D46AE4884420BD0AD4884429A
:1022300008D0AD48844205D0AC48844202D0AC48B6
:10224000844200D105E04FF4FB71AFF2C410FDF7FA
:10225000C3FF15B1B5F5006F00D105E040F2F711ED
:10226000AFF2DC10FDF7B8FFA0894FF2FF71084014
:10227000A081A0892843A08170BD70B504460D4699
:10228000974884420BD09748844208D096488442AD
:1022900005D09648844202D09548844200D105E09A
:1022A00040F20921AFF22020FDF796FF0DB1012D7C
:1022B00000D105E040F20A21AFF23420FDF78CFF97
:1022C00025B1A08940F00200A08104E0A0894FF66A
:1022D000FD710840A08170BD70B504460D46804870
:1022E00084420BD07F48844208D07F48844205D086
:1022F0007E48844202D07E48844200D105E040F20C
:102300002621AFF27C20FDF767FF0DB1202D00D113
:1023100005E040F22721AFF29020FDF75DFF208A13
:102320004FF6DF7108402082208A2843208270BD4A
:1023300070B504460D466A4884420BD06948844211
:1023400008D06948844205D06848844202D0684871
:10235000844200D105E040F23921AFF2D420FDF7EC
:102360003BFF0DB1012D00D105E040F23A21AFF263
:10237000E820FDF731FF25B1208A40F4804020821B
:1023800004E0208A4BF6FF710840208270BD70B5D2
:1023900004460D46524884420BD05248844208D02D
:1023A0005148844205D05148844202D0504884426A
:1023B00000D105E040F25321AFF23430FDF70CFFBD
:1023C000B5F5007F00DA05E04FF41571AFF2483043
:1023D000FDF702FFC5F30800A08070BD10B50446EC
:1023E0003F4884420BD03F48844208D03E48844254
:1023F00005D03E48844202D03D48844200D105E0E9
:102400004FF41971AFF28030FDF7E6FEA088C0F3FB
:10241000080010BD10B50446314884420BD0314845
:10242000844208D03048844205D03048844202D0EB
:102430002F48844200D105E04FF41D71AFF2B8304F
:10244000FDF7CAFEA08940F00100A08110BD70B563
:1024500004460D462248844205D02248844202D0D8
:102460002148844200D105E04FF42171AFF2E830F9
:10247000FDF7B2FE208BC0B22083208B40EA0520FE
:10248000208370BD70B504460D46154884420BD0BC
:102490001448844208D01448844205D0134884422A
:1024A00002D01348844200D105E04FF42671AFF208
:1024B0002840FDF791FE208B00F47F402083208B85
:1024C0002843208370BD70B504460D4604488442FD
:1024D00005D00448844202D0034884420AD10FE068
:1024E000003801400044004000480040004C0040DB
:1024F0000050004040F2AB21AFF27440FDF76CFE9B
:102500000DB1012D00D105E04FF42B71AFF28840E1
:10251000FDF762FE25B1A08A40F02000A08204E011
:10252000A08A4FF6DF710840A08270BD70B50446E6
:102530000D46F948844205D0F848844202D0F84854
:10254000844200D105E04FF43171AFF2C440FDF791
:1025500043FE0DB1012D00D105E040F2C521AFF2DF
:10256000D840FDF739FE25B1A08A40F01000A082C6
:1025700004E0A08A4FF6EF710840A08270BD70B5EC
:1025800004460D46E44884420BD0E448844208D017
:10259000E348844205D0E348844202D0E2488442C2
:1025A00000D105E040F2DE21AFF22450FDF714FE29
:1025B0000DB1012D00D105E040F2DF21AFF238501E
:1025C000FDF70AFE25B1A08A40F00800A08204E0D1
:1025D000A08A4FF6F7710840A08270BD70B504461E
:1025E0000D46CD4884420BD0CC48844208D0CC481C
:1025F000844205D0CB48844202D0CB48844200D1EB
:1026000005E040F2FD21AFF28050FDF7E5FD0DB190
:10261000012D00D105E040F2FE21AFF29450FDF70C
:10262000DBFD25B1A08940F40040A08103E0A08932
:10263000C0F30E00A08170BD70B504460D46B648CB
:1026400084420BD0B548844208D0B548844205D0B6
:10265000B448844202D0B448844200D105E04FF42B
:102660004671AFF2DC50FDF7B7FD0DB1012D00D181
:1026700005E040F21931AFF2F050FDF7ADFD25B1A4
:10268000A08A40F40060A08204E0A08A4FF2FF71AB
:102690000840A08270BD70B504460D469E48844235
:1026A0000BD09E48844208D09D48844205D09D4866
:1026B000844202D09C48844200D105E040F235318A
:1026C000AFF23C60FDF788FD042D00D005B905E0B0
:1026D00040F23631AFF25060FDF77EFDA08A4FF632
:1026E000FB710840A082A08A2843A08270BD70B50B
:1026F00004460D46884884420BD08848844208D05E
:102700008748844205D08748844202D08648844264
:1027100000D105E04FF45271AFF29460FDF75CFD1B
:102720000DB1012D00D105E040F24931AFF2A860B2
:10273000FDF752FD25B1A08A40F00200A08204E01E
:10274000A08A4FF6FD710840A08270BD70B50546A5
:102750000C460026704885420BD07048854208D050
:102760006F48854205D06F48854202D06E48854249
:1027700000D105E040F26E31AFF2F460FDF72CFDC0
:10278000012C13D0802C11D0402C0FD0202C0DD038
:10279000102C0BD0B4F5807F08D0B4F5007F05D0A5
:1027A000082C03D0042C01D0022C00D105E040F20B
:1027B0006F31AFF22C70FDF70FFDB4F5007F0FD134
:1027C0005548854205D05548854202D05448854237
:1027D00000D105E040F27331AFF25470FDF7FCFC1C
:1027E0002888204008B1012600E00026304670BD50
:1027F00070B504460D46484884420BD04748844291
:1028000008D04748844205D04648844202D0464812
:10281000844200D105E040F29E31AFF29470FDF7A2
:10282000DBFC4FF69F40284008B905B105E040F2B7
:102830009F31AFF2AC70FDF7CFFC05F40070B0F53E
:10284000007F0FD13448844205D03448844202D0FE
:102850003348844200D105E040F2A331AFF2D87092
:10286000FDF7BAFCE843208070BD2DE9F04705462E
:102870000C4600270026B046B146274885420BD0BB
:102880002648854208D02648854205D025488542FD
:1028900002D02548854200D105E040F2C131AFF6B3
:1028A0001800FDF799FC282C20D040F227708442B4
:1028B0001CD040F22660844218D040F22550844259
:1028C00014D040F22440844210D040F646008442A6
:1028D0000CD040F66A10844208D0B4F5587F05D079
:1028E000B4F5187F02D0B4F5B07F00D105E040F216
:1028F000C231AFF66C00FDF76FFC40F66A108442FF
:102900001AD10548854205D00448854202D00448C2
:1029100085420BD110E00000003801400044004027
:1029200000480040004C00400050004040F2C631DA
:10293000AFF6AC00FDF750FCC4F3421804F01F06DC
:10294000012000FA06F6B8F1010F02D1A88906406D
:1029500007E0B8F1020F02D1288A064001E0A88AF8
:1029600006402712012000FA07F7288807401EB109
:1029700017B14FF0010901E04FF000094846BDE8EA
:10298000F0872DE9F04104460D4600260027244833
:1029900084420BD02348844208D02348844205D087
:1029A0002248844202D02248844200D105E040F20D
:1029B0000A41AFF62C10FDF70FFC40F2266085426D
:1029C0000BD040F22550854207D040F646008542A4
:1029D00003D040F66A10854200D105E040F20B4179
:1029E000AFF65C10FDF7F8FB40F66A1085420FD198
:1029F0000B48844205D00B48844202D00A488442E6
:102A000000D105E040F20F41AFF68410FDF7E4FB82
:102A10002E120120B04087B2F8432080BDE8F0813B
:102A2000003801400044004000480040004C004095
:102A30000050004010B50446F74884422AD0F648BA
:102A40001430844226D0F4482830844222D0F24800
:102A50003C3084421ED0F048503084421AD0EE48B8
:102A60006430844216D0EC487830844212D0EB486F
:102A700084420FD0E948143084420BD0E748283014
:102A8000844207D0E5483C30844203D0E3485030CC
:102A9000844200D103E06F21E1A0FDF79DFB206897
:102AA0004FF6FE7108402060002020606060A0604A
:102AB000E060D948844208D1D7480838406840F0DF
:102AC0000F00D549083948608AE0D3481430844261
:102AD00008D1D1480838406840F0F000CE490839A4
:102AE00048607DE0CC482830844208D1CA48083884
:102AF000406840F47060C8490839486070E0C648D2
:102B00003C30844208D1C4480838406840F47040E2
:102B1000C1490839486063E0BF485030844208D159
:102B2000BD480838406840F47020BB490839486007
:102B300056E0B9486430844208D1B7480838406844
:102B400040F47000B4490839486049E0B248783030
:102B5000844208D1B0480838406840F07060AE49FF
:102B6000083948603CE0AD48844206D1001F006847
:102B700040F00F00211F086032E0A8481430844262
:102B800008D1A648001F006840F0F000A349091FC3
:102B9000086025E0A1482830844208D19F48001FE2
:102BA000006840F470609D49091F086018E09B4868
:102BB0003C30844208D19948001F006840F47040BE
:102BC0009649091F08600BE094485030844207D1B1
:102BD0009248001F006840F470209049091F086067
:102BE00010BD70B505460C4600268B4885422AD09C
:102BF00089481430854226D087482830854222D023
:102C000085483C3085421ED08348503085421AD0DA
:102C100081486430854216D07F487830854212D092
:102C20007E4885420FD07D48143085420BD07B48CA
:102C30002830854207D079483C30854203D0774818
:102C40005030854200D103E0CF2175A0FDF7C4FAD2
:102C5000A068102801D0A06800B903E0D02170A0BE
:102C6000FDF7BAFAE06820B1E068B0F5803F00D225
:102C700003E0D1216AA0FDF7AFFA2069402801D016
:102C8000206900B903E0D22165A0FDF7A5FA6069CB
:102C9000802801D0606900B903E0D32160A0FDF76E
:102CA0009BFAA06938B1A069B0F5807F03D0A06914
:102CB000B0F5007F00D103E0D42159A0FDF78CFAD4
:102CC000E06938B1E069B0F5806F03D0E069B0F534
:102CD000006F00D103E0D52151A0FDF77DFA206AF5
:102CE000202801D0206A00B903E0D6214CA0FDF7CE
:102CF00073FA606AB0F5405F09D0606AB0F5005FB2
:102D000005D0606AB0F5805F01D0606A00B903E069
:102D1000D72143A0FDF760FAA06AB0F5804F01D03B
:102D2000A06A00B903E0D8213DA0FDF755FA2E684E
:102D300047F6F0708643216AA0680843216908437A
:102D400061690843A1690843E1690843616A08436E
:102D5000A16A084306432E60E06868602068A860A6
:102D60006068E86070BD0021016041608160C16001
:102D7000016141618161C1610162416281627047AB
:102D800070B504460D46244884422AD022481430A7
:102D9000844226D020482830844222D01E483C302D
:102DA00084421ED01C48503084421AD01A486430E5
:102DB000844216D018487830844212D01748844292
:102DC0000FD01648143084420BD014482830844267
:102DD00007D012483C30844203D01048503084421F
:102DE00000D104E040F229110DA0FDF7F5F90DB175
:102DF000012D00D104E04FF4957109A0FDF7ECF925
:102E000025B1206840F00100206004E020684FF602
:102E1000FE710840206070BD0800024008040240B6
:102E20004C69627261726965735C53544D3332460A
:102E30003130785F5374645065726970685F4472B2
:102E4000697665725C7372635C73746D333266317C
:102E500030785F646D612E630000000070B5044639
:102E60000D461646FE4884422AD0FD48143084425E
:102E700026D0FB482830844222D0F9483C30844296
:102E80001ED0F748503084421AD0F548643084424E
:102E900016D0F3487830844212D0F24884420FD0E2
:102EA000F048143084420BD0EE482830844207D0DA
:102EB000EC483C30844203D0EA485030844200D190
:102EC00005E040F24911AFF2A800FDF785F925F0C1
:102ED0000E0008B905B105E04FF4A571AFF2C000CE
:102EE000FDF77AF90EB1012E00D105E040F24B1149
:102EF000AFF2D400FDF770F91EB1206828432060BE
:102F000002E02068A843206070BD70B504460D46FD
:102F1000D34884422AD0D2481430844226D0D048A4
:102F20002830844222D0CE483C3084421ED0CC4847
:102F3000503084421AD0CA486430844216D0C848FF
:102F40007830844212D0C74884420FD0C54814302C
:102F500084420BD0C3482830844207D0C1483C305B
:102F6000844203D0BF485030844200D105E04FF482
:102F7000B271AFF25410FDF72FF9656070BD10B556
:102F80000446B74884422AD0B5481430844226D03B
:102F9000B3482830844222D0B1483C3084421ED00D
:102FA000AF48503084421AD0AD486430844216D0C5
:102FB000AB487830844212D0AA4884420FD0A94846
:102FC000143084420BD0A7482830844207D0A5484B
:102FD0003C30844203D0A3485030844200D105E005
:102FE0004FF4BB71AFF2C810FDF7F6F8606880B21D
:102FF00010BD70B5044600250026012C7ED0022CA1
:103000007CD0042C7AD0082C78D0102C76D0202CB0
:1030100074D0402C72D0802C7FD0B4F5807F7CD0CF
:10302000B4F5007F79D0B4F5806F76D0B4F5006F39
:1030300073D0B4F5805F70D0B4F5005F6DD0B4F597
:10304000804F6AD0B4F5004F67D0B4F5803F64D0AC
:10305000B4F5003F61D0B4F5802F5ED0B4F5002FF9
:103060005BD0B4F5801F58D0B4F5001F55D0B4F52F
:10307000800F52D0B4F5000F4FD0B4F1807F4CD008
:10308000B4F1007F49D0B4F1806F46D0B4F1006F45
:1030900043D07548844240D0401C84423DD0801CBF
:1030A00084423AD0001D844237D06F480F308442AA
:1030B00033D06D481F3084422FD06B483F3084425C
:1030C0002BD069487F30844227D06748FF30844244
:1030D00023D06648844220D0654884421DD065488C
:1030E00084421AD0B4F1102F17D04FEAF030844246
:1030F00013D06148844210D0604800E00DE0844263
:103100000BD05F48844208D05E48844205D05E48B8
:10311000844202D05D48844200D105E040F2B711FC
:10312000AFF20430FDF758F804F0805018B14D4864
:103130000838066802E04A480838066806EA0400CB
:1031400008B1012500E00025284670BD10B50446F1
:1031500004F0704010B14E48204008B904B105E0B9
:1031600040F20E21AFF24830FDF736F804F08050FF
:1031700018B13C48001F046002E039480838446038
:1031800010BD70B5044600250026012C66D0022C27
:1031900064D0042C62D0082C60D0102C5ED0202C7F
:1031A0005CD0402C5AD0802C58D0B4F5807F55D0BC
:1031B000B4F5007F52D0B4F5806F4FD0B4F5006FF6
:1031C0004CD0B4F5805F49D0B4F5005F46D0B4F57B
:1031D000804F43D0B4F5004F40D0B4F5803F7FD04E
:1031E000B4F5003F7CD0B4F5802F79D0B4F5002F32
:1031F00076D0B4F5801F73D0B4F5001F70D0B4F54D
:10320000800F6DD0B4F5000F6AD0B4F1807F67D025
:10321000B4F1007F64D0B4F1806F61D0B4F1006F7D
:103220005ED0114884425BD0401C844258D0801C40
:10323000844255D0001D844252D00B480F30844246
:103240004ED009481F3084424AD007483F3084425C
:1032500046D005487F30844242D01BE040E0000069
:1032600008000240080402400100001000020010A3
:103270000004001000080010004000100080001042
:1032800000000110000002100000041000000810EF
:103290000000F0EF2B48FF30844221D02A488442BE
:1032A0001ED02A4884421BD02948844218D0B4F149
:1032B000102F15D04FEAF030844211D025488442B7
:1032C0000ED0254884420BD02448844208D024489C
:1032D000844205D02348844202D02348844200D14E
:1032E00005E040F25921AFF2C840FCF775FF04F049
:1032F000805010B11D48066801E01D48066806EAC6
:10330000040008B1012500E00025284670BD10B575
:10331000044604F0704010B11648204008B904B1CA
:1033200005E040F2AF21AFF20850FCF755FF04F082
:10333000805018B10D48001D046001E00C48446045
:1033400010BD000001000010000200100004001079
:103350000008001000400010008000100000011064
:1033600000000210000004100000081000040240D9
:10337000000002400000F0EF10B50446B4F5E06F25
:103380000BD0B4F5C06F08D0B4F5A06F05D0B4F57C
:10339000806F02D0B4F5407F00D103E063215DA0CF
:1033A000FCF71AFF674820436749086010BD2DE904
:1033B000F0410446002500270F26E07810B1E078A0
:1033C000012800D103E0752152A0FCF705FF6078C9
:1033D000102800DA03E076214EA0FCF7FDFEA0786D
:1033E000102800DA03E077214AA0FCF7F5FEE07828
:1033F00000B35548006800F4E060C0F5E060050ADD
:10340000C5F10407EE40607800FA07F5A078304077
:1034100005432D014D4822788554207800F01F0186
:103420000120884021784911890001F1E021C1F88B
:10343000000109E0207800F01F0101208840444984
:103440002278521141F82200BDE8F08170B504469F
:103450000D46B4F1005F02D0B4F1006F00D103E07B
:103460009F212CA0FCF7B8FE3A48854200D203E029
:10347000A02128A0FCF7B0FE374905EA010020434F
:103480003149091F086070BD70B504460D46102C07
:1034900003D0042C01D0022C00D103E0B2211DA0E6
:1034A000FCF79AFE0DB1012D00D103E0B32119A064
:1034B000FCF792FE3DB12448001D006820432249DC
:1034C000091D086006E02048001D0068A0431E4951
:1034D000091D086070BD10B50446042C01D0601DA4
:1034E00000B903E0CA210BA0FCF776FE042C08D13A
:1034F0004FF0E020006940F004004FF0E021086147
:1035000007E04FF0E020006920F004004FF0E021D8
:10351000086110BD4C69627261726965735C5354D5
:103520004D3332463130785F537464506572697040
:10353000685F4472697665725C7372635C6D69730F
:10354000632E63000000FA050CED00E000E400E0EB
:1035500080E100E0FFFF0F0080FFFF1F064880476B
:1035600006480047FEE7FEE7FEE7FEE7FEE7FEE768
:10357000FEE7FEE7FEE7FEE79F08000831010008CE
:10358000704717480068704770B5044604F058FA51
:10359000054613480460284604F056FA70BD10B57D
:1035A0000F480068401C0E49086003F003FB044606
:1035B000A06C401EA064A06C18B9606CA06403F0FD
:1035C000C9FB03F0BAFE10BD0146642201FB02F004
:1035D00000F2E7304FF47A72B0FBF2F0704700006F
:1035E000400000202DE9F041064603F0E3FA08B15F
:1035F00003F091F9A34D6C6810E0A4F10C070822C8
:103600003146384601F0A3FE38B903F0D3FA08B1C9
:1036100003F08FF93846BDE8F0812468281D844204
:10362000EBD103F0C7FA08B103F083F90020F2E709
:1036300070B504460D46164614B94FF0FF3070BD04
:103640002846FFF7CFFF10B14FF0FF30F7E72A46CB
:103650000721204602F01DFFE6820020A07620838D
:1036600000BFECE710B5044624B94822864987A07C
:1036700002F021FA204602F032FF002010BD0020A7
:10368000704770B50446002524B9952283497FA070
:1036900002F011FA606A90B1A07D00F0100070B9DC
:1036A0002046616A884705462DB12A4621467CA0FE
:1036B00002F0FBF803E0E08A40F01000E0822846C8
:1036C00070BD70B504460E46002524B9B822824963
:1036D0006EA002F0F0F9A07D00F0100088B9606AD9
:1036E00058B12046616A8847054635B12A462146C9
:1036F0006BA002F0DAF8284670BDE08A40F01000B6
:10370000E082A07D00F0080030B1207E00F00800CB
:1037100010B16FF00600EFE7A06A20B131462046F5
:10372000A26A904705460DB1A81D60B946F0080091
:103730002083A07E401CA076A07E20B9E1226649AD
:1037400066A002F0B8F92846D6E770B50446002511
:1037500024B9F32266494DA002F0ADF9A07E10B95C
:103760004FF0FF3070BDA07E401EA076A07E08B155
:103770000020F7E7E06A18B12046E16A884705466D
:103780000DB1A81D08B9002020832846EAE72DE9DD
:10379000F04104460D4616461F462CB94FF48E7272
:1037A00054493AA002F087F9A07E30B94FF0FF30BB
:1037B00001F0BEFC0020BDE8F081206B38B13B4633
:1037C000324629462046D4F830C0E047F3E76FF090
:1037D000050001F0ADFC0020EDE72DE9F0410446C5
:1037E0000D4616461F462CB94FF4A172424927A038
:1037F00002F061F9A07E30B94FF0FF3001F098FC83
:103800000020BDE8F081606B38B13B463246294666
:103810002046D4F834C0E047F3E76FF0050001F02C
:1038200087FC0020EDE770B504460D4616462CB91E
:103830004FF4B172314915A002F03DF9A06B28B1E7
:10384000324629462046A36B984770BD0020FCE70E
:1038500070B504460D462CB940F27B1228490BA0E6
:1038600002F029F9E561002070BD70B504460D46EF
:103870002CB94FF4C872234904A002F01CF9256248
:10388000002070BDF0000020040C01086465762063
:10389000213D2052545F4E554C4C0000190C01083C
:1038A000546F20696E697469616C697A652064651A
:1038B000766963653A2573206661696C65642E20BC
:1038C000546865206572726F7220636F6465206949
:1038D000732025640A000000280C01086465762D19
:1038E0003E7265665F636F756E7420213D20300007
:1038F000370C0108470C0108560C0108660C01083A
:10390000780C0108920C01083B490860704770B5BB
:1039100044E000BF04F094F8064601F0EFFB40B12C
:10392000364937A001F0C1FF652234493DA002F0BD
:10393000C2F8304604F088F800BF04F081F805466C
:1039400000F051F8E0B138480068A0F1140404F127
:103950001400D0E900215160D0E9001211604060EC
:10396000006000BFA06F10B12046A16F88472046BD
:1039700002F03DFE012807D1284604F065F870BD2D
:10398000284604F061F8FAE7284604F05DF8A06ADA
:1039900002F0E0FA204602F000FE00BF00F023F83B
:1039A0000028B6D100BFEAE707E01348006810B16D
:1039B000114800688047FFF7AAFFF6E71FB52020EF
:1039C0001F21C200194BCDE90032CDE902100023BE
:1039D000174A18A1194803F0C8F8184803F01DF950
:1039E0001FBD1648704710490868884201D0012061
:1039F00070470020FCE7000044000020AC0C0108E8
:103A000046756E6374696F6E5B25735D20736861C4
:103A10006C6C206E6F74207573656420696E20492C
:103A200053520A00300000003401002058050020E5
:103A3000A93900087469646C65000000D80400208E
:103A40004268116042684A604160086070472DE931
:103A5000F04105460C469046204603F0A7F9B8F120
:103A6000000F03D0B8F1010F23D105E004F11401D8
:103A70002846FFF7E5FF1CE02E680FE0A6F11407CB
:103A800094F8350097F83510884206DA04F11401ED
:103A900007F11400FFF7D4FF02E03668AE42EDD123
:103AA00000BFAE4204D104F114012846FFF7C8FF5D
:103AB00000BF00BF0020BDE8F08170B505460EE0F4
:103AC00003F0BEFF06462868A0F114044FF0FF3053
:103AD0002063204603F071F8304603F0B5FF284616
:103AE00001F0B0FA0028EBD0002070BD2DE9F041C4
:103AF00004460D4616461F4624B9D822FD49FEA0AD
:103B000001F0D9FF2A460121204602F0C2FC2046DE
:103B100001F0A0FAA68367720020BDE8F08110B51D
:103B2000044624B9F522F849F3A001F0C4FF04F1DA
:103B30001400FFF7C2FF204602F0D1FC002010BDA8
:103B40002DE9F04105460E46174600BF03F078FF09
:103B5000804601F0D3FA48B1EC49EDA001F0A5FE92
:103B600040F21112E949F3A001F0A5FF404603F02D
:103B70006BFF00BF2946012002F0CDFC044614B9BA
:103B80002046BDE8F081204601F064FAA683677202
:103B90002046F6E770B5044600BF03F051FF054626
:103BA00001F0ACFA48B1E449D9A001F07EFE4FF42F
:103BB0009872E149DFA001F07EFF284603F044FF40
:103BC00000BF2CB94FF49972DB49CBA001F073FF11
:103BD00004F11400FFF771FF204602F0DEFC002024
:103BE00070BD2DE9F34105462DB940F24D12D34980
:103BF000C1A001F060FF00BFD148006818B128469D
:103C0000CF490968884700BF03F01AFF064600BF86
:103C100000BFA88B002806DDA88B401EA883304675
:103C200003F012FF57E0019830B9304603F00CFF63
:103C30006FF00100BDE8FC8100BF03F001FF074603
:103C400002F0B8FF48B9BD49BEA001F02EFE40F217
:103C50006D12BA49B7A001F02EFF00BF03F0F0FECD
:103C6000804601F04BFA48B1B449A9A001F01DFE0D
:103C700040F26D12B149AFA001F01DFF404603F0C4
:103C8000E3FE00BF384603F0DFFE00BF02F092FF04
:103C900004460020206300BF00BF6A7A214605F178
:103CA0001400FFF7D4FE019800280BDD00BF00BF11
:103CB00001AA002104F14C0003F019FB04F14C00AF
:103CC00003F05BFA304603F0BFFE02F089FD206B83
:103CD00008B1206BAEE700BFA848006818B12846BD
:103CE000A6490968884700BF0020A3E710B504462D
:103CF00000212046FFF775FF10BD70B5044600BFD8
:103D00009F48006818B120469D490968884700BF50
:103D1000002503F095FE064600BF00BF04F1140025
:103D200001F090F928B904F1140001F09BF9012584
:103D300002E0A08B401CA083304603F085FE012DDD
:103D400001D102F04DFD002070BD2DE9F041044687
:103D50000E4615462CB94FF4F2728A4966A001F05E
:103D6000AAFE012E10D12F4603F06AFE804604F110
:103D70001400FFF7A2FEA783404603F065FE02F0A1
:103D80002FFD0020BDE8F0814FF0FF30FAE770B55D
:103D900004460D4616462CB940F20F227A497BA004
:103DA00001F089FE2A460221204602F072FB2046DD
:103DB00001F050F90120A08300202062FF20A077AD
:103DC0000020E077667270BD10B504462CB940F251
:103DD0002E2273496DA001F06EFE04F11400FFF76E
:103DE0006CFE204602F07BFB002010BD2DE9F04167
:103DF00005460E4600BF03F023FE074601F07EF99C
:103E000048B1684942A001F050FD40F2492265499D
:103E100048A001F050FE384603F016FE00BF2946C8
:103E2000022002F078FB044614B92046BDE8F08178
:103E3000204601F00FF90120A08300202062FF201E
:103E4000A0770020E07766722046EFE770B5044661
:103E500000BF03F0F5FD054601F050F948B15249A5
:103E60002BA001F022FD40F26A224F4931A001F05F
:103E700022FE284603F0E8FD00BF2CB94FF41B7268
:103E8000494942A001F017FE04F11400FFF715FEA6
:103E9000204602F082FB002070BD2DE9F34104466C
:103EA00000BF03F0CDFD074602F084FE48B93F494C
:103EB00024A001F0FAFC4FF422723C491DA001F04D
:103EC000FAFD00BF03F0BCFD804601F017F948B1D0
:103ED00036490FA001F0E9FC4FF42272334915A0D6
:103EE00001F0E9FD404603F0AFFD00BF384603F0A6
:103EF000ABFD5DE0C20C010873656D20213D2052D1
:103F0000545F4E554C4C0000CE0C0108DC0C0108EF
:103F100046756E6374696F6E5B25735D20736861AF
:103F20006C6C206E6F74207573656420696E204917
:103F300053520A0030000000EA0C0108F80C010896
:103F40001801002046756E6374696F6E5B25735DA2
:103F5000207368616C6C206E6F74206265207573CD
:103F60006564206265666F72652073636865647559
:103F70006C65722073746172740A00001C01002069
:103F800020010020040D0108130D01086D757465F2
:103F90007820213D2052545F4E554C4C00000000CB
:103FA000210D0108310D0108410D0108510D0108D5
:103FB00000BF34B940F28A22FE49AFF2300001F06E
:103FC0007AFD03F03DFD064602F0F4FD054600BF14
:103FD000F948006818B12046F7490968884700BFCA
:103FE00000BF00BF00202863206AA84203D1E07F01
:103FF000401CE07749E0A08B00280ADDA08B401E22
:10400000A083256295F83500A077E07F401CE0771B
:104010003BE0019848B96FF001002863304603F097
:1040200013FD6FF00100BDE8FC8100BF00BF95F8F3
:104030003500216A91F83510884205DA05F135021C
:104040000221206A02F075FF627A294604F1140009
:10405000FFF7FDFC019800280BDD00BF00BF01AA9F
:10406000002105F14C0003F042F905F14C0003F08A
:1040700084F8304603F0E8FC02F0B2FB286B08B18C
:10408000286BD0E703F0DCFC0646304603F0DCFC8E
:1040900000BFCA48006818B12046C8490968884767
:1040A00000BF0020BFE72DE9F0470446002600BF0F
:1040B00003F0C6FC804602F07DFD58B9C049AFF25E
:1040C0007C1001F0F2FB40F20D32BD49AFF29C10C2
:1040D00001F0F1FC00BF03F0B3FC814601F00EF8E3
:1040E00058B1B749AFF2D81001F0DFFB40F20D3202
:1040F000B349AFF2C01001F0DEFC484603F0A4FC67
:1041000000BF404603F0A0FC00BF02F053FD05468F
:1041100003F096FC074600BF00BF00BFA948006837
:1041200018B12046A7490968884700BF206AA842FD
:1041300009D04FF0FF302863384603F085FC4FF07C
:10414000FF30BDE8F087E07F401EE077E07F08BBEE
:10415000A07F216A91F83510884205D004F11E0233
:104160000221206A02F0E5FE04F1140000F06AFF6B
:1041700088B96069A0F1140500BF00BF256295F8F9
:104180003500A077E07F401CE07704F1140000F0D8
:1041900069FF012606E0A08B401CA083002020625E
:1041A000FF20A077384603F04FFC012E01D102F02A
:1041B00017FB0020C5E703464FF0FF30704770B58E
:1041C00004460D4616462CB940F27B327E497FA04C
:1041D00001F071FC2A460321204602F05AF966726A
:1041E000204600F037FF0020E06170BD10B50446A6
:1041F0002CB940F297327A4974A001F05CFC04F1CA
:104200001400FFF75AFC204602F069F9002010BDA7
:104210002DE9F04105460E4600BF03F011FC0746AC
:1042200000F06CFF58B16F49AFF21C3001F03DFB5C
:104230004FF46C726B49AFF2043001F03CFC38462D
:1042400003F002FC00BF2946032002F064F9044693
:1042500014B92046BDE8F0816672204600F0FAFEEF
:104260000020E0612046F5E770B504462CB940F225
:10427000CE325D4955A001F01EFC00BF03F0E0FB0B
:10428000054600F03BFF58B15749AFF27C3001F0D2
:104290000CFB4FF474725449AFF2683001F00BFC20
:1042A000284603F0D1FB00BF04F11400FFF705FC22
:1042B000204602F072F9002070BD2DE9F047044657
:1042C0000F462CB940F2EF32484940A001F0F3FB11
:1042D0001FB94FF0FF30BDE8F0874FF0000800BF76
:1042E0003848006818B1204636490968884700BF39
:1042F00003F0A6FB8246E0693843E06104F1140054
:1043000000F0A0FEC0BB666932E0A6F114054FF0D4
:10431000FF3995F8400000F0010040B1E86BE16919
:104320000840E96B884211D14FF000090EE095F882
:10433000400000F0020048B1E86BE169084028B194
:10434000E86BE1690840E8634FF000093668B9F1AD
:10435000000F0DD195F8400000F0040018B1E0699D
:10436000E96B8843E061284602F027FC4FF0010822
:1043700004F114008642C8D1504603F065FBB8F141
:10438000010F01D102F02CFA0020A4E72DE9FF4F24
:1043900081B005460E461746DDF8388000BF03F0B1
:1043A0004FFB009002F006FC18B91149AFF26C40C7
:1043B00020E028E0510D0108180100201C01002018
:1043C0005F0D010820010020700D01086576656E03
:1043D0007420213D2052545F4E554C4C000000008B
:1043E0007E0D01088E0D01089E0D0108AE0D01081D
:1043F000BC0D010801F059FA40F24F42FC49AFF2FE
:10440000CC4001F058FB00BF03F01AFB834600F0DC
:1044100075FE58B1F649AFF2085001F046FA40F285
:104420004F42F349AFF2F44001F045FB584603F028
:104430000BFB00BF009803F007FB00BF35B940F24B
:104440005242EB49AFF27C0001F035FB26B94FF048
:10445000FF3005B0BDE8F08F4FF0FF3902F0AAFB46
:1044600004460021216300BFE248006818B12846D5
:10447000E0490968884700BF03F0E2FA824607F086
:10448000010030B1E8693040B04212D14FF000096C
:104490000FE007F0020028B1E869304048B14FF062
:1044A000000906E04FF48E62D149AFF2785001F076
:1044B00002FBB9F1000F0DD1B8F1000F03D0E8698C
:1044C0003040C8F8000007F0040088B3E869B04342
:1044D000E8612DE0049818B96FF00100206327E02F
:1044E000E66384F840706A7A214605F11400FFF70C
:1044F000AEFA0498002809DD04AA002104F14C005A
:1045000002F0F5FE04F14C0002F037FE504603F0D5
:104510009BFA02F065F9206B08B1206B99E703F074
:104520008FFA8246B8F1000F02D0E06BC8F80000A5
:10453000504603F089FA00BFAF48006818B128461A
:10454000AD490968884700BF206B82E72DE9F0413B
:1045500004460D46174634B94FF49862A749AFF2A6
:10456000941001F0A8FA012D10D103F069FA064663
:1045700004F11400FFF7A1FA0020E061304603F0D7
:1045800063FA02F02DF90020BDE8F0814FF0FF3012
:10459000FAE72DE9F04104460D4616461F46DDF8C0
:1045A00018802CB940F2ED42954996A001F083FAAB
:1045B0002A460421204601F06CFF84F80980204639
:1045C00000F048FDE661278400206084A084E08438
:1045D00004F1280000F033FD0020BDE8F08110B5A3
:1045E00004462CB94FF4A2628A4986A001F063FA0E
:1045F00004F11400FFF761FA04F12800FFF75DFAF7
:10460000204601F06CFF002010BD2DE9F041054669
:104610000E46174600BF03F013FA804600F06EFD09
:1046200058B17D49AFF2187001F03FF940F22C52B9
:104630007949AFF2007001F03EFA404603F004FA07
:1046400000BF2946042001F066FF044614B9204645
:10465000BDE8F0816772204600F0FCFC2684218CC6
:10466000880001F073FBE061E06920B9204601F0A9
:1046700094FF0020ECE700206084A084E08404F133
:10468000280000F0DCFC2046E2E770B5044600BFDD
:1046900003F0D6F9054600F031FD58B15F49AFF29D
:1046A000907001F002F940F257525C49AFF27C7011
:1046B00001F001FA284603F0C7F900BF2CB940F217
:1046C0005A5256494FA001F0F6F904F11400FFF7D1
:1046D000F4F904F12800FFF7F0F9E06901F03AFC81
:1046E000204601F05AFF002070BD2DE9F74F044627
:1046F0000F462CB940F28752494942A001F0DBF93C
:10470000002602F057FA054600BF4648006818B177
:10471000204644490968884700BF03F091F9804664
:10472000608C218C884208D1029830B9404603F051
:104730008BF96FF00200BDE8FE8F86E00020286351
:10474000029828B9404603F07FF96FF00200F2E7C3
:1047500000BF03F075F9814602F02CFA58B93049D0
:10476000AFF6200001F0A1F840F2AA522C49AFF6B2
:104770003C0001F0A0F900BF03F062F9824600F0AE
:10478000BDFC58B12649AFF6780001F08EF840F232
:10479000AA522349AFF6640001F08DF9504603F0A8
:1047A00053F900BF484603F04FF900BF627A29462B
:1047B00004F12800FFF74BF9029800280EDDFEF700
:1047C000E0FE064600BF00BF02AA002105F14C0032
:1047D00002F08DFD05F14C0002F0CFFC404603F0E5
:1047E00033F901F0FDFF286BF0B1286BA3E700005F
:1047F000BC0D0108180100201C010020CA0D010891
:10480000DB0D01086D6220213D2052545F4E554C56
:104810004C000000E60D0108F30D0108000E010830
:104820000D0E01082001002003F00AF980460298CD
:1048300000280ADDFEF7A5FE861B0298801B029069
:104840000298002801DA00200290608C218C8842B6
:104850003FF474AFA18CE06940F82170A08C401C3B
:10486000A084A08C218C884201DB0020A084608C75
:10487000401C608404F1140000F0E4FB50B904F122
:10488000140000F0EFFB404603F0DEF801F0A8FF53
:10489000002050E7404603F0D7F800204BE770B502
:1048A00004460D46002229462046FFF71EFF70BD34
:1048B0002DE9F74F04460F4634B94FF4C362FA4965
:1048C000AFF2C00001F0F7F8002602F073F90546D8
:1048D00000BFF648006818B12046F44909688847C7
:1048E00000BF03F0ADF88046608C40B9029830B943
:1048F000404603F0A9F86FF00100BDE8FE8F6AE0C2
:1049000000202863029830B9404603F09DF86FF00C
:1049100001002863F1E700BF03F092F8814602F03E
:1049200049F958B9E049AFF6E41000F0BEFF40F293
:104930003D62DD49AFF6042001F0BDF800BF03F091
:104940007FF8824600F0DAFB58B1D749AFF6402035
:1049500000F0ABFF40F23D62D349AFF6282001F0F2
:10496000AAF8504603F070F800BF484603F06CF810
:1049700000BF627A294604F11400FFF768F8029834
:1049800000280EDDFEF7FDFD064600BF00BF02AAAF
:10499000002105F14C0002F0AAFC05F14C0002F0E8
:1049A000ECFB404603F050F801F01AFF286B08B109
:1049B000286BA2E703F044F88046029800280ADD3D
:1049C000FEF7DFFD861B0298801B029002980028EC
:1049D00001DA00200290608C002891D0E18CE0691F
:1049E00050F821003860E08C401CE084E08C218C81
:1049F000884201DB0020E084608C401E608404F16A
:104A0000280000F01FFB98B904F1280000F02AFBF1
:104A1000404603F019F800BFA548006818B12046C9
:104A2000A3490968884700BF01F0DAFE002064E767
:104A3000404603F009F800BF9D48006818B12046C1
:104A40009B490968884700BF002056E72DE9F041DF
:104A500004460D46174634B940F29B629549AFF2C1
:104A60005C2001F028F8012D16D102F0E9FF06467E
:104A700004F11400FFF721F804F12800FFF71DF8F6
:104A800000206084A084E084304602F0DDFF01F065
:104A9000A7FE0020BDE8F0814FF0FF30FAE72DE9D6
:104AA000F05F04460F4690469946DDE90AAB2CB903
:104AB00040F2D762804981A000F0FDFF3A4605210F
:104AC000204601F0E6FC84F809B0204600F0C2FA66
:104AD000C4F81C8009F1030020F003002084208C1E
:104AE000001DBAFBF0F060840020A062E062206349
:104AF000002508E0208C001DE16905FB0016206BF5
:104B0000306026636D1C608CA842F3DC0020A0841A
:104B1000BDE8F09F10B504462CB94FF4E1626B4933
:104B200066A000F0C8FF04F11400FEF7C6FF20469F
:104B300001F0D5FC002010BD70B5044600BF02F0A6
:104B40007FFF054600F0DAFA58B16149AFF6404000
:104B500000F0ABFE40F262725D49AFF6284000F013
:104B6000AAFF284602F070FF00BF2CB940F2657220
:104B7000574952A000F09FFF04F11400FEF79DFF7B
:104B8000E06901F0E7F9204601F007FD002070BD63
:104B90002DE9F05F0746884691469A4600BF02F02D
:104BA0004FFF834600F0AAFA58B14A49AFF6A04039
:104BB00000F07BFE4FF4E5624649AFF6884000F016
:104BC0007AFF584602F040FF00BF3946052001F049
:104BD000A2FC044614B92046BDE8F09F84F809A061
:104BE000204600F037FA08F1030020F0030020848B
:104BF000A4F82290218C091D628C01FB02F001F0C7
:104C0000A5F8E061E06920B92046FFF795FF002094
:104C1000E2E70020A062E0622063002508E0208C2B
:104C2000001DE16905FB0016206B306026636D1CDA
:104C3000608CA842F3DC0020A0842046CCE72DE95C
:104C4000F04104460F4616462CB940F28B722249B9
:104C50001AA000F030FF2FB940F28C721E491FA03D
:104C600000F029FF2EB940F28D721B4920A000F000
:104C700022FF208CB04203D24FF0FF30BDE8F0811C
:104C800000BF1E48006818B120461C4909688847C3
:104C900000BF02F0D5FE8046256B8DBB404602F07A
:104CA000D3FE6FF00200E9E71D0E01081801002095
:104CB0001C010020280E0108360E01086D7120210C
:104CC0003D2052545F4E554C4C000000410E0108EF
:104CD0005B0E01084E0E0108680E010862756666DB
:104CE000657220213D2052545F4E554C4C0000000F
:104CF00073697A6520213D203000000020010020EA
:104D0000FFE728682063404602F09EFE00202860EE
:104D100032463946281D00F050FA02F091FE8046D6
:104D2000E06A08B1E06A0560E562A06A00B9A562C0
:104D3000A08C401CA08404F1140000F083F950B949
:104D400004F1140000F08EF9404602F07DFE01F0FF
:104D500047FD002092E7404602F076FE00208DE7F6
:104D60002DE9F04104460F46164634B940F2E3728D
:104D7000C249AFF2B80000F09EFE37B940F2E472CB
:104D8000BE49AFF2A80000F096FE36B940F2E572D7
:104D9000BA49AFF2A40000F08EFE208CB04203D2DC
:104DA0004FF0FF30BDE8F08100BFB548006818B192
:104DB0002046B3490968884700BF02F041FE80469B
:104DC000256B2DB9404602F03FFE6FF00200E9E787
:104DD00028682063404602F037FE32463946281DD7
:104DE00000F0EBF902F02CFE8046A06A2860A56274
:104DF000E06A00B9E562A08C401CA08404F11400B4
:104E000000F020F950B904F1140000F02BF94046ED
:104E100002F01AFE01F0E4FC0020C3E7404602F075
:104E200013FE0020BEE72DE9FF4F81B004460F4678
:104E3000904634B940F63B029249AFF2801000F040
:104E40003AFE37B940F63C028E49AFF2701000F0DE
:104E500032FEB8F1000F06D140F63D028949AFF2AB
:104E6000701000F028FE4FF0000901F0A3FE054687
:104E700000BF8548006818B1204683490968884703
:104E800000BF02F0DDFD8246A08C48B9049838B915
:104E9000504602F0D9FD6FF0010005B0BDE8F08F7B
:104EA0006CE000BF02F0CCFD009001F083FE58B929
:104EB0007449AFF6707000F0F8FC40F65302714987
:104EC000AFF2CC1000F0F7FD00BF02F0B9FD834651
:104ED00000F014F958B16B49AFF6CC7000F0E5FC66
:104EE00040F653026749AFF2F01000F0E4FD584677
:104EF00002F0AAFD00BF009802F0A6FD00BF00204E
:104F00002863049830B9504602F09EFD6FF001000E
:104F10002863C2E7627A294604F11400FEF797FD80
:104F2000049800280EDDFEF72CFB814600BF00BF71
:104F300004AA002105F14C0002F0D9F905F14C005A
:104F400002F01BF9504602F07FFD01F049FC286B8E
:104F500008B1286BA1E702F073FD8246049800288F
:104F60000CDDFEF70EFBA0EB09090498A0EB09008D
:104F700004900498002801DA00200490A08C0028F6
:104F80008FD0A66A3068A062E06AB04201D10020EA
:104F9000E062A08C401EA084504602F055FD208C9B
:104FA000404501D2208C00E040460246311D384683
:104FB00000F003F902F044FD8246206B3060266366
:104FC000504602F041FD00BF3048006818B120464D
:104FD0002E490968884700BF00205EE72DE9F041AF
:104FE00004460E46904634B940F6C1022849AFF255
:104FF000343000F060FD012E1ED102F021FD074685
:1050000004F11400FEF759FD0AE0A56A2868A062C1
:10501000E06AA84201D10020E062206B286025638D
:10502000A06A0028F1D1A084384602F00DFD01F0FD
:10503000D7FB0020BDE8F0814FF0FF30FAE7406079
:105040000060704701460868884201D1012070471E
:105050000020FCE710B5044604F11400FFF7EFFF51
:10506000002010BD70B504462068A0F1140500BFF3
:1050700000BF284601F0A1FD002070BD730E01089D
:1050800020010020800E0108180100201C010020D2
:105090008B0E01081B49086070471B490860704768
:1050A00010B500BF00BF02F0CBFC044617480078E3
:1050B000401C1649087000BF1248006810B1114822
:1050C0000068804700BF204602F0BEFC10BD10B54E
:1050D00000BF00BF02F0B4FC04460C480078401E3C
:1050E0000A49087000BF0848006810B10648006807
:1050F000804700BF204602F0A7FC10BD034800789F
:1051000070470000480000204C00002050000020A4
:1051100010B5FFF7F3FF10B1FA48006810BD01F0B9
:1051200049FD044614B9F7480068F7E7206BF5E736
:1051300070B50446FFF7E2FF10B1F248046070BD9D
:1051400001F038FD054615B9EE480460F7E72C6319
:1051500000BFF4E710B5FFF7D1FF08B1E94810BD73
:1051600001F028FD044614B104F13000F7E7E548EA
:10517000F5E7F0B50C460546E6B2042A15D300F073
:10518000030797B9014646EA062343EA034304E0CE
:1051900008C108C108C108C1103A102AF8D201E0BC
:1051A00008C1121F042AFBD20D4601E005F8016B6D
:1051B000171EA2F10102F9D1F0BD2DE9F0410F4611
:1051C000164604463D463346102B28D305F0030C03
:1051D00004F003084CEA080CBCF1000F1FD1214673
:1051E0002A4610E052F804CB41F804CB52F804CB25
:1051F00041F804CB52F804CB41F804CB52F804CB6D
:1052000041F804CB103B102BECD204E052F804CB55
:1052100041F804CB1B1F042BF8D20C46154603E0C3
:1052200015F801CB04F801CBB3F1000CA3F1010395
:10523000F6D1BDE8F08170B50C46014623468B429D
:1052400010D29D188D420DD91144134405E05D1E06
:105250002B462E784D1E29462E70151EA2F10102F6
:10526000F5D108E003E013F8015B01F8015B151EBE
:10527000A2F10102F7D170BDF0B5034600201C4633
:105280000D4608E026782F78F61B301E00D004E08B
:10529000641C6D1C521E002AF4D800BFF0BD0146EC
:1052A0000A4600E0521C10780028FBD1501A7047C3
:1052B000F0B506460F463846FFF7F1FF05460DB933
:1052C0003046F0BD3046FFF7EAFF044609E0641EB1
:1052D0002A4639463046FFF7CFFF08B93046F0E797
:1052E000761CAC42F3DA0020EBE730B503460C46FF
:1052F00000BF13F8011B14F8012B412902DB5A29C6
:1053000000DC2031412A02DB5A2A00DC20329142A3
:1053100001D10029EDD1881A30BD70B50346A2B184
:1053200018460C4600BF14F8016B00F8016B3EB93B
:1053300002E0002500F8015B551E2A1EF9D102E0AB
:10534000551E2A1EEFD100BF00BF184670BD30B5F4
:10535000034600200BE011F8015B1C78641B64B26B
:10536000201E02D113F8015B05B902E0521E002A8B
:10537000F1D100BF30BD024601E0521C491C10783B
:1053800018B110780B789842F7D010780B78C01AC3
:10539000704702460B46114600E0491C087810B1E0
:1053A000881A9842F9D3881A704770B50446204687
:1053B000FFF775FF451C284600F0C8FC06460EB9ED
:1053C000002070BD2A4621463046FFF7F6FE3046E3
:1053D000F7E770472DE9F04F85B00D469C46DDE9B3
:1053E0000F740E9B04F04008B8F1000F02D0DFF8F4
:1053F000188101E0DFF81481CDF8008004F0100876
:10540000B8F1000F01D024F0010404F00108B8F154
:10541000000F02D04FF0300801E04FF02008C246E4
:10542000002604F00208B8F1000F11D0002A02DAB9
:105430002D2652420CE004F00408B8F1000F01D010
:105440002B2605E004F00808B8F1000F00D0202654
:10545000002142B94FF0300B8846491C0DF1040978
:1054600009F808B01DE01AE0E146B9F10A0F08D1C9
:105470004FF00A0BB2FBFBFE0BFB1E28B2FBFBF24C
:1054800002E002F00F08120900BFDDF8009019F8E1
:1054900008B08846491C0DF1040909F808B0002A33
:1054A000E2D1B94200DD0F46DB1B04F01108B8F170
:1054B000000F10D116B1002B00DD5B1E06E0A842E4
:1054C00003D84FF0200880F80080401CB3F100089A
:1054D000A3F10103F3DC26B1A84201D806705B1EDC
:1054E000401C04F01008B8F1000F0AD104E0A842F3
:1054F00001D880F800A0401CB3F10008A3F101031B
:10550000F5DC0CE054000020AA0F0108990F0108F7
:10551000A84203D84FF0300880F80080401CB846FD
:105520007F1E8845F4DC08E0A84205D80DF1040888
:1055300018F8018080F80080401CB1F10008A1F14A
:105540000101F1DC06E0A84203D84FF0200880F802
:105550000080401CB3F10008A3F10103F3DC05B0A7
:10556000BDE8F08F0146002009E00B685A1C0A6074
:105570001A7800EB800302EB4302A2F130000A68C4
:105580001278303A0A2AF0D370472DE9FF4F89B0DC
:10559000804644460A984044461E464504D24FF091
:1055A000FF36A6EB08000A906FE10B9800782528DB
:1055B00006D0B44202D80B9800782070641C61E1D8
:1055C000002526E00B98401C0B900B9800782D28A6
:1055D00002D145F010051CE00B9800782B2802D171
:1055E00045F0040515E00B980078202802D145F01D
:1055F00008050EE00B980078232802D145F020051D
:1056000007E00B980078302802D145F0010500E052
:1056100000E0D7E700BF4FF0FF370B980078303835
:105620000A2804D20BA8FFF79DFF07460EE00B984F
:1056300000782A280AD10B98401C0B900C9880C83F
:105640000C90002F02DA7F4245F010054FF0FF3931
:105650000B9800782E281CD10B98401C0B900B98AF
:10566000007830380A2804D20BA8FFF77BFF814668
:105670000AE00B9800782A2806D10B98401C0B9062
:105680000C9850F8049B0C90B9F1000F01DA4FF020
:105690000009002004900B980078682803D00B982C
:1056A00000786C2805D10B98007804900B98401C6A
:1056B0000B900A2005900B9800786F2875D00CDCB1
:1056C000632813D004DC252870D058286FD18DE0D2
:1056D00064286DD06928F9D18FE070286AD07328CA
:1056E00025D0752878D07828F0D182E005F0100018
:1056F00040B904E0B44201D820202070641C781E18
:10570000071EF7DC0C9810F8041B0C90C8B2079029
:10571000B44201D807982070641C04E0B44201D858
:1057200020202070641C781E071EF7DCAAE00C986D
:10573000006806900C98001D0C90069808B9ECA023
:1057400006900698FFF7ABFD8346B9F1000F02DD26
:10575000CB4500DDCB4605F0100048B904E0B4426B
:1057600001D820202070641C38467F1E5845F6DC86
:10577000002008900BE0B44202D806980078207010
:10578000641C0698401C06900898401C08900898D5
:105790005845F0DB04E0B44201D820202070641C9E
:1057A00038467F1E5845F6DC6CE01CE015E028E02A
:1057B00022E0FFE7781C10B9082745F00105CDE984
:1057C000007902950C9804C8102331460C902046AD
:1057D000FFF700FE044655E012E0B44201D8252050
:1057E0002070641C4EE0082005901DE045F0400547
:1057F00000BF1020059017E000BF45F0020500BF74
:1058000012E0B44201D825202070641C0B98007867
:1058100030B1B44202D80B9800782070641C02E0CA
:105820000B98401E0B902DE000BF04986C2807D108
:105830000C9850F804AB0C9005F00200B8B116E0DB
:10584000049868280BD10C9830F8041B1FFA81FAD1
:105850000C9005F0020050B10FFA8AFA07E00C989C
:1058600050F804AB0C9005F0020000B100BFCDE988
:1058700000790295524631462046059BFFF7AAFD66
:10588000044600BF0B98401C0B900B980078002832
:105890007FF48BAEB44201D8207001E0002030705C
:1058A000A4EB08000DB0BDE8F08F0FB438B505A823
:1058B00000907F219048009B049AFFF766FE044603
:1058C0007F2C00D97F248D48006818B98A48FFF7DB
:1058D00080FD15E089480068058B88480068008BCA
:1058E00040F040008549096808832346824A002128
:1058F00082480068FDF771FF80480068058300BF9B
:105900000020009038BC5DF814FB08B57CA0FFF7C0
:10591000CCFF81A0FFF7C9FF84A0FFF7C6FF88A0D6
:10592000FFF7C3FF8BA000230122022100908CA06F
:10593000FFF7BBFF92A0FFF7B8FF08BD0FB4F8B5A3
:1059400004460D4609A8009029462046009B089A67
:10595000FFF71BFE0646002000903046F8BC5DF8BD
:1059600014FB37B505460C4622464FF0FF3128465A
:10597000029BFFF70AFE3EBD0FB438B5044606A8E9
:1059800000902046009A0599FFF7EBFF054600209E
:105990000090284638BC5DF814FB584800687047F2
:1059A00070B50546554806682846FDF71BFE0446B7
:1059B00064B15248006818B150480068FDF7C5FE50
:1059C00043212046FDF77DFE4C480460304670BD03
:1059D00070B504464948006818B92046FFF7F9FC3D
:1059E00019E046480068058B44480068008B40F089
:1059F00040004249096808832046FFF750FC0646EC
:105A00003346224600213D480068FDF7E6FE3B484C
:105A10000068058300BF70BD2DE9F04107460C46C4
:105A2000E01C20F00304F81C20F0030000EB040845
:105A3000404600F08BF9054665B1601E284008B964
:105A40002E1904E0601E2844611E20EA010646F873
:105A5000045C35462846BDE8F08170B5044654F82C
:105A6000045C284600F076FA70BD014609B90020B2
:105A70007047C8B220B1C8B2464A105C401CF7E774
:105A800001F47F4028B14348C1F30722805C09300C
:105A9000EEE701F47F0028B13E48C1F30742805C85
:105AA0001130E5E73B4800EB116000781930DFE783
:105AB000394908607047F8B504460D46164600207F
:105AC00000903548006858B933462A46214633A02D
:105AD000FFF7EBFE00BF9DF800000028FBD005E0BB
