:020000040800F2
:10000000E01B0020150D00084D0300084F030008F9
:1000100053030008570300085B03000800000000BA
:100020000000000000000000000000005F03000866
:10003000610300080000000063030008490A00088B
:100040002F0D00082F0D00082F0D00082F0D0008A0
:100050002F0D00082F0D0008E73F0008FF3F0008A4
:10006000174000082F400008474000082F0D0008E7
:100070002F0D00082F0D00082F0D00082F0D000870
:100080002F0D00082F0D00082F0D00082F0D000860
:100090002F0D00082F0D00082F0D00085F400008ED
:1000A0002F0D00082F0D00082F0D00082F0D000840
:1000B0002F0D00082F0D00082F0D00082F0D000830
:1000C0002F0D00082F0D00082F0D00082F0D000820
:1000D0002F0D00088B0C00082F0D00082F0D0008B5
:1000E000D54000082F0D00082F0D00082F0D000827
:1000F0002F0D00082F0D00082F0D00082F0D0008F0
:100100002F0D00082F0D00082F0D00082F0D0008DF
:100110002F0D00082F0D00082F0D00082F0D0008CF
:100120002F0D00082F0D00082F0D00082F0D0008BF
:1001300000F002F800F0B0F80AA090E8000C824449
:100140008344AAF10107DA4501D100F0A5F8AFF226
:10015000090EBAE80F0013F0010F18BFFB1A43F0A5
:1001600001031847B4720000D47200000A444FF033
:10017000000C10F8013B13F0070408BF10F8014B06
:100180001D1108BF10F8015B641E05D010F8016B4B
:10019000641E01F8016BF9D113F0080F1EBF10F8AF
:1001A000014BAD1C0C1B09D16D1E58BF01F801CBD2
:1001B000FAD505E014F8016B01F8016B6D1EF9D555
:1001C0009142D6D37047000000230024002500266A
:1001D000103A28BF78C1FBD8520728BF30C148BFAA
:1001E0000B6070476E2904F01687702905F0638054
:1001F000662907F00280652906F0FF87672906F067
:10020000FC876129AFF3008003681B0A28BF41F017
:100210008001692904F04884642904F04584752923
:1002200004F042846F2904F0F087782905F02F80CC
:10023000E92904F08B87E42904F08887F52904F084
:100240008587EF2904F0ED87F82905F02E800368F3
:10025000DB0928BF41F08001632904F0FA86732985
:1002600004F0FF86E32905F05983F32905F05E8346
:10027000002070471FB505F0CFF8040000200021D2
:1002800006F01AFE401C60600020002106F02AFEE5
:10029000E0601FBD10B510BD05F09EFB1146FFF7D5
:1002A000E9FF00F009F805F0BDFE03B4FFF7F2FF27
:1002B00003BC00F08FFC00004FF4A06001F010FBC5
:1002C00000F0CBFB4FF4E13000F093FC1021174815
:1002D00003F076FF16494869804716490869804748
:1002E000144908698047134801220221436998474D
:1002F00010498869804710A004F0A0FB00F0AAFB19
:10030000054611E002F0D4FF00F0A4FB441B002CD2
:1003100001DB204600E06042C82805DD034803F009
:10032000C4FF00F097FB0546ECE70000A4010020A5
:100330001400002030000020466978747572652032
:100340005265736574204F4B0A3E3E00704700BFF4
:10035000FEE700BFFEE700BFFEE700BFFEE7704715
:10036000704770470CB50020019000906C48006801
:1003700040F480306A49086000BF6948006800F4B2
:10038000003000900198401C0190009818B9019825
:10039000B0F5A06FF1D16248006800F4003010B1F0
:1003A0000120009001E0002000900098012843D136
:1003B0005C48006840F010005A4908600846006830
:1003C00020F0030008600846006840F00200086062
:1003D00053484068524948600846406848600846AB
:1003E000406840F4806048600846406820F47C1013
:1003F00048600846406840F4881048600846006835
:1004000040F08070086000BF4548006800F0007050
:100410000028F9D04248406820F003004049486075
:100420000846406840F00200486000BF3C48406811
:1004300000F00C000828F9D10CBD10B5FFF792FFB1
:1004400010BD10B53648006840F00100344908601E
:100450000846406834490840314948600846006809
:10046000324908402E4908600846006820F4802080
:1004700008600846406820F4FE0048604FF41F0002
:100480008860FFF7DAFF4FF000602949086010BD6F
:1004900010B5002100200022214B5B6803F00C0105
:1004A00021B1042906D0082928D107E0214B224C8C
:1004B000236027E0214B204C236023E0184B5B682E
:1004C00003F47010164B5B6803F48032022303EBD5
:1004D000904022B91A4B4343174C23600DE0104B58
:1004E0005B6803F4003323B1164B4343124C236083
:1004F00003E0124B4343104C236003E00D4B0E4CC2
:10050000236000BF00BF064B5B68C3F303130E4CB0
:10051000E15C094B1B68CB40074C236010BD000019
:1005200000100240002002400000FFF8FFFFF6FE2E
:1005300008ED00E000127A0000000020001BB70068
:1005400000093D00808D5B000400002010B52449A7
:100550008868482103F034FE21494868102103F0DF
:100560002FFE1F490869102103F02AFE1C49C868A4
:10057000102103F025FE1A49C86803F07BFE1849D4
:10058000086903F077FE1649486803F073FE1449C2
:10059000C86803F073FE10BD2DE9F04104460D4616
:1005A0001746002617E00E49086903F067FE02208F
:1005B00000F07BFA0A49086903F05CFE022000F0B3
:1005C00074FA074A516890683A4600F0A7FA04F8AE
:1005D000010B701CC6B2AE42E5DBBDE8F081000045
:1005E0001400002010B51A498868102103F0E8FDB6
:1005F00017494868102103F0E3FD1549C868102128
:1006000003F0DEFD10BD2DE9F04105460E4617460C
:100610000F49C86803F032FE002407E02B5D0C4A46
:10062000516890683A4600F0A6FA641CB442F5DBC3
:10063000BDE8F08110B50649C86803F01FFE02202E
:1006400000F033FA0249C86803F014FE10BD000040
:100650003000002070B505460024F84800229021A3
:10066000436828469847F5480022114643682846C3
:100670009847F24800221146436828469847EF48B9
:1006800000221146436828469847EC480022FF2183
:1006900043682846984744EA0024E8480122FF219D
:1006A0004368284698470443204670BD10B5044669
:1006B000E2480168204688472046FFF7CBFFE04923
:1006C000088010BD70B504460D46DC48012229465D
:1006D00043682046984770BD70B504460025D7484A
:1006E00000220521436820469847D4480122FF2173
:1006F0004368204698470546284670BD70B50446B5
:100700000D46CE4800220121436820469847CB4839
:100710000122294643682046984770BD2DE9F041E3
:1007200007460C4615461E46C4480022032143686E
:1007300038469847C1480022C5F307414368384608
:100740009847BE480022C5F30721436838469847BA
:10075000E9B2BA48002243683846984709E0701E5B
:1007600086B2B6480022FF2143683846984704F80D
:10077000010B012EF3D1B1480122FF214368384615
:10078000984704F8010BBDE8F0812DE9F0410746D8
:100790000C4615461E46A94800220B2143683846E0
:1007A0009847A6480022C5F3074143683846984752
:1007B000A2480022C5F30721436838469847E9B2AA
:1007C0009E4800224368384698479C480022FF21F3
:1007D00043683846984709E0701E86B29748002261
:1007E000FF2143683846984704F8010B012EF3D1E6
:1007F00092480122FF2143683846984704F8010BCC
:10080000BDE8F08110B5044600BF2046FFF764FF45
:1008100000F001000028F8D110BD2DE9F041074695
:100820000C4615461E4606213846FFF74BFF834807
:100830000022022143683846984780480022C5F3C9
:1008400007414368384698477C480022C5F3072192
:10085000436838469847E9B27848002243683846EA
:10086000984708E0701E86B214F8011B73480022F6
:10087000436838469847012EF4D114F8011B6F489D
:1008800001224368384698473846FFF7BBFFBDE86A
:10089000F0812DE9F04180460F4616461C46F0B225
:1008A000C0F58075AC4200DC254613E02B4632468D
:1008B00039464046FFF7B1FFAC4200D10BE02F4470
:1008C0002E44601B84B2B4F5807F02DD4FF4807546
:1008D00000E02546EAE700BFBDE8F08170B50546B7
:1008E0000C46240306212846FFF7ECFE2846FFF7B6
:1008F00089FF5248002220214368284698474F48E4
:100900000022C4F307414368284698474B48002219
:10091000C4F30721436828469847E1B247480122BB
:100920004368284698472846FFF76CFF70BD2DE9BD
:10093000FF5F894617461E46DFF808B14FEA1738B1
:10094000C7F30B0ACAF58054A64200DC344648E0DF
:100950004FEA08324FF4805359460098FFF7DEFE05
:10096000002508E00AEB05001BF80000FF2800D076
:1009700003E0681C85B2A542F4DB00BFA54218DA8B
:1009800041460098FFF7AAFF002507E019F8050087
:1009900005EB0A010BF80100681C85B2A542F5DBE6
:1009A0004FEA08324FF4805359460098FFF771FF21
:1009B00005E023463A4649460098FFF76AFFA642FB
:1009C00000D10FE008F101084FF0000AA1442744CC
:1009D000301B86B2B6F5805F02DD4FF4805400E034
:1009E0003446B5E700BFBDE8FF9F10B504460621B9
:1009F0002046FFF767FE2046FFF704FFC721204689
:100A0000FFF760FE2046FFF7FDFE10BD10B504465F
:100A10000A480122B921436820469847032000F084
:100A200044F810BD10B5044604480122AB214368C8
:100A300020469847032000F038F810BDA00400209D
:100A40004C000020A80400202C480068401C2B49C2
:100A50000860704729480068704710B56FF00400BF
:100A600000F08DFF264800682649B0FBF1F02649CA
:100A700008700846007800EB4001C1EBC0104FF64B
:100A8000FF7101EAC00021490880084600884FF044
:100A9000E02148610846006940F00200086108460C
:100AA000006940F00100086110BD70B503460022E6
:100AB0004FF0E026756903EBC30400BFB16910E095
:100AC0004FF0E026B06988420BD0884202D20E1A5D
:100AD000324402E02E1A0E4432440146A24200D3B0
:100AE00000E0EDE700BF70BD10B504464FF47A7129
:100AF00004FB01F0FFF7D9FF10BD000078000020D3
:100B00000000002000127A0074000020760000200F
:100B100030BF704772B6704762B670472DE9F0413A
:100B200080460E461746002500241FE037B9404690
:100B300003F0B1FBA0402843C5B207E0404603F0F4
:100B4000AAFBC4F1070188402843C5B20021304602
:100B500003F098FB0120FFF7A8FF0121304603F0C6
:100B600091FB0120FFF7A1FF601CC4B2082CDDDB64
:100B70002846BDE8F0812DE9F04180460E46174633
:100B80001D46002422E05FB90120A040284008B1A2
:100B9000012000E000200146404603F073FB0CE01A
:100BA000C4F1070201209040284008B1012000E074
:100BB00000200146404603F065FB0121304603F06A
:100BC00061FB0021304603F05DFB641C082CDADB7E
:100BD000BDE8F081014600BF704700BF494A128856
:100BE00002F04002002AF9D0C2B2464B1B1D1A8007
:100BF000704710B586B00446012144F2040001F0AC
:100C00004BF84FF40070ADF8140003208DF8160077
:100C100018208DF8170005A93B4800F089F94FF41A
:100C20008060ADF8140004208DF8170005A936483F
:100C300000F07EF925208DF8000003208DF80100DA
:100C40008DF8020001208DF80300684600F04DFE8B
:100C500001940020ADF80800ADF80A00ADF80C00D2
:100C6000ADF810000C20ADF80E0001A9254800F0E9
:100C700076FC012240F22551224800F008FD0121B6
:100C8000204800F0F8FC06B010BD10B540F2255128
:100C90001C4800F0E1FD10B31A4800F05DFDC4B23D
:100CA0001A48008800F40040C8B91848008800F4C9
:100CB000804060B10A2C03D000201449088020E055
:100CC0001248008840F400401049088019E00D2CBB
:100CD00006D10E48008840F480400C49088010E09E
:100CE0000A480088C0F30D0009490C5407480088E1
:100CF000401C0649088008460088C72801DD0020FE
:100D0000088010BD0038014000080140800000202C
:100D1000A81400200948804709480047FEE7FEE77D
:100D2000FEE7FEE7FEE7FEE7FEE7FEE7FEE7FEE79B
:100D300004480549054A064B704700004304000873
:100D400031010008E0150020E01B0020E017002022
:100D5000E0170020002044490860091D0860091DB3
:100D60000860091D086041483F4914310860704718
:100D700000213D498279002A3AD00A461268036868
:100D80009A430B461A600A1D126803689A430B1DAA
:100D90001A60027911440A6803681A430A60324AE9
:100DA0000832126803689A432F4B08331A601A1DE1
:100DB000126803689A432C4B0C331A604279102A4C
:100DC0000ED11A1F126803681A43274B08331A60A2
:100DD0001A1D126803681A43234B0C331A600DE086
:100DE0002149427911440A6803681A430A6005E000
:100DF000027911440A6803689A430A607047002127
:100E0000016001710C214171002181717047164907
:100E1000103109680143144A1032116070470146CD
:100E20000020114A143212680A400AB1012000E081
:100E3000002070470C4914310860704701460020BB
:100E40000022094B1B6803EA0102074B14331B689D
:100E50000B4013B10AB1012000E0002070470249A5
:100E6000143108607047000000040140FFFF0F00CC
:100E700010B50446CC48844208D10121042000F07A
:100E800025FF0021042000F021FF46E0C7488442EE
:100E900008D10121082000F019FF0021082000F0EE
:100EA00015FF3AE0C248844208D10121102000F029
:100EB0000DFF0021102000F009FF2EE0BD48844204
:100EC00008D10121202000F001FF0021202000F0A6
:100ED000FDFE22E0B848844208D10121402000F004
:100EE000F5FE0021402000F0F1FE16E0B3488442F8
:100EF00008D10121802000F0E9FE0021802000F0CF
:100F0000E5FE0AE0AE48844207D10121801500F0D9
:100F1000DDFE0021A01500F0D9FE10BD10B50121A5
:100F2000084600F0D3FE0021012000F0CFFE10BDE6
:100F30002DE9F04102460025002600200023002470
:100F4000002791F803C00CF00F0591F803C00CF0D6
:100F5000100CBCF1000F03D091F802C04CEA05055B
:100F600091F800C0BCF1000F31D0146800202BE0D4
:100F70004FF0010C0CFA00F3B1F800C00CEA0306C4
:100F80009E4220D183004FF00F0C0CFA03F7BC43B4
:100F900005FA03FC4CEA040491F803C0BCF1280FE5
:100FA00006D14FF0010C0CFA00FCC2F814C00AE0A4
:100FB00091F803C0BCF1480F05D14FF0010C0CFAB9
:100FC00000FCC2F810C0401C0828D1D31460B1F84E
:100FD00000C0BCF1FF0F34DD546800202EE000F1AA
:100FE000080C4FF0010808FA0CF3B1F800C00CEA45
:100FF00003069E4221D183004FF00F0C0CFA03F739
:10100000BC4305FA03FC4CEA040491F803C0BCF1AC
:10101000280F05D100F1080C08FA0CF8C2F814806A
:1010200091F803C0BCF1480F07D100F1080C4FF054
:10103000010808FA0CF8C2F81080401C0828CED32A
:101040005460BDE8F0814FF6FF710180022181708C
:101050000421C17070470246002093680B400BB119
:10106000012000E0002070470146886880B2704788
:1010700002460020D3680B400BB1012000E00020A5
:1010800070470146C86880B270470161704741618E
:1010900070470AB1016100E041617047C16070476B
:1010A0004FF480320A438261816182618269826980
:1010B000704702460020434B18684FF68073184073
:1010C00040EA021008433F4B186070473E49C86130
:1010D0007047F0B50A46002300240021002500F0E7
:1010E0000046B6F1004F02D1364EF16901E0354EAF
:1010F0007168C0F3034583B200F44016B6F5401F93
:1011000008D121F070612F4E766826F070662D4F61
:101110007E6012E000F48016B6F5801F06D103262B
:1011200006FA05F4A14341F0706106E0460D360170
:1011300003FA06F6B14341F0706122B1460D360163
:1011400003FA06F6314300F00046B6F1004F02D133
:101150001C4EF16101E01B4E7160F0BD30B5002204
:101160008B071C0F0F2303FA04F2164B08338C1065
:1011700053F824309343134C08348D1044F8253031
:1011800023468C1053F824308C07240F00FA04F403
:1011900023430C4C08348D1044F8253030BD0A49E7
:1011A000DC3108607047000000080140000C01407D
:1011B000001001400014014000180140001C0140D3
:1011C00000200140000001400000204210B504460C
:1011D000BE48844208D10121801400F077FD00212F
:1011E000A01400F073FD16E0B948844208D1012133
:1011F000001400F078FD0021201400F074FD0AE0D6
:10120000B448844207D10121C01300F06CFD0021D5
:10121000E01300F068FD10BD10B50022028802F452
:1012200041520B884C8823438C882343CC8823432A
:101230000C8923434C8923438C892343CC89234342
:101240001A430280838B4FF2FF74234083830B8AFF
:10125000038210BD2DE9F04F85B005460C464FF0D6
:10126000000902274FF000084FF0010B0026B2469C
:10127000A88B4FF240010840A88302202884B5F8CB
:101280001C90A068022801D100BF38E0A08810B9E6
:101290004FF0010B01E04FF0020B8D48854200D169
:1012A00000E000BF684600F08AFCDDF800A0E0889E
:1012B000B0F5007F0AD14FEA1A2000EB8000400011
:1012C000A168B0FBF1F0401D86B20BE04FEA4B1075
:1012D000BAFBF0F000EB80004000A168B0FBF1F039
:1012E000401D86B20A20B6FBF0F606F00108A6EB18
:1012F0000800C0F34F074FF6FF7000EA0828022FDE
:1013000001DBFF2F02DD02274FF00008E08840EAF2
:10131000080038432884A088A189084361880843CD
:101320002188084340F4006040EA0909A5F81C90B0
:1013300005B0BDE8F08F0021018041808180C1802F
:10134000018141818181C181072101827047002192
:10135000018041808180C1800221816000218181E2
:10136000704721B1028842F04002028004E0028806
:101370004FF6BF731A400280704721B1828B42F44E
:101380008062828304E0828B4FF6FF331A408283AF
:10139000704730B5002400230C110125A540ABB2E5
:1013A0001AB185881D43858002E085889D4385802C
:1013B00030BD1AB183880B43838002E083888B435E
:1013C00083807047818170470146888970474FF656
:1013D000FF62914204D0028842F48072028004E0ED
:1013E00002884FF6FF631A400280704721B182885D
:1013F00042F00402828004E082884FF6FB731A40B8
:101400008280704702884FF2FF731A400280028880
:101410000A4302807047018841F48051018070477F
:1014200021B1028842F40052028004E002884DF6A5
:10143000FF731A400280704702460020012901D044
:10144000108B00E0908A70470146088A7047B1F51A
:10145000804F04D1028842F48042028004E0028876
:101460004BF6FF731A400280704702460020138932
:101470000B400BB1012000E000207047CA430281FD
:101480007047F0B50246002000240023002501F03B
:101490000F070126BE40B4B20B1101269E40B3B225
:1014A000968806EA03051689264016B10DB101207B
:1014B00000E00020F0BD10B5002201F00F04012370
:1014C000A3409AB2D343038110BD00000030014015
:1014D00000380040003C004010B50446FB48844200
:1014E00009D10121880300F0F1FB00214FF4804075
:1014F00000F0ECFB32E0F648844209D101214804B7
:1015000000F0F1FB00214FF4003000F0ECFB25E08F
:10151000F048844209D10121880400F0E4FB002155
:101520004FF4802000F0DFFB18E0EB48844209D143
:101530000121C80400F0D7FB00214FF4002000F087
:10154000D2FB0BE0E548844208D10121080500F0F8
:10155000CAFB00214FF4801000F0C5FB10BD2DE93F
:10156000F04786B005460E460024A24600BFA146BD
:101570000027B08900B100BF2F462C8A4CF6FF70BF
:101580000440F08804432C82AC894EF6F3100440EA
:10159000B08831890843718908430443AC81AC8A1F
:1015A0004FF6FF400440B0890443AC8201A800F02C
:1015B00006FBC648874202D1DDF810A001E0DDF845
:1015C0000CA0A88900F4004040B10AEBCA0000EB6F
:1015D0000A1031684900B0FBF1F807E00AEBCA00D5
:1015E00000EB0A1031688900B0FBF1F86420B8FB09
:1015F000F0F004012009642101FB1089A88900F49E
:10160000004040B1322000EBC900B0FBF1F000F027
:101610000700044308E0322000EB09106421B0FB0E
:10162000F1F000F00F0004432C8106B0BDE8F08714
:101630004FF41651016000218180C18001810C218D
:10164000418100218181704710B502460020108A37
:101650004FF2FF0318400B884C8823438C882343A8
:10166000CC8823431843108210BD002101804180A3
:101670008180C180704721B1828942F40052828109
:1016800004E082894DF6FF731A4082817047F0B5FD
:101690000346002400260025002040F66A17B942C0
:1016A00000D100BF1846C1F3421401F01F06012704
:1016B00007FA06F5012C01D10C3004E0022C01D10F
:1016C000103000E014301AB107682F43076002E0C1
:1016D0000768AF430760F0BD1AB1838A0B4383826A
:1016E00002E0838A8B4383827047028A4FF6F0734D
:1016F0001A400282028A0A430282704782894FF2AC
:10170000FF731A40828182890A438281704721B126
:10171000828942F00202828104E082894FF6FD73E1
:101720001A4082817047028A4FF6DF731A400282A4
:10173000028A0A430282704721B1028A42F480423F
:10174000028204E0028A4BF6FF731A40028270475D
:10175000C1F308028280704701468888C0F3080000
:101760007047818941F0010181817047028BD2B2BB
:101770000283028B42EA012202837047028B02F449
:101780007F420283028B0A430283704721B1828A1F
:1017900042F02002828204E0828A4FF6DF731A4010
:1017A0008282704721B1828A42F01002828204E074
:1017B000828A4FF6EF731A408282704721B1828A83
:1017C00042F00802828204E0828A4FF6F7731A40E0
:1017D0008282704721B1828942F40042828103E013
:1017E0008289C2F30E028281704721B1828A42F45B
:1017F0000062828204E0828A4FF2FF731A40828282
:101800007047828A4FF6FB731A408282828A0A43AB
:101810008282704721B1828A42F00202828204E011
:10182000828A4FF6FD731A4082827047024600207A
:10183000B1F5007F00D100BF13880B400BB1012030
:1018400000E00020704701F40072B2F5007F00D183
:1018500000BFCA430280704770B5024600240023CF
:101860000025002040F66A16B14200D100BFC1F346
:10187000421501F01F03012606FA03F3012D02D1E0
:101880009689334006E0022D02D1168A334001E0EA
:10189000968A33400C12012606FA04F41688344066
:1018A00013B10CB1012000E0002070BD10B5002282
:1018B000002340F66A14A14200D100BF0A1201249D
:1018C0009440A3B2DC43048010BD00000038014006
:1018D0000044004000480040004C004000500040E0
:1018E00031490143314A1160704770B5002100232E
:1018F0000F22C47804B32D4C246804F4E064C4F5CA
:10190000E064210AC1F10403CA40447804FA03F1F7
:101910008478144021430901254C0678A1550478A8
:1019200004F01F050124AC4005786D11AD0005F1F0
:10193000E025C5F8004109E0047804F01F05012402
:10194000AC401C4D0678761145F8264070BD1A4A09
:101950000A400243154B1B1F1A60704739B1134AE6
:10196000121D12680243114B1B1D1A6006E00F4A3C
:10197000121D126882430D4B1B1D1A60704704280C
:1019800008D14FF0E021096941F004014FF0E02255
:10199000116107E04FF0E021096921F004014FF0E7
:1019A000E0221161704700000000FA050CED00E034
:1019B00000E400E080E100E080FFFF1FDF480068F6
:1019C00040F00100DD49086008464068DC490840F5
:1019D000DA49486008460068DA490840D749086093
:1019E0000846006820F4802008600846406820F41B
:1019F000FE0048604FF41F0088607047CF490968B7
:101A000021F48031CD4A11601146096821F480210A
:101A10001160B0F5803F03D0B0F5802F0ED106E005
:101A2000C649096841F48031C44A116007E0C349DE
:101A3000096841F4A021C14A116000E000BF00BF65
:101A4000704710B501460022002300204A11012AE8
:101A500002D1BA4C236806E0022A02D1B74C236AAD
:101A600001E0B64C636A01F01F02012494401C405F
:101A70000CB1012000E0002010BD38B5002000901E
:101A80000024002500BF3120FFF7DBFF054600984A
:101A9000401C00900098B0F5A06F01D0002DF2D04E
:101AA0003120FFF7CEFF08B1012400E000242046DA
:101AB00038BD01460020A14A106820F0F80040EA35
:101AC000C10010607047A0490860704702460020BE
:101AD0009A4B586820F47C1042EA01031843974B54
:101AE0005860704798490866704701460020934A3D
:101AF000506820F003000843506070478F484068EA
:101B000000F00C007047014600208C4A506820F01D
:101B1000F00008435060704701460020874A506833
:101B200020F4E06008435060704701460020834A7B
:101B3000506820F4605040EAC1005060704729B1FD
:101B40007E4A527A02437D4B5A7204E07B4A527AB3
:101B500082437A4B5A7270477B49D831086070478C
:101B600001460020754A506820F440400843506008
:101B700070470021714A20321170704A82F820109B
:101B8000012802D004280AD104E001216B4A203246
:101B9000117005E00521694A2032117000E000BF94
:101BA00000BF70476949086070476449096A01438A
:101BB000624A11627047654944390860704730B520
:101BC00000210022002400235C4D6D6805F00C010B
:101BD00021B1042905D0082923D105E05C4D056019
:101BE00022E05C4D05601FE0544D6D6805F47012F5
:101BF000524D6D6805F48034022505EB92421CB904
:101C0000554D554305600BE04C4D6D6805F40035AE
:101C10001DB1524D5543056002E04E4D55430560E0
:101C200002E04B4D056000BF00BF444D6D6805F0FC
:101C3000F00109094A4D6B5C0568DD4045603F4D88
:101C40006D6805F4E061090A454D6B5C4568DD404F
:101C500085603A4D6D6805F46051C90A404D6B5C72
:101C60004568DD40C560354D6D6805F44041890B20
:101C70003C4D6B5CC568B5FBF3F5056130BD29B122
:101C80002E4A526902432D4B5A6104E02B4A526995
:101C900082432A4B5A61704729B1284A926902430C
:101CA000264B9A6104E0254A92698243234B9A614C
:101CB000704729B1214AD2690243204BDA6104E01E
:101CC0001E4AD26982431D4BDA61704729B11B4A13
:101CD000D2680243194BDA6004E0184AD2688243A2
:101CE000164BDA60704729B1144A12690243134B4C
:101CF0001A6104E0114A12698243104B1A6170475D
:101D000012494039086070470F49C86470470B4951
:101D1000C87170470948406A40F0807007494862BE
:101D2000704701460020054A92680A400AB1012026
:101D300000E000207047014988727047001002409F
:101D40000000FFF8FFFFF6FE00004242800442421E
:101D500000127A00001BB70000093D00808D5B0077
:101D6000820000209200002009E00178412905DB73
:101D700001785A2902DC017820310170401C017879
:101D80000029F2D1704710B50446F7A1204603F0B0
:101D900055F800BB00210C2001F007FD00210B20AD
:101DA00001F003FD00210A2001F0FFFC00210920C1
:101DB00001F0FBFC01210D2001F0F7FC00211020B7
:101DC00001F0F3FC01210E2001F0EFFCE8A002F08D
:101DD00035FE012010BDE9A1204603F02FF800BB1D
:101DE0000021102001F0E1FC00210D2001F0DDFCBC
:101DF00001210E2001F0D9FC00210C2001F0D5FCBE
:101E000000210B2001F0D1FC00210A2001F0CDFCC3
:101E10000121092001F0C9FCDAA002F00FFE012027
:101E2000D8E7DAA1204603F009F800BB0021102012
:101E300001F0BBFC00210D2001F0B7FC01210E20B8
:101E400001F0B3FC00210C2001F0AFFC00210B20BD
:101E500001F0ABFC0021092001F0A7FC01210A20C0
:101E600001F0A3FCCBA002F0E9FD0120B2E7CBA179
:101E7000204602F0E3FF00BB0121102001F095FC99
:101E800000210D2001F091FC00210E2001F08DFCBD
:101E900000210B2001F089FC00210A2001F085FCC3
:101EA0000021092001F081FC01210C2001F07DFCC2
:101EB000BCA002F0C3FD01208CE7BCA1204602F0CB
:101EC000BDFF00BB0121102001F06FFC00210D209F
:101ED00001F06BFC00210E2001F067FC00210C20BA
:101EE00001F063FC00210A2001F05FFC00210920C1
:101EF00001F05BFC01210B2001F057FCADA002F0CA
:101F00009DFD012066E7ADA1204602F097FF00BBD2
:101F10000121102001F049FC00210E2001F045FCB8
:101F200000210D2001F041FC0021092001F03DFCC1
:101F300000210A2001F039FC00210B2001F035FCC2
:101F400000210C2001F031FC9FA002F077FD012060
:101F500040E7A0A1204602F071FF00BB0121102044
:101F600001F023FC01210E2001F01FFC00210D20B7
:101F700001F01BFC0021092001F017FC00210A20C0
:101F800001F013FC00210B2001F00FFC00210C20BC
:101F900001F00BFC92A002F051FD01201AE794A180
:101FA000204602F04BFF00BB0121102001F0FDFB99
:101FB00000210D2001F0F9FB00210E2001F0F5FBBE
:101FC00000210C2001F0F1FB00210B2001F0EDFBC2
:101FD00000210A2001F0E9FB0021092001F0E5FBC6
:101FE00085A002F02BFD0120F4E60020F2E610B5FA
:101FF000044684A1204602F021FF40B900210F20B1
:1020000001F0D3FB81A002F019FD012010BD82A1D7
:10201000204602F013FF40B901210F2001F0C5FB5B
:102020007FA002F00BFD0120F0E780A1204602F026
:1020300005FFA0B90121084601F0B7FB00210220ED
:1020400001F0B3FB0121032001F0AFFB00210420CC
:1020500001F0ABFB77A002F0F1FC0120D6E778A1FC
:10206000204602F0EBFEA0B90021012001F09DFB0B
:102070000121022001F099FB0021032001F095FBD2
:102080000121042001F091FB70A002F0D7FC012097
:10209000BCE771A1204602F0D1FEA0B901210520C4
:1020A00001F083FB0021062001F07FFB01210720C6
:1020B00001F07BFB0021082001F077FB68A002F013
:1020C000BDFC0120A2E769A1204602F0B7FEA0B93D
:1020D0000021052001F069FB0121062001F065FBCC
:1020E0000021072001F061FB0121082001F05DFBC8
:1020F00061A002F0A3FC012088E7002086E710B56C
:10210000044660A1204602F099FE88B9032001F040
:1021100019FA18B1042001F015FA20B95CA002F0F8
:102120008DFC012010BD5DA002F088FC0120F9E7C4
:102130005DA1204602F082FEA0B9032001F002FA60
:1021400058B1042001F0FEF938B1052001F0FAF988
:1021500018B1062001F0F6F928B957A002F06EFC7C
:102160000120DFE7B7E0B1E069206475740000008A
:102170006F6B404920445554000000007220656197
:10218000000000006F6B40522045410072206562E4
:10219000000000006F6B40522045420069206562DC
:1021A000000000006F6B40492045420069206561D6
:1021B000000000006F6B404920454100706F77655B
:1021C00072206F6E000000006F6B40504F574552F9
:1021D000204F4E00706F776572206F6666000000BA
:1021E0006F6B40504F574552204F4646000000004D
:1021F000703220646F6E65006F6B40503220444F28
:102200004E45000061697220696E00006F6B4041AD
:10221000495220494E000000616972206F757400B8
:102220006F6B40414952204F555400007032206F6F
:1022300070656E006F6B405032204F50454E00006D
:10224000703220636C6F7365000000006F6B40504C
:102250003220434C4F5345007033206F70656E0041
:102260006F6B405033204F50454E00007033206359
:102270006C6F7365000000006F6B40503320434C5F
:102280004F5345006C6566742073746174757300F8
:102290006C65667420747275654000006C656674C8
:1022A0002066616C736540006C69676874207374A4
:1022B00061747573000000006C6967687420746F46
:1022C000756368656420747275654000F7A002F05C
:1022D000B5FB012026E7FBA1204602F0AFFD88B93F
:1022E000052001F02FF918B1062001F02BF920B9D3
:1022F000F8A002F0A3FB012014E7F9A002F09EFB76
:1023000001200FE7FAA1204602F098FD68B90120EC
:1023100001F018F920B9F9A002F090FB012001E7C3
:10232000F9A002F08BFB0120FCE6FAA1204602F0A6
:1023300085FD68B9022001F005F920B9F8A002F086
:102340007DFB0120EEE6F9A002F078FB0120E9E632
:10235000F9A1204602F072FD90B9072001F0F2F8D1
:10236000012808D1082001F0EDF820B9F6A002F00C
:1023700065FB0120D6E6F8A002F060FB0120D1E663
:10238000F9A1204602F05AFD90B9072001F0DAF8D1
:1023900048B9082001F0D6F8012804D1F6A002F0CF
:1023A0004DFB0120BEE6F8A002F048FB0120B9E693
:1023B000F9A1204602F042FD00BB0D2001F0C2F859
:1023C000012808D10E2001F0BDF820B9F7A002F0D5
:1023D00035FB0120A6E60D2001F0B4F848B90E2027
:1023E00001F0B0F8012804D1F5A002F027FB01208C
:1023F00098E6F7A002F022FB012093E6F9A120461F
:1024000002F01CFD00BB0F2001F09CF8012808D150
:10241000102001F097F820B9F7A002F00FFB01207F
:1024200080E60F2001F08EF848B9102001F08AF8FC
:10243000012804D1F5A002F001FB012072E6F7A00B
:1024400002F0FCFA01206DE6F9A1204602F0F6FC4C
:1024500000BB092001F076F840B90A2001F072F8BB
:1024600020B9F6A002F0EAFA01205BE6092001F0AB
:1024700069F8012809D10A2001F064F8012804D183
:10248000F1A002F0DBFA01204CE6F2A002F0D6FA4D
:10249000012047E6F3A1204602F0D0FC00BB0B2050
:1024A00001F050F8012809D10C2001F04BF8012867
:1024B00004D1EFA002F0C2FA012033E60B2001F0B4
:1024C00041F840B90C2001F03DF820B9EBA002F032
:1024D000B5FA012026E6ECA002F0B0FA012021E6D0
:1024E00000201FE670B5044606222146EAA002F04D
:1024F00032FCD0B9A079202817D1207A3038E17980
:10250000303901EB810100EB4100C5B2A07A3038CF
:10251000C0B20646002D07DD112D05DA31462846EA
:1025200001F043F9012070BD01E00020FBE700BF8E
:10253000F9E770B5054605222946D9A002F00BFC43
:1025400000283AD16879202837D1E8793038A9793C
:10255000303901EB810100EB4100C0B20446002C90
:102560002ADD112C28DA01F08EF8002C11DD092C5F
:102570000FDA601ECC49085C312804D12146CBA07B
:1025800002F05CFA03E02146CDA002F057FA0120E8
:1025900070BDC4F11001CF480078084100F001007F
:1025A00020B12146C1A002F049FA03E02146C4A0AF
:1025B00002F044FA0120EBE701E00020E8E700BF69
:1025C000E6E7F0B589B00646C3A1304602F036FC16
:1025D000002869D100240690079008900390049089
:1025E00005900027BFA002F029FA06A9C1A002F0B9
:1025F00025FA03A9C3A002F021FAFEF72BFA074639
:10260000C4480268C44803C89047C4484168C448E5
:1026100088470A20C3A10022CDE900210290BD48CD
:10262000A42301224568BC4803C8A847BB480B2324
:1026300042F27472BEA14569B948A8470A2006A9AA
:102640000022CDE900210290B248A423012285682E
:10265000B14803C8A847B1480B2342F2747203A9DA
:102660008568AF48A847AFA106A802F0E7FB18B9F4
:10267000B2A002F0E3F902E0B3A002F0DFF9ACA1EE
:1026800003A802F0DBFB18B9B2A002F0D7F902E010
:10269000B3A002F0D3F906A996A002F0CFF903A9DE
:1026A00098A002F0CBF97BE180E100006C696768DB
:1026B0007420746F75636865642066616C7365402F
:1026C0000000000072696768742073746174757328
:1026D00000000000726967687420747275654000BC
:1026E00072696768742066616C7365400000000061
:1026F0007030207374617475730000007030207442
:10270000727565400000000070302066616C736572
:102710004000000070342073746174757300000011
:1027200070342074727565400000000070342066BB
:10273000616C736540000000696E736964652073A5
:102740007461747573000000696E73696465207448
:102750007275654000000000696E736964652066EB
:10276000616C7365400000006F7574736964652067
:1027700073746174757300006F7574736964652098
:1027800074727565400000006F757473696465202C
:1027900066616C7365400000703220757073696407
:1027A00065207374617475730000000070322064DA
:1027B0006F776E7369646520747275654000000000
:1027C000703220757073696465207472756540009D
:1027D00070322073746174757320756E64656669F8
:1027E0006E65400070332075707369646520737482
:1027F0006174757300000000703320646F776E732E
:10280000696465207472756540000000703320753E
:10281000707369646520747275654000703320734D
:10282000746174757320756E646566696E654000C9
:102830007032207374617475730000007032206F01
:1028400070656E4000000000703220636C6F73652D
:1028500040000000703220756E646566696E6540E8
:102860000000000070332073746174757300000001
:10287000703320636C6F7365400000007033206F0D
:1028800070656E4000000000703320756E646566F0
:10289000696E6540000000006F757470757400000B
:1028A000696E7075740000007015002073656E739A
:1028B00065722564207475726E206F6E00000000D2
:1028C00073656E7365722564207475726E206F6611
:1028D0006600000098000020626F617264207465D9
:1028E00073740000206D6F64652E2E2E2E2E2E0D1B
:1028F0000A000000646174615F6969633D25730DBE
:102900000A000000646174615F666C6173683D2554
:10291000730D0A0094040020A40000204C00002045
:10292000B0000020323463303420746573740000CA
:10293000773235713332207465737400323463300A
:1029400034206F6B0D0A000032346330342065721E
:10295000720D0A00773235713332206F6B0D0A0029
:10296000773235713332206572720D0A0000000033
:10297000FEF770F8C51B002D01DB284600E0684219
:1029800064280DDD601C84B2FEF764F8074600F091
:102990007AFEAFF2500002F051F8F24800F0FEFF6C
:1029A000B4F5167FE4DB012009B0F0BD0020FBE7A1
:1029B000F8B504460A22ECA1204602F0CCF9E8B9A9
:1029C0000020009004F10A0600250A2269463046DC
:1029D00002F06AF9054600980078202809D145B12F
:1029E000112D06D2A8B20099491C01F029F9012045
:1029F000F8BDE0A002F022F80120F9E70A22DFA1E9
:102A0000204602F0A8F9D0B90020009004F10A068F
:102A100000250A226946304602F046F9054600982C
:102A2000007838B935B1112D04D2A8B201F035F9CA
:102A30000120DDE7CFA002F001F80120D8E7002057
:102A4000D6E77CB506460422CFA1304602F083F9D2
:102A500080BB00200190301D00900A2201A900983F
:102A600002F022F9C4B2019800785D281DD10198C6
:102A700040785B2819D1002C17DD102C15DC0020C4
:102A800000900A2269460198801C02F00DF9C5B237
:102A9000009800785D2808D10098407828B9294628
:102AA000204600F082FE01207CBDB2A001F0C6FFEE
:102AB0000120F9E7FFE70020F6E7F8B50546B4A1E5
:102AC000284602F0BBF918B900F0DDFD0120F8BD81
:102AD0000422B1A1284602F03EF9F0B9002000908E
:102AE0002E1D0A226946304602F0DEF8C4B2009874
:102AF00000785D2810D10098407868B9002C0BDD73
:102B0000102C09DC204600F01DFD07463946A4A024
:102B100001F094FF0120DAE701E00020D7E700BFD1
:102B2000D5E77FB5044600262078732816D1607853
:102B30006E2813D1A0783A2810D1032605E0A15DB4
:102B4000F01E0DF80010701CC6B2132EF7DB69469C
:102B5000202001F018F8012004B070BD214692A099
:102B600002F06CF920B9202000F0A4FF0120F3E767
:102B7000042221468DA002F0EEF818BB002509E0E2
:102B8000281D205C5D2803D10021281D215403E06D
:102B9000681CC5B2102DF3DB00BF002D0DDD102D1C
:102BA0000BDA281D205C40B9681D205C28B9211D66
:102BB000202000F0E8FF0120CEE76EA001F03EFFEC
:102BC0000120C9E70020C7E710B50446214679A0D7
:102BD00002F034F920B978A001F030FF012010BDD7
:102BE0000020FCE710B50446214675A002F026F946
:102BF00020B974A001F022FF012010BD0020FCE7E5
:102C00002DE9FC410446042270A1204602F0A3F8FD
:102C1000002836D10190201D009000250A2201A92C
:102C2000009802F041F8C5B2019800785D2827D1DC
:102C3000019840785B2823D1002D21DD0F2D1FDA6C
:102C40000020009069460198801C04F027F9064690
:102C500004F0E0F900F0FF08009800785D280FD13B
:102C60000098407860B900200099087005F11001C3
:102C7000C8B20199891C00F086FF0120BDE8FC81E3
:102C800000BF042251A1204602F065F800BB0020DD
:102C90000190261D00250A2201A9304602F004F801
:102CA00085B2019800785D280DD10198407850B91F
:102CB000002D08DD0F2D06DA05F1100188B200F0B5
:102CC000F9FE0120DAE72BA001F0B8FE0120D5E7DC
:102CD0000020D3E710B5AFF2943001F0AFFE3DA075
:102CE00001F0ACFE46A001F0A9FE50A001F0A6FE46
:102CF0005BA001F0A3FE67A001F0A0FE71A001F0AF
:102D00009DFE79A001F09AFE80A001F097FE88A0B8
:102D100001F094FE7CA001F091FE8EA001F08EFEE9
:102D200097A001F08BFEA2A001F088FEACA001F0FC
:102D300085FEB7A001F082FEBEA001F07FFEC6A016
:102D400001F07CFECDA001F079FED6A001F076FE68
:102D5000DDA001F073FEE6A001F070FEF4A001F02A
:102D60006DFE05E2701500207361766520696E6660
:102D70006F2000003C4E413E00000000726561641F
:102D800020696E666F2000006F75745B00000000A4
:102D9000696E707574730000696E745B00000000EA
:102DA0003C25643E0000000066736E0066736E5B37
:102DB00000000000687700003C342E303E00000028
:102DC000737700003C312E303E000000726F6D5B67
:102DD0000000000073772D2D2D2D2D2D2D2D2D2D47
:102DE0002D2D2D2D2D2D2D2D2D67657420736F66A6
:102DF00074776172652076657273696F6E0D0A0073
:102E000068772D2D2D2D2D2D2D2D2D2D2D2D2D2D6D
:102E10002D2D2D2D2D676574206861726477617288
:102E2000652076657273696F6E0D0A0066736E2D8C
:102E30002D2D2D2D2D2D2D2D2D2D2D2D2D2D2D2DC2
:102E40002D67657420666978747572652073657284
:102E500069616C206E756D6265720D0A000000007C
:102E600066736E5B2D2D2D2D2D2D2D2D2D2D2D2DA4
:102E70002D2D2D2D2D7365742066697874757265FE
:102E80002073657269616C206E756D6265720D0AE2
:102E900000000000736E3A78782D2D2D2D2D2D2DEC
:102EA0002D2D2D2D2D2D2D2D2D73657420746865E0
:102EB000206669787475726520534E206E756D6258
:102EC00065720A00726F6D5B5D2D2D2D2D2D2D2DE0
:102ED0002D2D2D2D2D2D2D2D2D72656164206461DC
:102EE0007461730D0A000000726F6D5B5D5B5D2D98
:102EF0002D2D2D2D2D2D2D2D2D2D2D2D2D77726937
:102F000074652064617461730D0A000073617665F5
:102F100020696E666F2078782079797979792D2DFE
:102F20002D77726974652064617461730D0A000005
:102F30007265616420696E666F2078782D2D2D2D65
:102F40002D2D2D2D2D726561642064617461730DCA
:102F50000A000000696E745B5D2D2D2D2D2D2D2D29
:102F60002D2D2D2D2D2D2D2D2D676574207468652B
:102F700020696E707574207374617475730D0A0026
:102F80006F75745B5D5B5D2D2D2D2D2D2D2D2D2DE4
:102F90002D2D2D2D2D73657420746865206F75742B
:102FA000707574207374617475730D0A00000000ED
:102FB000696E7075742078782D2D2D2D2D2D2D2D69
:102FC0002D2D2D2D2D6765742074686520696E7018
:102FD00075742070696E207374617475730D0A00C6
:102FE0006F757470757420787820792D2D2D2D2DA6
:102FF0002D2D2D2D2D73657420746865206F7574CB
:103000007075742070696E20746F20790D0A00004D
:1030100061697220696E2D2D2D2D2D2D2D2D2D2DBB
:103020002D2D2D2D2D63796C696E64657220696E6E
:103030000D0A0000616972206F75742D2D2D2D2DE4
:103040002D2D2D2D2D2D2D2D2D63796C696E646503
:1030500072206F75740D0A007032206F70656E2DCE
:103060002D2D2D2D2D2D2D2D2D2D2D2D2D70322055
:10307000636C6177206F70656E0D0A00703220639B
:103080006C6F736520202D2D2D2D2D2D2D2D2D2D8B
:103090002D703220636C617720636C6F73650D0A4D
:1030A000000000007033206F70656E20202D2D2DE4
:1030B0002D2D2D2D2D2D2D2D2D703320636C617711
:1030C000206F70656E0D0A00703320636C6F73653E
:1030D00020202D2D2D2D2D2D2D2D2D2D2D703320FE
:1030E000636C617720636C6F73650D0A00000000EC
:1030F000692064757420202D2D2D2D2D2D2D2D2D25
:103100002D2D2D2D2D73776974636820746F206DBC
:103110006561737572652064757420636861726798
:10312000696E672063757272656E740D0A00000027
:103130007220656120202D2D2D2D2D2D2D2D2D2D35
:103140002D2D2D2D2D73776974636820746F206D7C
:103150006561737572652065617270686F6E654137
:1031600020726573697374616E63650D0A000000F7
:103170005DA001F063FC6CA001F060FC79A001F09F
:103180005DFC874801F05AFC86A001F057FC92A034
:1031900001F054FC9EA001F051FCA3A001F04EFCF4
:1031A000A7A001F04BFCACA001F048FCB0A001F0DE
:1031B00045FCB5A001F042FCB9A001F03FFCBEA067
:1031C00001F03CFCC2A001F039FCC7A001F036FCC4
:1031D000CBA001F033FC10BD10B504462146D3A0AE
:1031E00001F02CFE18B9FFF775FD012010BD00207D
:1031F000FCE710B504462046FEF7B6FD2046FFF773
:10320000EBFF012800D110BD2046FFF7F9FC012893
:1032100000D1F8E72046FFF7E5FC012800D1F2E7EE
:103220002046FFF7D1FC012800D1ECE72046FFF74C
:1032300078FC012800D1E6E72046FFF73EFC012894
:1032400000D1E0E72046FFF7FCFB012800D1DAE7D8
:103250002046FFF7ADFB012800D1D4E72046FFF759
:10326000B0F9012800D1CEE72046FFF762F9012826
:1032700000D1C8E72046FFF735F9012800D1C2E7A1
:103280002046FEF73CFF012800D1BCE72046FEF7B0
:10329000AEFE012800D1B6E72046FEF774FD0128F6
:1032A00000D1B0E7AFF2345001F0C8FB0020AAE72C
:1032B00010B5A048008800F4004098B19D480478FB
:1032C00000209D490855084601F0ACFB9A4800785B
:1032D00010B19948FFF78DFF98A001F0AFFB0020D7
:1032E0009449088010BD00007220656220202D2DB9
:1032F0002D2D2D2D2D2D2D2D2D2D2D2D2D73776932
:1033000074636820746F206D6561737572652065E4
:10331000617270686F6E6542207265736973746163
:103320006E63650D0A0000006920656120202D2D67
:103330002D2D2D2D2D2D2D2D2D2D2D2D2D737769F1
:1033400074636820746F206D6561737572652065A4
:10335000617270686F6E65412063757272656E741C
:103360000D0A00006920656220202D2D2D2D2D2DA8
:103370002D2D2D2D2D2D2D2D2D7377697463682006
:10338000746F206D65617375726520656172706818
:103390006F6E65422063757272656E740D0A00006F
:1033A000D0730008706F776572206F6E20202D2D0E
:1033B0002D2D2D2D2D2D2D2D2D64757420636F6ECB
:1033C0006E65637420746F20706F776572207375FB
:1033D00070706C790D0A0000706F776572206F66EF
:1033E0006620202D2D2D2D2D2D2D2D2D2D64757428
:1033F00020646973636F6E6E65637420746F2070F0
:103400006F77657220737570706C790D0A0000001B
:103410006C6566742073746174757320202D2D2D76
:103420002D2D2D2D2D0D0A0072696768742073747F
:103430006174757320202D2D2D2D2D2D2D0D0A003D
:103440006C696768742073746174757320202D2D06
:103450002D2D2D2D2D0D0A0070302F342073746109
:1034600074757320202D2D2D2D2D2D2D2D0D0A0041
:10347000696E73696465207374617475732D2D2D85
:103480002D2D2D2D2D0D0A006F7574736964652027
:1034900073746174757320202D2D2D2D2D0D0A0050
:1034A00070322073746174757320202D2D2D2D2D95
:1034B0002D2D2D2D2D0D0A0070322075707369642D
:1034C00065207374617475732D2D2D2D2D0D0A00DB
:1034D0007033207374617475732D2D2D2D2D2D2D4A
:1034E0002D2D2D2D2D0D0A007033207570736964FC
:1034F00065207374617475732D2D2D2D2D0D0A00AB
:10350000506C656173652073656E6420636F6D6DCB
:10351000616E642061732061626F766520656E6400
:103520002077697468205C725C6E0A0068656C7054
:103530000000000080000020A81400200D0A3E3E7C
:103540000000000010B50446F748007828BB0120B1
:10355000F54908704821F54800F032FE4821F4484A
:1035600000F02EFE4821F34800F02AFE4821F248E0
:1035700000F026FE4821F14800F022FE4821F048E4
:1035800000F01EFE4821EF4800F01AFE4821EE48E8
:1035900000F016FEED4948698047112C50D2DFE853
:1035A00004F04F0910171E252C333A41424344457D
:1035B00046474800DD4800F06EFE611EE44A505464
:1035C00040E0DB4800F067FE611EE14A505439E0FC
:1035D000D84800F060FE611EDD4A505432E0D64803
:1035E00000F059FE611EDA4A50542BE0D34800F037
:1035F00052FE611ED64A505424E0D14800F04BFEE2
:10360000611ED34A50541DE0CE4800F044FE611EB6
:10361000CF4A505416E0CC4800F03DFE611ECC4A23
:1036200050540FE000BF00BF00BF00BF00BF00BF8D
:1036300000BFC648002201218369C648984701E0BF
:10364000002010BD00BF002C0BDD092C09DA601E24
:10365000BF4A115CC0A001F0F1F9601EBC49085CD2
:10366000EFE7C4F11002BB480078104100F00101FF
:10367000B9A001F0E3F9C4F11001B648007808419F
:1036800000F00100DDE710B5A748007828BB012055
:10369000A54908704821A54800F092FD4821A4489A
:1036A00000F08EFD4821A34800F08AFD4821A24881
:1036B00000F086FD4821A14800F082FD4821A04885
:1036C00000F07EFD48219F4800F07AFD48219E4889
:1036D00000F076FD9D4948698047944800F0DBFD85
:1036E00008B1312000E0302099490870904800F07E
:1036F000D2FD08B1312000E03020954948708D4856
:1037000000F0C9FD08B1312000E0302090498870F8
:10371000894800F0C0FD08B1312000E030208C491C
:10372000C870864800F0B7FD08B1312000E03020B5
:1037300087490871824800F0AEFD08B1312000E0F1
:103740003020834948717F4800F0A5FD08B1312041
:1037500000E030207E4988717B4800F09CFD08B174
:10376000312000E030207A49C871784800220121D8
:10377000836978489847002410E0C4F10701754830
:103780000078084100F0010008B1312100E030214B
:103790006F4A04F108001154601CC4B2082CECDB21
:1037A0006B496FA001F04AF910BD70B504460D4693
:1037B0006D48007828BB01206B4908706B49086987
:1037C000804710216A4800F0FBFC1021694800F096
:1037D000F7FC1021684800F0F3FC1021674800F066
:1037E000EFFC1021664800F0EBFC1021654800F06A
:1037F000E7FC1021644800F0E3FC1021634800F06E
:10380000DFFC192C73D2DFE804F08C0D12171C2199
:10381000262B3035363738393A3B3C606162636479
:10382000656667002946524800F02CFDB0E0294645
:10383000504800F027FDABE029464F4800F022FD3C
:10384000A6E029464D4800F01DFDA1E029464C4860
:1038500000F018FD9CE029464A4800F013FD97E06F
:103860002946494800F00EFD92E02946474800F0FD
:1038700009FD8DE000BF00BF00BF00BF00BF00BF5B
:1038800000BF4DB139484078C4F110028021114188
:103890000843364948700FE0C4F110017F20084109
:1038A000C4F11001C1F108027F21914008432F4962
:1038B000497808402D4948702C480122022143696B
:1038C00098472A498869804762E000BF00BF00BF6F
:1038D00000BF00BF00BF00BF55B924480078C4F145
:1038E00018028021114108432049087010E018E0B7
:1038F000C4F118017F200841C4F11801C1F1080288
:103900007F219140084319490978084017490870F8
:103910001648012202214369984714498869804763
:1039200036E0002070BD0000990000201403002044
:103930001C030020240300202C030020340300205B
:103940003C030020440300204C030020140000200E
:1039500070150020980000203C25643E0000000007
:103960003C252E3136733E009A00002030000020A6
:10397000EC010020E40100207C02002084020020F1
:103980008C020020140200201C02002024020020CF
:1039900000BFDCA001F052F8012070BD70B50446F4
:1039A000DA48007828BB0120D8490870D84908694E
:1039B00080471021D74800F003FC1021D64800F0C2
:1039C000FFFB1021D54800F0FBFB1021D44800F08C
:1039D000F7FB1021D34800F0F3FB1021D24800F090
:1039E000EFFB1021D14800F0EBFB1021D04800F094
:1039F000E7FB204601F090F9102857D120783038A5
:103A0000C1B2C44800F03EFC60783038C1B2C24850
:103A100000F038FCA0783038C1B2C04800F032FC69
:103A2000E0783038C1B2BE4800F02CFC2079303844
:103A3000C1B2BC4800F026FC60793038C1B2BA4847
:103A400000F020FCA0793038C1B2B84800F01AFC70
:103A5000E0793038C1B2B64800F014FC002522E00D
:103A600005F10800205C312809D1A9480078C5F18A
:103A70000702802111410843A549087008E0A448C5
:103A80000078C5F107027F2111410840A049087064
:103A90009F4801221146436998479D49886980479C
:103AA000681CC0B20546082DDADB01E0002070BDBD
:103AB00000BFFCE770B588B00446002504E0002094
:103AC00003A94855681CC5B2112DF8DB9948007848
:103AD00038B901209749087097480268974803C889
:103AE0009047002C16DD112C14DA102103AA601E59
:103AF0004FF6FF7303EA0010CDE9012100908E48D4
:103B0000A423012286688D4803C8B047E0B1012094
:103B100008B070BD212C15DA002C13DD102103AA8A
:103B2000601E4FF6FF7303EA0010CDE901210090FB
:103B30008148A62301228668804803C8B04718B18F
:103B40000120E5E70120E3E7002508E003A8405D48
:103B50007F2802DD002003A94855681CC5B2102D3E
:103B6000F4DB00208DF81C00002C06DD112C04DA9B
:103B700003A973A000F062FF03E003A971A000F0A5
:103B80005DFF0020C4E7FEB504460D466948007895
:103B900038B901206749087067480268674803C858
:103BA0009047284601F0B8F8C6B2112E39DA002E37
:103BB00037DD102E01D00020A855002C18DD112C67
:103BC00016DA1021601E4FF6FF7202EA0010CDE9EE
:103BD000015100905848A42301224768574803C860
:103BE000B84708B10120FEBD0520FCF77DFF1AE0B3
:103BF000212C14DA002C12DD1021601E4FF6FF720A
:103C000002EA0010CDE9015100904B48A6230122A1
:103C100047684A4803C8B84728B10120E3E70120B4
:103C2000E1E70120DFE7002C05DD112C03DA47A0D6
:103C300000F004FF02E033A000F000FF0020D2E714
:103C40002DE9F04104460E464248007830B9012083
:103C5000404908704048416840488847304601F074
:103C60005BF8C5B2002C16DD42F21170844212DA04
:103C7000652D10DAFA2D01DA00207055601E6421DE
:103C800000FB01F234480B46314647693348B847D8
:103C90002EA000F0D3FEBDE8F08170B59AB00546C5
:103CA0006821684601F0A2F82A48007830B901205E
:103CB000284908702A48016828488847002D1EDDD9
:103CC00042F2117085421ADA681E642100FB01F28B
:103CD00021480B46694686682048B047002408E022
:103CE0001DF804007F2802DD00200DF80400601C90
:103CF000C4B2652CF4DB694611A000F09FFE1AB037
:103D000070BD00003C4F4B3E000000009A000020B8
:103D100030000020EC010020E40100207C020020A3
:103D2000840200208C020020140200201C020020CB
:103D300024020020AC00002094040020A4000020F5
:103D4000202573003C25733E00000000203C4F4BB3
:103D50003E000000C00000204C000020B000002009
:103D6000A004002038B50446FE4800788DF8000015
:103D700000208DF8010020788DF80200607A8DF81F
:103D800003006846FDF7B1FD38BD1CB50446482167
:103D9000606800F015FA01210846FDF77DFF6068B4
:103DA0008079001106281CD2DFE800F003070B0F12
:103DB00013170020EC49087013E00120EA4908704D
:103DC0000FE00220E84908700BE00320E649087084
:103DD00007E00420E449087003E00520E249087088
:103DE00000BF00BF6068807900F00F00102815D276
:103DF000DFE800F00815222F3C495663707D8B994F
:103E0000A7B5C3D10020D94908700120D84908605E
:103E10000620D4490870D749E0680860C9E001204D
:103E2000D24908700220D24908600720CD490870A5
:103E3000D149E0680860BCE00220CC490870042049
:103E4000CB4908600820C7490870CC49E068086081
:103E5000AFE00320C54908700820C5490860092063
:103E6000C0490870C649E0680860A2E00420BF4964
:103E700008701020BE4908600A20BA490870C1497C
:103E8000E068086095E00520B84908702020B8492E
:103E900008601720B3490870BB49E068086088E0F3
:103EA0000620B24908704020B14908601720AD498A
:103EB0000870B649E06808607BE00720AB490870ED
:103EC0008020AB4908601720A6490870B049E06817
:103ED00008606EE00820A54908704001A449086008
:103EE0001720A0490870AB49E068086061E009202C
:103EF0009E4908704FF400709D4908601720994949
:103F00000870A549E068086053E00A2097490870E6
:103F10004FF48060964908602820924908709F49B4
:103F2000E068086045E00B20904908704FF400609D
:103F30008F49086028208B4908709949E06808601B
:103F400037E00C20894908704FF480508849086098
:103F50002820844908709349E068086029E00D2012
:103F6000824908704FF400508149086028207D493B
:103F700008708D49E06808601BE00E207B490870DE
:103F80004FF480407A4908602820764908708749B4
:103F9000E06808600DE00F20744908704FF400409D
:103FA0007349086028206F4908708149E0680860FB
:103FB00000BF00BF6D4801786B480078FDF7CEF870
:103FC0006B480068009000208DF80400207A8DF87E
:103FD000050001208DF806006846FCF7C9FE204662
:103FE000FFF7C0FE1CBD10B50120FCF727FF28B16C
:103FF0006048006880470120FCF731FF10BD10B514
:104000000220FCF71BFF28B15B48006880470220B4
:10401000FCF725FF10BD10B50420FCF70FFF28B1F9
:104020005648006880470420FCF719FF10BD10B502
:104030000820FCF703FF28B151480068804708209A
:10404000FCF70DFF10BD10B51020FCF7F7FE28B1EE
:104050004C48006880471020FCF701FF10BD10B5E8
:104060002020FCF7EBFE28B147480068804720205D
:10407000FCF7F5FE4020FCF7E1FE28B1434800685C
:1040800080474020FCF7EBFE8020FCF7D7FE28B1EC
:104090003F48006880478020FCF7E1FE4FF48070C5
:1040A000FCF7CCFE48B13B4800688047414800F02F
:1040B000FCF84FF48070FCF7D2FE4FF40070FCF770
:1040C000BDFE30B13448006880474FF40070FCF703
:1040D000C6FE10BD10B54FF48060FCF7AFFE30B1E6
:1040E0002E48006880474FF48060FCF7B8FE4FF41C
:1040F0000060FCF7A3FE30B12948006880474FF408
:104100000060FCF7ACFE4FF48050FCF797FE30B136
:104110002448006880474FF48050FCF7A0FE4FF41D
:104120000050FCF78BFE30B11F48006880474FF409
:104130000050FCF794FE4FF48040FCF77FFE30B156
:104140001A48006880474FF48040FCF788FE4FF41F
:104150000040FCF773FE78B31548006880474FF4C1
:1041600000402AE0CC000020C4000020C500002050
:10417000C8000020D4000020D8000020DC0000206F
:10418000E0000020E4000020E8000020EC00002017
:10419000F0000020F4000020F8000020FC000020C7
:1041A0000001002004010020080100200C01002073
:1041B000100100204403002001E0FCF750FE10BD78
:1041C00038B504460D463C4A2068811A904223D0F7
:1041D00009DC3A49084480B1B0F5806F12D0B0F5DF
:1041E000006F2DD113E0B1F5806F1AD0B1F5006FDB
:1041F0001CD0B1F5406F23D11DE001210420FDF753
:104200004BFD1DE001210820FDF746FD18E00121CE
:104210001020FDF741FD13E001212020FDF73CFDBA
:104220000EE001214020FDF737FD09E0012180204B
:10423000FDF732FD04E001210802FDF72DFD00BF6E
:1042400000BF182D02D01C2D05D100BF012108464A
:10425000FDF722FD00E000BF00BF8DF80350A088ED
:10426000ADF8000003208DF8020069462068FCF7D5
:104270005FFE38BD818802681161704781880268DD
:104280005161704719B9828803685A6102E08288D7
:1042900003681A6170470146086880688A88104080
:1042A00008B1012070470020FCE70168C9688288D6
:1042B00051400268D16070470014014000F8FEBF11
:1042C00013B510210198FFF77BFF10210098FFF72D
:1042D00077FF1CBD13B510210198FFF771FF0198FE
:1042E000FFF7C8FF0098FFF7C5FF0420FCF7DDFBD0
:1042F0000198FFF7C3FF0420FCF7D7FB0098FFF7F6
:10430000BDFF1CBD13B510210198FFF759FF01989F
:10431000FFF7B4FF0120FCF7C8FB0098FFF7AAFFE6
:104320000420FCF7C2FB0198FFF7A4FF0420FCF770
:10433000BCFB1CBD13B5002448210198FFF740FFCA
:104340000120FCF7B2FB0098FFF794FF0120FCF777
:10435000ACFB09E0601CC4B2FA2C05DDDDE900010C
:10436000FFF7D0FF01201CBD0198FFF794FF002844
:10437000F0D10098FFF782FF0120FCF796FB0020A8
:10438000F1E713B50098FFF779FF10210198FFF7C7
:1043900017FF0198FFF772FF0220FCF786FB0098D9
:1043A000FFF768FF0220FCF780FB0098FFF766FF2D
:1043B0000220FCF77AFB1CBD13B50098FFF75EFFE7
:1043C00010210198FFF7FCFE0198FFF753FF022030
:1043D000FCF76BFB0098FFF74DFF0220FCF765FB35
:1043E0000098FFF74BFF0120FCF75FFB1CBD37B5C2
:1043F000144610210198FFF7E3FE0098FFF73EFFF7
:104400000120FCF752FB002516E0E1090198FFF7B7
:1044100039FF6006040E0120FCF747FB0098FFF708
:1044200029FF0220FCF741FB0098FFF727FF01203E
:10443000FCF73BFB681CC5B2082DE6DB3EBDF7B5BB
:1044400015460826002448210198FFF7B9FE0026EA
:1044500015E00220FCF729FB0098FFF70BFF600630
:10446000040E0198FFF717FF08B1601CC4B20220C8
:10447000FCF71BFB0098FFF701FF701CC6B2082E6B
:10448000E7DB25B9DDE90001FFF796FF03E0DDE991
:104490000001FFF776FF2046FEBD2DE9FF471746D6
:1044A0001D46DDE90D890C9CDDE90001FFF712FFD7
:1044B00037B1012F14D0022F33D0032F73D15DE019
:1044C00005F0FE02DDE90001FFF791FFDDE90001E3
:1044D000FFF730FF18B1012004B0BDE8F08700BF3E
:1044E00005F0FE02DDE90001FFF781FFDDE90001D3
:1044F000FFF720FF08B10120EEE72646E01704EBA6
:1045000010600012A4EB0020C2B2DDE90001FFF749
:104510006EFFDDE90001FFF70DFF08B10220DBE7C8
:1045200057E005F0FE02DDE90001FFF760FFDDE97D
:104530000001FFF7FFFE08B10120CDE72212DDE9FF
:104540000001FFF754FFDDE90001FFF7F3FE08B1BA
:104550000220C1E72646E01704EB10600012A4EB2E
:104560000020C2B2DDE90001FFF741FFDDE90001F3
:10457000FFF7E0FE08B10220AEE72AE02646E0178A
:1045800004EB10600012FE2101EB400000EA05027E
:10459000DDE90001FFF72BFFDDE90001FFF7CAFEAF
:1045A00010B1012098E713E02646E01704EB1060F5
:1045B0000012A4EB0020C2B2DDE90001FFF717FFF3
:1045C000DDE90001FFF7B6FE08B1022084E700E054
:1045D00000BF00BF0CE018F8012BDDE90001FFF778
:1045E00006FFDDE90001FFF7A5FE08B1032073E730
:1045F000B9F10000A9F101011FFA81F9EBD1DDE960
:104600000001FFF77FFE002066E72DE9FF47904697
:104610001D46DDE90D690C9CB8F1000F09D0B8F119
:10462000010F07D0B8F1020F2BD0B8F1030F72D1F0
:1046300058E000BFDDE90001FFF74CFE05F0FE0287
:10464000DDE90001FFF7D3FEDDE90001FFF772FEAF
:1046500018B1012004B0BDE8F0872746E01704EB4D
:1046600010600012A4EB0020C2B2DDE90001FFF7E8
:10467000BEFEDDE90001FFF75DFE08B10220E9E7BB
:104680005FE0DDE90001FFF725FE05F0FE02DDE950
:104690000001FFF7ACFEDDE90001FFF74BFE08B1BA
:1046A0000120D7E72212DDE90001FFF7A0FEDDE9D6
:1046B0000001FFF73FFE08B10220CBE72746E017D5
:1046C00004EB10600012A4EB0020C2B2DDE900018F
:1046D000FFF78DFEDDE90001FFF72CFE08B1022097
:1046E000B8E72EE0DDE90001FFF7F4FD2746E0170B
:1046F00004EB10600012FE2101EB400000EA05020D
:10470000DDE90001FFF773FEDDE90001FFF712FEAE
:1047100010B101209EE713E02746E01704EB10607C
:104720000012A4EB0020C2B2DDE90001FFF75FFE3A
:10473000DDE90001FFF7FEFD08B102208AE700E095
:1047400000BF00BFDDE90001FFF7C4FD45F0010235
:10475000DDE90001FFF74BFEDDE90001FFF7EAFDAF
:1047600008B1032076E70AE0A9F101001FFA80F9F9
:104770000122DDE90001FFF762FE06F8010BB9F145
:10478000010FF1D10022DDE90001FFF758FE06F824
:10479000010BDDE90001FFF7B5FD00205AE700003D
:1047A00010B586B00446944960680844B0B1B0F5CD
:1047B000806F24D0B0F5784F32D101210803FDF786
:1047C0006BFA18218D48FFF7FBFC18218C48FFF786
:1047D000F7FC18218B48FFF7F3FC22E00121880346
:1047E000FDF767FA18218848FFF7EAFC1821874887
:1047F000FFF7E6FC18218648FFF7E2FC11E00121F3
:10480000C803FDF756FA18218248FFF7D9FC182192
:104810008148FFF7D5FC18218048FFF7D1FC00E064
:1048200000BF00BF10212068FFF7CAFC2068FFF717
:1048300021FD6068FCF7CAFC0020ADF804004FF4CD
:104840008270ADF806000020ADF808004FF400704B
:10485000ADF80E000720ADF81400207A022805D12B
:104860000020ADF80A00ADF80C001BE0207A30B94A
:104870000020ADF80A000120ADF80C0012E0207A0B
:10488000032806D10220ADF80A000020ADF80C0084
:1048900008E0207A012805D10220ADF80A000120A5
:1048A000ADF80C006089ADF81000A089ADF81200D9
:1048B00001A96068FCF7B0FC01216068FCF751FDBC
:1048C00006B010BD08B500BF4268128902F00202AE
:1048D000002AF9D04268918100BF4268128902F033
:1048E0000102002AF9D042689289D2B2009208BD32
:1048F00018B515E000BF43681B8903F00203002BC5
:10490000F9D011F8013B4468A38100BF43681B89BB
:1049100003F00103002BF9D043689B89DBB20093BD
:10492000131EA2F10104A2B2E4D118BD014600BFDA
:104930004868008900F002000028F9D0FF204A688A
:10494000908100BF4868008900F001000028F9D07C
:104950004868808940B2704710B514E000BF4368D2
:104960001B8903F00203002BF9D0FF234468A381C5
:1049700000BF43681B8903F00103002BF9D0436893
:104980009B8901F8013B131EA2F10104A2B2E5D1FB
:1049900010BD2DE9F04104460F461646002520685B
:1049A000FFF76CFC06E0681CC5B2C82D02DD0020D4
:1049B000BDE8F08102216068FCF757FD0028F2D0C5
:1049C00039466068FCF7FEFC002505E0681CC5B2AE
:1049D000C82D01DD0020EBE701216068FCF745FDF3
:1049E0000028F3D06068FCF7EFFCC5B216B1206870
:1049F000FFF740FC2846DBE700C8FFBF3C01002072
:104A00004C01002044010020FC0100200C02002089
:104A100004020020AC010020BC010020B4010020F1
:104A2000704700000FB4044910B503AA029800F0C3
:104A30001DFB10BC5DF814FB7C0000200FB4044982
:104A400010B503AA029800F011FB10BC5DF814FB2E
:104A50007C00002070B50C460546012A05D0287858
:104A6000800600D5EA69002302E0012305E05B1C13
:104A7000934202D2E05C0028F9D1A869E618C01A76
:104A8000A861286A18442862284600F032FA04E037
:104A9000D5E9012114F8010B9047B442F8D3284618
:104AA00000F03DFA70BD00002DE9F04106460024FB
:104AB00010687529314616A510D000F041FA00287B
:104AC00002DA404213A507E031688A0701D512A532
:104AD00002E0490704D511A5012401E000F039FAEC
:104AE00000210A2206F1240709E0B0FBF2FCB0FB2A
:104AF000F2F302FB1C00303078541846491C0028A1
:104B0000F3D123462A463046BDE8F04100F02ABAE8
:104B1000000000002D0000002B000000200000001D
:104B20002DE9F05F894604464FF0000ADFF874B1C2
:104B3000FB44C0F820A02046E1688847002874D0D4
:104B4000252806D0D4E901219047206A401C206224
:104B5000F1E700265F462046E168884720280546A1
:104B600007DB312D05D2781910F8200C08B1064367
:104B7000F1E7B00701D526F00406C4F81CA0002711
:104B8000C4F818A02A2D09D0284602F01AF938B323
:104B900004EB8708303DC8F8185019E059F8041B99
:104BA000204604EB87029161E1688847012F0546A2
:104BB00018D1E069002820DA26F020061DE0D8F898
:104BC000180000EB800005EB40003038C8F81800F2
:104BD0002046E1688847054602F0F3F80028EED148
:104BE000012F0AD02E2D08D12046E16888477F1C6E
:104BF0000546022F46F02006C4DBA069002803DA30
:104C0000404246F00106A061F00701D026F01006F0
:104C10006C2D0BD0682D09D04C2D39D06A2D35D094
:104C2000742D35D07A2D33D016E038E0E1682F4668
:104C300020468847B842054609D16C2F26D04FF44C
:104C40008060E168064320468847054604E06C2FF3
:104C50001AD04FF4807006430DB3A5F14100192816
:104C600002D8203546F400664A462946204626608A
:104C70004E46FBF7B7FA80B101280BD0F61D26F09F
:104C8000070000F1080956E74020E4E78020D8E754
:104C90000020D6E706F104094DE7284652E7206ACE
:104CA000BDE8F09FC62700002DE9F04791460F466A
:104CB00080460446002614F8015B2DB100F002F98D
:104CC0000068405DC007F6D12B2D02D02D2D18D0E5
:104CD000641E4A463946204600F0F8FA27B1396882
:104CE000A14201D1C7F800804FF0020471050BD535
:104CF0004042002803DD00F0EDF80460A007BDE8A5
:104D0000F08746F48066E4E70028F8DA00F0E2F87D
:104D100004606FF00040F2E710B5431C02E010F8A9
:104D2000011B71B18107FAD14FF0013202C88C1A10
:104D30008C4314EAC211F9D0C01A0A0603D0C01E6F
:104D400010BDC01A10BD0A0401D0801E10BD09029A
:104D5000FCD0401E10BD40EA010370B59B072ED168
:104D60004FF00136042A2AD308C810C99D1B9D4361
:104D7000121F15EAC61517D0D8B2E1B2401A50EA90
:104D8000056110D198B2A1B2401A50EA05410AD18A
:104D900023F07F4024F07F41401A50EA052102D1E0
:104DA000180EA0EB146070BDA342DBD018BA21BA74
:104DB000884201D9012070BD4FF0FF3070BD0AB9A3
:104DC000002070BD10F8013B11F8014B63B1A34204
:104DD0000AD1521E08D010F8013B11F8014B1BB14B
:104DE000A34201D1521EEDD1181B70BD4FF000023D
:104DF00000B5134694469646203922BFA0E80C50D1
:104E0000A0E80C50B1F12001BFF4F7AF090728BFAB
:104E1000A0E80C5048BF0CC05DF804EB890028BF27
:104E200040F8042B08BF704748BF20F8022B11F050
:104E3000804F18BF00F8012B704700004FF0013C75
:104E400050F8042B51F8043B9A4221D1A2EB0C03F9
:104E5000934313EACC1317D150F8042B51F8043BB9
:104E60009A4215D1A2EB0C03934313EACC130BD156
:104E700050F8042B51F8043B9A4209D1A2EB0C03E1
:104E8000934313EACC13DBD04FF00000704700BF10
:104E9000D01A01BAB1FA81F101F0180122FA01F039
:104EA000CB40C1F12001DBB2C0B2C01A2CFA01F331
:104EB000D11A914311EAC311E6D170477047704788
:104EC0007047704710B500F0A7FA001D10BD00BF75
:104ED000E91F0000004870478015002010B5FFF75B
:104EE000F9FF006810BD10B50446FFF7F3FF04603A
:104EF00010BD70B5044685690068C10601D530262D
:104F000000E02026C00707D070BDD4E9012130465B
:104F10009047206A401C20626D1EF6D570BD70B5AA
:104F2000044685690078C00707D170BDD4E9012126
:104F300020209047206A401C20626D1EF6D570BD6F
:104F400009684A0501D540B27047C905FCD500B2D1
:104F5000704709684A0501D5C0B27047C905FCD53C
:104F600080B270472DE9F0470D46994692460446B7
:104F700000F124080168880604D5E06921F01001D9
:104F8000216000E00120A84201DD471B00E000276E
:104F9000A1697A1902EB0900081AA0612078C006FD
:104FA00002D42046FFF7A5FF002608E0D4E901213E
:104FB0001AF806009047206A401C761C20624E4575
:104FC000F4DB2078C0060AD52046FFF792FF06E002
:104FD000D4E9012130209047206A401C2062381E0D
:104FE000A7F10107F4DC07E0D4E9012118F8050076
:104FF0009047206A401C2062281EA5F10105F3DCC1
:105000002046FFF78CFF2078000602D50220BDE87D
:10501000F0870120FBE711680268006A530501D59B
:1050200008700AE0D30501D5088006E0130603D511
:10503000C217C1E9000200E008600120704710B506
:10504000436913B1AFF3008001E0FFF703FD0120D6
:1050500010BD127800F124010A7000224A7001226A
:10506000EDE711684FF0FF32E9E70000074B70B53C
:105070000D467B4400F035FC0446284600F088FCD1
:1050800010B14FF0FF3070BD204670BD65BBFFFF13
:105090002DE9FF5F15468A460446DFF8AC80F844E8
:1050A0000027D8E900103E46CDE9001010E03AF89C
:1050B00016106A4602A800F06FFC411C07D0217848
:1050C000890603D5E269391891420DD80744761C48
:1050D0002078800602D5E069B84205DDAE42E6DB05
:1050E0003AF816000028E2D1A069C01BA061204652
:1050F000FFF7FFFED8E90010CDE90010002017E00F
:105100003AF818106A4602A800F046FCB0F1FF3FDA
:1051100081460BD000250DF1080B05E0D4E90121F3
:105120001BF8050090476D1C4D45F7D308F10100B1
:10513000B0428046E4DB206A384420622046FFF714
:10514000EEFEBDE8FF9F00006A2200002DE9F0415D
:105150008046D21D22F007020025D2E90002F5297F
:1051600015A614D0011E72F1000106DA0023D0EB5F
:10517000030063EB020211A608E0D8F800108B07C9
:1051800001D50FA602E0490701D50EA6012511465B
:10519000002408F1240704E000F042F930323A55C7
:1051A000641C50EA0102F7D12B46324621464046A4
:1051B000BDE8F041FFF7D6BE000000002D00000062
:1051C0002B0000002000000030B4002100F1240476
:1051D00008E002F00705D208303542EA4372DB08E6
:1051E0006554491C52EA0305F3D10468002310A258
:1051F000250707D5A40600D421B1C46901230DA257
:10520000641EC46130BCFFF7ADBE10B50446214634
:105210001068FFF79EFE02462046BDE810400023BE
:10522000D2E7D21D22F00701D1E90023CCE700002C
:105230000000000030000000F0B40D4601880905B0
:1052400002D5214C7C4402E01F4C7C440E340021EA
:1052500000F1240608E002F00F071209E75D42EAB8
:1052600003721B097754491C52EA0307F3D10278F1
:105270000023120704D5702D06D009B10223113482
:105280002246F0BCFFF76EBE01231034F8E770B57C
:1052900004460D4621461068FFF75BFE024629468C
:1052A0002046BDE870400023C6E7D21D22F0070368
:1052B000D3E90023C0E70368126843F020030360CA
:1052C0000823C3610023B7E7CC2000002DE9F05F7D
:1052D000824615468B4600270AF10104B94600783C
:1052E000302801D09DB113E014F8010B0127782874
:1052F00003D0582801D045B10AE00DB1102D07D1D7
:10530000002714F8010B102502E0082500E00A250B
:105310000026B0460EE005FB080005FB06F101275C
:105320001FFA80F801EB1046B6F5803F00D3B9466E
:1053300014F8010B294600F0FDFA0028EBDABBF166
:10534000000F05D00FB1641E00E05446CBF80040BA
:10535000B9F1000F06D0FFF7BDFD02210160C81EA4
:10536000BDE8F09F48EA0640FAE700000FB40023CA
:1053700000B589B00CA900910B99CB60214B7B44FF
:105380000693214B7B44079304236FF00042CDE941
:1053900001321E4A7A446B4608920246002001F010
:1053A0008EFF09B05DF814FB70B506464FF0FF3074
:1053B00015460C46324686B00091CDE9010169469A
:1053C0000020049004A8FFF7D1FF0246049821189A
:1053D00025B108B1084600E020462860049800285E
:1053E0000DD0002A02DD0098884208D03246081B02
:1053F00069460094CDE9010404A8FFF7B7FF06B0A1
:1054000070BD0000CF050000E7050000130100009B
:10541000004870478015002000487047A015002004
:1054200030B5B0F10A024FEA900E71F100034EEA76
:10543000817EB0EB0E0061EB91014FEA101E4EEA47
:10544000017E10EB0E0041EB11114FEA102E4EEAD7
:10545000016E10EB0E0041EB11214FEA104E4EEAA7
:10546000014E10EB0E0041EB1141401841F10001DB
:105470004FEAD00040EA41704FEAD10110EB8005BD
:105480004FEA810444EA907444EB01046D1944EB43
:105490000404521BA3414FF0000348BF0A3200D559
:1054A00030BD401C41F1000130BD10B50446FFF78E
:1054B00009FD0068005D00F0010010BD70472DE996
:1054C000FF4F0C461E464FF0FF378BB0D2E900016C
:1054D000DDF860800A908A46C1F30A5505B93D4659
:1054E000002108464FF00000BAF1000F00F4400020
:1054F00005DA00EB80004FF4400101EA50004FEA6A
:105500009059B9F1010F00DDB9460A9850EA4A00F6
:105510000ED044F61050A5F2FF3545432F14B8F1D4
:10552000000F1ED07542291E1EDDC9F100021CE0CD
:10553000B8F1010F4FF0000001D0302103E0F24339
:1055400005E02154401CB042FBDB30460022002124
:1055500021540B99C1F80880C1E900200FB0BDE8C3
:10556000F08FBD1B6D1CDEE74A4600DA694206A8D3
:1055700000F0EAFC06AB93E8070003AB83E8070002
:1055800050460A9900F095FF8DE80700A0F50050FD
:105590001F3800900398002D09DD42F21F014A4692
:1055A000084403A90390684601F01FFA08E0A0F53B
:1055B00000504A461F3803A90390684601F03DFA9F
:1055C0008DE807000004000C03D04FF0FF304108C5
:1055D00000E01046B8F1000F03D0002200921546FB
:1055E0001EE0751E05D4FFF71BFF303262556D1E9D
:1055F000F9D5B3460122084302D000227F1C04E003
:105600002078302801D100227F1E002A099786D0F9
:105610001DE0112D07DAFFF703FF303262556D1CD4
:1056200050EA0102F5D1084302D00098C8B10EE05B
:105630000021681E05E0235C625C63542254401E16
:10564000491C8142F7DBAB46A81B401E0990002095
:1056500004F80B000B98099AC0F80880C0E9002BE9
:105660007CE711264FF0000859E72DE9F04F8846F6
:105670000446D21D22F0070191B0D1E90001CDE925
:105680000A0101F024FB02460B98C00F01D02D2027
:1056900007E02068810701D52B2002E0202101EAE4
:1056A000C000032A099001D0072A05DB03464146C2
:1056B000204600F0B7F90BE12078800601D5E069BB
:1056C00000E00620B8F1650F814606D0B8F1660FFC
:1056D00018D0B8F1670F70D131E00020B9F1110F87
:1056E000009001DB112301E009F101030AAA01A9DD
:1056F0000CA8FFF7E4FEDDE90C70002609F10105B6
:10570000834647E001204B4600904FF000470AAA2D
:1057100001A90CA8FFF7D3FEDDE90DB00C995D4699
:10572000002610B909F101000D18B9EB050003D4EA
:10573000C0F1FF3609F10105A5EB09002BE0B9F135
:10574000010F01DA4FF001090020B9F1110F0090AB
:10575000484601DD112300E003460AAA01A90CA86E
:10576000FFF7ADFEDDE90C704D460026834620783C
:1057700000070AD4AB4500DA5D4601A8012D04DD1F
:10578000411911F8011C302907D04F4502DA17F1F1
:10579000040F04DA012082460FE06D1EEEE7002FB1
:1057A00002DCED1B3E4403E0781CA84200DD7D1CBA
:1057B000B81B00F1010A4FF000472078000703D41E
:1057C000AA4501DB4FF0FF3A0021B7F1004F0DF180
:1057D00043088DF8431024D002202B23002F01DA38
:1057E0007F422D230A21021EA0F1010000DC5FB1DF
:1057F00097FBF1FC97FBF1F201FB1C7C17460CF1C7
:10580000300C08F801CDEEE7A8F101000370218803
:10581000090501D5452100E06521A0F1010800F846
:10582000011C09980FA9A1EB0807FF1D00B1012079
:10583000411901EBEA70A1693844081A401EA061C1
:105840002078C00602D42046FFF753FB099828B100
:10585000D4E901219047206A401C20622078C006CC
:1058600022D52046FFF745FB1EE0002E04DBB345A2
:1058700002DD01A8805D00E03020D4E901219047DD
:10588000206A401C2062761CAAF101005FEA000A2F
:105890000AD1FFF7C1FDC0680168405CD4E901216D
:1058A0009047206A401C2062281EA5F10105DCDC1F
:1058B00007E0D4E9012118F8010B9047206A401C49
:1058C0002062381EA7F10107F3DC2046FFF727FB13
:1058D000032011B043E6000001694A1C0261087808
:1058E000704700B58FB0CDE9013100210591054920
:1058F0007944CDE9031011466846FFF711F90FB05E
:1059000000BD0000E5FFFFFF10B5436913B1AFF321
:10591000008001E0FFF7BCFB012010BD128800F100
:10592000240182840022C2840122EDE711684FF035
:10593000FF32E9E73A2800D2303820F02002412A2D
:1059400001D3A2F13700884201D34FF0FF307047F6
:10595000426842B1016811F8013B23B1521EC0E90F
:105960000012184670470121C160881E70474268C6
:105970005AB1C368016843B983688B4205D0491E98
:10598000521CC0E90012002070474FF0FF307047F2
:10599000007B00F08000704770B516460C46054647
:1059A000FFF790FA036893F80101012806D0FF2C55
:1059B0000FD8185D68B101202C7070BDD3F80701B5
:1059C0003246214603F2071303442846BDE87040DF
:1059D00018474FF0FF3070BD7546FFF719FDAE4612
:1059E00005006946534620F00700854618B020B5EB
:1059F000FBF79EF9BDE820404FF000064FF000078E
:105A00004FF000084FF0000B21F00701AC46ACE866
:105A1000C009ACE8C009ACE8C009ACE8C0098D46D3
:105A2000704700002DE9F0411F4604460326016837
:105A3000072A01F4006004DB08B116A505E016A5ED
:105A400003E008B115A500E015A521F010002060C5
:105A5000A069C01EA0610FB1401EA0612046FFF7E3
:105A600048FA4FB1D4E9012138469047206A401CDA
:105A70002062C01C206206E0206AFAE7D4E9012116
:105A800015F8010B9047761EF8D22046FFF747FA2B
:105A9000BDE8F0814E414E006E616E00494E4600F9
:105AA000696E66002DE9FF4F064689B00878FF2829
:105AB00006D0491C2D2805D000244FF0000908E02D
:105AC00000200CE00124F8E709EB8903491C00EBF6
:105AD00043090878FF28F7D114B1C9F100008146C5
