:020000040800F2
:10000000281C002099130008590300085B0300080E
:100010005F03000863030008670300080000000096
:100020000000000000000000000000006B0300085A
:100030006D030008000000006F030008CD100008E9
:10004000B3130008B3130008B3130008B313000878
:10005000B3130008B3130008FF410008174200085B
:100060002F420008474200085F420008B31300080F
:10007000B3130008B3130008B3130008B313000848
:10008000B3130008B3130008B3130008B313000838
:10009000B3130008B3130008B31300087742000835
:1000A000B3130008B3130008B3130008B313000818
:1000B000B3130008B3130008B3130008B313000808
:1000C000B3130008B3130008B3130008B3130008F8
:1000D000B31300080F130008B3130008B31300088C
:1000E000ED420008B3130008B3130008B31300086F
:1000F000B3130008B3130008B3130008B3130008C8
:10010000B3130008B3130008B3130008B3130008B7
:10011000B3130008B3130008B3130008B3130008A7
:10012000B3130008B3130008B3130008B313000897
:1001300000F002F800F0B0F80AA090E8000C824449
:100140008344AAF10107DA4501D100F0A5F8AFF226
:10015000090EBAE80F0013F0010F18BFFB1A43F0A5
:100160000103184714750000347500000A444FF06D
:10017000000C10F8013B13F0070408BF10F8014B06
:100180001D1108BF10F8015B641E05D010F8016B4B
:10019000641E01F8016BF9D113F0080F1EBF10F8AF
:1001A000014BAD1C0C1B09D16D1E58BF01F801CBD2
:1001B000FAD505E014F8016B01F8016B6D1EF9D555
:1001C0009142D6D37047000000230024002500266A
:1001D000103A28BF78C1FBD8520728BF30C148BFAA
:1001E0000B6070476E2905F02280702905F06F8141
:1001F000662907F0E080652907F0DD80672907F0B0
:10020000DA806129AFF3008003681B0A28BF41F040
:100210008001692904F05485642904F05185752909
:1002200004F04E856F2905F0FC80782905F03B81AC
:10023000E92905F09780E42905F09480F52905F077
:100240009180EF2905F0F980F82905F03A810368DB
:10025000DB0928BF41F08001632905F0068073297E
:1002600005F00B80E32905F06584F32905F06A8425
:10027000002070471FB505F0DBF9040000200021C5
:1002800006F026FF401C60600020002106F036FFCB
:10029000E0601FBD10B510BD05F0AAFC1146FFF7C8
:1002A000E9FF00F009F805F0C9FF03B4FFF7F2FF1A
:1002B00003BC00F0D1FF00004FF4A06001F052FE3B
:1002C00000F00DFF4FF4E13000F0D5FF102115488C
:1002D00004F082F814490869804714490868804787
:1002E00013A004F0B7FC03F02CFC03F03BFC14A0BB
:1002F00004F0B0FC00F0F0FE054611E003F083F9D5
:1003000000F0EAFE441B002C01DB204600E06042C6
:10031000C82805DD034804F0D4F800F0DDFE0546EA
:10032000ECE70000F801002088000020A400002075
:100330006D637520696E6974206F6B203B2000002F
:1003400046697874757265205265736574204F4BE9
:100350000D0A3E3E00000000704700BFFEE700BFF0
:10036000FEE700BFFEE700BFFEE77047704770473B
:100370000CB50020019000906C48006840F480307B
:100380006A49086000BF6948006800F400300090C6
:100390000198401C0190009818B90198B0F5A06F21
:1003A000F1D16248006800F4003010B101200090E3
:1003B00001E0002000900098012843D15C480068CB
:1003C00040F010005A4908600846006820F0030019
:1003D00008600846006840F0020008605348406822
:1003E000524948600846406848600846406840F402
:1003F000806048600846406820F47C1048600846E9
:10040000406840F4881048600846006840F08070FA
:10041000086000BF4548006800F000700028F9D06F
:100420004248406820F00300404948600846406860
:1004300040F00200486000BF3C48406800F00C00FB
:100440000828F9D10CBD10B5FFF792FF10BD10B50B
:100450003648006840F001003449086008464068AA
:10046000344908403149486008460068324908402C
:100470002E4908600846006820F48020086008467D
:10048000406820F4FE0048604FF41F008860FFF7CA
:10049000DAFF4FF000602949086010BD10B5002157
:1004A00000200022214B5B6803F00C0121B10429DC
:1004B00006D0082928D107E0214B224C236027E0F1
:1004C000214B204C236023E0184B5B6803F4701031
:1004D000164B5B6803F48032022303EB904022B991
:1004E0001A4B4343174C23600DE0104B5B6803F439
:1004F000003323B1164B4343124C236003E0124BED
:100500004343104C236003E00D4B0E4C236000BFAF
:1005100000BF064B5B68C3F303130E4CE15C094B51
:100520001B68CB40074C236010BD00000010024048
:10053000002002400000FFF8FFFFF6FE08ED00E09B
:1005400000127A0000000020001BB70000093D00E7
:10055000808D5B000400002010B524498868482184
:1005600003F03AFF21494868102103F035FF1F4985
:100570000869102103F030FF1C49C868102103F0FE
:100580002BFF1A49C86803F081FF1849086903F076
:100590007DFF1649486803F079FF1449C86803F0E5
:1005A00079FF10BD2DE9F04104460D46174600269F
:1005B00017E00E49086903F06DFF022000F0B7FD57
:1005C0000A49086903F062FF022000F0B0FD074A03
:1005D000516890683A4600F0E3FD04F8010B701C86
:1005E000C6B2AE42E5DBBDE8F08100001400002099
:1005F00010B51A498868102103F0EEFE17494868C3
:10060000102103F0E9FE1549C868102103F0E4FE4B
:1006100010BD2DE9F04105460E4617460F49C86842
:1006200003F038FF002407E02B5D0C4A5168906806
:100630003A4600F0E2FD641CB442F5DBBDE8F0810F
:1006400010B50649C86803F025FF022000F06FFDD1
:100650000249C86803F01AFF10BD000030000020F6
:1006600070B505460024F8480022902143682846CA
:100670009847F54800221146436828469847F248B3
:1006800000221146436828469847EF480022114649
:10069000436828469847EC480022FF2143682846D3
:1006A000984744EA0024E8480122FF21436828468D
:1006B00098470443204670BD10B50446E2480168DF
:1006C000204688472046FFF7CBFFE049088010BD51
:1006D00070B504460D46DC48012229464368204691
:1006E000984770BD70B504460025D7480022052103
:1006F000436820469847D4480122FF21436820469A
:1007000098470546284670BD70B504460D46CE484C
:1007100000220121436820469847CB480122294600
:1007200043682046984770BD2DE9F04107460C46C6
:1007300015461E46C44800220321436838469847A0
:10074000C1480022C5F30741436838469847BE4870
:100750000022C5F30721436838469847E9B2BA48F2
:10076000002243683846984709E0701E86B2B648B2
:100770000022FF2143683846984704F8010B012EF8
:10078000F3D1B1480122FF2143683846984704F865
:10079000010BBDE8F0812DE9F04107460C461546F6
:1007A0001E46A94800220B21436838469847A648B0
:1007B0000022C5F30741436838469847A248002203
:1007C000C5F30721436838469847E9B29E4800229E
:1007D0004368384698479C480022FF2143683846C2
:1007E000984709E0701E86B297480022FF214368AF
:1007F0003846984704F8010B012EF3D192480122A4
:10080000FF2143683846984704F8010BBDE8F081A2
:1008100010B5044600BF2046FFF764FF00F001005A
:100820000028F8D110BD2DE9F04107460C461546C9
:100830001E4606213846FFF74BFF8348002202215F
:1008400043683846984780480022C5F3074143680B
:10085000384698477C480022C5F30721436838464C
:100860009847E9B27848002243683846984708E03C
:10087000701E86B214F8011B734800224368384684
:100880009847012EF4D114F8011B6F4801224368E8
:10089000384698473846FFF7BBFFBDE8F0812DE9A1
:1008A000F04180460F4616461C46F0B2C0F58075F2
:1008B000AC4200DC254613E02B4632463946404622
:1008C000FFF7B1FFAC4200D10BE02F442E44601B78
:1008D00084B2B4F5807F02DD4FF4807500E02546D8
:1008E000EAE700BFBDE8F08170B505460C46240379
:1008F00006212846FFF7ECFE2846FFF789FF5248FD
:10090000002220214368284698474F480022C4F31C
:1009100007414368284698474B480022C4F3072103
:10092000436828469847E1B2474801224368284671
:1009300098472846FFF76CFF70BD2DE9FF5F894699
:1009400017461E46DFF808B14FEA1738C7F30B0AFF
:10095000CAF58054A64200DC344648E04FEA08322B
:100960004FF4805359460098FFF7DEFE002508E05B
:100970000AEB05001BF80000FF2800D003E0681C0C
:1009800085B2A542F4DB00BFA54218DA41460098C3
:10099000FFF7AAFF002507E019F8050005EB0A019B
:1009A0000BF80100681C85B2A542F5DB4FEA08325E
:1009B0004FF4805359460098FFF771FF05E0234636
:1009C0003A4649460098FFF76AFFA64200D10FE079
:1009D00008F101084FF0000AA1442744301B86B2F9
:1009E000B6F5805F02DD4FF4805400E03446B5E791
:1009F00000BFBDE8FF9F10B5044606212046FFF763
:100A000067FE2046FFF704FFC7212046FFF760FE80
:100A10002046FFF7FDFE10BD10B504460A4801222E
:100A2000B921436820469847032000F080FB10BDA1
:100A300010B5044604480122AB214368204698477C
:100A4000032000F074FB10BDF40400204C000020D3
:100A5000FC0400200FB410B5AB480268DDE90201C8
:100A6000904710BC5DF814FB37B584B014460120E4
:100A7000A649CDE900410290A348A0230122856840
:100A8000DDE90401A847A148007807B030BD3FB5B3
:100A900083B01446012006A9CDE9004102909A488E
:100AA000A02301224568DDE90301A847052000F0E5
:100AB0005DFB07B030BD37B584B0144602209349C2
:100AC000CDE9004102909048A02301228568DDE92C
:100AD0000401A8478D48008807B030BD3FB583B0FA
:100AE0001446022006A9CDE9004102908648A023C1
:100AF00001224568DDE90301A847052000F036FB27
:100B000007B030BD37B584B0144604207F49CDE925
:100B1000004102907C48A02301228568DDE90401A0
:100B2000A8477A48006807B030BD3FB583B0144687
:100B3000042006A9CDE9004102907348A0230122B8
:100B40004568DDE90301A847052000F00FFB07B069
:100B500030BD37B584B0144604206C49CDE900415E
:100B600002906948A02301228568DDE90401A847B5
:100B70006648006807B030BD3FB583B01446042016
:100B800006A9CDE9004102905F48A02301224568F3
:100B9000DDE90301A847052000F0E8FA07B030BD01
:100BA0000FB4FEB5DDE910650F9C61190C98814208
:100BB0002EDABDF82C0004280BDACDE9016500948B
:100BC0009DF82830504801228768DDE90801B847C0
:100BD0001EE0BDF82C0002280FDDBDF82C002028F7
:100BE0000BDACDE9016500949DF8283046480322D0
:100BF0008768DDE90801B8470AE0CDE9016500949E
:100C00009DF82830404802228768DDE90801B8478E
:100C1000FEBC5DF814FB0FB42DE9FE4FDDE914892D
:100C2000139C04EB09011098814269DA0FFA89F6E6
:100C30000027BA46002560E0119894FBF0F100FB14
:100C400011400FFA80FA1198B04201DA119800E0D1
:100C500030461199A1EB0A01884203DD1198A0EBFF
:100C60000A0005E01198B04201DA119800E0304620
:100C700005B2BDF83C0004280FDAA8B208EB070162
:100C8000CDE9004102909DF838301F480122D0F88C
:100C900004C0DDE90C01E04726E0BDF83C00022875
:100CA00013DDBDF83C0020280FDAA8B208EB0701DD
:100CB000CDE9004102909DF8383013480322D0F866
:100CC00004C0DDE90C01E0470EE0A9B208EB070023
:100CD000CDE9004002919DF838300B480222D0F84F
:100CE00004C0DDE90C01E047052000F03FFA701B6D
:100CF00006B2781907B2601984B2002E9CDC00BFDE
:100D0000BDE8FE0F5DF814FBE8040020740000202D
:100D100010B54821DA4803F05FFB4821D94803F0B9
:100D20005BFB4821D84803F057FB4821D74803F024
:100D300053FB4821D64803F04FFB4821D54803F028
:100D40004BFB4821D44803F047FB4821D34803F02C
:100D500043FBD3494869804710BD38B5C84803F004
:100D6000A6FB08B1312000E03020CE490870C5480C
:100D700003F09DFB08B1312000E03020C9494870E4
:100D8000C14803F094FB08B1312000E03020C54990
:100D90008870BE4803F08BFB08B1312000E03020A2
:100DA000C049C870BA4803F082FB08B1312000E0A6
:100DB0003020BC490871B74803F079FB08B13120F5
:100DC00000E03020B7494871B34803F070FB08B128
:100DD000312000E03020B3498871B04803F067FB50
:100DE00008B1312000E03020AE49C871AC48002283
:100DF0000121836968469847002410E0C4F1070187
:100E00009DF80000084100F0010008B1312100E028
:100E10003021A44A04F108001154601CC4B2082C0B
:100E2000ECDB38BD10B50446FFF797FF601E9D4907
:100E3000085C302801D0012010BD0020FCE710B56F
:100E40001021994803F0C8FA1021984803F0C4FA19
:100E50001021974803F0C0FA1021964803F0BCFA1D
:100E60001021954803F0B8FA1021944803F0B4FA21
:100E70001021934803F0B0FA1021924803F0ACFA25
:100E800091490869804790480122022143699847A7
:100E90008D498869804710BD70B504460D46192CF0
:100EA00073D2DFE804F08C0D12171C21262B30358D
:100EB000363738393A3B3C60616263646566670087
:100EC0002946794803F0EAFA7AE02946774803F0A0
:100ED000E5FA75E02946764803F0E0FA70E0294625
:100EE000744803F0DBFA6BE02946734803F0D6FA46
:100EF00066E02946714803F0D1FA61E0294670485E
:100F000003F0CCFA5CE029466E4803F0C7FA57E0DC
:100F100000BF00BF00BF00BF00BF00BF00BF4DB19A
:100F200069484078C4F110028021114108436649A4
:100F300048700FE0C4F110017F200841C4F1100196
:100F4000C1F108027F21914008435F494978084078
:100F50005D4948705C4801220221436998475A491B
:100F6000886980472CE000BF00BF00BF00BF00BF02
:100F700000BF00BF55B954480078C4F11802802161
:100F8000114108435049087010E018E0C4F11801FD
:100F90007F200841C4F11801C1F108027F2191406E
:100FA00008434949097808404749087046480122E2
:100FB00002214369984744498869804700E000BF9F
:100FC00000BF70BD70B50446204603F0B1FF102885
:100FD00055D120783038C1B2334803F05FFA6078D9
:100FE0003038C1B2314803F059FAA0783038C1B274
:100FF0002F4803F053FAE0783038C1B22D4803F09F
:101000004DFA20793038C1B22B4803F047FA6079A5
:101010003038C1B2294803F041FAA0793038C1B262
:10102000274803F03BFAE0793038C1B2254803F095
:1010300035FA002521E005F10800205C312809D1AE
:1010400021480078C5F107028021114108431E495B
:10105000087008E01C480078C5F107027F211141A3
:1010600008401949087018480122114643699847F9
:10107000154988698047681CC5B2082DDBDB70BD47
:101080006803002070030020780300208003002004
:10109000880300209003002098030020A003002074
:1010A00014000020880000204002002038020020A8
:1010B000D0020020D8020020E002002068020020B8
:1010C0007002002078020020300000202C480068C8
:1010D000401C2B490860704729480068704710B5CC
:1010E0006FF0040000F08DFF264800682649B0FB31
:1010F000F1F0264908700846007800EB4001C1EB8A
:10110000C0104FF6FF7101EAC0002149088008466F
:1011100000884FF0E02148610846006940F0020075
:1011200008610846006940F00100086110BD70B513
:10113000034600224FF0E026756903EBC30400BFAD
:10114000B16910E04FF0E026B06988420BD08842C8
:1011500002D20E1A324402E02E1A0E4432440146E4
:10116000A24200D300E0EDE700BF70BD10B5044619
:101170004FF47A7104FB01F0FFF7D9FF10BD0000B6
:10118000B40000200000002000127A00B00000200F
:10119000B200002030BF704772B6704762B6704729
:1011A0002DE9F04180460E461746002500241FE039
:1011B00037B9404603F07BF9A0402843C5B207E0A9
:1011C000404603F074F9C4F1070188402843C5B2D2
:1011D0000021304603F062F90120FFF7A8FF01214A
:1011E000304603F05BF90120FFF7A1FF601CC4B299
:1011F000082CDDDB2846BDE8F0812DE9F041804672
:101200000E4617461D46002422E05FB90120A0408B
:10121000284008B1012000E000200146404603F0CC
:101220003DF90CE0C4F1070201209040284008B1CC
:10123000012000E000200146404603F02FF9012183
:10124000304603F02BF90021304603F027F9641CE7
:10125000082CDADBBDE8F081014600BF704700BF13
:10126000494A128802F04002002AF9D0C2B2464B25
:101270001B1D1A80704710B586B00446012144F248
:10128000040001F04BF84FF40070ADF81400032097
:101290008DF8160018208DF8170005A93B4800F0BE
:1012A00089F94FF48060ADF8140004208DF8170020
:1012B00005A9364800F07EF925208DF800000320AE
:1012C0008DF801008DF8020001208DF803006846BA
:1012D00000F04DFE01940020ADF80800ADF80A00C2
:1012E000ADF80C00ADF810000C20ADF80E0001A90F
:1012F000254800F076FC012240F22551224800F0FA
:1013000008FD0121204800F0F8FC06B010BD10B522
:1013100040F225511C4800F0E1FD10B31A4800F0DE
:101320005DFDC4B21A48008800F40040C8B91848EE
:10133000008800F4804060B10A2C03D000201449DA
:10134000088020E01248008840F4004010490880DE
:1013500019E00D2C06D10E48008840F480400C495D
:10136000088010E00A480088C0F30D0009490C54B9
:1013700007480088401C0649088008460088C7289E
:1013800001DD0020088010BD003801400008014048
:10139000BC000020FC140020094880470948004791
:1013A000FEE7FEE7FEE7FEE7FEE7FEE7FEE7FEE715
:1013B000FEE7FEE704480549054A064B7047000072
:1013C0004F0400083101000828160020281C0020C6
:1013D0002818002028180020002044490860091D12
:1013E0000860091D0860091D086041483F49143123
:1013F0000860704700213D498279002A3AD00A46A8
:10140000126803689A430B461A600A1D1268036843
:101410009A430B1D1A60027911440A6803681A4343
:101420000A60324A0832126803689A432F4B083325
:101430001A601A1D126803689A432C4B0C331A6009
:101440004279102A0ED11A1F126803681A43274BDB
:1014500008331A601A1D126803681A43234B0C33B1
:101460001A600DE02149427911440A6803681A4361
:101470000A6005E0027911440A6803689A430A6029
:1014800070470021016001710C21417100218171BF
:1014900070471649103109680143144A103211602F
:1014A000704701460020114A143212680A400AB1FE
:1014B000012000E0002070470C491431086070479B
:1014C000014600200022094B1B6803EA0102074B7A
:1014D00014331B680B4013B10AB1012000E0002057
:1014E0007047024914310860704700000004014051
:1014F000FFFF0F0010B50446CC48844208D10121FB
:10150000042000F025FF0021042000F021FF46E028
:10151000C748844208D10121082000F019FF0021AA
:10152000082000F015FF3AE0C248844208D10121AA
:10153000102000F00DFF0021102000F009FF2EE028
:10154000BD48844208D10121202000F001FF002184
:10155000202000F0FDFE22E0B848844208D101219D
:10156000402000F0F5FE0021402000F0F1FE16E0E2
:10157000B348844208D10121802000F0E9FE002117
:10158000802000F0E5FE0AE0AE48844207D1012148
:10159000801500F0DDFE0021A01500F0D9FE10BD81
:1015A00010B50121084600F0D3FE0021012000F013
:1015B000CFFE10BD2DE9F041024600250026002097
:1015C00000230024002791F803C00CF00F0591F8C8
:1015D00003C00CF0100CBCF1000F03D091F802C056
:1015E0004CEA050591F800C0BCF1000F31D0146839
:1015F00000202BE04FF0010C0CFA00F3B1F800C012
:101600000CEA03069E4220D183004FF00F0C0CFA27
:1016100003F7BC4305FA03FC4CEA040491F803C049
:10162000BCF1280F06D14FF0010C0CFA00FCC2F8F7
:1016300014C00AE091F803C0BCF1480F05D14FF087
:10164000010C0CFA00FCC2F810C0401C0828D1D3D1
:101650001460B1F800C0BCF1FF0F34DD5468002005
:101660002EE000F1080C4FF0010808FA0CF3B1F875
:1016700000C00CEA03069E4221D183004FF00F0CFC
:101680000CFA03F7BC4305FA03FC4CEA040491F896
:1016900003C0BCF1280F05D100F1080C08FA0CF8C2
:1016A000C2F8148091F803C0BCF1480F07D100F1D3
:1016B000080C4FF0010808FA0CF8C2F81080401C22
:1016C0000828CED35460BDE8F0814FF6FF71018049
:1016D000022181700421C170704702460020936886
:1016E0000B400BB1012000E00020704701468868E4
:1016F00080B2704702460020D3680B400BB1012036
:1017000000E0002070470146C86880B27047016160
:101710007047416170470AB1016100E04161704763
:10172000C16070474FF480320A43826181618261F7
:1017300082698269704702460020434B18684FF661
:101740008073184040EA021008433F4B186070470E
:101750003E49C8617047F0B50A46002300240021C5
:10176000002500F00046B6F1004F02D1364EF16977
:1017700001E0354E7168C0F3034583B200F44016B2
:10178000B6F5401F08D121F070612F4E766826F023
:1017900070662D4F7E6012E000F48016B6F5801F53
:1017A00006D1032606FA05F4A14341F0706106E074
:1017B000460D360103FA06F6B14341F0706122B1DD
:1017C000460D360103FA06F6314300F00046B6F145
:1017D000004F02D11C4EF16101E01B4E7160F0BD63
:1017E00030B500228B071C0F0F2303FA04F2164BAF
:1017F00008338C1053F824309343134C08348D1065
:1018000044F8253023468C1053F824308C07240FDD
:1018100000FA04F423430C4C08348D1044F82530AE
:1018200030BD0A49DC310860704700000008014003
:10183000000C01400010014000140140001801405C
:10184000001C014000200140000001400000204237
:1018500010B50446BE48844208D10121801400F02E
:1018600077FD0021A01400F073FD16E0B948844212
:1018700008D10121001400F078FD0021201400F0AF
:1018800074FD0AE0B448844207D10121C01300F07E
:101890006CFD0021E01300F068FD10BD10B50022C2
:1018A000028802F441520B884C8823438C882343DE
:1018B000CC8823430C8923434C8923438C892343BD
:1018C000CC8923431A430280838B4FF2FF74234059
:1018D00083830B8A038210BD2DE9F04F85B0054646
:1018E0000C464FF0000902274FF000084FF0010BA3
:1018F0000026B246A88B4FF240010840A883022080
:101900002884B5F81C90A068022801D100BF38E0F7
:10191000A08810B94FF0010B01E04FF0020B8D4889
:10192000854200D100E000BF684600F08AFCDDF887
:1019300000A0E088B0F5007F0AD14FEA1A2000EB42
:1019400080004000A168B0FBF1F0401D86B20BE0C2
:101950004FEA4B10BAFBF0F000EB80004000A168AA
:10196000B0FBF1F0401D86B20A20B6FBF0F606F09F
:101970000108A6EB0800C0F34F074FF6FF7000EA1E
:101980000828022F01DBFF2F02DD02274FF000089D
:10199000E08840EA080038432884A088A1890843E9
:1019A000618808432188084340F4006040EA09093F
:1019B000A5F81C9005B0BDE8F08F002101804180A2
:1019C0008180C180018141818181C18107210182A2
:1019D00070470021018041808180C18002218160A7
:1019E00000218181704721B1028842F040020280CB
:1019F00004E002884FF6BF731A400280704721B19D
:101A0000828B42F48062828304E0828B4FF6FF3344
:101A10001A408283704730B5002400230C11012541
:101A2000A540ABB21AB185881D43858002E0858848
:101A30009D43858030BD1AB183880B43838002E0CB
:101A400083888B43838070478181704701468889F2
:101A500070474FF6FF62914204D0028842F48072D0
:101A6000028004E002884FF6FF631A40028070474C
:101A700021B1828842F00402828004E082884FF61D
:101A8000FB731A408280704702884FF2FF731A403E
:101A9000028002880A4302807047018841F4805125
:101AA0000180704721B1028842F40052028004E0B4
:101AB00002884DF6FF731A400280704702460020EC
:101AC000012901D0108B00E0908A70470146088AF6
:101AD0007047B1F5804F04D1028842F48042028001
:101AE00004E002884BF6FF731A40028070470246FA
:101AF000002013890B400BB1012000E0002070474B
:101B0000CA4302817047F0B502460020002400233A
:101B1000002501F00F070126BE40B4B20B110126CB
:101B20009E40B3B2968806EA03051689264016B190
:101B30000DB1012000E00020F0BD10B5002201F041
:101B40000F040123A3409AB2D343038110BD0000C8
:101B50000030014000380040003C004010B5044611
:101B6000FB48844209D10121880300F0F1FB0021E8
:101B70004FF4804000F0ECFB32E0F648844209D19B
:101B80000121480400F0F1FB00214FF4003000F087
:101B9000ECFB25E0F048844209D10121880400F0E3
:101BA000E4FB00214FF4802000F0DFFB18E0EB485D
:101BB000844209D10121C80400F0D7FB00214FF471
:101BC000002000F0D2FB0BE0E548844208D101215F
:101BD000080500F0CAFB00214FF4801000F0C5FB9F
:101BE00010BD2DE9F04786B005460E460024A246FA
:101BF00000BFA1460027B08900B100BF2F462C8A44
:101C00004CF6FF700440F08804432C82AC894EF6F9
:101C1000F3100440B08831890843718908430443B4
:101C2000AC81AC8A4FF6FF400440B0890443AC82DB
:101C300001A800F006FBC648874202D1DDF810A0DB
:101C400001E0DDF80CA0A88900F4004040B10AEBE7
:101C5000CA0000EB0A1031684900B0FBF1F807E058
:101C60000AEBCA0000EB0A1031688900B0FBF1F8FA
:101C70006420B8FBF0F004012009642101FB108905
:101C8000A88900F4004040B1322000EBC900B0FB4D
:101C9000F1F000F00700044308E0322000EB0910E7
:101CA0006421B0FBF1F000F00F0004432C8106B07A
:101CB000BDE8F0874FF41651016000218180C1809A
:101CC00001810C21418100218181704710B50246BC
:101CD0000020108A4FF2FF0318400B884C882343E2
:101CE0008C882343CC8823431843108210BD0021E5
:101CF000018041808180C180704721B1828942F496
:101D00000052828104E082894DF6FF731A4082817D
:101D10007047F0B50346002400260025002040F659
:101D20006A17B94200D100BF1846C1F3421401F04E
:101D30001F06012707FA06F5012C01D10C3004E03B
:101D4000022C01D1103000E014301AB107682F4383
:101D5000076002E00768AF430760F0BD1AB1838AED
:101D60000B43838202E0838A8B4383827047028A1B
:101D70004FF6F0731A400282028A0A4302827047C9
:101D800082894FF2FF731A40828182890A438281DD
:101D9000704721B1828942F00202828104E0828987
:101DA0004FF6FD731A4082817047028A4FF6DF7347
:101DB0001A400282028A0A430282704721B1028AD3
:101DC00042F48042028204E0028A4BF6FF731A401A
:101DD00002827047C1F308028280704701468888FA
:101DE000C0F308007047818941F00101818170478B
:101DF000028BD2B20283028B42EA01220283704735
:101E0000028B02F47F420283028B0A4302837047F3
:101E100021B1828A42F02002828204E0828A4FF657
:101E2000DF731A408282704721B1828A42F0100229
:101E3000828204E0828A4FF6EF731A4082827047F2
:101E400021B1828A42F00802828204E0828A4FF63F
:101E5000F7731A408282704721B1828942F40042AE
:101E6000828103E08289C2F30E028281704721B130
:101E7000828A42F40062828204E0828A4FF2FF7317
:101E80001A4082827047828A4FF6FB731A40828220
:101E9000828A0A438282704721B1828A42F002021A
:101EA000828204E0828A4FF6FD731A408282704774
:101EB00002460020B1F5007F00D100BF13880B401F
:101EC0000BB1012000E00020704701F40072B2F570
:101ED000007F00D100BFCA430280704770B5024640
:101EE000002400230025002040F66A16B14200D1EC
:101EF00000BFC1F3421501F01F03012606FA03F3E8
:101F0000012D02D19689334006E0022D02D1168AB6
:101F1000334001E0968A33400C12012606FA04F49D
:101F20001688344013B10CB1012000E0002070BDD0
:101F300010B50022002340F66A14A14200D100BF70
:101F40000A1201249440A3B2DC43048010BD0000B7
:101F5000003801400044004000480040004C004070
:101F60000050004031490143314A1160704770B55B
:101F7000002100230F22C47804B32D4C246804F4FC
:101F8000E064C4F5E064210AC1F10403CA40447866
:101F900004FA03F18478144021430901254C0678A2
:101FA000A155047804F01F050124AC4005786D119B
:101FB000AD0005F1E025C5F8004109E0047804F022
:101FC0001F050124AC401C4D0678761145F82640CB
:101FD00070BD1A4A0A400243154B1B1F1A60704716
:101FE00039B1134A121D12680243114B1B1D1A60AE
:101FF00006E00F4A121D126882430D4B1B1D1A602A
:102000007047042808D14FF0E021096941F004012C
:102010004FF0E022116107E04FF0E021096921F063
:1020200004014FF0E0221161704700000000FA0542
:102030000CED00E000E400E080E100E080FFFF1F25
:10204000DF48006840F00100DD490860084640684C
:10205000DC490840DA49486008460068DA49084027
:10206000D74908600846006820F4802008600846C8
:10207000406820F4FE0048604FF41F0088607047FD
:10208000CF49096821F48031CD4A116011460968B1
:1020900021F480211160B0F5803F03D0B0F5802F8E
:1020A0000ED106E0C649096841F48031C44A116086
:1020B00007E0C349096841F4A021C14A116000E06A
:1020C00000BF00BF704710B501460022002300206A
:1020D0004A11012A02D1BA4C236806E0022A02D131
:1020E000B74C236A01E0B64C636A01F01F02012479
:1020F00094401C400CB1012000E0002010BD38B518
:10210000002000900024002500BF3120FFF7DBFFF6
:1021100005460098401C00900098B0F5A06F01D0D3
:10212000002DF2D03120FFF7CEFF08B1012400E0EE
:102130000024204638BD01460020A14A106820F046
:10214000F80040EAC10010607047A049086070477D
:10215000024600209A4B586820F47C1042EA0103A2
:102160001843974B58607047984908667047014676
:102170000020934A506820F00300084350607047E5
:102180008F48406800F00C007047014600208C4AE0
:10219000506820F0F000084350607047014600206E
:1021A000874A506820F4E060084350607047014659
:1021B0000020834A506820F4605040EAC10050601B
:1021C000704729B17E4A527A02437D4B5A7204E02D
:1021D0007B4A527A82437A4B5A7270477B49D83194
:1021E0000860704701460020754A506820F440405E
:1021F0000843506070470021714A20321170704AC4
:1022000082F82010012802D004280AD104E001211C
:102210006B4A2032117005E00521694A20321170A5
:1022200000E000BF00BF704769490860704764491B
:10223000096A0143624A116270476549443908607E
:10224000704730B500210022002400235C4D6D68EA
:1022500005F00C0121B1042905D0082923D105E09E
:102260005C4D056022E05C4D05601FE0544D6D68DB
:1022700005F47012524D6D6805F48034022505EBAB
:1022800092421CB9554D554305600BE04C4D6D68AD
:1022900005F400351DB1524D5543056002E04E4D29
:1022A0005543056002E04B4D056000BF00BF444D43
:1022B0006D6805F0F00109094A4D6B5C0568DD4069
:1022C00045603F4D6D6805F4E061090A454D6B5C62
:1022D0004568DD4085603A4D6D6805F46051C90A76
:1022E000404D6B5C4568DD40C560354D6D6805F45B
:1022F0004041890B3C4D6B5CC568B5FBF3F505614E
:1023000030BD29B12E4A526902432D4B5A6104E077
:102310002B4A526982432A4B5A61704729B1284A95
:1023200092690243264B9A6104E0254A92698243EE
:10233000234B9A61704729B1214AD2690243204B4D
:10234000DA6104E01E4AD26982431D4BDA617047AC
:1023500029B11B4AD2680243194BDA6004E0184ADB
:10236000D2688243164BDA60704729B1144A126969
:102370000243134B1A6104E0114A12698243104B65
:102380001A61704712494039086070470F49C864A4
:1023900070470B49C87170470948406A40F0807027
:1023A00007494862704701460020054A92680A4082
:1023B0000AB1012000E0002070470149887270478F
:1023C000001002400000FFF8FFFFF6FE000042424E
:1023D0008004424200127A00001BB70000093D0051
:1023E000808D5B00BE000020CE00002009E0017857
:1023F000412905DB01785A2902DC0178203101707E
:10240000401C01780029F2D1704710B50446FEA1A6
:10241000204602F01FFE38BBFD48002142680C2018
:102420009047FB48002142680B209047F848002164
:1024300042680A209047F6480021426809209047E8
:10244000F348012142680D209047F148002142687D
:1024500010209047EE48012142680E209047EDA0E1
:1024600002F0F8FB012010BDEDA1204602F0F2FDC4
:1024700038BBE7480021426810209047E44800211B
:1024800042680D209047E248012142680E209047A3
:10249000DF48002142680C209047DD480021426857
:1024A0000B209047DA48002142680A209047D8481C
:1024B0000121426809209047DBA002F0CBFB0120FC
:1024C000D1E7DBA1204602F0C5FD38BBD048002192
:1024D000426810209047CE48002142680D20904766
:1024E000CB48012142680E209047C948002142682C
:1024F0000C209047C648002142680B209047C448F2
:102500000021426809209047C148012142680A2001
:102510009047C9A002F09EFB0120A4E7C8A1204675
:1025200002F098FD38BBBA4801214268102090475C
:10253000B748002142680D209047B5480021426805
:102540000E209047B248002142680B209047B048C7
:10255000002142680A209047AD48002142680920C6
:102560009047AB48012142680C209047B6A002F08A
:1025700071FB012077E7B6A1204602F06BFD38BB66
:10258000A3480121426810209047A14800214268D9
:102590000D2090479E48002142680E2090479C489D
:1025A000002142680C2090479948002142680A2087
:1025B000904797480021426809209047944801219C
:1025C00042680B209047A4A002F044FB01204AE798
:1025D000A3A1204602F03EFD38BB8D480121426890
:1025E000102090478A48002142680E209047884872
:1025F000002142680D20904785480021426809204B
:1026000090478348002142680A2090478048002173
:1026100042680B2090477E48002142680C2090477A
:1026200092A002F017FB01201DE793A1204602F0C3
:1026300011FD38BB7648012142681020904774484C
:10264000012142680E2090477148002142680D2008
:1026500090476F4800214268092090476C4800214C
:1026600042680A2090476A48002142680B20904740
:102670006748002142680C20904782A002F0EAFAE5
:102680000120F0E683A1204602F0E4FC38BB60485C
:1026900001214268102090475D48002142680D20CA
:1026A00090475B48002142680E209047584800211F
:1026B00042680C2090475648002142680B20904702
:1026C0005348002142680A2090475148002142683F
:1026D0000920904771A002F0BDFA0120C3E6002056
:1026E000C1E610B5044670A1204602F0B3FC48B91B
:1026F0004748002142680F2090476DA002F0AAFAD7
:10270000012010BD6DA1204602F0A4FC48B940484C
:10271000012142680F2090476AA002F09BFA012035
:10272000EFE76BA1204602F095FCC0B938480121C3
:102730004268084690473648002142680220904788
:102740003348012142680320904731480021426804
:102750000420904760A002F07DFA0120D1E761A13A
:10276000204602F077FCC0B92948002142680120C8
:1027700090472748012142680220904724480021C1
:102780004268032090472248012142680420904774
:1027900057A002F05FFA0120B3E758A1204602F0EB
:1027A00059FCC0B91A4801214268052090471848D1
:1027B0000021426806209047154801214268072001
:1027C0009047134800214268082090474DA002F02E
:1027D00041FA012095E74EA1204602F03BFC88B962
:1027E0000B480021426805209047094801214268B2
:1027F0000620904706480021426807209047044879
:1028000001218BE092E000006920647574000000F3
:10281000A40000206F6B4049204455540000000084
:1028200072206561000000006F6B4052204541003E
:1028300072206562000000006F6B4052204542002C
:1028400069206562000000006F6B4049204542002E
:1028500069206561000000006F6B40492045410020
:10286000706F776572206F6E000000006F6B4050D4
:102870004F574552204F4E00706F776572206F663C
:10288000660000006F6B40504F574552204F464640
:1028900000000000703220646F6E65006F6B405066
:1028A0003220444F4E45000061697220696E00007D
:1028B0006F6B4041495220494E000000616972200F
:1028C0006F7574006F6B40414952204F55540000A2
:1028D0007032206F70656E006F6B405032204F5029
:1028E000454E0000703220636C6F7365000000007D
:1028F0006F6B40503220434C4F5345007033206F74
:1029000070656E006F6B405033204F50454E000095
:10291000703320636C6F736500000000426808200C
:102920009047D3A002F096F90120EAE60020E8E6FD
:1029300010B50446D1A1204602F08CFB98B9D248CC
:1029400041690320884720B1CF4841690420884766
:1029500020B9CEA002F07EF9012010BDCEA002F079
:1029600079F90120F9E7CFA1204602F073FBE8B91D
:10297000C54841690320884770B1C34841690420B4
:10298000884748B1C04841690520884720B1BE4802
:1029900041690620884720B9C6A002F05BF90120F2
:1029A000DBE7C9A002F056F90120D6E7CCA120460A
:1029B00002F050FB98B9B44841690520884720B11E
:1029C000B14841690620884720B9C9A002F042F900
:1029D0000120C2E7C9A002F03DF90120BDE7CBA16B
:1029E000204602F037FB70B9A748416901208847AB
:1029F00020B9C9A002F02EF90120AEE7C9A002F06B
:102A000029F90120A9E7CAA1204602F023FB70B9E9
:102A10009D4841690220884720B9C8A002F01AF9F0
:102A200001209AE7C8A002F015F9012095E7C9A195
:102A3000204602F00FFBA0B9934841690720884760
:102A4000012809D1904841690820884720B9C5A0CC
:102A500002F000F9012080E7C6A002F0FBF8012097
:102A60007BE7C8A1204602F0F5FAA0B98648416983
:102A70000720884750B984484169082088470128C1
:102A800004D1C4A002F0E6F8012066E7C5A002F078
:102A9000E1F8012061E7C7A1204602F0DBFA20BB84
:102AA000794841690D208847012809D17648416954
:102AB0000E20884720B9C4A002F0CCF801204CE7D2
:102AC000714841690D20884750B96F4841690E200F
:102AD0008847012804D1C1A002F0BCF801203CE7DE
:102AE000C2A002F0B7F8012037E7C5A1204602F0E6
:102AF000B1FA20BB644841690F208847012809D1F9
:102B0000614841691020884720B9C2A002F0A2F8AC
:102B1000012022E75C4841690F20884750B95A4894
:102B2000416910208847012804D1BFA002F092F823
:102B3000012012E7C0A002F08DF801200DE7C3A12B
:102B4000204602F087FA20BB4F4841690920884798
:102B500048B94D4841690A20884720B9BEA002F013
:102B600079F80120F9E64848416909208847012899
:102B70000AD1454841690A208847012804D1B9A0F3
:102B800002F068F80120E8E6B9A002F063F801203D
:102B9000E3E6BBA1204602F05DFA20BB3A4841695A
:102BA0000B20884701280AD1374841690C20884703
:102BB000012804D1B5A002F04DF80120CDE632483D
:102BC00041690B20884748B92F4841690C20884744
:102BD00020B9B1A002F03EF80120BEE6B1A002F09B
:102BE00039F80120B9E60020B7E60146704710B574
:102BF00004462146AFA002F02DFA20B9AEA002F0A3
:102C000029F8012010BD0020FCE710B5044621463C
:102C1000AEA002F01FFA20B9ADA002F01BF801200F
:102C200010BD0020FCE710B5ADA002F013F8ADA078
:102C300002F010F8B6A002F00DF8C0A002F00AF8F9
:102C4000CBA002F007F8D7A002F004F8E1A002F050
:102C500001F8E9A001F0FEFFF0A001F0FBFFF8A0F1
:102C600001F0F8FF9EA001F0F5FFFEA010E20000C9
:102C70006F6B40503320434C4F5345006C65667476
:102C80002073746174757300880000206C6566742D
:102C900020747275654000006C6566742066616C16
:102CA000736540006C696768742073746174757330
:102CB000000000006C6967687420746F7563686554
:102CC00064207472756540006C6967687420746F65
:102CD00075636865642066616C7365400000000080
:102CE0007269676874207374617475730000000002
:102CF00072696768742074727565400072696768EC
:102D0000742066616C7365400000000070302073B1
:102D100074617475730000007030207472756540C2
:102D20000000000070302066616C73654000000098
:102D300070342073746174757300000070342074F3
:102D4000727565400000000070342066616C736528
:102D500040000000696E7369646520737461747566
:102D600073000000696E7369646520747275654054
:102D700000000000696E736964652066616C7365AC
:102D8000400000006F75747369646520737461742A
:102D9000757300006F75747369646520747275656E
:102DA000400000006F7574736964652066616C7320
:102DB000654000007032207570736964652073741B
:102DC0006174757300000000703220646F776E7359
:102DD000696465207472756540000000703220756A
:102DE0007073696465207472756540007032207379
:102DF000746174757320756E646566696E654000F4
:102E000070332075707369646520737461747573B1
:102E100000000000703320646F776E736964652072
:102E200074727565400000007033207570736964BA
:102E30006520747275654000703320737461747519
:102E40007320756E646566696E654000703220732C
:102E500074617475730000007032206F70656E408D
:102E600000000000703220636C6F7365400000004A
:102E7000703220756E646566696E65400000000002
:102E800070332073746174757300000070332063B5
:102E90006C6F7365400000007033206F70656E408A
:102EA00000000000703320756E646566696E6540D1
:102EB00000000000687700003C494E432D4D423130
:102EC0003631363030372D30343E00007377000015
:102ED0003C423138382D423233352D30313E0000FE
:102EE0000D0A000073772D2D2D2D2D2D2D2D2D2D1F
:102EF0002D2D2D2D2D2D2D2D2D67657420736F6695
:102F000074776172652076657273696F6E0D0A0061
:102F100068772D2D2D2D2D2D2D2D2D2D2D2D2D2D5C
:102F20002D2D2D2D2D676574206861726477617277
:102F3000652076657273696F6E0D0A0066736E2D7B
:102F40002D2D2D2D2D2D2D2D2D2D2D2D2D2D2D2DB1
:102F50002D67657420666978747572652073657273
:102F600069616C206E756D6265720D0A000000006B
:102F700066736E5B2D2D2D2D2D2D2D2D2D2D2D2D93
:102F80002D2D2D2D2D7365742066697874757265ED
:102F90002073657269616C206E756D6265720D0AD1
:102FA00000000000736E3A78782D2D2D2D2D2D2DDB
:102FB0002D2D2D2D2D2D2D2D2D73657420746865CF
:102FC000206669787475726520534E206E756D6247
:102FD00065720A00726F6D5B5D2D2D2D2D2D2D2DCF
:102FE0002D2D2D2D2D2D2D2D2D72656164206461CB
:102FF0007461730D0A000000726F6D5B5D5B5D2D87
:103000002D2D2D2D2D2D2D2D2D2D2D2D2D77726925
:1030100074652064617461730D0A000073617665E4
:1030200020696E666F2078782079797979792D2DED
:103030002D77726974652064617461730D0A0000F4
:103040007265616420696E666F2078782D2D2D2D54
:103050002D2D2D2D2D726561642064617461730DB9
:103060000A000000696E745B5D2D2D2D2D2D2D2D18
:103070002D2D2D2D2D2D2D2D2D676574207468651A
:1030800020696E707574207374617475730D0A0015
:1030900001F0E0FD28A001F0DDFD33A001F0DAFD34
:1030A0003DA001F0D7FD48A001F0D4FD4FA001F0F4
:1030B000D1FD57A001F0CEFD5EA001F0CBFD67A0D1
:1030C00001F0C8FD6EA001F0C5FD77A001F0C2FDC2
:1030D00085A001F0BFFD94A001F0BCFDA2A001F00D
:1030E000B9FDB0A001F0B6FDBD4801F0B3FDBDA033
:1030F00001F0B0FDC8A001F0ADFDD5A001F0AAFD22
:10310000D9A001F0A7FDDEA001F0A4FDE2A001F02E
:10311000A1FDE7A001F09EFDEBA001F09BFDF0A05A
:1031200001F098FDF4A001F095FDF9A001F092FDE9
:10313000FDA001F08FFD03E26F75745B5D5B5D2D9B
:103140002D2D2D2D2D2D2D2D2D2D2D2D2D736574EA
:1031500020746865206F7574707574207374617461
:1031600075730D0A00000000696E70757420787820
:103170002D2D2D2D2D2D2D2D2D2D2D2D2D676574C6
:103180002074686520696E7075742070696E207394
:1031900074617475730D0A006F757470757420789E
:1031A0007820792D2D2D2D2D2D2D2D2D2D73657400
:1031B00020746865206F75747075742070696E2056
:1031C000746F20790D0A000061697220696E2D2DDF
:1031D0002D2D2D2D2D2D2D2D2D2D2D2D2D63796C5E
:1031E000696E64657220696E0D0A00006169722063
:1031F0006F75742D2D2D2D2D2D2D2D2D2D2D2D2D2E
:103200002D63796C696E646572206F75740D0A00A8
:103210007032206F70656E2D2D2D2D2D2D2D2D2DA5
:103220002D2D2D2D2D703220636C6177206F7065F0
:103230006E0D0A00703220636C6F736520202D2D97
:103240002D2D2D2D2D2D2D2D2D703220636C617780
:1032500020636C6F73650D0A000000007033206FEF
:1032600070656E20202D2D2D2D2D2D2D2D2D2D2DEC
:103270002D703320636C6177206F70656E0D0A00CE
:10328000703320636C6F736520202D2D2D2D2D2D17
:103290002D2D2D2D2D703320636C617720636C6F85
:1032A00073650D0A00000000692064757420202DEC
:1032B0002D2D2D2D2D2D2D2D2D2D2D2D2D73776972
:1032C00074636820746F206D656173757265206426
:1032D0007574206368617267696E672063757272C6
:1032E000656E740D0A0000007220656120202D2D8E
:1032F0002D2D2D2D2D2D2D2D2D2D2D2D2D73776932
:1033000074636820746F206D6561737572652065E4
:10331000617270686F6E6541207265736973746164
:103320006E63650D0A0000007220656220202D2D5D
:103330002D2D2D2D2D2D2D2D2D2D2D2D2D737769F1
:1033400074636820746F206D6561737572652065A4
:10335000617270686F6E6542207265736973746123
:103360006E63650D0A0000006920656120202D2D27
:103370002D2D2D2D2D2D2D2D2D2D2D2D2D737769B1
:1033800074636820746F206D656173757265206564
:10339000617270686F6E65412063757272656E74DC
:1033A0000D0A00006920656220202D2D2D2D2D2D68
:1033B0002D2D2D2D2D2D2D2D2D73776974636820C6
:1033C000746F206D656173757265206561727068D8
:1033D0006F6E65422063757272656E740D0A00002F
:1033E00030760008706F776572206F6E20202D2D6B
:1033F0002D2D2D2D2D2D2D2D2D64757420636F6E8B
:103400006E65637420746F20706F776572207375BA
:1034100070706C790D0A0000706F776572206F66AE
:103420006620202D2D2D2D2D2D2D2D2D2D647574E7
:1034300020646973636F6E6E65637420746F2070AF
:103440006F77657220737570706C790D0A000000DB
:103450006C6566742073746174757320202D2D2D36
:103460002D2D2D2D2D0D0A0072696768742073743F
:103470006174757320202D2D2D2D2D2D2D0D0A00FD
:103480006C696768742073746174757320202D2DC6
:103490002D2D2D2D2D0D0A0070302F3420737461C9
:1034A00074757320202D2D2D2D2D2D2D2D0D0A0001
:1034B000696E73696465207374617475732D2D2D45
:1034C0002D2D2D2D2D0D0A006F75747369646520E7
:1034D00073746174757320202D2D2D2D2D0D0A0010
:1034E00070322073746174757320202D2D2D2D2D55
:1034F0002D2D2D2D2D0D0A007032207570736964ED
:1035000065207374617475732D2D2D2D2D0D0A009A
:103510007033207374617475732D2D2D2D2D2D2D09
:103520002D2D2D2D2D0D0A007033207570736964BB
:1035300065207374617475732D2D2D2D2D0D0A006A
:103540003EA001F087FB10BD10B50446214646A001
:1035500001F080FD18B9FFF766FB012010BD0020C7
:10356000FCE710B504462046FEF740FF2046FFF773
:10357000EBFF012800D110BD204600F0B4FB01286C
:1035800000D1F8E72046FFF740FB012800D1F2E721
:103590002046FFF72CFB012800D1ECE7204600F085
:1035A0000FFB012800D1E6E7204600F094F901283E
:1035B00000D1E0E7204600F0F1F9012800D1DAE778
:1035C000204600F029FC012800D1D4E72046FFF76F
:1035D0000CFB012800D1CEE72046FFF7A9F901280E
:1035E00000D1C8E72046FFF77CF8012800D1C2E7E8
:1035F0002046FEF70AFF012800D1BCE71CA001F01D
:1036000029FB0020B7E710B51B48008800F40040F4
:1036100098B119480478002018490855084601F067
:103620000DFB1648007810B11448FFF79AFF14A05C
:1036300001F010FB00201049088010BD506C65613E
:1036400073652073656E6420636F6D6D616E6420B9
:1036500061732061626F766520656E64207769749E
:1036600068205C725C6E0A0068656C700000000087
:103670003C4E413E00000000BC000020FC14002035
:103680000D0A3E3E0000000070B588B004460025DB
:1036900004E0002003A94855681CC5B2112DF8DBD1
:1036A000FA48007838B90120F8490870F8480268EB
:1036B000F84803C89047002C16DD112C14DA1021AD
:1036C00003AA601E4FF6FF7303EA0010CDE9012143
:1036D0000090EF48A42301228668EE4803C8B04753
:1036E000E0B1012008B070BD212C15DA002C13DDEB
:1036F000102103AA601E4FF6FF7303EA0010CDE904
:1037000001210090E248A62301228668E14803C80F
:10371000B04718B10120E5E70120E3E7002508E004
:1037200003A8405D7F2802DD002003A94855681CDE
:10373000C5B2102DF4DB00208DF81C00002C06DD36
:10374000112C04DA03A9D4A001F084FA03E003A940
:10375000D2A001F07FFA0020C4E7FEB504460D4672
:10376000CA48007838B90120C8490870C8480268BA
:10377000C84803C89047284601F0DAFBC6B2112EAC
:1037800039DA002E37DD102E01D00020A855002C8C
:1037900018DD112C16DA1021601E4FF6FF7202EAB6
:1037A0000010CDE901510090B948A42301224768D7
:1037B000B84803C8B84708B10120FEBD0520FDF791
:1037C000D5FC1AE0212C14DA002C12DD1021601E29
:1037D0004FF6FF7202EA0010CDE901510090AC48AB
:1037E000A62301224768AB4803C8B84728B1012087
:1037F000E3E70120E1E70120DFE7002C05DD112CE4
:1038000003DAA8A001F026FA02E0A8A001F022FA4B
:103810000020D2E72DE9F04104460E46A548007885
:1038200030B90120A3490870A3484168A3488847DC
:10383000304601F07DFBC5B2002C16DD42F211705E
:10384000844212DA652D10DAFA2D01DA0020705563
:10385000601E642100FB01F297480B463146476920
:103860009648B8478FA001F0F5F9BDE8F08170B532
:103870009AB005466821684601F0C4FB8D4800787F
:1038800030B901208B4908708D4801688B48884702
:10389000002D1EDD42F2117085421ADA681E642185
:1038A00000FB01F284480B46694686688348B047AE
:1038B000002408E01DF804007F2802DD00200DF838
:1038C0000400601CC4B2652CF4DB694672A001F0F0
:1038D000C1F91AB070BDF8B504467AA1204601F0CE
:1038E000B9FB40B9794988698047784978A001F0E7
:1038F000B1F90120F8BD042277A1204601F037FB81
:10390000F8B900200090261D0A226946304601F0D1
:10391000D7FAC5B2009800785D2811D10098407898
:1039200070B9002D0CDD112D0ADA6848416928466E
:103930008847074639466AA001F08CF90120D9E78B
:1039400000BF0522214668A001F011FB10BB607981
:1039500020281FD1E0793038A179303901EB81017D
:1039600000EB4100C0B20546002D12DD112D10DA2A
:103970005648416928468847302804D129465CA02A
:1039800001F068F903E029465EA001F063F9012027
:10399000B0E701E00020ADE700BFABE77CB504462F
:1039A00005225DA1204601F0E2FA90B9204601F01F
:1039B000BFFA16280DD1607D5D280AD1A07D40B9DF
:1039C00057488168601D884738A001F043F90120FD
:1039D0007CBD042253A1204601F0C9FA78BB002027
:1039E0000190201D00900A2201A9009801F068FAB8
:1039F000C5B2019800785D2822D1019840785B28F3
:103A00001ED1002D1CDD102D1ADC002000900A2292
:103A100069460198801C01F053FAC6B200980078FC
:103A20005D280DD10098407850B93D483146426834
:103A3000284690471DA001F00DF90120C8E700E0DD
:103A400000BF0622214639A001F091FAE8B9A07919
:103A5000202872D1207A3038E179303901EB8101A8
:103A600000EB4100C5B2A07A3038C0B20646002D46
:103A700062DD112D60DA2A483146426828469047B7
:103A80002CA001F0E7F80120A2E756E0E4000020B6
:103A9000E8040020D4000020202573003C25733E5C
:103AA00000000000203C4F4B3E0000003C4F4B3ECE
:103AB00000000000F80000204C000020E80000207A
:103AC000F4040020696E7075747300008800002093
:103AD0003C252E3136733E00696E745B0000000099
:103AE0003C25643E00000000696E707574000000A3
:103AF0000D0A73656E7365722564207475726E208D
:103B00006F6E00000D0A73656E7365722564207414
:103B100075726E206F6666006F7574735B000000CF
:103B2000A40000206F75745B000000006F75747056
:103B300075740000204F4B0001E0002048E700BFF3
:103B400046E73EB5F548F64C1ECC0C301EC0F34A95
:103B5000103207CA8DE80700F2480468EF480FC822
:103B6000A0473EBD10B588B0012007A9FF22CDE9CE
:103B700003210590E94A103207CA8DE80700E94899
:103B80004468E6480FC8A0479DF81C00592803D197
:103B9000E5A001F05FF811E00120E8A1FF22CDE9E6
:103BA00003210590DD4AD2E904109269CDE90102B2
:103BB0000091DC488468D9480FC8A04708B010BD00
:103BC000F0B597B004462146DDA001F043FA38BBBA
:103BD000402007A90022CDE903210590CF4AD2E970
:103BE00004109269CDE901020091CE484668CB48A5
:103BF0000FC8B047002509E007A8405D7F2803DD16
:103C0000002007A9485503E0681CC5B2402DF3DB2E
:103C100000BF07A9CBA001F01DF8012017B0F0BD2F
:103C2000207873281ED160786E281BD1A0783A289E
:103C300018D1E01C01F07CF985B2E01C0021B74AE4
:103C4000CDE904050391103207CA8DE80700B54895
:103C50008668B2480FC8B047AFF2B01000F0FAFF64
:103C60000120DBE704222146B8A001F080F90028FA
:103C700035D105460AE0281D205C5D2803D10021CE
:103C8000281D215404E0681CC0B20546402DF2DB1B
:103C900000BF002D22DD402D20DA281D205CE8B970
:103CA000681D205CD0B9201D01F042F986B2201DAC
:103CB00000219A4ACDE904060391D2E904109269E1
:103CC000CDE9010200919748876894480FC8B8472A
:103CD000AFF2282000F0BEFF01209FE701E00020A6
:103CE0009CE700BF9AE7F0B597B00646042299A179
:103CF000304601F03CF9002845D11690301D159052
:103D000000240A2216A9159801F0DAF8C4B2169810
:103D100000785D2836D1169840785B2832D1002C87
:103D200030DD652C2EDA0020159015A91698801C20
:103D300003F0C0F9C5B2159800785D2822D1159816
:103D40004078F8B90020159908701698801C01F089
:103D5000EFF887B21698801CA101704ACDE90407DC
:103D60000391103207CA8DE807006E48D0F808C0EA
:103D70006A480FC8E047AFF2CC2000F06BFF01208B
:103D800017B0F0BD00BF042272A1304601F0EFF879
:103D900000283DD11690371D00250A2216A9384665
:103DA00001F08EF885B2169800785D282FD116980C
:103DB000407860BB002D2ADD652D28DA402106AA57
:103DC0004FF6FF7000EA8510CDE904210390534AB5
:103DD000103207CA8DE807005248D0F804C04F4897
:103DE0000FC8E047002409E006A8005D7F2803DD36
:103DF000002006A9085503E0601CC4B2402CF3DB88
:103E000000BF06A94FA000F025FF0120B8E701E0A0
:103E10000020B5E700BFB3E7F0B597B005460A222A
:103E20004EA1284601F0A3F870BB0020169005F1C2
:103E30000A0600240A2216A9304601F041F8044679
:103E40001698007820281ED1ECB1642C1BD2402299
:103E50001699491C04F164004FF6FF7303EA8010C1
:103E600003AB07C32D4A103207CA8DE807002D485F
:103E700087682A480FC8B847AFF2483000F0EAFE1A
:103E8000012017B0F0BD00BF0A2237A1284601F07B
:103E90006EF800283DD1169005F10A0700260A2287
:103EA00016A9384601F00CF806461698007870BB43
:103EB0006EB3B6F5C87F2BD2402106AA06F1640086
:103EC0004FF6FF7303EA8010CDE904210390134AF3
:103ED000103207CA8DE807001248D0F804C00F4816
:103EE0000FC8E047002409E006A8005D7F2803DD35
:103EF000002006A9085503E0601CC4B2402CF3DB87
:103F000000BF06A91BA000F0A5FE0120B9E7FFE74E
:103F100001E00020B5E700BFB3E70000FC0000208F
:103F2000387500087C000020656570726F6D20692F
:103F30007320696E69746564203B2000590000009D
:103F400066736E003C252E3634733E0066736E5BDE
:103F500000000000726F6D5B000000007361766509
:103F600020696E666F2000007265616420696E666C
:103F70006F20000020252E363473000038B504462B
:103F8000FE4800788DF8000000208DF801002078B0
:103F90008DF80200607A8DF803006846FDF7E7FFB0
:103FA00038BD1CB504464821606800F015FA0121AF
:103FB0000846FEF7B3F960688079001106281CD224
:103FC000DFE800F003070B0F13170020EC4908701F
:103FD00013E00120EA4908700FE00220E849087068
:103FE0000BE00320E649087007E00420E44908706C
:103FF00003E00520E249087000BF00BF60688079D7
:1040000000F00F00102815D2DFE800F00815222F6D
:104010003C495663707D8B99A7B5C3D10020D9491F
:1040200008700120D84908600620D4490870D74993
:10403000E0680860C9E00120D24908700220D24936
:1040400008600720CD490870D149E0680860BCE0ED
:104050000220CC4908700420CB4908600820C749D9
:104060000870CC49E0680860AFE00320C5490870DB
:104070000820C54908600920C0490870C649E068A1
:104080000860A2E00420BF4908701020BE49086003
:104090000A20BA490870C149E068086095E0052027
:1040A000B84908702020B84908601720B349087043
:1040B000BB49E068086088E00620B24908704020EB
:1040C000B14908601720AD490870B649E06808603A
:1040D0007BE00720AB4908708020AB4908601720BF
:1040E000A6490870B049E06808606EE00820A5495C
:1040F00008704001A44908601720A0490870AB4926
:10410000E068086061E009209E4908704FF4007083
:104110009D490860172099490870A549E068086022
:1041200053E00A20974908704FF480609649086070
:104130002820924908709F49E068086045E00B20FC
:10414000904908704FF400608F49086028208B491F
:1041500008709949E068086037E00C2089490870C8
:104160004FF480508849086028208449087093499A
:10417000E068086029E00D20824908704FF4005083
:104180008149086028207D4908708D49E0680860F1
:104190001BE00E207B4908704FF480407A4908608C
:1041A0002820764908708749E06808600DE00F20F4
:1041B000744908704FF400407349086028206F4923
:1041C00008708149E068086000BF00BF6D48017851
:1041D0006B480078FDF704FB6B48006800900020F6
:1041E0008DF80400207A8DF8050001208DF8060076
:1041F0006846FDF7FFF82046FFF7C0FE1CBD10B56E
:104200000120FDF75DF928B1604800688047012072
:10421000FDF767F910BD10B50220FDF751F928B17F
:104220005B48006880470220FDF75BF910BD10B5C0
:104230000420FDF745F928B156480068804704205E
:10424000FDF74FF910BD10B50820FDF739F928B179
:104250005148006880470820FDF743F910BD10B5AC
:104260001020FDF72DF928B14C4800688047102038
:10427000FDF737F910BD10B52020FDF721F928B161
:104280004748006880472020FDF72BF94020FDF7C4
:1042900017F928B14348006880474020FDF721F90D
:1042A0008020FDF70DF928B13F4800688047802045
:1042B000FDF717F94FF48070FDF702F948B13B485C
:1042C00000688047414800F0FCF84FF48070FDF72B
:1042D00008F94FF40070FDF7F3F830B13448006886
:1042E00080474FF40070FDF7FCF810BD10B54FF497
:1042F0008060FDF7E5F830B12E48006880474FF444
:104300008060FDF7EEF84FF40060FDF7D9F830B1AA
:104310002948006880474FF40060FDF7E2F84FF449
:104320008050FDF7CDF830B12448006880474FF445
:104330008050FDF7D6F84FF40050FDF7C1F830B1CA
:104340001F48006880474FF40050FDF7CAF84FF44B
:104350008040FDF7B5F830B11A48006880474FF447
:104360008040FDF7BEF84FF40040FDF7A9F878B3A0
:104370001548006880474FF400402AE020010020E3
:1043800018010020190100201C0100202801002034
:104390002C010020300100203401002038010020D1
:1043A0003C01002040010020440100204801002081
:1043B0004C01002050010020540100205801002031
:1043C0005C010020600100206401002098030020AF
:1043D00001E0FDF786F810BD38B504460D463C4AAD
:1043E0002068811A904223D009DC3A49084480B100
:1043F000B0F5806F12D0B0F5006F2DD113E0B1F59C
:10440000806F1AD0B1F5006F1CD0B1F5406F23D189
:104410001DE001210420FDF781FF1DE0012108209E
:10442000FDF77CFF18E001211020FDF777FF13E076
:1044300001212020FDF772FF0EE001214020FDF751
:104440006DFF09E001218020FDF768FF04E00121F4
:104450000802FDF763FF00BF00BF182D02D01C2D1E
:1044600005D100BF01210846FDF758FF00E000BF5D
:1044700000BF8DF80350A088ADF8000003208DF830
:10448000020069462068FDF795F838BD818802680A
:1044900011617047818802685161704719B982883B
:1044A00003685A6102E0828803681A617047014616
:1044B000086880688A88104008B101207047002091
:1044C000FCE70168C968828851400268D160704782
:1044D0000014014000F8FEBF13B510210198FFF74A
:1044E0007BFF10210098FFF777FF1CBD13B510214B
:1044F0000198FFF771FF0198FFF7C8FF0098FFF7D9
:10450000C5FF0420FCF713FE0198FFF7C3FF04204A
:10451000FCF70DFE0098FFF7BDFF1CBD13B5102181
:104520000198FFF759FF0198FFF7B4FF0120FCF74E
:10453000FEFD0098FFF7AAFF0420FCF7F8FD0198A4
:10454000FFF7A4FF0420FCF7F2FD1CBD13B5002407
:1045500048210198FFF740FF0120FCF7E8FD009893
:10456000FFF794FF0120FCF7E2FD09E0601CC4B2F4
:10457000FA2C05DDDDE90001FFF7D0FF01201CBDAD
:104580000198FFF794FF0028F0D10098FFF782FF11
:104590000120FCF7CCFD0020F1E713B50098FFF7F0
:1045A00079FF10210198FFF717FF0198FFF772FFBD
:1045B0000220FCF7BCFD0098FFF768FF0220FCF723
:1045C000B6FD0098FFF766FF0220FCF7B0FD1CBDAA
:1045D00013B50098FFF75EFF10210198FFF7FCFE6E
:1045E0000198FFF753FF0220FCF7A1FD0098FFF7A9
:1045F0004DFF0220FCF79BFD0098FFF74BFF0120C9
:10460000FCF795FD1CBD37B5144610210198FFF746
:10461000E3FE0098FFF73EFF0120FCF788FD002530
:1046200016E0E1090198FFF739FF6006040E01204A
:10463000FCF77DFD0098FFF729FF0220FCF777FDCE
:104640000098FFF727FF0120FCF771FD681CC5B239
:10465000082DE6DB3EBDF7B51546082600244821A7
:104660000198FFF7B9FE002615E00220FCF75FFD78
:104670000098FFF70BFF6006040E0198FFF717FF85
:1046800008B1601CC4B20220FCF751FD0098FFF78E
:1046900001FF701CC6B2082EE7DB25B9DDE9000179
:1046A000FFF796FF03E0DDE90001FFF776FF204604
:1046B000FEBD2DE9FF4717461D46DDE90D890C9C1F
:1046C000DDE90001FFF712FF37B1012F14D0022FEF
:1046D00033D0032F73D15DE005F0FE02DDE9000168
:1046E000FFF791FFDDE90001FFF730FF18B101206E
:1046F00004B0BDE8F08700BF05F0FE02DDE900016F
:10470000FFF781FFDDE90001FFF720FF08B101207D
:10471000EEE72646E01704EB10600012A4EB002041
:10472000C2B2DDE90001FFF76EFFDDE90001FFF72E
:104730000DFF08B10220DBE757E005F0FE02DDE9DE
:104740000001FFF760FFDDE90001FFF7FFFE08B1A0
:104750000120CDE72212DDE90001FFF754FFDDE97A
:104760000001FFF7F3FE08B10220C1E72646E0177B
:1047700004EB10600012A4EB0020C2B2DDE90001DE
:10478000FFF741FFDDE90001FFF7E0FE08B102207D
:10479000AEE72AE02646E01704EB10600012FE2187
:1047A00001EB400000EA0502DDE90001FFF72BFF05
:1047B000DDE90001FFF7CAFE10B1012098E713E020
:1047C0002646E01704EB10600012A4EB0020C2B2F2
:1047D000DDE90001FFF717FFDDE90001FFF7B6FE95
:1047E00008B1022084E700E000BF00BF0CE018F829
:1047F000012BDDE90001FFF706FFDDE90001FFF70E
:10480000A5FE08B1032073E7B9F10000A9F1010189
:104810001FFA81F9EBD1DDE90001FFF77FFE0020EF
:1048200066E72DE9FF4790461D46DDE90D690C9CC2
:10483000B8F1000F09D0B8F1010F07D0B8F1020F9D
:104840002BD0B8F1030F72D158E000BFDDE90001B1
:10485000FFF74CFE05F0FE02DDE90001FFF7D3FE95
:10486000DDE90001FFF772FE18B1012004B0BDE8D8
:10487000F0872746E01704EB10600012A4EB00203D
:10488000C2B2DDE90001FFF7BEFEDDE90001FFF77E
:104890005DFE08B10220E9E75FE0DDE90001FFF716
:1048A00025FE05F0FE02DDE90001FFF7ACFEDDE9C3
:1048B0000001FFF74BFE08B10120D7E72212DDE926
:1048C0000001FFF7A0FEDDE90001FFF73FFE08B1A0
:1048D0000220CBE72746E01704EB10600012A4EBA0
:1048E0000020C2B2DDE90001FFF78DFEDDE9000125
:1048F000FFF72CFE08B10220B8E72EE0DDE9000149
:10490000FFF7F4FD2746E01704EB10600012FE21CC
:1049100001EB400000EA0502DDE90001FFF773FE4C
:10492000DDE90001FFF712FE10B101209EE713E060
:104930002746E01704EB10600012A4EB0020C2B27F
:10494000DDE90001FFF75FFEDDE90001FFF7FEFD95
:1049500008B102208AE700E000BF00BFDDE90001E6
:10496000FFF7C4FD45F00102DDE90001FFF74BFE52
:10497000DDE90001FFF7EAFD08B1032076E70AE070
:10498000A9F101001FFA80F90122DDE90001FFF71A
:1049900062FE06F8010BB9F1010FF1D10022DDE949
:1049A0000001FFF758FE06F8010BDDE90001FFF7F3
:1049B000B5FD00205AE7000010B586B004469449C2
:1049C00060680844B0B1B0F5806F24D0B0F5784F7E
:1049D00032D101210803FDF7A1FC18218D48FFF712
:1049E000FBFC18218C48FFF7F7FC18218B48FFF7D8
:1049F000F3FC22E001218803FDF79DFC1821884883
:104A0000FFF7EAFC18218748FFF7E6FC18218648E3
:104A1000FFF7E2FC11E00121C803FDF78CFC18212F
:104A20008248FFF7D9FC18218148FFF7D5FC1821EF
:104A30008048FFF7D1FC00E000BF00BF10212068D4
:104A4000FFF7CAFC2068FFF721FD6068FCF700FF54
:104A50000020ADF804004FF48270ADF8060000208D
:104A6000ADF808004FF40070ADF80E000720ADF867
:104A70001400207A022805D10020ADF80A00ADF814
:104A80000C001BE0207A30B90020ADF80A000120AC
:104A9000ADF80C0012E0207A032806D10220ADF810
:104AA0000A000020ADF80C0008E0207A012805D1AA
:104AB0000220ADF80A000120ADF80C006089ADF8C5
:104AC0001000A089ADF8120001A96068FCF7E6FEAD
:104AD00001216068FCF787FF06B010BD08B500BF74
:104AE0004268128902F00202002AF9D042689181DC
:104AF00000BF4268128902F00102002AF9D0426820
:104B00009289D2B2009208BD18B515E000BF436883
:104B10001B8903F00203002BF9D011F8013B446814
:104B2000A38100BF43681B8903F00103002BF9D068
:104B300043689B89DBB20093131EA2F10104A2B269
:104B4000E4D118BD014600BF4868008900F00200AA
:104B50000028F9D0FF204A68908100BF486800898A
:104B600000F001000028F9D04868808940B2704701
:104B700010B514E000BF43681B8903F00203002B4B
:104B8000F9D0FF234468A38100BF43681B8903F069
:104B90000103002BF9D043689B8901F8013B131EE8
:104BA000A2F10104A2B2E5D110BD2DE9F041044605
:104BB0000F46164600252068FFF76CFC06E0681CCF
:104BC000C5B2C82D02DD0020BDE8F0810221606879
:104BD000FCF78DFF0028F2D039466068FCF734FFFF
:104BE000002505E0681CC5B2C82D01DD0020EBE7FB
:104BF00001216068FCF77BFF0028F3D06068FCF7B8
:104C000025FFC5B216B12068FFF740FC2846DBE758
:104C100000C8FFBF90010020A001002098010020E3
:104C200050020020600200205802002000020020F4
:104C30001002002008020020704700000FB4044951
:104C400010B503AA029800F01DFB10BC5DF814FB20
:104C5000B80000200FB4044910B503AA029800F070
:104C600011FB10BC5DF814FBB800002070B50C46B9
:104C70000546012A05D02878800600D5EA69002378
:104C800002E0012305E05B1C934202D2E05C0028B5
:104C9000F9D1A869E618C01AA861286A18442862E0
:104CA000284600F032FA04E0D5E9012114F8010B9E
:104CB0009047B442F8D3284600F03DFA70BD00009A
:104CC0002DE9F0410646002410687529314616A5E5
:104CD00010D000F041FA002802DA404213A507E0A4
:104CE00031688A0701D512A502E0490704D511A54C
:104CF000012401E000F039FA00210A2206F124071C
:104D000009E0B0FBF2FCB0FBF2F302FB1C00303018
:104D100078541846491C0028F3D123462A463046C9
:104D2000BDE8F04100F02ABA000000002D000000AC
:104D30002B000000200000002DE9F05F89460446AA
:104D40004FF0000ADFF874B1FB44C0F820A0204601
:104D5000E1688847002874D0252806D0D4E90121CD
:104D60009047206A401C2062F1E700265F462046FB
:104D7000E16888472028054607DB312D05D27819E0
:104D800010F8200C08B10643F1E7B00701D526F072
:104D90000406C4F81CA00027C4F818A02A2D09D0C6
:104DA000284602F01AF938B304EB8708303DC8F8FA
:104DB000185019E059F8041B204604EB8702916152
:104DC000E1688847012F054618D1E069002820DAFC
:104DD00026F020061DE0D8F8180000EB800005EB57
:104DE00040003038C8F818002046E168884705467A
:104DF00002F0F3F80028EED1012F0AD02E2D08D1B1
:104E00002046E16888477F1C0546022F46F02006B1
:104E1000C4DBA069002803DA404246F00106A06125
:104E2000F00701D026F010066C2D0BD0682D09D0AC
:104E30004C2D39D06A2D35D0742D35D07A2D33D004
:104E400016E038E0E1682F4620468847B84205461C
:104E500009D16C2F26D04FF48060E16806432046CC
:104E60008847054604E06C2F1AD04FF48070064343
:104E70000DB3A5F14100192802D8203546F400668B
:104E80004A462946204626604E46FBF7ABF980B1DC
:104E900001280BD0F61D26F0070000F1080956E79F
:104EA0004020E4E78020D8E70020D6E706F1040997
:104EB0004DE7284652E7206ABDE8F09F0C28000025
:104EC0002DE9F04791460F4680460446002614F827
:104ED000015B2DB100F002F90068405DC007F6D11A
:104EE0002B2D02D02D2D18D0641E4A46394620465F
:104EF00000F0F8FA27B13968A14201D1C7F8008063
:104F00004FF0020471050BD54042002803DD00F08C
:104F1000EDF80460A007BDE8F08746F48066E4E79A
:104F20000028F8DA00F0E2F804606FF00040F2E7E1
:104F300010B5431C02E010F8011B71B18107FAD1D2
:104F40004FF0013202C88C1A8C4314EAC211F9D016
:104F5000C01A0A0603D0C01E10BDC01A10BD0A0434
:104F600001D0801E10BD0902FCD0401E10BD40EAD9
:104F7000010370B59B072ED14FF00136042A2AD3C6
:104F800008C810C99D1B9D43121F15EAC61517D0EE
:104F9000D8B2E1B2401A50EA056110D198B2A1B27C
:104FA000401A50EA05410AD123F07F4024F07F41A6
:104FB000401A50EA052102D1180EA0EB146070BD12
:104FC000A342DBD018BA21BA884201D9012070BDB2
:104FD0004FF0FF3070BD0AB9002070BD10F8013BE2
:104FE00011F8014B63B1A3420AD1521E08D010F848
:104FF000013B11F8014B1BB1A34201D1521EEDD16F
:10500000181B70BD4FF0000200B51346944696463B
:10501000203922BFA0E80C50A0E80C50B1F12001CB
:10502000BFF4F7AF090728BFA0E80C5048BF0CC079
:105030005DF804EB890028BF40F8042B08BF7047D7
:1050400048BF20F8022B11F0804F18BF00F8012B49
:10505000704700004FF0013C50F8042B51F8043B1E
:105060009A4221D1A2EB0C03934313EACC1317D13C
:1050700050F8042B51F8043B9A4215D1A2EB0C03D3
:10508000934313EACC130BD150F8042B51F8043B93
:105090009A4209D1A2EB0C03934313EACC13DBD061
:1050A0004FF00000704700BFD01A01BAB1FA81F189
:1050B00001F0180122FA01F0CB40C1F12001DBB26E
:1050C000C0B2C01A2CFA01F3D11A914311EAC311EC
:1050D000E6D17047704770477047704710B500F0D1
:1050E000A7FA001D10BD00BFE91F0000004870476F
:1050F000C415002010B5FFF7F9FF006810BD10B50A
:105100000446FFF7F3FF046010BD70B504468569DF
:105110000068C10601D5302600E02026C00707D070
:1051200070BDD4E9012130469047206A401C2062BE
:105130006D1EF6D570BD70B5044685690078C00750
:1051400007D170BDD4E9012120209047206A401C7E
:1051500020626D1EF6D570BD09684A0501D540B2C2
:105160007047C905FCD500B2704709684A0501D5EA
:10517000C0B27047C905FCD580B270472DE9F04731
:105180000D4699469246044600F1240801688806B7
:1051900004D5E06921F01001216000E00120A8425F
:1051A00001DD471B00E00027A1697A1902EB090025
:1051B000081AA0612078C00602D42046FFF7A5FF98
:1051C000002608E0D4E901211AF806009047206A79
:1051D000401C761C20624E45F4DB2078C0060AD5C0
:1051E0002046FFF792FF06E0D4E9012130209047E6
:1051F000206A401C2062381EA7F10107F4DC07E09A
:10520000D4E9012118F805009047206A401C20626B
:10521000281EA5F10105F3DC2046FFF78CFF20785E
:10522000000602D50220BDE8F0870120FBE71168E7
:105230000268006A530501D508700AE0D30501D55C
:10524000088006E0130603D5C217C1E9000200E09A
:1052500008600120704710B5436913B1AFF30080B7
:1052600001E0FFF703FD012010BD127800F12401D9
:105270000A7000224A700122EDE711684FF0FF32F8
:10528000E9E70000074B70B50D467B4400F035FCA4
:105290000446284600F088FC10B14FF0FF3070BD86
:1052A000204670BDD1BFFFFF2DE9FF5F15468A463E
:1052B0000446DFF8AC80F8440027D8E900103E46E9
:1052C000CDE9001010E03AF816106A4602A800F086
:1052D0006FFC411C07D02178890603D5E269391893
:1052E00091420DD80744761C2078800602D5E069EB
:1052F000B84205DDAE42E6DB3AF816000028E2D1FE
:10530000A069C01BA0612046FFF7FFFED8E900108E
:10531000CDE90010002017E03AF818106A4602A8FC
:1053200000F046FCB0F1FF3F81460BD000250DF1A7
:10533000080B05E0D4E901211BF8050090476D1C1E
:105340004D45F7D308F10100B0428046E4DB206A06
:10535000384420622046FFF7EEFEBDE8FF9F0000C4
:10536000B22200002DE9F0418046D21D22F0070252
:105370000025D2E90002F52915A614D0011E72F10C
:10538000000106DA0023D0EB030063EB020211A652
:1053900008E0D8F800108B0701D50FA602E04907F6
:1053A00001D50EA601251146002408F1240704E0CA
:1053B00000F042F930323A55641C50EA0102F7D14C
:1053C0002B46324621464046BDE8F041FFF7D6BEA7
:1053D000000000002D0000002B0000002000000055
:1053E00030B4002100F1240408E002F00705D208DF
:1053F000303542EA4372DB086554491C52EA030522
:10540000F3D10468002310A2250707D5A40600D411
:1054100021B1C46901230DA2641EC46130BCFFF731
:10542000ADBE10B5044621461068FFF79EFE024649
:105430002046BDE810400023D2E7D21D22F007012C
:10544000D1E90023CCE7000000000000300000009C
:10545000F0B40D460188090502D5214C7C4402E0D8
:105460001F4C7C440E34002100F1240608E002F0B9
:105470000F071209E75D42EA03721B097754491CC2
:1054800052EA0307F3D102780023120704D5702DE6
:1054900006D009B1022311342246F0BCFFF76EBEDC
:1054A00001231034F8E770B504460D462146106814
:1054B000FFF75BFE024629462046BDE87040002308
:1054C000C6E7D21D22F00703D3E90023C0E7036833
:1054D000126843F0200303600823C3610023B7E789
:1054E000142100002DE9F05F824615468B46002707
:1054F0000AF10104B9460078302801D09DB113E0CB
:1055000014F8010B0127782803D0582801D045B1A1
:105510000AE00DB1102D07D1002714F8010B10255A
:1055200002E0082500E00A250026B0460EE005FB53
:10553000080005FB06F101271FFA80F801EB104671
:10554000B6F5803F00D3B94614F8010B294600F0A8
:10555000FDFA0028EBDABBF1000F05D00FB1641E95
:1055600000E05446CBF80040B9F1000F06D0FFF739
:10557000BDFD02210160C81EBDE8F09F48EA06405B
:10558000FAE700000FB4002300B589B00CA9009120
:105590000B99CB60214B7B440693214B7B440793B3
:1055A00004236FF00042CDE901321E4A7A446B4673
:1055B00008920246002001F060FF09B05DF814FB7C
:1055C00070B506464FF0FF3015460C46324686B0A1
:1055D0000091CDE9010169460020049004A8FFF77D
:1055E000D1FF02460498211825B108B1084600E011
:1055F00020462860049800280DD0002A02DD00987B
:10560000884208D03246081B69460094CDE901045F
:1056100004A8FFF7B7FF06B070BD0000CF0500007B
:10562000E70500001301000000487047C415002082
:1056300000487047E415002030B5B0F10A024FEA87
:10564000900E71F100034EEA817EB0EB0E0061EB2B
:1056500091014FEA101E4EEA017E10EB0E0041EB65
:1056600011114FEA102E4EEA016E10EB0E0041EBC5
:1056700011214FEA104E4EEA014E10EB0E0041EBA5
:105680001141401841F100014FEAD00040EA417059
:105690004FEAD10110EB80054FEA810444EA90748F
:1056A00044EB01046D1944EB0404521BA3414FF079
:1056B000000348BF0A3200D530BD401C41F1000153
:1056C00030BD10B50446FFF709FD0068005D00F02D
:1056D000010010BD70472DE9FF4F0C461E464FF0EC
:1056E000FF378BB0D2E90001DDF860800A908A466E
:1056F000C1F30A5505B93D46002108464FF00000A8
:10570000BAF1000F00F4400005DA00EB80004FF41E
:10571000400101EA50004FEA9059B9F1010F00DD54
:10572000B9460A9850EA4A000ED044F61050A5F245
:10573000FF3545432F14B8F1000F1ED07542291EC6
:105740001EDDC9F100021CE0B8F1010F4FF00000AE
:1057500001D0302103E0F24305E02154401CB04267
:10576000FBDB30460022002121540B99C1F8088050
:10577000C1E900200FB0BDE8F08FBD1B6D1CDEE756
:105780004A4600DA694206A800F0EAFC06AB93E854
:10579000070003AB83E8070050460A9900F095FF25
:1057A0008DE80700A0F500501F3800900398002DE9
:1057B00009DD42F21F014A46084403A903906846E6
:1057C00001F01FFA08E0A0F500504A461F3803A96F
:1057D0000390684601F03DFA8DE807000004000CD4
:1057E00003D04FF0FF30410800E01046B8F1000F41
:1057F00003D00022009215461EE0751E05D4FFF767
:105800001BFF303262556D1EF9D5B34601220843A5
:1058100002D000227F1C04E02078302801D1002231
:105820007F1E002A099786D01DE0112D07DAFFF7A9
:1058300003FF303262556D1C50EA0102F5D1084376
:1058400002D00098C8B10EE00021681E05E0235C7C
:10585000625C63542254401E491C8142F7DBAB4614
:10586000A81B401E0990002004F80B000B98099A11
:10587000C0F80880C0E9002B7CE711264FF0000833
:1058800059E72DE9F04F88460446D21D22F0070162
:1058900091B0D1E90001CDE90A0101F024FB0246F3
:1058A0000B98C00F01D02D2007E02068810701D59B
:1058B0002B2002E0202101EAC000032A099001D038
:1058C000072A05DB03464146204600F0B7F90BE105
:1058D0002078800601D5E06900E00620B8F1650F68
:1058E000814606D0B8F1660F18D0B8F1670F70D1B5
:1058F00031E00020B9F1110F009001DB112301E02C
:1059000009F101030AAA01A90CA8FFF7E4FEDDE9E9
:105910000C70002609F10105834647E001204B4643
:1059200000904FF000470AAA01A90CA8FFF7D3FE88
:10593000DDE90DB00C995D46002610B909F10100B2
:105940000D18B9EB050003D4C0F1FF3609F10105CC
:10595000A5EB09002BE0B9F1010F01DA4FF00109C5
:105960000020B9F1110F0090484601DD112300E03D
:1059700003460AAA01A90CA8FFF7ADFEDDE90C70E9
:105980004D4600268346207800070AD4AB4500DA4E
:105990005D4601A8012D04DD411911F8011C3029D3
:1059A00007D04F4502DA17F1040F04DA01208246CE
:1059B0000FE06D1EEEE7002F02DCED1B3E4403E01E
:1059C000781CA84200DD7D1CB81B00F1010A4FF0D5
:1059D00000472078000703D4AA4501DB4FF0FF3AC7
:1059E0000021B7F1004F0DF143088DF8431024D08A
:1059F00002202B23002F01DA7F422D230A21021ED1
:105A0000A0F1010000DC5FB197FBF1FC97FBF1F224
:105A100001FB1C7C17460CF1300C08F801CDEEE7B9
:105A2000A8F1010003702188090501D5452100E096
:105A30006521A0F1010800F8011C09980FA9A1EB4C
:105A40000807FF1D00B10120411901EBEA70A169AF
:105A50003844081A401EA0612078C00602D42046AF
:105A6000FFF753FB099828B1D4E901219047206A38
:105A7000401C20622078C00622D52046FFF745FB57
:105A80001EE0002E04DBB34502DD01A8805D00E0CE
:105A90003020D4E901219047206A401C2062761C06
:105AA000AAF101005FEA000A0AD1FFF7C1FDC06850
:105AB0000168405CD4E901219047206A401C2062C3
:105AC000281EA5F10105DCDC07E0D4E9012118F866
:105AD000010B9047206A401C2062381EA7F1010785
